{
  "abi": [
    {
      "type": "constructor",
      "inputs": [
        {
          "name": "_decimals",
          "type": "uint256",
          "internalType": "uint256"
        },
        {
          "name": "_baseAggregator",
          "type": "address",
          "internalType": "contract AggregatorV3Interface"
        },
        {
          "name": "_quoteAggregator",
          "type": "address",
          "internalType": "contract AggregatorV3Interface"
        },
        {
          "name": "_baseStalePriceInterval",
          "type": "uint256",
          "internalType": "uint256"
        },
        {
          "name": "_quoteStalePriceInterval",
          "type": "uint256",
          "internalType": "uint256"
        }
      ],
      "stateMutability": "nonpayable"
    },
    {
      "type": "function",
      "name": "baseAggregator",
      "inputs": [],
      "outputs": [
        {
          "name": "",
          "type": "address",
          "internalType": "contract AggregatorV3Interface"
        }
      ],
      "stateMutability": "view"
    },
    {
      "type": "function",
      "name": "baseStalePriceInterval",
      "inputs": [],
      "outputs": [
        {
          "name": "",
          "type": "uint256",
          "internalType": "uint256"
        }
      ],
      "stateMutability": "view"
    },
    {
      "type": "function",
      "name": "decimals",
      "inputs": [],
      "outputs": [
        {
          "name": "",
          "type": "uint256",
          "internalType": "uint256"
        }
      ],
      "stateMutability": "view"
    },
    {
      "type": "function",
      "name": "getPrice",
      "inputs": [],
      "outputs": [
        {
          "name": "",
          "type": "uint256",
          "internalType": "uint256"
        }
      ],
      "stateMutability": "view"
    },
    {
      "type": "function",
      "name": "quoteAggregator",
      "inputs": [],
      "outputs": [
        {
          "name": "",
          "type": "address",
          "internalType": "contract AggregatorV3Interface"
        }
      ],
      "stateMutability": "view"
    },
    {
      "type": "function",
      "name": "quoteStalePriceInterval",
      "inputs": [],
      "outputs": [
        {
          "name": "",
          "type": "uint256",
          "internalType": "uint256"
        }
      ],
      "stateMutability": "view"
    },
    {
      "type": "error",
      "name": "INVALID_DECIMALS",
      "inputs": [
        {
          "name": "decimals",
          "type": "uint8",
          "internalType": "uint8"
        }
      ]
    },
    {
      "type": "error",
      "name": "INVALID_PRICE",
      "inputs": [
        {
          "name": "aggregator",
          "type": "address",
          "internalType": "address"
        },
        {
          "name": "price",
          "type": "int256",
          "internalType": "int256"
        }
      ]
    },
    {
      "type": "error",
      "name": "INVALID_STALE_PRICE_INTERVAL",
      "inputs": [
        {
          "name": "a",
          "type": "uint256",
          "internalType": "uint256"
        },
        {
          "name": "b",
          "type": "uint256",
          "internalType": "uint256"
        }
      ]
    },
    {
      "type": "error",
      "name": "NULL_ADDRESS",
      "inputs": []
    },
    {
      "type": "error",
      "name": "NULL_STALE_PRICE",
      "inputs": []
    },
    {
      "type": "error",
      "name": "STALE_PRICE",
      "inputs": [
        {
          "name": "aggregator",
          "type": "address",
          "internalType": "address"
        },
        {
          "name": "updatedAt",
          "type": "uint256",
          "internalType": "uint256"
        }
      ]
    },
    {
      "type": "error",
      "name": "SafeCastOverflowedIntToUint",
      "inputs": [
        {
          "name": "value",
          "type": "int256",
          "internalType": "int256"
        }
      ]
    }
  ],
  "bytecode": {
    "object": "0x6101206040526012608052348015610015575f80fd5b50604051610a75380380610a7583398101604081905261003491610279565b6001600160a01b038416158061005157506001600160a01b038316155b1561006f5760405163de0ce17d60e01b815260040160405180910390fd5b81158061007a575080155b15610098576040516373f9226b60e11b815260040160405180910390fd5b60808590526001600160a01b0380851660a052831660c081905260e08390526101008290526040805163313ce56760e01b8152905163313ce567916004808201926020929091908290030181865afa1580156100f6573d5f803e3d5ffd5b505050506040513d601f19601f8201168201806040525081019061011a91906102c4565b60ff1660a0516001600160a01b031663313ce5676040518163ffffffff1660e01b8152600401602060405180830381865afa15801561015b573d5f803e3d5ffd5b505050506040513d601f19601f8201168201806040525081019061017f91906102c4565b60ff161461020d5760c0516001600160a01b031663313ce5676040518163ffffffff1660e01b8152600401602060405180830381865afa1580156101c5573d5f803e3d5ffd5b505050506040513d601f19601f820116820180604052508101906101e991906102c4565b60405163b094f61d60e01b815260ff90911660048201526024015b60405180910390fd5b60c0516001600160a01b031660a0516001600160a01b031603610254578082146102545760405163b2dd8c5960e01b81526004810183905260248101829052604401610204565b50505050506102eb565b80516001600160a01b0381168114610274575f80fd5b919050565b5f805f805f60a0868803121561028d575f80fd5b8551945061029d6020870161025e565b93506102ab6040870161025e565b6060870151608090970151959894975095949392505050565b5f602082840312156102d4575f80fd5b815160ff811681146102e4575f80fd5b9392505050565b60805160a05160c05160e051610100516107036103725f395f8181610138015261036b01525f818160690152818161029001526102f601525f818160ca0152818161015d015261034a01525f818161011101528181610187015281816101b60152818161026f01526102d501525f818160a301528181610244015261031f01526107035ff3fe608060405234801561000f575f80fd5b5060043610610060575f3560e01c80630b08424914610064578063313ce5671461009e57806351f482df146100c557806398d5fdca14610104578063b9692bd21461010c578063ce52a6b414610133575b5f80fd5b61008b7f000000000000000000000000000000000000000000000000000000000000000081565b6040519081526020015b60405180910390f35b61008b7f000000000000000000000000000000000000000000000000000000000000000081565b6100ec7f000000000000000000000000000000000000000000000000000000000000000081565b6040516001600160a01b039091168152602001610095565b61008b61015a565b6100ec7f000000000000000000000000000000000000000000000000000000000000000081565b61008b7f000000000000000000000000000000000000000000000000000000000000000081565b5f7f00000000000000000000000000000000000000000000000000000000000000006001600160a01b03167f00000000000000000000000000000000000000000000000000000000000000006001600160a01b0316036102cd577f00000000000000000000000000000000000000000000000000000000000000006001600160a01b031663313ce5676040518163ffffffff1660e01b8152600401602060405180830381865afa158015610210573d5f803e3d5ffd5b505050506040513d601f19601f8201168201806040525081019061023491906104e6565b61023f90600a610601565b61026a7f0000000000000000000000000000000000000000000000000000000000000000600a61060f565b6102b47f00000000000000000000000000000000000000000000000000000000000000007f0000000000000000000000000000000000000000000000000000000000000000610394565b6102be919061061a565b6102c89190610631565b905090565b6102c861031a7f00000000000000000000000000000000000000000000000000000000000000007f0000000000000000000000000000000000000000000000000000000000000000610394565b6103457f0000000000000000000000000000000000000000000000000000000000000000600a61060f565b61038f7f00000000000000000000000000000000000000000000000000000000000000007f0000000000000000000000000000000000000000000000000000000000000000610394565b610485565b5f805f846001600160a01b031663feaf968c6040518163ffffffff1660e01b815260040160a060405180830381865afa1580156103d3573d5f803e3d5ffd5b505050506040513d601f19601f820116820180604052508101906103f7919061066e565b509350509250505f821361043557604051633e8ca01160e21b81526001600160a01b0386166004820152602481018390526044015b60405180910390fd5b8361044082426106ba565b111561047157604051632c4f4f3160e21b81526001600160a01b03861660048201526024810182905260440161042c565b61047a82610499565b925050505b92915050565b5f6104918484846104c2565b949350505050565b5f808212156104be57604051635467221960e11b81526004810183905260240161042c565b5090565b5f825f1904841183021582026104df5763ad251c275f526004601cfd5b5091020490565b5f602082840312156104f6575f80fd5b815160ff81168114610506575f80fd5b9392505050565b634e487b7160e01b5f52601160045260245ffd5b600181815b8085111561055b57815f19048211156105415761054161050d565b8085161561054e57918102915b93841c9390800290610526565b509250929050565b5f826105715750600161047f565b8161057d57505f61047f565b8160018114610593576002811461059d576105b9565b600191505061047f565b60ff8411156105ae576105ae61050d565b50506001821b61047f565b5060208310610133831016604e8410600b84101617156105dc575081810a61047f565b6105e68383610521565b805f19048211156105f9576105f961050d565b029392505050565b5f61050660ff841683610563565b5f6105068383610563565b808202811582820484141761047f5761047f61050d565b5f8261064b57634e487b7160e01b5f52601260045260245ffd5b500490565b805169ffffffffffffffffffff81168114610669575f80fd5b919050565b5f805f805f60a08688031215610682575f80fd5b61068b86610650565b94506020860151935060408601519250606086015191506106ae60808701610650565b90509295509295909350565b8181038181111561047f5761047f61050d56fea26469706673582212200e37a22716937023f4575e9c024000dd1abcae02418479387bc997479964f8dc64736f6c63430008170033",
    "linkReferences": {}
  },
  "methodIdentifiers": {
    "baseAggregator()": "b9692bd2",
    "baseStalePriceInterval()": "0b084249",
    "decimals()": "313ce567",
    "getPrice()": "98d5fdca",
    "quoteAggregator()": "51f482df",
    "quoteStalePriceInterval()": "ce52a6b4"
  },
  "id": 148
}