{
  "abi": [
    {
      "type": "constructor",
      "inputs": [
        {
          "name": "_addressProvider",
          "type": "address",
          "internalType": "address"
        },
        {
          "name": "_1inchAggregator",
          "type": "address",
          "internalType": "address"
        },
        {
          "name": "_unoswapRouter",
          "type": "address",
          "internalType": "address"
        },
        {
          "name": "_uniswapRouter",
          "type": "address",
          "internalType": "address"
        },
        {
          "name": "_uniswapV3Router",
          "type": "address",
          "internalType": "address"
        }
      ],
      "stateMutability": "nonpayable"
    },
    {
      "type": "function",
      "name": "ADDRESSES_PROVIDER",
      "inputs": [],
      "outputs": [
        {
          "name": "",
          "type": "address",
          "internalType": "contract IPoolAddressesProvider"
        }
      ],
      "stateMutability": "view"
    },
    {
      "type": "function",
      "name": "POOL",
      "inputs": [],
      "outputs": [
        {
          "name": "",
          "type": "address",
          "internalType": "contract IPool"
        }
      ],
      "stateMutability": "view"
    },
    {
      "type": "function",
      "name": "executeOperation",
      "inputs": [
        {
          "name": "assets",
          "type": "address[]",
          "internalType": "address[]"
        },
        {
          "name": "amounts",
          "type": "uint256[]",
          "internalType": "uint256[]"
        },
        {
          "name": "premiums",
          "type": "uint256[]",
          "internalType": "uint256[]"
        },
        {
          "name": "initiator",
          "type": "address",
          "internalType": "address"
        },
        {
          "name": "params",
          "type": "bytes",
          "internalType": "bytes"
        }
      ],
      "outputs": [
        {
          "name": "",
          "type": "bool",
          "internalType": "bool"
        }
      ],
      "stateMutability": "nonpayable"
    },
    {
      "type": "function",
      "name": "liquidatePositionWithFlashLoan",
      "inputs": [
        {
          "name": "sizeMarket",
          "type": "address",
          "internalType": "address"
        },
        {
          "name": "collateralToken",
          "type": "address",
          "internalType": "address"
        },
        {
          "name": "borrowToken",
          "type": "address",
          "internalType": "address"
        },
        {
          "name": "useReplacement",
          "type": "bool",
          "internalType": "bool"
        },
        {
          "name": "replacementParams",
          "type": "tuple",
          "internalType": "struct ReplacementParams",
          "components": [
            {
              "name": "minAPR",
              "type": "uint256",
              "internalType": "uint256"
            },
            {
              "name": "deadline",
              "type": "uint256",
              "internalType": "uint256"
            },
            {
              "name": "replacementBorrower",
              "type": "address",
              "internalType": "address"
            }
          ]
        },
        {
          "name": "debtPositionId",
          "type": "uint256",
          "internalType": "uint256"
        },
        {
          "name": "minimumCollateralProfit",
          "type": "uint256",
          "internalType": "uint256"
        },
        {
          "name": "swapParams",
          "type": "tuple",
          "internalType": "struct SwapParams",
          "components": [
            {
              "name": "method",
              "type": "uint8",
              "internalType": "enum SwapMethod"
            },
            {
              "name": "data",
              "type": "bytes",
              "internalType": "bytes"
            },
            {
              "name": "deadline",
              "type": "uint256",
              "internalType": "uint256"
            },
            {
              "name": "minimumReturnAmount",
              "type": "uint256",
              "internalType": "uint256"
            }
          ]
        },
        {
          "name": "supplementAmount",
          "type": "uint256",
          "internalType": "uint256"
        },
        {
          "name": "recipient",
          "type": "address",
          "internalType": "address"
        }
      ],
      "outputs": [],
      "stateMutability": "nonpayable"
    },
    {
      "type": "function",
      "name": "oneInchAggregator",
      "inputs": [],
      "outputs": [
        {
          "name": "",
          "type": "address",
          "internalType": "contract I1InchAggregator"
        }
      ],
      "stateMutability": "view"
    },
    {
      "type": "function",
      "name": "owner",
      "inputs": [],
      "outputs": [
        {
          "name": "",
          "type": "address",
          "internalType": "address"
        }
      ],
      "stateMutability": "view"
    },
    {
      "type": "function",
      "name": "recover",
      "inputs": [
        {
          "name": "token",
          "type": "address",
          "internalType": "address"
        },
        {
          "name": "to",
          "type": "address",
          "internalType": "address"
        },
        {
          "name": "amount",
          "type": "uint256",
          "internalType": "uint256"
        }
      ],
      "outputs": [],
      "stateMutability": "nonpayable"
    },
    {
      "type": "function",
      "name": "renounceOwnership",
      "inputs": [],
      "outputs": [],
      "stateMutability": "nonpayable"
    },
    {
      "type": "function",
      "name": "transferOwnership",
      "inputs": [
        {
          "name": "newOwner",
          "type": "address",
          "internalType": "address"
        }
      ],
      "outputs": [],
      "stateMutability": "nonpayable"
    },
    {
      "type": "function",
      "name": "uniswapRouter",
      "inputs": [],
      "outputs": [
        {
          "name": "",
          "type": "address",
          "internalType": "contract IUniswapV2Router02"
        }
      ],
      "stateMutability": "view"
    },
    {
      "type": "function",
      "name": "uniswapV3Router",
      "inputs": [],
      "outputs": [
        {
          "name": "",
          "type": "address",
          "internalType": "contract IUniswapV3Router"
        }
      ],
      "stateMutability": "view"
    },
    {
      "type": "function",
      "name": "unoswapRouter",
      "inputs": [],
      "outputs": [
        {
          "name": "",
          "type": "address",
          "internalType": "contract IUnoswapRouter"
        }
      ],
      "stateMutability": "view"
    },
    {
      "type": "event",
      "name": "OwnershipTransferred",
      "inputs": [
        {
          "name": "previousOwner",
          "type": "address",
          "indexed": true,
          "internalType": "address"
        },
        {
          "name": "newOwner",
          "type": "address",
          "indexed": true,
          "internalType": "address"
        }
      ],
      "anonymous": false
    },
    {
      "type": "error",
      "name": "AddressEmptyCode",
      "inputs": [
        {
          "name": "target",
          "type": "address",
          "internalType": "address"
        }
      ]
    },
    {
      "type": "error",
      "name": "AddressInsufficientBalance",
      "inputs": [
        {
          "name": "account",
          "type": "address",
          "internalType": "address"
        }
      ]
    },
    {
      "type": "error",
      "name": "FailedInnerCall",
      "inputs": []
    },
    {
      "type": "error",
      "name": "INSUFFICIENT_BALANCE",
      "inputs": []
    },
    {
      "type": "error",
      "name": "INVALID_SWAP_METHOD",
      "inputs": []
    },
    {
      "type": "error",
      "name": "NOT_AAVE_POOL",
      "inputs": []
    },
    {
      "type": "error",
      "name": "NOT_INITIATOR",
      "inputs": []
    },
    {
      "type": "error",
      "name": "NULL_ADDRESS",
      "inputs": []
    },
    {
      "type": "error",
      "name": "OwnableInvalidOwner",
      "inputs": [
        {
          "name": "owner",
          "type": "address",
          "internalType": "address"
        }
      ]
    },
    {
      "type": "error",
      "name": "OwnableUnauthorizedAccount",
      "inputs": [
        {
          "name": "account",
          "type": "address",
          "internalType": "address"
        }
      ]
    },
    {
      "type": "error",
      "name": "SafeERC20FailedOperation",
      "inputs": [
        {
          "name": "token",
          "type": "address",
          "internalType": "address"
        }
      ]
    }
  ],
  "bytecode": {
    "object": "0x61014060405234801562000011575f80fd5b50604051620028093803806200280983398101604081905262000034916200026b565b838383838833806200005f57604051631e4fbdf760e01b81525f600482015260240160405180910390fd5b6200006a8162000200565b506001600160a01b03811660808190526040805163026b1d5f60e01b8152905163026b1d5f916004808201926020929091908290030181865afa158015620000b4573d5f803e3d5ffd5b505050506040513d601f19601f82011682018060405250810190620000da9190620002d7565b6001600160a01b0390811660a0528516159050806200010057506001600160a01b038316155b806200011357506001600160a01b038216155b806200012657506001600160a01b038116155b15620001455760405163de0ce17d60e01b815260040160405180910390fd5b6001600160a01b0393841660c05291831660e0528216610100528116610120528516620001855760405163de0ce17d60e01b815260040160405180910390fd5b846001600160a01b031663026b1d5f6040518163ffffffff1660e01b8152600401602060405180830381865afa158015620001c2573d5f803e3d5ffd5b505050506040513d601f19601f82011682018060405250810190620001e89190620002d7565b6001600160a01b031660a05250620002fa9350505050565b5f80546001600160a01b038381166001600160a01b0319831681178455604051919092169283917f8be0079c531659141344cd1fd0a4f28419497f9722a3daafe3b4186f6b6457e09190a35050565b80516001600160a01b038116811462000266575f80fd5b919050565b5f805f805f60a0868803121562000280575f80fd5b6200028b866200024f565b94506200029b602087016200024f565b9350620002ab604087016200024f565b9250620002bb606087016200024f565b9150620002cb608087016200024f565b90509295509295909350565b5f60208284031215620002e8575f80fd5b620002f3826200024f565b9392505050565b60805160a05160c05160e051610100516101205161247b6200038e5f395f8181610113015281816114d4015261159301525f818161015501528181611306015261134b01525f81816101d6015281816111ef015261123601525f81816101fd015281816110b701526110fc01525f818161017c01528181610519015281816105ba0152610f3601525f60ba015261247b5ff3fe608060405234801561000f575f80fd5b50600436106100b1575f3560e01c80637535d2461161006e5780637535d246146101775780638da5cb5b1461019e578063920f5c84146101ae5780639e5892d6146101d15780639e8e3eaa146101f8578063f2fde38b1461021f575f80fd5b80630542975c146100b55780631ec82cb8146100f95780632c76d7a61461010e57806334db38eb14610135578063715018a614610148578063735de9f714610150575b5f80fd5b6100dc7f000000000000000000000000000000000000000000000000000000000000000081565b6040516001600160a01b0390911681526020015b60405180910390f35b61010c6101073660046117f4565b610232565b005b6100dc7f000000000000000000000000000000000000000000000000000000000000000081565b61010c610143366004611a0d565b610253565b61010c61059b565b6100dc7f000000000000000000000000000000000000000000000000000000000000000081565b6100dc7f000000000000000000000000000000000000000000000000000000000000000081565b5f546001600160a01b03166100dc565b6101c16101bc366004611b1b565b6105ae565b60405190151581526020016100f0565b6100dc7f000000000000000000000000000000000000000000000000000000000000000081565b6100dc7f000000000000000000000000000000000000000000000000000000000000000081565b61010c61022d366004611c12565b6106e1565b61023a610723565b61024e6001600160a01b038416838361074f565b505050565b81156102cf576040516323b872dd60e01b8152336004820152306024820152604481018390526001600160a01b038916906323b872dd906064016020604051808303815f875af11580156102a9573d5f803e3d5ffd5b505050506040513d601f19601f820116820180604052508101906102cd9190611c2d565b505b60405163b5ec748760e01b8152600481018690528a905f906001600160a01b0383169063b5ec748790602401608060405180830381865afa158015610316573d5f803e3d5ffd5b505050506040513d601f19601f8201168201806040525081019061033a9190611c48565b6020015190505f806001600160a01b0316846001600160a01b0316141590505f6040518061016001604052808f6001600160a01b031681526020018e6001600160a01b031681526020018d6001600160a01b031681526020018a8152602001898152602001836103aa57336103ac565b865b6001600160a01b0316815260200188815260200183151581526020016103d95f546001600160a01b031690565b6001600160a01b0316336001600160a01b0316146103f7575f6103f9565b8c5b151581526020018b81526020018481525090505f8160405160200161041e9190611d54565b60408051601f19818403018152600180845283830190925292505f9190602080830190803683370190505090508d815f8151811061045e5761045e611e58565b6001600160a01b0392909216602092830291909101909101526040805160018082528183019092525f918160200160208202803683370190505090506104a48987611e80565b815f815181106104b6576104b6611e58565b60209081029190910101526040805160018082528183019092525f918160200160208202803683370190505090505f815f815181106104f7576104f7611e58565b602090810291909101015260405163ab9c4b5d60e01b81526001600160a01b037f0000000000000000000000000000000000000000000000000000000000000000169063ab9c4b5d9061055a90309087908790879084908c905f90600401611f05565b5f604051808303815f87803b158015610571575f80fd5b505af1158015610583573d5f803e3d5ffd5b50505050505050505050505050505050505050505050565b6105a3610723565b6105ac5f6107ae565b565b5f336001600160a01b037f000000000000000000000000000000000000000000000000000000000000000016146105f85760405163943f9fe360e01b815260040160405180910390fd5b6001600160a01b03841630146106215760405163377d97f760e21b815260040160405180910390fd5b5f61062e83850185611f82565b90508061010001511561066c57610667815f015182602001518360400151846101400151856060015186608001518761012001516107fd565b61069c565b61069c815f0151826020015183604001518461014001518560600151866080015187610120015160200151610aa0565b6106b3816020015182604001518360c00151610b67565b506106d08b8b8b8b8b8b8760a001518860e00151895f0151610ca5565b5060019a9950505050505050505050565b6106e9610723565b6001600160a01b03811661071757604051631e4fbdf760e01b81525f60048201526024015b60405180910390fd5b610720816107ae565b50565b5f546001600160a01b031633146105ac5760405163118cdaa760e01b815233600482015260240161070e565b6040516001600160a01b0383811660248301526044820183905261024e91859182169063a9059cbb906064015b604051602081830303815290604052915060e01b6020820180516001600160e01b038381831617835250505050610fb1565b5f80546001600160a01b038381166001600160a01b0319831681178455604051919092169283917f8be0079c531659141344cd1fd0a4f28419497f9722a3daafe3b4186f6b6457e09190a35050565b6108116001600160a01b0386168886611012565b604080516060810182526001600160a01b0387168152602081018690523081830152905188915f91630cf8542f60e01b9161084e9160240161208b565b60408051601f19818403018152918152602080830180516001600160e01b03166001600160e01b03199590951694909417909352805160a081018252888152868201516001600160a01b039081168286019081528284018a81529589015160608401908152895160809094019384529351602481018c90529051909116604482015293516064850152905160848401525160a483015291505f90633e3c119b60e01b9060c4015b60408051601f19818403018152918152602080830180516001600160e01b03166001600160e01b03199095169490941790935280516060810182526001600160a01b038d1681525f19938101939093523083820152519092505f9163015a64d160e51b91610966919060240161208b565b60408051601f19818403018152918152602080830180516001600160e01b03166001600160e01b0319959095169490941790935280516003808252608082019092529193505f9282015b60608152602001906001900390816109b057905050905083815f815181106109da576109da611e58565b602002602001018190525082816001815181106109f9576109f9611e58565b60200260200101819052508181600281518110610a1857610a18611e58565b6020908102919091010152604051631592ca1b60e31b81526001600160a01b0386169063ac9650d890610a4f9084906004016120b9565b5f604051808303815f875af1158015610a6a573d5f803e3d5ffd5b505050506040513d5f823e601f3d908101601f19168201604052610a91919081019061213d565b50505050505050505050505050565b610ab46001600160a01b0386168886611012565b604080516060810182526001600160a01b0387168152602081018690523081830152905188915f91630cf8542f60e01b91610af19160240161208b565b60408051601f19818403018152918152602080830180516001600160e01b03166001600160e01b0319959095169490941790935280516060810182528881529283018781529281018681529051602481018990529251604484015251606483015291505f9063e05001f560e01b906084016108f5565b5f8082516003811115610b7c57610b7c611c97565b03610b9c57610b958484846020015185606001516110a7565b9050610c9e565b600182516003811115610bb157610bb1611c97565b03610be9575f8260200151806020019051810190610bcf919061221e565b9050610be185858386606001516111df565b915050610c9e565b600282516003811115610bfe57610bfe611c97565b03610c33575f8260200151806020019051810190610c1c9190612239565b9050610be1858583866040015187606001516112f6565b600382516003811115610c4857610c48611c97565b03610c85575f808360200151806020019051810190610c6791906122cd565b91509150610c7c868684848860600151611459565b92505050610c9e565b60405163061bb5fd60e51b815260040160405180910390fd5b9392505050565b5f85855f818110610cb857610cb8611e58565b9050602002013588885f818110610cd157610cd1611e58565b90506020020135610ce2919061230c565b90505f8a8a5f818110610cf757610cf7611e58565b9050602002016020810190610d0c9190611c12565b6040516370a0823160e01b81523060048201526001600160a01b0391909116906370a0823190602401602060405180830381865afa158015610d50573d5f803e3d5ffd5b505050506040513d601f19601f82011682018060405250810190610d74919061231f565b905081811015610d9757604051632858f9ab60e11b815260040160405180910390fd5b5f610da28383611e80565b90508415610e9657610de684828e8e5f818110610dc157610dc1611e58565b9050602002016020810190610dd69190611c12565b6001600160a01b03169190611012565b836001600160a01b0316630cf8542f60405180606001604052808f8f5f818110610e1257610e12611e58565b9050602002016020810190610e279190611c12565b6001600160a01b03168152602001848152602001896001600160a01b03168152506040518263ffffffff1660e01b8152600401610e64919061208b565b5f604051808303815f87803b158015610e7b575f80fd5b505af1158015610e8d573d5f803e3d5ffd5b50505050610f31565b8b8b5f818110610ea857610ea8611e58565b9050602002016020810190610ebd9190611c12565b60405163a9059cbb60e01b81526001600160a01b03888116600483015260248201849052919091169063a9059cbb906044016020604051808303815f875af1158015610f0b573d5f803e3d5ffd5b505050506040513d601f19601f82011682018060405250810190610f2f9190611c2d565b505b610fa37f000000000000000000000000000000000000000000000000000000000000000089895f818110610f6757610f67611e58565b905060200201358c8c5f818110610f8057610f80611e58565b90506020020135610f91919061230c565b8e8e5f818110610dc157610dc1611e58565b505050505050505050505050565b5f610fc56001600160a01b0384168361160a565b905080515f14158015610fe9575080806020019051810190610fe79190611c2d565b155b1561024e57604051635274afe760e01b81526001600160a01b038416600482015260240161070e565b604080516001600160a01b038416602482015260448082018490528251808303909101815260649091019091526020810180516001600160e01b031663095ea7b360e01b1790526110638482611620565b6110a1576040516001600160a01b0384811660248301525f604483015261109791869182169063095ea7b39060640161077c565b6110a18482610fb1565b50505050565b5f6110dd6001600160a01b0386167f00000000000000000000000000000000000000000000000000000000000000005f19611012565b6040516370a0823160e01b81523060048201525f906001600160a01b037f0000000000000000000000000000000000000000000000000000000000000000811691632506c01891899189918316906370a0823190602401602060405180830381865afa15801561114f573d5f803e3d5ffd5b505050506040513d601f19601f82011682018060405250810190611173919061231f565b87896040518663ffffffff1660e01b8152600401611195959493929190612336565b6020604051808303815f875af11580156111b1573d5f803e3d5ffd5b505050506040513d601f19601f820116820180604052508101906111d5919061231f565b9695505050505050565b5f6112156001600160a01b0386167f00000000000000000000000000000000000000000000000000000000000000005f19611012565b6040516370a0823160e01b815230600482018190525f916001600160a01b037f00000000000000000000000000000000000000000000000000000000000000008116926380ff88079290918a91908216906370a0823190602401602060405180830381865afa15801561128a573d5f803e3d5ffd5b505050506040513d601f19601f820116820180604052508101906112ae919061231f565b6040516001600160e01b031960e086901b1681526001600160a01b0393841660048201529183166024830152604482015260648101879052908716608482015260a401611195565b5f61132c6001600160a01b0387167f00000000000000000000000000000000000000000000000000000000000000005f19611012565b6040516370a0823160e01b81523060048201525f906001600160a01b037f00000000000000000000000000000000000000000000000000000000000000008116916338ed1739918a16906370a0823190602401602060405180830381865afa15801561139a573d5f803e3d5ffd5b505050506040513d601f19601f820116820180604052508101906113be919061231f565b858830896040518663ffffffff1660e01b81526004016113e295949392919061236f565b5f604051808303815f875af11580156113fd573d5f803e3d5ffd5b505050506040513d5f823e601f3d908101601f1916820160405261142491908101906123aa565b905080600182516114359190611e80565b8151811061144557611445611e58565b602002602001015191505095945050505050565b6040516370a0823160e01b81523060048201525f9081906001600160a01b038816906370a0823190602401602060405180830381865afa15801561149f573d5f803e3d5ffd5b505050506040513d601f19601f820116820180604052508101906114c3919061231f565b90506114f96001600160a01b0388167f000000000000000000000000000000000000000000000000000000000000000083611012565b6040805160e0810182526001600160a01b0389811682528881166020830190815262ffffff89811684860190815230606086019081526080860188815260a087018b81528c871660c0890190815298516304e45aaf60e01b8152885188166004820152955187166024870152925190931660448501525184166064840152905160848301525160a48201529251811660c484015290915f917f000000000000000000000000000000000000000000000000000000000000000016906304e45aaf9060e4016020604051808303815f875af11580156115d9573d5f803e3d5ffd5b505050506040513d601f19601f820116820180604052508101906115fd919061231f565b9998505050505050505050565b606061161783835f6116c1565b90505b92915050565b5f805f846001600160a01b03168460405161163b919061242a565b5f604051808303815f865af19150503d805f8114611674576040519150601f19603f3d011682016040523d82523d5f602084013e611679565b606091505b50915091508180156116a35750805115806116a35750808060200190518101906116a39190611c2d565b80156116b857505f856001600160a01b03163b115b95945050505050565b6060814710156116e65760405163cd78605960e01b815230600482015260240161070e565b5f80856001600160a01b03168486604051611701919061242a565b5f6040518083038185875af1925050503d805f811461173b576040519150601f19603f3d011682016040523d82523d5f602084013e611740565b606091505b50915091506111d58683836060826117605761175b826117a7565b610c9e565b815115801561177757506001600160a01b0384163b155b156117a057604051639996b31560e01b81526001600160a01b038516600482015260240161070e565b5080610c9e565b8051156117b75780518082602001fd5b604051630a12f52160e11b815260040160405180910390fd5b6001600160a01b0381168114610720575f80fd5b80356117ef816117d0565b919050565b5f805f60608486031215611806575f80fd5b8335611811816117d0565b92506020840135611821816117d0565b929592945050506040919091013590565b8015158114610720575f80fd5b80356117ef81611832565b634e487b7160e01b5f52604160045260245ffd5b604051608081016001600160401b03811182821017156118805761188061184a565b60405290565b60405161016081016001600160401b03811182821017156118805761188061184a565b604051601f8201601f191681016001600160401b03811182821017156118d1576118d161184a565b604052919050565b5f606082840312156118e9575f80fd5b604051606081018181106001600160401b038211171561190b5761190b61184a565b80604052508091508235815260208301356020820152604083013561192f816117d0565b6040919091015292915050565b5f6001600160401b038211156119545761195461184a565b50601f01601f191660200190565b5f60808284031215611972575f80fd5b61197a61185e565b905081356004811061198a575f80fd5b81526020828101356001600160401b038111156119a5575f80fd5b8301601f810185136119b5575f80fd5b80356119c86119c38261193c565b6118a9565b81815286848385010111156119db575f80fd5b81848401858301375f848383010152808486015250505050604082013560408201526060820135606082015292915050565b5f805f805f805f805f806101808b8d031215611a27575f80fd5b8a35611a32816117d0565b995060208b0135611a42816117d0565b985060408b0135611a52816117d0565b975060608b0135611a6281611832565b9650611a718c60808d016118d9565b955060e08b013594506101008b013593506101208b01356001600160401b03811115611a9b575f80fd5b611aa78d828e01611962565b9350506101408b013591506101608b0135611ac1816117d0565b809150509295989b9194979a5092959850565b5f8083601f840112611ae4575f80fd5b5081356001600160401b03811115611afa575f80fd5b6020830191508360208260051b8501011115611b14575f80fd5b9250929050565b5f805f805f805f805f60a08a8c031215611b33575f80fd5b89356001600160401b0380821115611b49575f80fd5b611b558d838e01611ad4565b909b50995060208c0135915080821115611b6d575f80fd5b611b798d838e01611ad4565b909950975060408c0135915080821115611b91575f80fd5b611b9d8d838e01611ad4565b909750955060608c01359150611bb2826117d0565b90935060808b01359080821115611bc7575f80fd5b818c0191508c601f830112611bda575f80fd5b813581811115611be8575f80fd5b8d6020828501011115611bf9575f80fd5b6020830194508093505050509295985092959850929598565b5f60208284031215611c22575f80fd5b8135610c9e816117d0565b5f60208284031215611c3d575f80fd5b8151610c9e81611832565b5f60808284031215611c58575f80fd5b611c6061185e565b8251611c6b816117d0565b808252506020830151602082015260408301516040820152606083015160608201528091505092915050565b634e487b7160e01b5f52602160045260245ffd5b5f5b83811015611cc5578181015183820152602001611cad565b50505f910152565b5f8151808452611ce4816020860160208601611cab565b601f01601f19169290920160200192915050565b5f815160048110611d1757634e487b7160e01b5f52602160045260245ffd5b80845250602082015160806020850152611d346080850182611ccd565b905060408301516040850152606083015160608501528091505092915050565b60208152611d6e6020820183516001600160a01b03169052565b5f6020830151611d8960408401826001600160a01b03169052565b5060408301516001600160a01b03811660608401525060608301516080830152608083015160a083015260a0830151611dcd60c08401826001600160a01b03169052565b5060c08301516101a08060e0850152611dea6101c0850183611cf8565b915060e0850151610100611e018187018315159052565b8601519050610120611e168682018315159052565b8601519050610140611e478682018380518252602080820151908301526040908101516001600160a01b0316910152565b959095015193019290925250919050565b634e487b7160e01b5f52603260045260245ffd5b634e487b7160e01b5f52601160045260245ffd5b8181038181111561161a5761161a611e6c565b5f815180845260208085019450602084015f5b83811015611ecb5781516001600160a01b031687529582019590820190600101611ea6565b509495945050505050565b5f815180845260208085019450602084015f5b83811015611ecb57815187529582019590820190600101611ee9565b5f60018060a01b03808a16835260e06020840152611f2660e084018a611e93565b8381036040850152611f38818a611ed6565b90508381036060850152611f4c8189611ed6565b9050818716608085015283810360a0850152611f688187611ccd565b9250505061ffff831660c083015298975050505050505050565b5f60208284031215611f92575f80fd5b81356001600160401b0380821115611fa8575f80fd5b908301906101a08286031215611fbc575f80fd5b611fc4611886565b611fcd836117e4565b8152611fdb602084016117e4565b6020820152611fec604084016117e4565b6040820152606083013560608201526080830135608082015261201160a084016117e4565b60a082015260c083013582811115612027575f80fd5b61203387828601611962565b60c08301525061204560e0840161183f565b60e0820152610100915061205a82840161183f565b82820152610120915061206f868385016118d9565b8282015261018083013561014082015280935050505092915050565b6060810161161a828480516001600160a01b0390811683526020808301519084015260409182015116910152565b5f60208083016020845280855180835260408601915060408160051b8701019250602087015f5b8281101561210e57603f198886030184526120fc858351611ccd565b945092850192908501906001016120e0565b5092979650505050505050565b5f6001600160401b038211156121335761213361184a565b5060051b60200190565b5f602080838503121561214e575f80fd5b82516001600160401b0380821115612164575f80fd5b818501915085601f830112612177575f80fd5b81516121856119c38261211b565b81815260059190911b830184019084810190888311156121a3575f80fd5b8585015b83811015612211578051858111156121bd575f80fd5b8601603f81018b136121cd575f80fd5b8781015160406121df6119c38361193c565b8281528d828486010111156121f2575f80fd5b612201838c8301848701611cab565b86525050509186019186016121a7565b5098975050505050505050565b5f6020828403121561222e575f80fd5b8151610c9e816117d0565b5f602080838503121561224a575f80fd5b82516001600160401b0381111561225f575f80fd5b8301601f8101851361226f575f80fd5b805161227d6119c38261211b565b81815260059190911b8201830190838101908783111561229b575f80fd5b928401925b828410156122c25783516122b3816117d0565b825292840192908401906122a0565b979650505050505050565b5f80604083850312156122de575f80fd5b825162ffffff811681146122f0575f80fd5b6020840151909250612301816117d0565b809150509250929050565b8082018082111561161a5761161a611e6c565b5f6020828403121561232f575f80fd5b5051919050565b6001600160a01b03868116825285166020820152604081018490526060810183905260a0608082018190525f906122c290830184611ccd565b85815284602082015260a060408201525f61238d60a0830186611e93565b6001600160a01b0394909416606083015250608001529392505050565b5f60208083850312156123bb575f80fd5b82516001600160401b038111156123d0575f80fd5b8301601f810185136123e0575f80fd5b80516123ee6119c38261211b565b81815260059190911b8201830190838101908783111561240c575f80fd5b928401925b828410156122c257835182529284019290840190612411565b5f825161243b818460208701611cab565b919091019291505056fea2646970667358221220a3d66d8fa96f2d776f8006a0b023f6c46427e402d57cb0c58d6660ef210d824764736f6c63430008170033",
    "linkReferences": {}
  },
  "methodIdentifiers": {
    "ADDRESSES_PROVIDER()": "0542975c",
    "POOL()": "7535d246",
    "executeOperation(address[],uint256[],uint256[],address,bytes)": "920f5c84",
    "liquidatePositionWithFlashLoan(address,address,address,bool,(uint256,uint256,address),uint256,uint256,(uint8,bytes,uint256,uint256),uint256,address)": "34db38eb",
    "oneInchAggregator()": "9e8e3eaa",
    "owner()": "8da5cb5b",
    "recover(address,address,uint256)": "1ec82cb8",
    "renounceOwnership()": "715018a6",
    "transferOwnership(address)": "f2fde38b",
    "uniswapRouter()": "735de9f7",
    "uniswapV3Router()": "2c76d7a6",
    "unoswapRouter()": "9e5892d6"
  },
  "id": 100
}