{
  "abi": [
    {
      "type": "constructor",
      "inputs": [
        {
          "name": "_1inchAggregator",
          "type": "address",
          "internalType": "address"
        },
        {
          "name": "_unoswapRouter",
          "type": "address",
          "internalType": "address"
        },
        {
          "name": "_uniswapRouter",
          "type": "address",
          "internalType": "address"
        },
        {
          "name": "_uniswapV3Router",
          "type": "address",
          "internalType": "address"
        }
      ],
      "stateMutability": "nonpayable"
    },
    {
      "type": "function",
      "name": "MAX_ITERATIONS",
      "inputs": [],
      "outputs": [
        {
          "name": "",
          "type": "uint256",
          "internalType": "uint256"
        }
      ],
      "stateMutability": "view"
    },
    {
      "type": "function",
      "name": "currentLeveragePercent",
      "inputs": [
        {
          "name": "size",
          "type": "address",
          "internalType": "contract ISize"
        },
        {
          "name": "account",
          "type": "address",
          "internalType": "address"
        }
      ],
      "outputs": [
        {
          "name": "",
          "type": "uint256",
          "internalType": "uint256"
        }
      ],
      "stateMutability": "view"
    },
    {
      "type": "function",
      "name": "getActionsBitmap",
      "inputs": [],
      "outputs": [
        {
          "name": "",
          "type": "uint256",
          "internalType": "ActionsBitmap"
        }
      ],
      "stateMutability": "pure"
    },
    {
      "type": "function",
      "name": "getPtSellerTokenOut",
      "inputs": [
        {
          "name": "market",
          "type": "address",
          "internalType": "address"
        },
        {
          "name": "tokenOutIsYieldToken",
          "type": "bool",
          "internalType": "bool"
        }
      ],
      "outputs": [
        {
          "name": "",
          "type": "address",
          "internalType": "address"
        }
      ],
      "stateMutability": "view"
    },
    {
      "type": "function",
      "name": "leverageUpWithSwap",
      "inputs": [
        {
          "name": "size",
          "type": "address",
          "internalType": "contract ISize"
        },
        {
          "name": "sellCreditMarketParamsArray",
          "type": "tuple[]",
          "internalType": "struct SellCreditMarketParams[]",
          "components": [
            {
              "name": "lender",
              "type": "address",
              "internalType": "address"
            },
            {
              "name": "creditPositionId",
              "type": "uint256",
              "internalType": "uint256"
            },
            {
              "name": "amount",
              "type": "uint256",
              "internalType": "uint256"
            },
            {
              "name": "tenor",
              "type": "uint256",
              "internalType": "uint256"
            },
            {
              "name": "deadline",
              "type": "uint256",
              "internalType": "uint256"
            },
            {
              "name": "maxAPR",
              "type": "uint256",
              "internalType": "uint256"
            },
            {
              "name": "exactAmountIn",
              "type": "bool",
              "internalType": "bool"
            }
          ]
        },
        {
          "name": "tokenIn",
          "type": "address",
          "internalType": "address"
        },
        {
          "name": "amount",
          "type": "uint256",
          "internalType": "uint256"
        },
        {
          "name": "leveragePercent",
          "type": "uint256",
          "internalType": "uint256"
        },
        {
          "name": "borrowPercent",
          "type": "uint256",
          "internalType": "uint256"
        },
        {
          "name": "swapParamsArray",
          "type": "tuple[]",
          "internalType": "struct SwapParams[]",
          "components": [
            {
              "name": "method",
              "type": "uint8",
              "internalType": "enum SwapMethod"
            },
            {
              "name": "data",
              "type": "bytes",
              "internalType": "bytes"
            }
          ]
        }
      ],
      "outputs": [],
      "stateMutability": "nonpayable"
    },
    {
      "type": "function",
      "name": "maxLeveragePercent",
      "inputs": [
        {
          "name": "size",
          "type": "address",
          "internalType": "contract ISize"
        }
      ],
      "outputs": [
        {
          "name": "",
          "type": "uint256",
          "internalType": "uint256"
        }
      ],
      "stateMutability": "view"
    },
    {
      "type": "function",
      "name": "oneInchAggregator",
      "inputs": [],
      "outputs": [
        {
          "name": "",
          "type": "address",
          "internalType": "contract I1InchAggregator"
        }
      ],
      "stateMutability": "view"
    },
    {
      "type": "function",
      "name": "uniswapV2Router",
      "inputs": [],
      "outputs": [
        {
          "name": "",
          "type": "address",
          "internalType": "contract IUniswapV2Router02"
        }
      ],
      "stateMutability": "view"
    },
    {
      "type": "function",
      "name": "uniswapV3Router",
      "inputs": [],
      "outputs": [
        {
          "name": "",
          "type": "address",
          "internalType": "contract IUniswapV3Router"
        }
      ],
      "stateMutability": "view"
    },
    {
      "type": "function",
      "name": "unoswapRouter",
      "inputs": [],
      "outputs": [
        {
          "name": "",
          "type": "address",
          "internalType": "contract IUnoswapRouter"
        }
      ],
      "stateMutability": "view"
    },
    {
      "type": "event",
      "name": "LogCurrentLeverage",
      "inputs": [
        {
          "name": "currentLeveragePercent",
          "type": "uint256",
          "indexed": false,
          "internalType": "uint256"
        },
        {
          "name": "leveragePercent",
          "type": "uint256",
          "indexed": false,
          "internalType": "uint256"
        }
      ],
      "anonymous": false
    },
    {
      "type": "event",
      "name": "Loop",
      "inputs": [
        {
          "name": "i",
          "type": "uint256",
          "indexed": false,
          "internalType": "uint256"
        }
      ],
      "anonymous": false
    },
    {
      "type": "error",
      "name": "AddressEmptyCode",
      "inputs": [
        {
          "name": "target",
          "type": "address",
          "internalType": "address"
        }
      ]
    },
    {
      "type": "error",
      "name": "AddressInsufficientBalance",
      "inputs": [
        {
          "name": "account",
          "type": "address",
          "internalType": "address"
        }
      ]
    },
    {
      "type": "error",
      "name": "FailedInnerCall",
      "inputs": []
    },
    {
      "type": "error",
      "name": "GENERIC_SWAP_ROUTE_FAILED",
      "inputs": []
    },
    {
      "type": "error",
      "name": "INVALID_SWAP_METHOD",
      "inputs": []
    },
    {
      "type": "error",
      "name": "InvalidPercent",
      "inputs": [
        {
          "name": "percent",
          "type": "uint256",
          "internalType": "uint256"
        },
        {
          "name": "minPercent",
          "type": "uint256",
          "internalType": "uint256"
        },
        {
          "name": "maxPercent",
          "type": "uint256",
          "internalType": "uint256"
        }
      ]
    },
    {
      "type": "error",
      "name": "InvalidToken",
      "inputs": [
        {
          "name": "token",
          "type": "address",
          "internalType": "address"
        }
      ]
    },
    {
      "type": "error",
      "name": "NULL_ADDRESS",
      "inputs": []
    },
    {
      "type": "error",
      "name": "SafeERC20FailedOperation",
      "inputs": [
        {
          "name": "token",
          "type": "address",
          "internalType": "address"
        }
      ]
    }
  ],
  "bytecode": {
    "object": "0x61010060405234801562000011575f80fd5b5060405162003603380380620036038339810160408190526200003491620000df565b838383836001600160a01b03841615806200005657506001600160a01b038316155b806200006957506001600160a01b038216155b806200007c57506001600160a01b038116155b156200009b5760405163de0ce17d60e01b815260040160405180910390fd5b6001600160a01b0393841660805291831660a052821660c0521660e052506200013992505050565b80516001600160a01b0381168114620000da575f80fd5b919050565b5f805f8060808587031215620000f3575f80fd5b620000fe85620000c3565b93506200010e60208601620000c3565b92506200011e60408601620000c3565b91506200012e60608601620000c3565b905092959194509250565b60805160a05160c05160e051613460620001a35f395f818160fe015281816118b1015261198001525f818160a40152818161171a015261177301525f81816101530152818161165901526116cd01525f818161017a01528181611502015261154c01526134605ff3fe608060405234801561000f575f80fd5b506004361061009b575f3560e01c806397ba35401161006357806397ba35401461013b5780639e5892d61461014e5780639e8e3eaa14610175578063a1f0864f1461019c578063cd3607df146101af575f80fd5b80631694505e1461009f5780631d92c26d146100e35780632c76d7a6146100f957806351659e301461012057806384e2185514610133575b5f80fd5b6100c67f000000000000000000000000000000000000000000000000000000000000000081565b6040516001600160a01b0390911681526020015b60405180910390f35b6100eb601481565b6040519081526020016100da565b6100c67f000000000000000000000000000000000000000000000000000000000000000081565b6100eb61012e3660046121c7565b6101c4565b6100eb61024f565b6100eb6101493660046121f2565b6102c5565b6100c67f000000000000000000000000000000000000000000000000000000000000000081565b6100c67f000000000000000000000000000000000000000000000000000000000000000081565b6100c66101aa366004612236565b610340565b6101c26101bd3660046124d2565b610481565b005b5f80826001600160a01b0316637c90a6ca6040518163ffffffff1660e01b815260040160c060405180830381865afa158015610202573d5f803e3d5ffd5b505050506040513d601f19601f820116820180604052508101906102269190612635565b805190915061024890670de0b6b3a76400009061024382826126a1565b610b0c565b9392505050565b6040805160018082528183019092525f91829190602080830190803683370190505090506005815f81518110610287576102876126b4565b6020026020010190600a8111156102a0576102a06126c8565b9081600a8111156102b3576102b36126c8565b9052506102bf81610b18565b91505090565b5f8061033284856001600160a01b03166373d4a13a6040518163ffffffff1660e01b815260040161010060405180830381865afa158015610308573d5f803e3d5ffd5b505050506040513d601f19601f8201168201806040525081019061032c91906126e7565b85610b60565b604001519150505b92915050565b5f80836001600160a01b0316632c8ce6bc6040518163ffffffff1660e01b8152600401606060405180830381865afa15801561037e573d5f803e3d5ffd5b505050506040513d601f19601f820116820180604052508101906103a291906127a0565b505090505f831561041457816001600160a01b03166376d5de856040518163ffffffff1660e01b8152600401602060405180830381865afa1580156103e9573d5f803e3d5ffd5b505050506040513d601f19601f8201168201806040525081019061040d91906127ea565b9050610479565b816001600160a01b031663a40bee506040518163ffffffff1660e01b8152600401606060405180830381865afa158015610450573d5f803e3d5ffd5b505050506040513d601f19601f820116820180604052508101906104749190612815565b509150505b949350505050565b670de0b6b3a764000083108061049e575061049b876101c4565b83115b156104e55782670de0b6b3a76400006104b6896101c4565b604051634a734dd360e01b81526004810193909352602483019190915260448201526064015b60405180910390fd5b670de0b6b3a764000082111561052557604051634a734dd360e01b8152600481018390525f6024820152670de0b6b3a764000060448201526064016104dc565b5f876001600160a01b03166373d4a13a6040518163ffffffff1660e01b815260040161010060405180830381865afa158015610563573d5f803e3d5ffd5b505050506040513d601f19601f8201168201806040525081019061058791906126e7565b905080604001516001600160a01b0316866001600160a01b0316141580156105c5575080606001516001600160a01b0316866001600160a01b031614155b156105ee5760405163961c9a4f60e01b81526001600160a01b03871660048201526024016104dc565b5f886001600160a01b0316637c90a6ca6040518163ffffffff1660e01b815260040160c060405180830381865afa15801561062b573d5f803e3d5ffd5b505050506040513d601f19601f8201168201806040525081019061064f9190612635565b90505f896001600160a01b0316637dc0d1d06040518163ffffffff1660e01b81526004016040805180830381865afa15801561068d573d5f803e3d5ffd5b505050506040513d601f19601f820116820180604052508101906106b1919061285d565b5f01516001600160a01b03166398d5fdca6040518163ffffffff1660e01b8152600401602060405180830381865afa1580156106ef573d5f803e3d5ffd5b505050506040513d601f19601f8201168201806040525081019061071391906128a7565b6040840151909150610730906001600160a01b03168b5f19610cf6565b6107456001600160a01b03891633308a610db9565b82604001516001600160a01b0316886001600160a01b03161461076b5761076b84610df2565b6040805160608101825284820180516001600160a01b039081168352905192516370a0823160e01b8152306004820152818e1693630cf8542f939260208401929116906370a0823190602401602060405180830381865afa1580156107d2573d5f803e3d5ffd5b505050506040513d601f19601f820116820180604052508101906107f691906128a7565b8152336020909101526040516001600160e01b031960e084901b16815261082091906004016128be565b5f604051808303815f87803b158015610837575f80fd5b505af1158015610849573d5f803e3d5ffd5b505050505f5b6014811015610ae6576040518181527f31150b82bfe3294c4366274cfc76cd071cc09103c09fc101b3981b1e6e5d7c5a9060200160405180910390a15f6108978c8633610b60565b6040808201518151908152602081018b90529192507f61ee59012596aac635db5321e770ada9a80e3c05e272dc2aaadfc81caa2ce677910160405180910390a1878160400151106108e85750610ae6565b6108f88c8587848f888e8e610e2b565b60a08501516040516370a0823160e01b81523060048201525f916001600160a01b0316906370a0823190602401602060405180830381865afa158015610940573d5f803e3d5ffd5b505050506040513d601f19601f8201168201806040525081019061096491906128a7565b9050805f03610974575050610ae6565b60408051606080820183528801516001600160a01b039081168252602082018490523082840152915163015a64d160e51b8152918f1691632b4c9a20916109bd916004016128be565b5f604051808303815f87803b1580156109d4575f80fd5b505af11580156109e6573d5f803e3d5ffd5b505050506109f387610df2565b60408087015190516370a0823160e01b81523060048201526001600160a01b03909116906370a0823190602401602060405180830381865afa158015610a3b573d5f803e3d5ffd5b505050506040513d601f19601f82011682018060405250810190610a5f91906128a7565b60408051606081018252888201516001600160a01b0390811682526020820184905233828401529151630cf8542f60e01b8152929c50908f1691630cf8542f91610aab916004016128be565b5f604051808303815f87803b158015610ac2575f80fd5b505af1158015610ad4573d5f803e3d5ffd5b50506001909401935061084f92505050565b506040830151610b00906001600160a01b03168b5f610cf6565b50505050505050505050565b5f6104798484846111a4565b5f80805b8351811015610b5957610b4d610b4a858381518110610b3d57610b3d6126b4565b60200260200101516111c8565b90565b90911790600101610b1c565b5080610248565b610b8160405180606001604052805f81526020015f81526020015f81525090565b60808301516040516370a0823160e01b81526001600160a01b038481166004830152909116906370a0823190602401602060405180830381865afa158015610bcb573d5f803e3d5ffd5b505050506040513d601f19601f82011682018060405250810190610bef91906128a7565b815260c08301516040516370a0823160e01b81526001600160a01b038481166004830152909116906370a0823190602401602060405180830381865afa158015610c3b573d5f803e3d5ffd5b505050506040513d601f19601f82011682018060405250810190610c5f91906128a7565b602082018190528151604051630cb872f560e11b81526004810192909252610cea91670de0b6b3a7640000906001600160a01b03881690631970e5ea90602401602060405180830381865afa158015610cba573d5f803e3d5ffd5b505050506040513d601f19601f82011682018060405250810190610cde91906128a7565b845161024391906126a1565b60408201529392505050565b604080516001600160a01b038416602482015260448082018490528251808303909101815260649091019091526020810180516001600160e01b031663095ea7b360e01b179052610d4784826111e5565b610db3576040516001600160a01b0384811660248301525f6044830152610da991869182169063095ea7b3906064015b604051602081830303815290604052915060e01b6020820180516001600160e01b038381831617835250505050611286565b610db38482611286565b50505050565b6040516001600160a01b038481166024830152838116604483015260648201839052610db39186918216906323b872dd90608401610d77565b5f5b8151811015610e2757610e1f828281518110610e1257610e126126b4565b60200260200101516112ec565b600101610df4565b5050565b5f8560200151610f2b8860c001516001600160a01b031663313ce5676040518163ffffffff1660e01b8152600401602060405180830381865afa158015610e74573d5f803e3d5ffd5b505050506040513d601f19601f82011682018060405250810190610e9891906128ec565b610ea390600a6129e5565b8851610eaf91906129f3565b868a608001516001600160a01b031663313ce5676040518163ffffffff1660e01b8152600401602060405180830381865afa158015610ef0573d5f803e3d5ffd5b505050506040513d601f19601f82011682018060405250810190610f1491906128ec565b610f1f90600a6129e5565b8c5161024391906129f3565b610f3591906126a1565b90505f5b8551811015610b00575f8860a001516001600160a01b03166370a08231888481518110610f6857610f686126b4565b6020908102919091010151516040516001600160e01b031960e084901b1681526001600160a01b039091166004820152602401602060405180830381865afa158015610fb6573d5f803e3d5ffd5b505050506040513d601f19601f82011682018060405250810190610fda91906128a7565b9050610ff783821184831802821885670de0b6b3a7640000610b0c565b878381518110611009576110096126b4565b6020026020010151604001818152505089604001518b6001600160a01b0316633750192189858151811061103f5761103f6126b4565b60200260200101516040518263ffffffff1660e01b81526004016110639190612a56565b61012060405180830381865afa15801561107f573d5f803e3d5ffd5b505050506040513d601f19601f820116820180604052508101906110a39190612a64565b6020015110156110b3575061119c565b8a6001600160a01b031663c73d983360405180606001604052808a86815181106110df576110df6126b4565b60200260200101518152602001336001600160a01b03168152602001306001600160a01b03168152506040518263ffffffff1660e01b81526004016111249190612b0c565b5f604051808303815f87803b15801561113b575f80fd5b505af115801561114d573d5f803e3d5ffd5b50505050868281518110611163576111636126b4565b6020026020010151604001518361117a91906126a1565b92506111878b8a33610b60565b97508488604001511061119a5750610b00565b505b600101610f39565b5f825f1904841183021582026111c15763ad251c275f526004601cfd5b5091020490565b5f61033a82600a8111156111de576111de6126c8565b6001901b90565b5f805f846001600160a01b0316846040516112009190612b69565b5f604051808303815f865af19150503d805f8114611239576040519150601f19603f3d011682016040523d82523d5f602084013e61123e565b606091505b50915091508180156112685750805115806112685750808060200190518101906112689190612b84565b801561127d57505f856001600160a01b03163b115b95945050505050565b5f61129a6001600160a01b03841683611418565b905080515f141580156112be5750808060200190518101906112bc9190612b84565b155b156112e757604051635274afe760e01b81526001600160a01b03841660048201526024016104dc565b505050565b600481516006811115611301576113016126c8565b03611316576113138160200151611425565b50565b5f8151600681111561132a5761132a6126c8565b0361133c5761131381602001516114d9565b600181516006811115611351576113516126c8565b0361136357611313816020015161162d565b600281516006811115611378576113786126c8565b0361138a5761131381602001516116fe565b60038151600681111561139f5761139f6126c8565b036113b157611313816020015161181a565b6005815160068111156113c6576113c66126c8565b036113d85761131381602001516119f3565b6006815160068111156113ed576113ed6126c8565b036113ff576113138160200151611a98565b60405163061bb5fd60e51b815260040160405180910390fd5b606061024883835f611be3565b5f8180602001905181019061143a9190612be1565b80516020820151919250611459916001600160a01b0316905f19610cf6565b5f815f01516001600160a01b031682604001516040516114799190612b69565b5f604051808303815f865af19150503d805f81146114b2576040519150601f19603f3d011682016040523d82523d5f602084013e6114b7565b606091505b50509050806112e757604051633abbe29360e11b815260040160405180910390fd5b5f818060200190518101906114ee9190612c6e565b8051909150611528906001600160a01b03167f00000000000000000000000000000000000000000000000000000000000000005f19610cf6565b805160208201516040516370a0823160e01b81523060048201526001600160a01b037f0000000000000000000000000000000000000000000000000000000000000000811693632506c01893909290918316906370a0823190602401602060405180830381865afa15801561159f573d5f803e3d5ffd5b505050506040513d601f19601f820116820180604052508101906115c391906128a7565b856040015186606001516040518663ffffffff1660e01b81526004016115ed959493929190612d30565b6020604051808303815f875af1158015611609573d5f803e3d5ffd5b505050506040513d601f19601f820116820180604052508101906112e791906128a7565b5f818060200190518101906116429190612d74565b602081015190915061167f906001600160a01b03167f00000000000000000000000000000000000000000000000000000000000000005f19610cf6565b60208101516040808301516060840151608085015192516380ff880760e01b81523060048201526001600160a01b0394851660248201526044810192909252606482015290821660848201527f0000000000000000000000000000000000000000000000000000000000000000909116906380ff88079060a4016115ed565b5f818060200190518101906117139190612ddc565b90506117717f00000000000000000000000000000000000000000000000000000000000000005f1983604001515f81518110611751576117516126b4565b60200260200101516001600160a01b0316610cf69092919063ffffffff16565b7f00000000000000000000000000000000000000000000000000000000000000006001600160a01b03166338ed1739825f015183602001518460400151856060015186608001516040518663ffffffff1660e01b81526004016117d8959493929190612ed0565b5f604051808303815f875af11580156117f3573d5f803e3d5ffd5b505050506040513d5f823e601f3d908101601f191682016040526112e79190810190612f41565b5f8180602001905181019061182f9190612fc1565b80516040516370a0823160e01b81523060048201529192505f916001600160a01b03909116906370a0823190602401602060405180830381865afa158015611879573d5f803e3d5ffd5b505050506040513d601f19601f8201168201806040525081019061189d91906128a7565b82519091506118d6906001600160a01b03167f000000000000000000000000000000000000000000000000000000000000000083610cf6565b6040805160e08101825283516001600160a01b03908116825260208086015182169083019081528584015162ffffff90811684860190815230606080870191825260808088018a8152908b015160a08901908152918b0151871660c0890190815298516304e45aaf60e01b81528851881660048201529551871660248701529251909316604485015251841660648401525160848301525160a48201529251811660c484015290917f0000000000000000000000000000000000000000000000000000000000000000909116906304e45aaf9060e4016020604051808303815f875af11580156119c8573d5f803e3d5ffd5b505050506040513d601f19601f820116820180604052508101906119ec91906128a7565b5050505050565b5f81806020019051810190611a089190613039565b90505f611a1d82602001518360400151610340565b602083015183516040516370a0823160e01b8152306004820152929350610db3926001600160a01b03909116906370a0823190602401602060405180830381865afa158015611a6e573d5f803e3d5ffd5b505050506040513d601f19601f82011682018060405250810190611a9291906128a7565b83611c7c565b5f81806020019051810190611aad919061307f565b60208101516040516370a0823160e01b81523060048201529192505f916001600160a01b03909116906370a0823190602401602060405180830381865afa158015611afa573d5f803e3d5ffd5b505050506040513d601f19601f82011682018060405250810190611b1e91906128a7565b60408301516020840151919250611b3f916001600160a01b03169083610cf6565b81604001516001600160a01b031663c81f847a30845f01518560600151611b64611fac565b611b7288602001518861200e565b611b7a612065565b6040518763ffffffff1660e01b8152600401611b9b969594939291906132b8565b6060604051808303815f875af1158015611bb7573d5f803e3d5ffd5b505050506040513d601f19601f82011682018060405250810190611bdb91906133b7565b505050505050565b606081471015611c085760405163cd78605960e01b81523060048201526024016104dc565b5f80856001600160a01b03168486604051611c239190612b69565b5f6040518083038185875af1925050503d805f8114611c5d576040519150601f19603f3d011682016040523d82523d5f602084013e611c62565b606091505b5091509150611c7286838361209e565b9695505050505050565b5f805f80866001600160a01b0316632c8ce6bc6040518163ffffffff1660e01b8152600401606060405180830381865afa158015611cbc573d5f803e3d5ffd5b505050506040513d601f19601f82011682018060405250810190611ce091906127a0565b9250925092505f826001600160a01b0316632f13b60c6040518163ffffffff1660e01b8152600401602060405180830381865afa158015611d23573d5f803e3d5ffd5b505050506040513d601f19601f82011682018060405250810190611d479190612b84565b15611e2d5760405163a9059cbb60e01b81526001600160a01b0383811660048301526024820189905284169063a9059cbb906044016020604051808303815f875af1158015611d98573d5f803e3d5ffd5b505050506040513d601f19601f82011682018060405250810190611dbc9190612b84565b5060405163bcb7ea5d60e01b81526001600160a01b03858116600483015283169063bcb7ea5d906024016020604051808303815f875af1158015611e02573d5f803e3d5ffd5b505050506040513d601f19601f82011682018060405250810190611e2691906128a7565b9050611f1d565b60405163a9059cbb60e01b81526001600160a01b0389811660048301526024820189905284169063a9059cbb906044016020604051808303815f875af1158015611e79573d5f803e3d5ffd5b505050506040513d601f19601f82011682018060405250810190611e9d9190612b84565b50604080515f815260208101918290526329910b1160e01b9091526001600160a01b038916906329910b1190611eda9087908b90602481016133e2565b60408051808303815f875af1158015611ef5573d5f803e3d5ffd5b505050506040513d601f19601f82011682018060405250810190611f199190613408565b5090505b60405163769f8e5d60e01b8152306004820152602481018290526001600160a01b0387811660448301525f60648301526001608483015285169063769f8e5d9060a4016020604051808303815f875af1158015611f7c573d5f803e3d5ffd5b505050506040513d601f19601f82011682018060405250810190611fa091906128a7565b98975050505050505050565b611fd96040518060a001604052805f81526020015f81526020015f81526020015f81526020015f81525090565b6040518060a001604052805f81526020015f1981526020015f81526020016101008152602001655af3107a4000815250905090565b612016612146565b6040518060a00160405280846001600160a01b03168152602001838152602001846001600160a01b031681526020015f6001600160a01b0316815260200161205c6120f3565b90529392505050565b610b4a6040518060a001604052805f6001600160a01b031681526020015f81526020016060815260200160608152602001606081525090565b6060826120b3576120ae8261211d565b610248565b81511580156120ca57506001600160a01b0384163b155b15610b5957604051639996b31560e01b81526001600160a01b03851660048201526024016104dc565b610b4a6040805160808101909152805f81525f602082018190526060604083018190529091015290565b80511561212d5780518082602001fd5b604051630a12f52160e11b815260040160405180910390fd5b6040518060a001604052805f6001600160a01b031681526020015f81526020015f6001600160a01b031681526020015f6001600160a01b031681526020016121ae6040805160808101909152805f81525f602082018190526060604083018190529091015290565b905290565b6001600160a01b0381168114611313575f80fd5b5f602082840312156121d7575f80fd5b8135610248816121b3565b80356121ed816121b3565b919050565b5f8060408385031215612203575f80fd5b823561220e816121b3565b9150602083013561221e816121b3565b809150509250929050565b8015158114611313575f80fd5b5f8060408385031215612247575f80fd5b8235612252816121b3565b9150602083013561221e81612229565b634e487b7160e01b5f52604160045260245ffd5b604080519081016001600160401b038111828210171561229857612298612262565b60405290565b60405160e081016001600160401b038111828210171561229857612298612262565b60405160c081016001600160401b038111828210171561229857612298612262565b604051608081016001600160401b038111828210171561229857612298612262565b604051606081016001600160401b038111828210171561229857612298612262565b60405160a081016001600160401b038111828210171561229857612298612262565b604051601f8201601f191681016001600160401b038111828210171561237057612370612262565b604052919050565b5f6001600160401b0382111561239057612390612262565b5060051b60200190565b5f6001600160401b038211156123b2576123b2612262565b50601f01601f191660200190565b5f82601f8301126123cf575f80fd5b813560206123e46123df83612378565b612348565b82815260059290921b84018101918181019086841115612402575f80fd5b8286015b848110156124c75780356001600160401b0380821115612424575f80fd5b908801906040828b03601f190181131561243c575f80fd5b612444612276565b8784013560078110612454575f80fd5b81528382013583811115612466575f80fd5b8085019450508b603f85011261247a575f80fd5b87840135925061248c6123df8461239a565b8381528c8385870101111561249f575f80fd5b838386018a8301375f9381018901939093528088019290925250845250918301918301612406565b509695505050505050565b5f805f805f805f60e0888a0312156124e8575f80fd5b6124f288356121b3565b8735965060208801356001600160401b038082111561250f575f80fd5b818a0191508a601f830112612522575f80fd5b81356125306123df82612378565b80828252602082019150602060e0840286010192508d831115612551575f80fd5b6020850194505b828510156125de5760e0858f03121561256f575f80fd5b61257761229e565b61258186356121b3565b853581526020860135602082015260408601356040820152606086013560608201526080860135608082015260a086013560a082015260c08601356125c581612229565b60c0820152825260e09490940193602090910190612558565b99506125ef91505060408b016121e2565b965060608a0135955060808a0135945060a08a0135935060c08a0135915080821115612619575f80fd5b506126268a828b016123c0565b91505092959891949750929550565b5f60c08284031215612645575f80fd5b61264d6122c0565b825181526020830151602082015260408301516040820152606083015160608201526080830151608082015260a083015160a08201528091505092915050565b634e487b7160e01b5f52601160045260245ffd5b8181038181111561033a5761033a61268d565b634e487b7160e01b5f52603260045260245ffd5b634e487b7160e01b5f52602160045260245ffd5b80516121ed816121b3565b5f6101008083850312156126f9575f80fd5b604051908101906001600160401b038211818310171561271b5761271b612262565b8160405283518152602084015160208201526040840151915061273d826121b3565b81604082015261274f606085016126dc565b6060820152612760608085016126dc565b608082015261277160a085016126dc565b60a082015261278260c085016126dc565b60c082015261279360e085016126dc565b60e0820152949350505050565b5f805f606084860312156127b2575f80fd5b83516127bd816121b3565b60208501519093506127ce816121b3565b60408501519092506127df816121b3565b809150509250925092565b5f602082840312156127fa575f80fd5b8151610248816121b3565b805160ff811681146121ed575f80fd5b5f805f60608486031215612827575f80fd5b835160028110612835575f80fd5b6020850151909350612846816121b3565b915061285460408501612805565b90509250925092565b5f6040828403121561286d575f80fd5b612875612276565b8251612880816121b3565b815260208301516001600160401b038116811461289b575f80fd5b60208201529392505050565b5f602082840312156128b7575f80fd5b5051919050565b6060810161033a828480516001600160a01b0390811683526020808301519084015260409182015116910152565b5f602082840312156128fc575f80fd5b61024882612805565b600181815b8085111561293f57815f19048211156129255761292561268d565b8085161561293257918102915b93841c939080029061290a565b509250929050565b5f826129555750600161033a565b8161296157505f61033a565b816001811461297757600281146129815761299d565b600191505061033a565b60ff8411156129925761299261268d565b50506001821b61033a565b5060208310610133831016604e8410600b84101617156129c0575081810a61033a565b6129ca8383612905565b805f19048211156129dd576129dd61268d565b029392505050565b5f61024860ff841683612947565b808202811582820484141761033a5761033a61268d565b80516001600160a01b031682526020808201519083015260408082015190830152606080820151908301526080808201519083015260a0818101519083015260c0908101511515910152565b60e0810161033a8284612a0a565b5f818303610120811215612a76575f80fd5b612a7e6122c0565b6080821215612a8b575f80fd5b612a936122e2565b91508351612aa0816121b3565b82526020840151612ab081612229565b8060208401525060408401516040830152606084015160608301528181526080840151602082015260a0840151604082015260c0840151606082015260e0840151608082015261010084015160a0820152809250505092915050565b5f61012082019050612b1f828451612a0a565b60208301516001600160a01b0390811660e08401526040909301519092166101009091015290565b5f5b83811015612b61578181015183820152602001612b49565b50505f910152565b5f8251612b7a818460208701612b47565b9190910192915050565b5f60208284031215612b94575f80fd5b815161024881612229565b5f82601f830112612bae575f80fd5b8151612bbc6123df8261239a565b818152846020838601011115612bd0575f80fd5b610479826020830160208701612b47565b5f60208284031215612bf1575f80fd5b81516001600160401b0380821115612c07575f80fd5b9083019060608286031215612c1a575f80fd5b612c22612304565b8251612c2d816121b3565b81526020830151612c3d816121b3565b6020820152604083015182811115612c53575f80fd5b612c5f87828601612b9f565b60408301525095945050505050565b5f60208284031215612c7e575f80fd5b81516001600160401b0380821115612c94575f80fd5b9083019060808286031215612ca7575f80fd5b612caf6122e2565b8251612cba816121b3565b81526020830151612cca816121b3565b602082015260408381015190820152606083015182811115612cea575f80fd5b612cf687828601612b9f565b60608301525095945050505050565b5f8151808452612d1c816020860160208601612b47565b601f01601f19169290920160200192915050565b6001600160a01b03868116825285166020820152604081018490526060810183905260a0608082018190525f90612d6990830184612d05565b979650505050505050565b5f60a08284031215612d84575f80fd5b612d8c612326565b8251612d97816121b3565b81526020830151612da7816121b3565b8060208301525060408301516040820152606083015160608201526080830151612dd0816121b3565b60808201529392505050565b5f6020808385031215612ded575f80fd5b82516001600160401b0380821115612e03575f80fd5b9084019060a08287031215612e16575f80fd5b612e1e612326565b825181528383015184820152604083015182811115612e3b575f80fd5b83019150601f82018713612e4d575f80fd5b8151612e5b6123df82612378565b81815260059190911b83018501908581019089831115612e79575f80fd5b938601935b82851015612ea0578451612e91816121b3565b82529386019390860190612e7e565b604084015250612eb49050606084016126dc565b6060820152608083015160808201528094505050505092915050565b5f60a08201878352602087602085015260a0604085015281875180845260c0860191506020890193505f5b81811015612f205784516001600160a01b031683529383019391830191600101612efb565b50506001600160a01b03969096166060850152505050608001529392505050565b5f6020808385031215612f52575f80fd5b82516001600160401b03811115612f67575f80fd5b8301601f81018513612f77575f80fd5b8051612f856123df82612378565b81815260059190911b82018301908381019087831115612fa3575f80fd5b928401925b82841015612d6957835182529284019290840190612fa8565b5f60a08284031215612fd1575f80fd5b612fd9612326565b8251612fe4816121b3565b81526020830151612ff4816121b3565b6020820152604083015162ffffff8116811461300e575f80fd5b60408201526060830151613021816121b3565b60608201526080928301519281019290925250919050565b5f60608284031215613049575f80fd5b613051612304565b825161305c816121b3565b8152602083015161306c816121b3565b60208201526040830151610cea81612229565b5f6080828403121561308f575f80fd5b6130976122e2565b82516130a2816121b3565b815260208301516130b2816121b3565b602082015260408301516130c5816121b3565b60408201526060928301519281019290925250919050565b600481106130ed576130ed6126c8565b9052565b5f82825180855260208086019550808260051b8401018186015f5b8481101561324857601f198684030189528151606081518186528051828701528681015160808181890152604091508183015160a081818b015285850151955060c0915061315c828b01876130dd565b91840151945060e0916131798a8401876001600160a01b03169052565b84015194506101006131958a8201876001600160a01b03169052565b908401519450610120906131b38a8301876001600160a01b03169052565b918401519450610140916131d18a8401876001600160a01b03169052565b8401516101608a81019190915290840151610180808b0191909152918401516101a08a01528301516101c089019190915292506132126101e0880184612d05565b92508784015191508683038888015261322b8383612d05565b93810151960195909552509884019892509083019060010161310c565b5090979650505050505050565b60018060a01b038151168252602081015160208301525f604082015160a0604085015261328560a08501826130f1565b90506060830151848203606086015261329e82826130f1565b9150506080830151848203608086015261127d8282612d05565b5f61014060018060a01b03808a16845280891660208501528760408501528651606085015260208701516080850152604087015160a0850152606087015160c0850152608087015160e0850152816101008501528086511682850152602086015161016085015280604087015116610180850152806060870151166101a08501526080860151915060a06101c08501528151600b811061335a5761335a6126c8565b6101e085015260208201511661020084015260408101516080610220850152613387610260850182612d05565b9050606082015115156102408501528381036101208501526133a98186613255565b9a9950505050505050505050565b5f805f606084860312156133c9575f80fd5b8351925060208401519150604084015190509250925092565b60018060a01b0384168152826020820152606060408201525f61127d6060830184612d05565b5f8060408385031215613419575f80fd5b50508051602090910151909290915056fea264697066735822122074358f251cc4411e26c6b9cf907a2f8405cbeb1a02b6c7e74b52c7ee96a350bc64736f6c63430008170033",
    "linkReferences": {}
  },
  "methodIdentifiers": {
    "MAX_ITERATIONS()": "1d92c26d",
    "currentLeveragePercent(address,address)": "97ba3540",
    "getActionsBitmap()": "84e21855",
    "getPtSellerTokenOut(address,bool)": "a1f0864f",
    "leverageUpWithSwap(address,(address,uint256,uint256,uint256,uint256,uint256,bool)[],address,uint256,uint256,uint256,(uint8,bytes)[])": "cd3607df",
    "maxLeveragePercent(address)": "51659e30",
    "oneInchAggregator()": "9e8e3eaa",
    "uniswapV2Router()": "1694505e",
    "uniswapV3Router()": "2c76d7a6",
    "unoswapRouter()": "9e5892d6"
  },
  "id": 220
}