{
  "abi": [
    {
      "type": "constructor",
      "inputs": [
        {
          "name": "_base",
          "type": "address",
          "internalType": "address"
        },
        {
          "name": "_quote",
          "type": "address",
          "internalType": "address"
        },
        {
          "name": "_sequencerUptimeFeed",
          "type": "address",
          "internalType": "address"
        },
        {
          "name": "_baseStalePriceInterval",
          "type": "uint256",
          "internalType": "uint256"
        },
        {
          "name": "_quoteStalePriceInterval",
          "type": "uint256",
          "internalType": "uint256"
        }
      ],
      "stateMutability": "nonpayable"
    },
    {
      "type": "function",
      "name": "base",
      "inputs": [],
      "outputs": [
        {
          "name": "",
          "type": "address",
          "internalType": "contract AggregatorV3Interface"
        }
      ],
      "stateMutability": "view"
    },
    {
      "type": "function",
      "name": "baseStalePriceInterval",
      "inputs": [],
      "outputs": [
        {
          "name": "",
          "type": "uint256",
          "internalType": "uint256"
        }
      ],
      "stateMutability": "view"
    },
    {
      "type": "function",
      "name": "decimals",
      "inputs": [],
      "outputs": [
        {
          "name": "",
          "type": "uint256",
          "internalType": "uint256"
        }
      ],
      "stateMutability": "view"
    },
    {
      "type": "function",
      "name": "getPrice",
      "inputs": [],
      "outputs": [
        {
          "name": "",
          "type": "uint256",
          "internalType": "uint256"
        }
      ],
      "stateMutability": "view"
    },
    {
      "type": "function",
      "name": "quote",
      "inputs": [],
      "outputs": [
        {
          "name": "",
          "type": "address",
          "internalType": "contract AggregatorV3Interface"
        }
      ],
      "stateMutability": "view"
    },
    {
      "type": "function",
      "name": "quoteStalePriceInterval",
      "inputs": [],
      "outputs": [
        {
          "name": "",
          "type": "uint256",
          "internalType": "uint256"
        }
      ],
      "stateMutability": "view"
    },
    {
      "type": "error",
      "name": "GRACE_PERIOD_NOT_OVER",
      "inputs": []
    },
    {
      "type": "error",
      "name": "INVALID_DECIMALS",
      "inputs": [
        {
          "name": "decimals",
          "type": "uint8",
          "internalType": "uint8"
        }
      ]
    },
    {
      "type": "error",
      "name": "INVALID_PRICE",
      "inputs": [
        {
          "name": "aggregator",
          "type": "address",
          "internalType": "address"
        },
        {
          "name": "price",
          "type": "int256",
          "internalType": "int256"
        }
      ]
    },
    {
      "type": "error",
      "name": "NULL_ADDRESS",
      "inputs": []
    },
    {
      "type": "error",
      "name": "NULL_STALE_PRICE",
      "inputs": []
    },
    {
      "type": "error",
      "name": "SEQUENCER_DOWN",
      "inputs": []
    },
    {
      "type": "error",
      "name": "STALE_PRICE",
      "inputs": [
        {
          "name": "aggregator",
          "type": "address",
          "internalType": "address"
        },
        {
          "name": "updatedAt",
          "type": "uint256",
          "internalType": "uint256"
        }
      ]
    },
    {
      "type": "error",
      "name": "SafeCastOverflowedIntToUint",
      "inputs": [
        {
          "name": "value",
          "type": "int256",
          "internalType": "int256"
        }
      ]
    }
  ],
  "bytecode": {
    "object": "0x61012060405234801561001157600080fd5b5060405161093e38038061093e83398101604081905261003091610236565b6001600160a01b038516158061004d57506001600160a01b038416155b1561006b5760405163de0ce17d60e01b815260040160405180910390fd5b811580610076575080155b15610094576040516373f9226b60e11b815260040160405180910390fd5b6001600160a01b0380861660805284811660a081905290841660c05260e08390526101008290526040805163313ce56760e01b8152905163313ce567916004808201926020929091908290030181865afa1580156100f6573d6000803e3d6000fd5b505050506040513d601f19601f8201168201806040525081019061011a919061028c565b60ff166080516001600160a01b031663313ce5676040518163ffffffff1660e01b8152600401602060405180830381865afa15801561015d573d6000803e3d6000fd5b505050506040513d601f19601f82011682018060405250810190610181919061028c565b60ff16146102105760a0516001600160a01b031663313ce5676040518163ffffffff1660e01b8152600401602060405180830381865afa1580156101c9573d6000803e3d6000fd5b505050506040513d601f19601f820116820180604052508101906101ed919061028c565b60405163b094f61d60e01b815260ff909116600482015260240160405180910390fd5b50505050506102b6565b80516001600160a01b038116811461023157600080fd5b919050565b600080600080600060a0868803121561024e57600080fd5b6102578661021a565b94506102656020870161021a565b93506102736040870161021a565b6060870151608090970151959894975095949392505050565b60006020828403121561029e57600080fd5b815160ff811681146102af57600080fd5b9392505050565b60805160a05160c05160e0516101005161062461031a6000396000818161011c01526102d5015260008181606c015261027f015260008181610142015261017401526000818160f501526102b401526000818160ae015261025e01526106246000f3fe608060405234801561001057600080fd5b50600436106100625760003560e01c80630b08424914610067578063313ce567146100a15780635001f3b5146100a957806398d5fdca146100e8578063999b93af146100f0578063ce52a6b414610117575b600080fd5b61008e7f000000000000000000000000000000000000000000000000000000000000000081565b6040519081526020015b60405180910390f35b61008e601281565b6100d07f000000000000000000000000000000000000000000000000000000000000000081565b6040516001600160a01b039091168152602001610098565b61008e61013e565b6100d07f000000000000000000000000000000000000000000000000000000000000000081565b61008e7f000000000000000000000000000000000000000000000000000000000000000081565b60007f00000000000000000000000000000000000000000000000000000000000000006001600160a01b031615610256576000807f00000000000000000000000000000000000000000000000000000000000000006001600160a01b031663feaf968c6040518163ffffffff1660e01b815260040160a060405180830381865afa1580156101d0573d6000803e3d6000fd5b505050506040513d601f19601f820116820180604052508101906101f4919061047e565b50509250925050806000148061020a5750816001145b1561022857604051634a3b18b560e01b815260040160405180910390fd5b610e1061023582426104e4565b1161025357604051631e71412560e01b815260040160405180910390fd5b50505b6102fe6102a37f00000000000000000000000000000000000000000000000000000000000000007f0000000000000000000000000000000000000000000000000000000000000000610303565b6102af6012600a6105db565b6102f97f00000000000000000000000000000000000000000000000000000000000000007f0000000000000000000000000000000000000000000000000000000000000000610303565b6103f9565b905090565b6000806000846001600160a01b031663feaf968c6040518163ffffffff1660e01b815260040160a060405180830381865afa158015610346573d6000803e3d6000fd5b505050506040513d601f19601f8201168201806040525081019061036a919061047e565b50935050925050600082136103a957604051633e8ca01160e21b81526001600160a01b0386166004820152602481018390526044015b60405180910390fd5b836103b482426104e4565b11156103e557604051632c4f4f3160e21b81526001600160a01b0386166004820152602481018290526044016103a0565b6103ee8261040e565b925050505b92915050565b6000610406848484610438565b949350505050565b60008082121561043457604051635467221960e11b8152600481018390526024016103a0565b5090565b60008260001904841183021582026104585763ad251c276000526004601cfd5b5091020490565b805169ffffffffffffffffffff8116811461047957600080fd5b919050565b600080600080600060a0868803121561049657600080fd5b61049f8661045f565b94506020860151935060408601519250606086015191506104c26080870161045f565b90509295509295909350565b634e487b7160e01b600052601160045260246000fd5b818103818111156103f3576103f36104ce565b600181815b80851115610532578160001904821115610518576105186104ce565b8085161561052557918102915b93841c93908002906104fc565b509250929050565b600082610549575060016103f3565b81610556575060006103f3565b816001811461056c576002811461057657610592565b60019150506103f3565b60ff841115610587576105876104ce565b50506001821b6103f3565b5060208310610133831016604e8410600b84101617156105b5575081810a6103f3565b6105bf83836104f7565b80600019048211156105d3576105d36104ce565b029392505050565b60006105e7838361053a565b939250505056fea264697066735822122029d8b9f7378575b8f089c21c762ee1b06a36ce0a61de9c86a1814fab294cd87864736f6c63430008170033",
    "linkReferences": {}
  },
  "methodIdentifiers": {
    "base()": "5001f3b5",
    "baseStalePriceInterval()": "0b084249",
    "decimals()": "313ce567",
    "getPrice()": "98d5fdca",
    "quote()": "999b93af",
    "quoteStalePriceInterval()": "ce52a6b4"
  },
  "id": 119
}