{
  "abi": [
    {
      "type": "constructor",
      "inputs": [],
      "stateMutability": "nonpayable"
    },
    {
      "type": "function",
      "name": "DEFAULT_ADMIN_ROLE",
      "inputs": [],
      "outputs": [
        {
          "name": "",
          "type": "bytes32",
          "internalType": "bytes32"
        }
      ],
      "stateMutability": "view"
    },
    {
      "type": "function",
      "name": "UPGRADE_INTERFACE_VERSION",
      "inputs": [],
      "outputs": [
        {
          "name": "",
          "type": "string",
          "internalType": "string"
        }
      ],
      "stateMutability": "view"
    },
    {
      "type": "function",
      "name": "buyCreditLimit",
      "inputs": [
        {
          "name": "params",
          "type": "tuple",
          "internalType": "struct BuyCreditLimitParams",
          "components": [
            {
              "name": "maxDueDate",
              "type": "uint256",
              "internalType": "uint256"
            },
            {
              "name": "curveRelativeTime",
              "type": "tuple",
              "internalType": "struct YieldCurve",
              "components": [
                {
                  "name": "tenors",
                  "type": "uint256[]",
                  "internalType": "uint256[]"
                },
                {
                  "name": "aprs",
                  "type": "int256[]",
                  "internalType": "int256[]"
                },
                {
                  "name": "marketRateMultipliers",
                  "type": "uint256[]",
                  "internalType": "uint256[]"
                }
              ]
            }
          ]
        }
      ],
      "outputs": [],
      "stateMutability": "payable"
    },
    {
      "type": "function",
      "name": "buyCreditMarket",
      "inputs": [
        {
          "name": "params",
          "type": "tuple",
          "internalType": "struct BuyCreditMarketParams",
          "components": [
            {
              "name": "borrower",
              "type": "address",
              "internalType": "address"
            },
            {
              "name": "creditPositionId",
              "type": "uint256",
              "internalType": "uint256"
            },
            {
              "name": "amount",
              "type": "uint256",
              "internalType": "uint256"
            },
            {
              "name": "tenor",
              "type": "uint256",
              "internalType": "uint256"
            },
            {
              "name": "deadline",
              "type": "uint256",
              "internalType": "uint256"
            },
            {
              "name": "minAPR",
              "type": "uint256",
              "internalType": "uint256"
            },
            {
              "name": "exactAmountIn",
              "type": "bool",
              "internalType": "bool"
            }
          ]
        }
      ],
      "outputs": [],
      "stateMutability": "payable"
    },
    {
      "type": "function",
      "name": "claim",
      "inputs": [
        {
          "name": "params",
          "type": "tuple",
          "internalType": "struct ClaimParams",
          "components": [
            {
              "name": "creditPositionId",
              "type": "uint256",
              "internalType": "uint256"
            }
          ]
        }
      ],
      "outputs": [],
      "stateMutability": "payable"
    },
    {
      "type": "function",
      "name": "collateralRatio",
      "inputs": [
        {
          "name": "user",
          "type": "address",
          "internalType": "address"
        }
      ],
      "outputs": [
        {
          "name": "",
          "type": "uint256",
          "internalType": "uint256"
        }
      ],
      "stateMutability": "view"
    },
    {
      "type": "function",
      "name": "compensate",
      "inputs": [
        {
          "name": "params",
          "type": "tuple",
          "internalType": "struct CompensateParams",
          "components": [
            {
              "name": "creditPositionWithDebtToRepayId",
              "type": "uint256",
              "internalType": "uint256"
            },
            {
              "name": "creditPositionToCompensateId",
              "type": "uint256",
              "internalType": "uint256"
            },
            {
              "name": "amount",
              "type": "uint256",
              "internalType": "uint256"
            }
          ]
        }
      ],
      "outputs": [],
      "stateMutability": "payable"
    },
    {
      "type": "function",
      "name": "copyLimitOrders",
      "inputs": [
        {
          "name": "params",
          "type": "tuple",
          "internalType": "struct CopyLimitOrdersParams",
          "components": [
            {
              "name": "copyAddress",
              "type": "address",
              "internalType": "address"
            },
            {
              "name": "copyLoanOffer",
              "type": "tuple",
              "internalType": "struct CopyLimitOrder",
              "components": [
                {
                  "name": "minTenor",
                  "type": "uint256",
                  "internalType": "uint256"
                },
                {
                  "name": "maxTenor",
                  "type": "uint256",
                  "internalType": "uint256"
                },
                {
                  "name": "minAPR",
                  "type": "uint256",
                  "internalType": "uint256"
                },
                {
                  "name": "maxAPR",
                  "type": "uint256",
                  "internalType": "uint256"
                },
                {
                  "name": "offsetAPR",
                  "type": "int256",
                  "internalType": "int256"
                }
              ]
            },
            {
              "name": "copyBorrowOffer",
              "type": "tuple",
              "internalType": "struct CopyLimitOrder",
              "components": [
                {
                  "name": "minTenor",
                  "type": "uint256",
                  "internalType": "uint256"
                },
                {
                  "name": "maxTenor",
                  "type": "uint256",
                  "internalType": "uint256"
                },
                {
                  "name": "minAPR",
                  "type": "uint256",
                  "internalType": "uint256"
                },
                {
                  "name": "maxAPR",
                  "type": "uint256",
                  "internalType": "uint256"
                },
                {
                  "name": "offsetAPR",
                  "type": "int256",
                  "internalType": "int256"
                }
              ]
            }
          ]
        }
      ],
      "outputs": [],
      "stateMutability": "payable"
    },
    {
      "type": "function",
      "name": "data",
      "inputs": [],
      "outputs": [
        {
          "name": "",
          "type": "tuple",
          "internalType": "struct DataView",
          "components": [
            {
              "name": "nextDebtPositionId",
              "type": "uint256",
              "internalType": "uint256"
            },
            {
              "name": "nextCreditPositionId",
              "type": "uint256",
              "internalType": "uint256"
            },
            {
              "name": "underlyingCollateralToken",
              "type": "address",
              "internalType": "contract IERC20Metadata"
            },
            {
              "name": "underlyingBorrowToken",
              "type": "address",
              "internalType": "contract IERC20Metadata"
            },
            {
              "name": "collateralToken",
              "type": "address",
              "internalType": "contract NonTransferrableToken"
            },
            {
              "name": "borrowAToken",
              "type": "address",
              "internalType": "contract NonTransferrableScaledTokenV1_5"
            },
            {
              "name": "debtToken",
              "type": "address",
              "internalType": "contract NonTransferrableToken"
            },
            {
              "name": "variablePool",
              "type": "address",
              "internalType": "contract IPool"
            }
          ]
        }
      ],
      "stateMutability": "view"
    },
    {
      "type": "function",
      "name": "debtTokenAmountToCollateralTokenAmount",
      "inputs": [
        {
          "name": "borrowATokenAmount",
          "type": "uint256",
          "internalType": "uint256"
        }
      ],
      "outputs": [
        {
          "name": "",
          "type": "uint256",
          "internalType": "uint256"
        }
      ],
      "stateMutability": "view"
    },
    {
      "type": "function",
      "name": "deposit",
      "inputs": [
        {
          "name": "params",
          "type": "tuple",
          "internalType": "struct DepositParams",
          "components": [
            {
              "name": "token",
              "type": "address",
              "internalType": "address"
            },
            {
              "name": "amount",
              "type": "uint256",
              "internalType": "uint256"
            },
            {
              "name": "to",
              "type": "address",
              "internalType": "address"
            }
          ]
        }
      ],
      "outputs": [],
      "stateMutability": "payable"
    },
    {
      "type": "function",
      "name": "feeConfig",
      "inputs": [],
      "outputs": [
        {
          "name": "",
          "type": "tuple",
          "internalType": "struct InitializeFeeConfigParams",
          "components": [
            {
              "name": "swapFeeAPR",
              "type": "uint256",
              "internalType": "uint256"
            },
            {
              "name": "fragmentationFee",
              "type": "uint256",
              "internalType": "uint256"
            },
            {
              "name": "liquidationRewardPercent",
              "type": "uint256",
              "internalType": "uint256"
            },
            {
              "name": "overdueCollateralProtocolPercent",
              "type": "uint256",
              "internalType": "uint256"
            },
            {
              "name": "collateralProtocolPercent",
              "type": "uint256",
              "internalType": "uint256"
            },
            {
              "name": "feeRecipient",
              "type": "address",
              "internalType": "address"
            }
          ]
        }
      ],
      "stateMutability": "view"
    },
    {
      "type": "function",
      "name": "getBorrowOfferAPR",
      "inputs": [
        {
          "name": "borrower",
          "type": "address",
          "internalType": "address"
        },
        {
          "name": "tenor",
          "type": "uint256",
          "internalType": "uint256"
        }
      ],
      "outputs": [
        {
          "name": "",
          "type": "uint256",
          "internalType": "uint256"
        }
      ],
      "stateMutability": "view"
    },
    {
      "type": "function",
      "name": "getBuyCreditMarketSwapData",
      "inputs": [
        {
          "name": "params",
          "type": "tuple",
          "internalType": "struct BuyCreditMarketParams",
          "components": [
            {
              "name": "borrower",
              "type": "address",
              "internalType": "address"
            },
            {
              "name": "creditPositionId",
              "type": "uint256",
              "internalType": "uint256"
            },
            {
              "name": "amount",
              "type": "uint256",
              "internalType": "uint256"
            },
            {
              "name": "tenor",
              "type": "uint256",
              "internalType": "uint256"
            },
            {
              "name": "deadline",
              "type": "uint256",
              "internalType": "uint256"
            },
            {
              "name": "minAPR",
              "type": "uint256",
              "internalType": "uint256"
            },
            {
              "name": "exactAmountIn",
              "type": "bool",
              "internalType": "bool"
            }
          ]
        }
      ],
      "outputs": [
        {
          "name": "",
          "type": "tuple",
          "internalType": "struct BuyCreditMarket.SwapDataBuyCreditMarket",
          "components": [
            {
              "name": "creditPosition",
              "type": "tuple",
              "internalType": "struct CreditPosition",
              "components": [
                {
                  "name": "lender",
                  "type": "address",
                  "internalType": "address"
                },
                {
                  "name": "forSale",
                  "type": "bool",
                  "internalType": "bool"
                },
                {
                  "name": "credit",
                  "type": "uint256",
                  "internalType": "uint256"
                },
                {
                  "name": "debtPositionId",
                  "type": "uint256",
                  "internalType": "uint256"
                }
              ]
            },
            {
              "name": "borrower",
              "type": "address",
              "internalType": "address"
            },
            {
              "name": "creditAmountOut",
              "type": "uint256",
              "internalType": "uint256"
            },
            {
              "name": "cashAmountIn",
              "type": "uint256",
              "internalType": "uint256"
            },
            {
              "name": "swapFee",
              "type": "uint256",
              "internalType": "uint256"
            },
            {
              "name": "fragmentationFee",
              "type": "uint256",
              "internalType": "uint256"
            },
            {
              "name": "tenor",
              "type": "uint256",
              "internalType": "uint256"
            }
          ]
        }
      ],
      "stateMutability": "view"
    },
    {
      "type": "function",
      "name": "getCreditPosition",
      "inputs": [
        {
          "name": "creditPositionId",
          "type": "uint256",
          "internalType": "uint256"
        }
      ],
      "outputs": [
        {
          "name": "",
          "type": "tuple",
          "internalType": "struct CreditPosition",
          "components": [
            {
              "name": "lender",
              "type": "address",
              "internalType": "address"
            },
            {
              "name": "forSale",
              "type": "bool",
              "internalType": "bool"
            },
            {
              "name": "credit",
              "type": "uint256",
              "internalType": "uint256"
            },
            {
              "name": "debtPositionId",
              "type": "uint256",
              "internalType": "uint256"
            }
          ]
        }
      ],
      "stateMutability": "view"
    },
    {
      "type": "function",
      "name": "getDebtPosition",
      "inputs": [
        {
          "name": "debtPositionId",
          "type": "uint256",
          "internalType": "uint256"
        }
      ],
      "outputs": [
        {
          "name": "",
          "type": "tuple",
          "internalType": "struct DebtPosition",
          "components": [
            {
              "name": "borrower",
              "type": "address",
              "internalType": "address"
            },
            {
              "name": "futureValue",
              "type": "uint256",
              "internalType": "uint256"
            },
            {
              "name": "dueDate",
              "type": "uint256",
              "internalType": "uint256"
            },
            {
              "name": "liquidityIndexAtRepayment",
              "type": "uint256",
              "internalType": "uint256"
            }
          ]
        }
      ],
      "stateMutability": "view"
    },
    {
      "type": "function",
      "name": "getDebtPositionAssignedCollateral",
      "inputs": [
        {
          "name": "debtPositionId",
          "type": "uint256",
          "internalType": "uint256"
        }
      ],
      "outputs": [
        {
          "name": "",
          "type": "uint256",
          "internalType": "uint256"
        }
      ],
      "stateMutability": "view"
    },
    {
      "type": "function",
      "name": "getLoanOfferAPR",
      "inputs": [
        {
          "name": "lender",
          "type": "address",
          "internalType": "address"
        },
        {
          "name": "tenor",
          "type": "uint256",
          "internalType": "uint256"
        }
      ],
      "outputs": [
        {
          "name": "",
          "type": "uint256",
          "internalType": "uint256"
        }
      ],
      "stateMutability": "view"
    },
    {
      "type": "function",
      "name": "getLoanStatus",
      "inputs": [
        {
          "name": "positionId",
          "type": "uint256",
          "internalType": "uint256"
        }
      ],
      "outputs": [
        {
          "name": "",
          "type": "uint8",
          "internalType": "enum LoanStatus"
        }
      ],
      "stateMutability": "view"
    },
    {
      "type": "function",
      "name": "getPositionsCount",
      "inputs": [],
      "outputs": [
        {
          "name": "",
          "type": "uint256",
          "internalType": "uint256"
        },
        {
          "name": "",
          "type": "uint256",
          "internalType": "uint256"
        }
      ],
      "stateMutability": "view"
    },
    {
      "type": "function",
      "name": "getRoleAdmin",
      "inputs": [
        {
          "name": "role",
          "type": "bytes32",
          "internalType": "bytes32"
        }
      ],
      "outputs": [
        {
          "name": "",
          "type": "bytes32",
          "internalType": "bytes32"
        }
      ],
      "stateMutability": "view"
    },
    {
      "type": "function",
      "name": "getSellCreditMarketSwapData",
      "inputs": [
        {
          "name": "params",
          "type": "tuple",
          "internalType": "struct SellCreditMarketParams",
          "components": [
            {
              "name": "lender",
              "type": "address",
              "internalType": "address"
            },
            {
              "name": "creditPositionId",
              "type": "uint256",
              "internalType": "uint256"
            },
            {
              "name": "amount",
              "type": "uint256",
              "internalType": "uint256"
            },
            {
              "name": "tenor",
              "type": "uint256",
              "internalType": "uint256"
            },
            {
              "name": "deadline",
              "type": "uint256",
              "internalType": "uint256"
            },
            {
              "name": "maxAPR",
              "type": "uint256",
              "internalType": "uint256"
            },
            {
              "name": "exactAmountIn",
              "type": "bool",
              "internalType": "bool"
            }
          ]
        }
      ],
      "outputs": [
        {
          "name": "",
          "type": "tuple",
          "internalType": "struct SellCreditMarket.SwapDataSellCreditMarket",
          "components": [
            {
              "name": "creditPosition",
              "type": "tuple",
              "internalType": "struct CreditPosition",
              "components": [
                {
                  "name": "lender",
                  "type": "address",
                  "internalType": "address"
                },
                {
                  "name": "forSale",
                  "type": "bool",
                  "internalType": "bool"
                },
                {
                  "name": "credit",
                  "type": "uint256",
                  "internalType": "uint256"
                },
                {
                  "name": "debtPositionId",
                  "type": "uint256",
                  "internalType": "uint256"
                }
              ]
            },
            {
              "name": "creditAmountIn",
              "type": "uint256",
              "internalType": "uint256"
            },
            {
              "name": "cashAmountOut",
              "type": "uint256",
              "internalType": "uint256"
            },
            {
              "name": "swapFee",
              "type": "uint256",
              "internalType": "uint256"
            },
            {
              "name": "fragmentationFee",
              "type": "uint256",
              "internalType": "uint256"
            },
            {
              "name": "tenor",
              "type": "uint256",
              "internalType": "uint256"
            }
          ]
        }
      ],
      "stateMutability": "view"
    },
    {
      "type": "function",
      "name": "getSwapFee",
      "inputs": [
        {
          "name": "cash",
          "type": "uint256",
          "internalType": "uint256"
        },
        {
          "name": "tenor",
          "type": "uint256",
          "internalType": "uint256"
        }
      ],
      "outputs": [
        {
          "name": "",
          "type": "uint256",
          "internalType": "uint256"
        }
      ],
      "stateMutability": "view"
    },
    {
      "type": "function",
      "name": "getUserCopyLimitOrders",
      "inputs": [
        {
          "name": "user",
          "type": "address",
          "internalType": "address"
        }
      ],
      "outputs": [
        {
          "name": "",
          "type": "tuple",
          "internalType": "struct UserCopyLimitOrders",
          "components": [
            {
              "name": "copyAddress",
              "type": "address",
              "internalType": "address"
            },
            {
              "name": "copyLoanOffer",
              "type": "tuple",
              "internalType": "struct CopyLimitOrder",
              "components": [
                {
                  "name": "minTenor",
                  "type": "uint256",
                  "internalType": "uint256"
                },
                {
                  "name": "maxTenor",
                  "type": "uint256",
                  "internalType": "uint256"
                },
                {
                  "name": "minAPR",
                  "type": "uint256",
                  "internalType": "uint256"
                },
                {
                  "name": "maxAPR",
                  "type": "uint256",
                  "internalType": "uint256"
                },
                {
                  "name": "offsetAPR",
                  "type": "int256",
                  "internalType": "int256"
                }
              ]
            },
            {
              "name": "copyBorrowOffer",
              "type": "tuple",
              "internalType": "struct CopyLimitOrder",
              "components": [
                {
                  "name": "minTenor",
                  "type": "uint256",
                  "internalType": "uint256"
                },
                {
                  "name": "maxTenor",
                  "type": "uint256",
                  "internalType": "uint256"
                },
                {
                  "name": "minAPR",
                  "type": "uint256",
                  "internalType": "uint256"
                },
                {
                  "name": "maxAPR",
                  "type": "uint256",
                  "internalType": "uint256"
                },
                {
                  "name": "offsetAPR",
                  "type": "int256",
                  "internalType": "int256"
                }
              ]
            }
          ]
        }
      ],
      "stateMutability": "view"
    },
    {
      "type": "function",
      "name": "getUserView",
      "inputs": [
        {
          "name": "user",
          "type": "address",
          "internalType": "address"
        }
      ],
      "outputs": [
        {
          "name": "",
          "type": "tuple",
          "internalType": "struct UserView",
          "components": [
            {
              "name": "user",
              "type": "tuple",
              "internalType": "struct User",
              "components": [
                {
                  "name": "loanOffer",
                  "type": "tuple",
                  "internalType": "struct LimitOrder",
                  "components": [
                    {
                      "name": "maxDueDate",
                      "type": "uint256",
                      "internalType": "uint256"
                    },
                    {
                      "name": "curveRelativeTime",
                      "type": "tuple",
                      "internalType": "struct YieldCurve",
                      "components": [
                        {
                          "name": "tenors",
                          "type": "uint256[]",
                          "internalType": "uint256[]"
                        },
                        {
                          "name": "aprs",
                          "type": "int256[]",
                          "internalType": "int256[]"
                        },
                        {
                          "name": "marketRateMultipliers",
                          "type": "uint256[]",
                          "internalType": "uint256[]"
                        }
                      ]
                    }
                  ]
                },
                {
                  "name": "borrowOffer",
                  "type": "tuple",
                  "internalType": "struct LimitOrder",
                  "components": [
                    {
                      "name": "maxDueDate",
                      "type": "uint256",
                      "internalType": "uint256"
                    },
                    {
                      "name": "curveRelativeTime",
                      "type": "tuple",
                      "internalType": "struct YieldCurve",
                      "components": [
                        {
                          "name": "tenors",
                          "type": "uint256[]",
                          "internalType": "uint256[]"
                        },
                        {
                          "name": "aprs",
                          "type": "int256[]",
                          "internalType": "int256[]"
                        },
                        {
                          "name": "marketRateMultipliers",
                          "type": "uint256[]",
                          "internalType": "uint256[]"
                        }
                      ]
                    }
                  ]
                },
                {
                  "name": "openingLimitBorrowCR",
                  "type": "uint256",
                  "internalType": "uint256"
                },
                {
                  "name": "allCreditPositionsForSaleDisabled",
                  "type": "bool",
                  "internalType": "bool"
                }
              ]
            },
            {
              "name": "account",
              "type": "address",
              "internalType": "address"
            },
            {
              "name": "collateralTokenBalance",
              "type": "uint256",
              "internalType": "uint256"
            },
            {
              "name": "borrowATokenBalance",
              "type": "uint256",
              "internalType": "uint256"
            },
            {
              "name": "debtBalance",
              "type": "uint256",
              "internalType": "uint256"
            }
          ]
        }
      ],
      "stateMutability": "view"
    },
    {
      "type": "function",
      "name": "grantRole",
      "inputs": [
        {
          "name": "role",
          "type": "bytes32",
          "internalType": "bytes32"
        },
        {
          "name": "account",
          "type": "address",
          "internalType": "address"
        }
      ],
      "outputs": [],
      "stateMutability": "nonpayable"
    },
    {
      "type": "function",
      "name": "hasRole",
      "inputs": [
        {
          "name": "role",
          "type": "bytes32",
          "internalType": "bytes32"
        },
        {
          "name": "account",
          "type": "address",
          "internalType": "address"
        }
      ],
      "outputs": [
        {
          "name": "",
          "type": "bool",
          "internalType": "bool"
        }
      ],
      "stateMutability": "view"
    },
    {
      "type": "function",
      "name": "initialize",
      "inputs": [
        {
          "name": "owner",
          "type": "address",
          "internalType": "address"
        },
        {
          "name": "f",
          "type": "tuple",
          "internalType": "struct InitializeFeeConfigParams",
          "components": [
            {
              "name": "swapFeeAPR",
              "type": "uint256",
              "internalType": "uint256"
            },
            {
              "name": "fragmentationFee",
              "type": "uint256",
              "internalType": "uint256"
            },
            {
              "name": "liquidationRewardPercent",
              "type": "uint256",
              "internalType": "uint256"
            },
            {
              "name": "overdueCollateralProtocolPercent",
              "type": "uint256",
              "internalType": "uint256"
            },
            {
              "name": "collateralProtocolPercent",
              "type": "uint256",
              "internalType": "uint256"
            },
            {
              "name": "feeRecipient",
              "type": "address",
              "internalType": "address"
            }
          ]
        },
        {
          "name": "r",
          "type": "tuple",
          "internalType": "struct InitializeRiskConfigParams",
          "components": [
            {
              "name": "crOpening",
              "type": "uint256",
              "internalType": "uint256"
            },
            {
              "name": "crLiquidation",
              "type": "uint256",
              "internalType": "uint256"
            },
            {
              "name": "minimumCreditBorrowAToken",
              "type": "uint256",
              "internalType": "uint256"
            },
            {
              "name": "borrowATokenCap",
              "type": "uint256",
              "internalType": "uint256"
            },
            {
              "name": "minTenor",
              "type": "uint256",
              "internalType": "uint256"
            },
            {
              "name": "maxTenor",
              "type": "uint256",
              "internalType": "uint256"
            }
          ]
        },
        {
          "name": "o",
          "type": "tuple",
          "internalType": "struct InitializeOracleParams",
          "components": [
            {
              "name": "priceFeed",
              "type": "address",
              "internalType": "address"
            },
            {
              "name": "variablePoolBorrowRateStaleRateInterval",
              "type": "uint64",
              "internalType": "uint64"
            }
          ]
        },
        {
          "name": "d",
          "type": "tuple",
          "internalType": "struct InitializeDataParams",
          "components": [
            {
              "name": "weth",
              "type": "address",
              "internalType": "address"
            },
            {
              "name": "underlyingCollateralToken",
              "type": "address",
              "internalType": "address"
            },
            {
              "name": "underlyingBorrowToken",
              "type": "address",
              "internalType": "address"
            },
            {
              "name": "variablePool",
              "type": "address",
              "internalType": "address"
            },
            {
              "name": "borrowATokenV1_5",
              "type": "address",
              "internalType": "address"
            }
          ]
        }
      ],
      "outputs": [],
      "stateMutability": "nonpayable"
    },
    {
      "type": "function",
      "name": "isCreditPositionId",
      "inputs": [
        {
          "name": "creditPositionId",
          "type": "uint256",
          "internalType": "uint256"
        }
      ],
      "outputs": [
        {
          "name": "",
          "type": "bool",
          "internalType": "bool"
        }
      ],
      "stateMutability": "view"
    },
    {
      "type": "function",
      "name": "isDebtPositionId",
      "inputs": [
        {
          "name": "debtPositionId",
          "type": "uint256",
          "internalType": "uint256"
        }
      ],
      "outputs": [
        {
          "name": "",
          "type": "bool",
          "internalType": "bool"
        }
      ],
      "stateMutability": "view"
    },
    {
      "type": "function",
      "name": "isDebtPositionLiquidatable",
      "inputs": [
        {
          "name": "debtPositionId",
          "type": "uint256",
          "internalType": "uint256"
        }
      ],
      "outputs": [
        {
          "name": "",
          "type": "bool",
          "internalType": "bool"
        }
      ],
      "stateMutability": "view"
    },
    {
      "type": "function",
      "name": "isUserUnderwater",
      "inputs": [
        {
          "name": "user",
          "type": "address",
          "internalType": "address"
        }
      ],
      "outputs": [
        {
          "name": "",
          "type": "bool",
          "internalType": "bool"
        }
      ],
      "stateMutability": "view"
    },
    {
      "type": "function",
      "name": "liquidate",
      "inputs": [
        {
          "name": "params",
          "type": "tuple",
          "internalType": "struct LiquidateParams",
          "components": [
            {
              "name": "debtPositionId",
              "type": "uint256",
              "internalType": "uint256"
            },
            {
              "name": "minimumCollateralProfit",
              "type": "uint256",
              "internalType": "uint256"
            },
            {
              "name": "deadline",
              "type": "uint256",
              "internalType": "uint256"
            }
          ]
        }
      ],
      "outputs": [
        {
          "name": "liquidatorProfitCollateralToken",
          "type": "uint256",
          "internalType": "uint256"
        }
      ],
      "stateMutability": "payable"
    },
    {
      "type": "function",
      "name": "liquidateWithReplacement",
      "inputs": [
        {
          "name": "params",
          "type": "tuple",
          "internalType": "struct LiquidateWithReplacementParams",
          "components": [
            {
              "name": "debtPositionId",
              "type": "uint256",
              "internalType": "uint256"
            },
            {
              "name": "borrower",
              "type": "address",
              "internalType": "address"
            },
            {
              "name": "minimumCollateralProfit",
              "type": "uint256",
              "internalType": "uint256"
            },
            {
              "name": "deadline",
              "type": "uint256",
              "internalType": "uint256"
            },
            {
              "name": "minAPR",
              "type": "uint256",
              "internalType": "uint256"
            }
          ]
        }
      ],
      "outputs": [
        {
          "name": "liquidatorProfitCollateralToken",
          "type": "uint256",
          "internalType": "uint256"
        },
        {
          "name": "liquidatorProfitBorrowToken",
          "type": "uint256",
          "internalType": "uint256"
        }
      ],
      "stateMutability": "payable"
    },
    {
      "type": "function",
      "name": "multicall",
      "inputs": [
        {
          "name": "_data",
          "type": "bytes[]",
          "internalType": "bytes[]"
        }
      ],
      "outputs": [
        {
          "name": "results",
          "type": "bytes[]",
          "internalType": "bytes[]"
        }
      ],
      "stateMutability": "payable"
    },
    {
      "type": "function",
      "name": "oracle",
      "inputs": [],
      "outputs": [
        {
          "name": "",
          "type": "tuple",
          "internalType": "struct InitializeOracleParams",
          "components": [
            {
              "name": "priceFeed",
              "type": "address",
              "internalType": "address"
            },
            {
              "name": "variablePoolBorrowRateStaleRateInterval",
              "type": "uint64",
              "internalType": "uint64"
            }
          ]
        }
      ],
      "stateMutability": "view"
    },
    {
      "type": "function",
      "name": "pause",
      "inputs": [],
      "outputs": [],
      "stateMutability": "nonpayable"
    },
    {
      "type": "function",
      "name": "paused",
      "inputs": [],
      "outputs": [
        {
          "name": "",
          "type": "bool",
          "internalType": "bool"
        }
      ],
      "stateMutability": "view"
    },
    {
      "type": "function",
      "name": "proxiableUUID",
      "inputs": [],
      "outputs": [
        {
          "name": "",
          "type": "bytes32",
          "internalType": "bytes32"
        }
      ],
      "stateMutability": "view"
    },
    {
      "type": "function",
      "name": "renounceRole",
      "inputs": [
        {
          "name": "role",
          "type": "bytes32",
          "internalType": "bytes32"
        },
        {
          "name": "callerConfirmation",
          "type": "address",
          "internalType": "address"
        }
      ],
      "outputs": [],
      "stateMutability": "nonpayable"
    },
    {
      "type": "function",
      "name": "repay",
      "inputs": [
        {
          "name": "params",
          "type": "tuple",
          "internalType": "struct RepayParams",
          "components": [
            {
              "name": "debtPositionId",
              "type": "uint256",
              "internalType": "uint256"
            },
            {
              "name": "borrower",
              "type": "address",
              "internalType": "address"
            }
          ]
        }
      ],
      "outputs": [],
      "stateMutability": "payable"
    },
    {
      "type": "function",
      "name": "revokeRole",
      "inputs": [
        {
          "name": "role",
          "type": "bytes32",
          "internalType": "bytes32"
        },
        {
          "name": "account",
          "type": "address",
          "internalType": "address"
        }
      ],
      "outputs": [],
      "stateMutability": "nonpayable"
    },
    {
      "type": "function",
      "name": "riskConfig",
      "inputs": [],
      "outputs": [
        {
          "name": "",
          "type": "tuple",
          "internalType": "struct InitializeRiskConfigParams",
          "components": [
            {
              "name": "crOpening",
              "type": "uint256",
              "internalType": "uint256"
            },
            {
              "name": "crLiquidation",
              "type": "uint256",
              "internalType": "uint256"
            },
            {
              "name": "minimumCreditBorrowAToken",
              "type": "uint256",
              "internalType": "uint256"
            },
            {
              "name": "borrowATokenCap",
              "type": "uint256",
              "internalType": "uint256"
            },
            {
              "name": "minTenor",
              "type": "uint256",
              "internalType": "uint256"
            },
            {
              "name": "maxTenor",
              "type": "uint256",
              "internalType": "uint256"
            }
          ]
        }
      ],
      "stateMutability": "view"
    },
    {
      "type": "function",
      "name": "selfLiquidate",
      "inputs": [
        {
          "name": "params",
          "type": "tuple",
          "internalType": "struct SelfLiquidateParams",
          "components": [
            {
              "name": "creditPositionId",
              "type": "uint256",
              "internalType": "uint256"
            }
          ]
        }
      ],
      "outputs": [],
      "stateMutability": "payable"
    },
    {
      "type": "function",
      "name": "sellCreditLimit",
      "inputs": [
        {
          "name": "params",
          "type": "tuple",
          "internalType": "struct SellCreditLimitParams",
          "components": [
            {
              "name": "maxDueDate",
              "type": "uint256",
              "internalType": "uint256"
            },
            {
              "name": "curveRelativeTime",
              "type": "tuple",
              "internalType": "struct YieldCurve",
              "components": [
                {
                  "name": "tenors",
                  "type": "uint256[]",
                  "internalType": "uint256[]"
                },
                {
                  "name": "aprs",
                  "type": "int256[]",
                  "internalType": "int256[]"
                },
                {
                  "name": "marketRateMultipliers",
                  "type": "uint256[]",
                  "internalType": "uint256[]"
                }
              ]
            }
          ]
        }
      ],
      "outputs": [],
      "stateMutability": "payable"
    },
    {
      "type": "function",
      "name": "sellCreditMarket",
      "inputs": [
        {
          "name": "params",
          "type": "tuple",
          "internalType": "struct SellCreditMarketParams",
          "components": [
            {
              "name": "lender",
              "type": "address",
              "internalType": "address"
            },
            {
              "name": "creditPositionId",
              "type": "uint256",
              "internalType": "uint256"
            },
            {
              "name": "amount",
              "type": "uint256",
              "internalType": "uint256"
            },
            {
              "name": "tenor",
              "type": "uint256",
              "internalType": "uint256"
            },
            {
              "name": "deadline",
              "type": "uint256",
              "internalType": "uint256"
            },
            {
              "name": "maxAPR",
              "type": "uint256",
              "internalType": "uint256"
            },
            {
              "name": "exactAmountIn",
              "type": "bool",
              "internalType": "bool"
            }
          ]
        }
      ],
      "outputs": [],
      "stateMutability": "payable"
    },
    {
      "type": "function",
      "name": "setUserConfiguration",
      "inputs": [
        {
          "name": "params",
          "type": "tuple",
          "internalType": "struct SetUserConfigurationParams",
          "components": [
            {
              "name": "openingLimitBorrowCR",
              "type": "uint256",
              "internalType": "uint256"
            },
            {
              "name": "allCreditPositionsForSaleDisabled",
              "type": "bool",
              "internalType": "bool"
            },
            {
              "name": "creditPositionIdsForSale",
              "type": "bool",
              "internalType": "bool"
            },
            {
              "name": "creditPositionIds",
              "type": "uint256[]",
              "internalType": "uint256[]"
            }
          ]
        }
      ],
      "outputs": [],
      "stateMutability": "payable"
    },
    {
      "type": "function",
      "name": "setVariablePoolBorrowRate",
      "inputs": [
        {
          "name": "borrowRate",
          "type": "uint128",
          "internalType": "uint128"
        }
      ],
      "outputs": [],
      "stateMutability": "nonpayable"
    },
    {
      "type": "function",
      "name": "supportsInterface",
      "inputs": [
        {
          "name": "interfaceId",
          "type": "bytes4",
          "internalType": "bytes4"
        }
      ],
      "outputs": [
        {
          "name": "",
          "type": "bool",
          "internalType": "bool"
        }
      ],
      "stateMutability": "view"
    },
    {
      "type": "function",
      "name": "unpause",
      "inputs": [],
      "outputs": [],
      "stateMutability": "nonpayable"
    },
    {
      "type": "function",
      "name": "updateConfig",
      "inputs": [
        {
          "name": "params",
          "type": "tuple",
          "internalType": "struct UpdateConfigParams",
          "components": [
            {
              "name": "key",
              "type": "string",
              "internalType": "string"
            },
            {
              "name": "value",
              "type": "uint256",
              "internalType": "uint256"
            }
          ]
        }
      ],
      "outputs": [],
      "stateMutability": "nonpayable"
    },
    {
      "type": "function",
      "name": "upgradeToAndCall",
      "inputs": [
        {
          "name": "newImplementation",
          "type": "address",
          "internalType": "address"
        },
        {
          "name": "data",
          "type": "bytes",
          "internalType": "bytes"
        }
      ],
      "outputs": [],
      "stateMutability": "payable"
    },
    {
      "type": "function",
      "name": "version",
      "inputs": [],
      "outputs": [
        {
          "name": "",
          "type": "string",
          "internalType": "string"
        }
      ],
      "stateMutability": "pure"
    },
    {
      "type": "function",
      "name": "withdraw",
      "inputs": [
        {
          "name": "params",
          "type": "tuple",
          "internalType": "struct WithdrawParams",
          "components": [
            {
              "name": "token",
              "type": "address",
              "internalType": "address"
            },
            {
              "name": "amount",
              "type": "uint256",
              "internalType": "uint256"
            },
            {
              "name": "to",
              "type": "address",
              "internalType": "address"
            }
          ]
        }
      ],
      "outputs": [],
      "stateMutability": "payable"
    },
    {
      "type": "event",
      "name": "Initialized",
      "inputs": [
        {
          "name": "version",
          "type": "uint64",
          "indexed": false,
          "internalType": "uint64"
        }
      ],
      "anonymous": false
    },
    {
      "type": "event",
      "name": "Paused",
      "inputs": [
        {
          "name": "account",
          "type": "address",
          "indexed": false,
          "internalType": "address"
        }
      ],
      "anonymous": false
    },
    {
      "type": "event",
      "name": "RoleAdminChanged",
      "inputs": [
        {
          "name": "role",
          "type": "bytes32",
          "indexed": true,
          "internalType": "bytes32"
        },
        {
          "name": "previousAdminRole",
          "type": "bytes32",
          "indexed": true,
          "internalType": "bytes32"
        },
        {
          "name": "newAdminRole",
          "type": "bytes32",
          "indexed": true,
          "internalType": "bytes32"
        }
      ],
      "anonymous": false
    },
    {
      "type": "event",
      "name": "RoleGranted",
      "inputs": [
        {
          "name": "role",
          "type": "bytes32",
          "indexed": true,
          "internalType": "bytes32"
        },
        {
          "name": "account",
          "type": "address",
          "indexed": true,
          "internalType": "address"
        },
        {
          "name": "sender",
          "type": "address",
          "indexed": true,
          "internalType": "address"
        }
      ],
      "anonymous": false
    },
    {
      "type": "event",
      "name": "RoleRevoked",
      "inputs": [
        {
          "name": "role",
          "type": "bytes32",
          "indexed": true,
          "internalType": "bytes32"
        },
        {
          "name": "account",
          "type": "address",
          "indexed": true,
          "internalType": "address"
        },
        {
          "name": "sender",
          "type": "address",
          "indexed": true,
          "internalType": "address"
        }
      ],
      "anonymous": false
    },
    {
      "type": "event",
      "name": "Unpaused",
      "inputs": [
        {
          "name": "account",
          "type": "address",
          "indexed": false,
          "internalType": "address"
        }
      ],
      "anonymous": false
    },
    {
      "type": "event",
      "name": "Upgraded",
      "inputs": [
        {
          "name": "implementation",
          "type": "address",
          "indexed": true,
          "internalType": "address"
        }
      ],
      "anonymous": false
    },
    {
      "type": "event",
      "name": "VariablePoolBorrowRateUpdated",
      "inputs": [
        {
          "name": "sender",
          "type": "address",
          "indexed": true,
          "internalType": "address"
        },
        {
          "name": "oldBorrowRate",
          "type": "uint128",
          "indexed": false,
          "internalType": "uint128"
        },
        {
          "name": "newBorrowRate",
          "type": "uint128",
          "indexed": false,
          "internalType": "uint128"
        }
      ],
      "anonymous": false
    },
    {
      "type": "error",
      "name": "AccessControlBadConfirmation",
      "inputs": []
    },
    {
      "type": "error",
      "name": "AccessControlUnauthorizedAccount",
      "inputs": [
        {
          "name": "account",
          "type": "address",
          "internalType": "address"
        },
        {
          "name": "neededRole",
          "type": "bytes32",
          "internalType": "bytes32"
        }
      ]
    },
    {
      "type": "error",
      "name": "AddressEmptyCode",
      "inputs": [
        {
          "name": "target",
          "type": "address",
          "internalType": "address"
        }
      ]
    },
    {
      "type": "error",
      "name": "ERC1967InvalidImplementation",
      "inputs": [
        {
          "name": "implementation",
          "type": "address",
          "internalType": "address"
        }
      ]
    },
    {
      "type": "error",
      "name": "ERC1967NonPayable",
      "inputs": []
    },
    {
      "type": "error",
      "name": "EnforcedPause",
      "inputs": []
    },
    {
      "type": "error",
      "name": "ExpectedPause",
      "inputs": []
    },
    {
      "type": "error",
      "name": "FailedInnerCall",
      "inputs": []
    },
    {
      "type": "error",
      "name": "InvalidInitialization",
      "inputs": []
    },
    {
      "type": "error",
      "name": "NULL_OFFER",
      "inputs": []
    },
    {
      "type": "error",
      "name": "NULL_TENOR",
      "inputs": []
    },
    {
      "type": "error",
      "name": "NotInitializing",
      "inputs": []
    },
    {
      "type": "error",
      "name": "TENOR_OUT_OF_RANGE",
      "inputs": [
        {
          "name": "tenor",
          "type": "uint256",
          "internalType": "uint256"
        },
        {
          "name": "minTenor",
          "type": "uint256",
          "internalType": "uint256"
        },
        {
          "name": "maxTenor",
          "type": "uint256",
          "internalType": "uint256"
        }
      ]
    },
    {
      "type": "error",
      "name": "USER_IS_UNDERWATER",
      "inputs": [
        {
          "name": "account",
          "type": "address",
          "internalType": "address"
        },
        {
          "name": "cr",
          "type": "uint256",
          "internalType": "uint256"
        }
      ]
    },
    {
      "type": "error",
      "name": "UUPSUnauthorizedCallContext",
      "inputs": []
    },
    {
      "type": "error",
      "name": "UUPSUnsupportedProxiableUUID",
      "inputs": [
        {
          "name": "slot",
          "type": "bytes32",
          "internalType": "bytes32"
        }
      ]
    }
  ],
  "bytecode": {
    "object": "0x60a06040523060805234801562000014575f80fd5b506200001f62000025565b620000d9565b7ff0c57e16840df040f15088dc2f81fe391c3923bec73e23a9662efc9c229c6a00805468010000000000000000900460ff1615620000765760405163f92ee8a960e01b815260040160405180910390fd5b80546001600160401b0390811614620000d65780546001600160401b0319166001600160401b0390811782556040519081527fc7f505b2f371ae2175ee4913f4499e1f2633a7b5936321eed1cdaeb6115181d29060200160405180910390a15b50565b608051615af5620001005f395f8181613293015281816132bc01526133fd0152615af55ff3fe608060405260043610610327575f3560e01c806361a10df2116101a3578063b36116f6116100f2578063e05001f511610092578063f45bf01c1161006d578063f45bf01c14610ad4578063f731a57a14610ae7578063f85c3cd414610b06578063fd17174a14610b25575f80fd5b8063e05001f514610a8f578063e5af06ce14610aa2578063f052e7a414610ac1575f80fd5b8063ccc96815116100cd578063ccc9681514610a2b578063ccd8d4d114610a4a578063d547741f14610a5d578063d8d933a514610a7c575f80fd5b8063b36116f6146109b4578063b5ec7487146109e0578063ca40742c14610a0c575f80fd5b80637f417c061161015d57806391d148541161013857806391d1485414610932578063a217fddf14610951578063ac9650d814610964578063ad3cb1cc14610984575f80fd5b80637f417c06146108f85780638456cb591461090b5780638e5727761461091f575f80fd5b806361a10df2146106ca57806364eb0a71146106e957806373d4a13a1461070857806376c1b82f1461082c5780637c90a6ca146108585780637dc0d1d0146108b7575f80fd5b80632ed28ba2116102795780634cbd882c1161021957806354137c7e116101f457806354137c7e1461062557806354fd4d50146106445780635c975abb1461067b5780635cbc51eb1461069e575f80fd5b80634cbd882c146105df5780634f1ef286146105fe57806352d1902d14610611575f80fd5b80633746f858116102545780633746f85814610579578063375019211461058c5780633e3c119b146105b85780633f4ba83a146105cb575f80fd5b80632ed28ba21461050f5780632f2ff15d1461053b57806336568abe1461055a575f80fd5b80631ca3b0cb116102e45780632b4c9a20116102bf5780632b4c9a20146104ab5780632c60185c146104be5780632cc884c5146104dd5780632e106f21146104fc575f80fd5b80631ca3b0cb146103ff5780631e5eb1d014610428578063248a9ca31461048c575f80fd5b806301ffc9a71461032b5780630317b9df1461035f5780630cf8542f146103805780631970e5ea1461039357806319a7359b146103c05780631c4fd41c146103d3575b5f80fd5b348015610336575f80fd5b5061034a6103453660046144a9565b610b38565b60405190151581526020015b60405180910390f35b34801561036a575f80fd5b5061037e6103793660046144e6565b610b6e565b005b61037e61038e366004614527565b610c46565b34801561039e575f80fd5b506103b26103ad366004614541565b610d1b565b604051908152602001610356565b61037e6103ce366004614558565b610d26565b3480156103de575f80fd5b506103f26103ed366004614541565b610edc565b6040516103569190614568565b34801561040a575f80fd5b50610413610f57565b60408051928352602083019190915201610356565b348015610433575f80fd5b5061043c610f8a565b6040516103569190815181526020808301519082015260408083015190820152606080830151908201526080808301519082015260a0918201516001600160a01b03169181019190915260c00190565b348015610497575f80fd5b506103b26104a6366004614541565b61103c565b61037e6104b9366004614527565b61105c565b3480156104c9575f80fd5b506103b26104d836600461458e565b611102565b3480156104e8575f80fd5b506103b26104f73660046145c2565b611135565b61037e61050a3660046145ec565b611141565b34801561051a575f80fd5b5061052e610529366004614731565b6111e7565b6040516103569190614779565b348015610546575f80fd5b5061037e6105553660046147d8565b611268565b348015610565575f80fd5b5061037e6105743660046147d8565b61128a565b61037e6105873660046144e6565b6112c2565b348015610597575f80fd5b506105ab6105a6366004614731565b611368565b6040516103569190614806565b6104136105c6366004614862565b6113e9565b3480156105d6575f80fd5b5061037e61165a565b3480156105ea575f80fd5b5061037e6105f936600461487c565b61168f565b61037e61060c3660046148a2565b61172e565b34801561061c575f80fd5b506103b261174d565b348015610630575f80fd5b506103b261063f366004614541565b611768565b34801561064f575f80fd5b5060408051808201909152600681526576312e362e3160d01b60208201525b6040516103569190614990565b348015610686575f80fd5b505f80516020615aa08339815191525460ff1661034a565b3480156106a9575f80fd5b506106bd6106b83660046149a2565b611893565b6040516103569190614a8b565b3480156106d5575f80fd5b5061037e6106e4366004614b3d565b611ca5565b3480156106f4575f80fd5b5061034a610703366004614541565b611f2a565b348015610713575f80fd5b506107bb60408051610100810182525f80825260208201819052918101829052606081018290526080810182905260a0810182905260c0810182905260e0810191909152506040805161010081018252601154815260125460208201526014546001600160a01b03908116928201929092526015548216606082015260165482166080820152601a54821660a0820152601854821660c082015260195490911660e082015290565b604080518251815260208084015190820152828201516001600160a01b039081169282019290925260608084015183169082015260808084015183169082015260a08084015183169082015260c08084015183169082015260e0928301519091169181019190915261010001610356565b348015610837575f80fd5b5061084b610846366004614541565b611f36565b6040516103569190614ba7565b348015610863575f80fd5b5061086c611ffc565b60405161035691905f60c082019050825182526020830151602083015260408301516040830152606083015160608301526080830151608083015260a083015160a083015292915050565b3480156108c2575f80fd5b506108cb6120a0565b6040805182516001600160a01b031681526020928301516001600160401b03169281019290925201610356565b61037e610906366004614bb5565b612123565b348015610916575f80fd5b5061037e6121c7565b61037e61092d366004614527565b6121f9565b34801561093d575f80fd5b5061034a61094c3660046147d8565b61247d565b34801561095c575f80fd5b506103b25f81565b610977610972366004614bcf565b6124b3565b6040516103569190614c3d565b34801561098f575f80fd5b5061066e604051806040016040528060058152602001640352e302e360dc1b81525081565b3480156109bf575f80fd5b506109d36109ce3660046149a2565b6124c8565b6040516103569190614c9f565b3480156109eb575f80fd5b506109ff6109fa366004614541565b612580565b6040516103569190614d2c565b348015610a17575f80fd5b506103b2610a263660046149a2565b612666565b348015610a36575f80fd5b5061034a610a45366004614541565b6126e9565b61037e610a583660046144e6565b6126f4565b348015610a68575f80fd5b5061037e610a773660046147d8565b61279a565b61037e610a8a366004614731565b6127b6565b6103b2610a9d366004614527565b6128e8565b348015610aad575f80fd5b5061034a610abc366004614541565b612a3d565b61037e610acf366004614d60565b612ab9565b61037e610ae2366004614d81565b612b5f565b348015610af2575f80fd5b5061034a610b013660046149a2565b612c0a565b348015610b11575f80fd5b506103b2610b203660046145c2565b612c53565b61037e610b33366004614d81565b612c5f565b5f6001600160e01b03198216637965db0b60e01b1480610b6857506301ffc9a760e01b6001600160e01b03198316145b92915050565b5f610b7881612d0a565b60405163e57980dd60e01b815273__$32fe41b939f9fd8fb0430b5111f401f35c$__9063e57980dd90610bb1905f908690600401614d9b565b5f6040518083038186803b158015610bc7575f80fd5b505af4158015610bd9573d5f803e3d5ffd5b5050604051634752b3b360e01b815273__$32fe41b939f9fd8fb0430b5111f401f35c$__9250634752b3b39150610c16905f908690600401614d9b565b5f6040518083038186803b158015610c2c575f80fd5b505af4158015610c3e573d5f803e3d5ffd5b505050505050565b610c4e612d14565b604051638046123560e01b815273__$102e258b2685b09f31e1bdc044a973265c$__90638046123590610c87905f908590600401614e5e565b5f6040518083038186803b158015610c9d575f80fd5b505af4158015610caf573d5f803e3d5ffd5b50506040516387e2411560e01b815273__$102e258b2685b09f31e1bdc044a973265c$__92506387e241159150610cec905f908590600401614e5e565b5f6040518083038186803b158015610d02575f80fd5b505af4158015610d14573d5f803e3d5ffd5b5050505050565b5f610b688183612d46565b610d2e612d14565b604051631621030760e01b815273__$40338b66eef5a4814456f5e5d0057a85cb$__90631621030790610d67905f908590600401614e72565b5f6040518083038186803b158015610d7d575f80fd5b505af4158015610d8f573d5f803e3d5ffd5b505060405163b71df57f60e01b81525f925073__$40338b66eef5a4814456f5e5d0057a85cb$__915063b71df57f90610dce9084908690600401614e72565b602060405180830381865af4158015610de9573d5f803e3d5ffd5b505050506040513d601f19601f82011682018060405250810190610e0d9190614ee4565b90505f19826020013503610e9e5773__$54339234670bed530be64a2569bfcff861$__632d77afb65f610e4360208601866149a2565b6040516001600160e01b031960e085901b16815260048101929092526001600160a01b031660248201526044015b5f6040518083038186803b158015610e87575f80fd5b505af4158015610e99573d5f803e3d5ffd5b505050505b60405163bfbfe8ab60e01b81525f60048201526024810182905273__$5e1dc6026664d540c986e6d76069f97e44$__9063bfbfe8ab90604401610c16565b6040516303eb153f60e51b81525f60048201819052602482018390529073__$137de846162d19becd7adae071bc6b8643$__90637d62a7e090604401602060405180830381865af4158015610f33573d5f803e3d5ffd5b505050506040513d601f19601f82011682018060405250810190610b689190614efb565b6011545f908190610f69908290614f2d565b610f7560025f19614f40565b601254610f829190614f2d565b915091509091565b610fc66040518060c001604052805f81526020015f81526020015f81526020015f81526020015f81526020015f6001600160a01b031681525090565b6040516386617e7760e01b81525f600482015273__$32fe41b939f9fd8fb0430b5111f401f35c$__906386617e779060240160c060405180830381865af4158015611013573d5f803e3d5ffd5b505050506040513d601f19601f820116820180604052508101906110379190614f5f565b905090565b5f9081525f80516020615a80833981519152602052604090206001015490565b611064612d14565b60405163010cc09b60e21b815273__$d7ed34c1233366b4d2093a06a83503a127$__90630433026c9061109d905f908590600401614e5e565b5f6040518083038186803b1580156110b3575f80fd5b505af41580156110c5573d5f803e3d5ffd5b505060405163b8359e9760e01b815273__$d7ed34c1233366b4d2093a06a83503a127$__925063b8359e979150610cec905f908590600401614e5e565b5f815f03611123576040516301c85f6760e71b815260040160405180910390fd5b61112e5f8484612f46565b9392505050565b5f61112e818484612f6b565b611149612d14565b60405163603ed05b60e01b815273__$522109956a60eeb242799fac64155e2c7d$__9063603ed05b90611182905f908590600401615031565b5f6040518083038186803b158015611198575f80fd5b505af41580156111aa573d5f803e3d5ffd5b505060405163153f43e560e31b815273__$522109956a60eeb242799fac64155e2c7d$__925063a9fa1f289150610cec905f908590600401615031565b6111ef6142fd565b604051631c81982560e11b815273__$40338b66eef5a4814456f5e5d0057a85cb$__90633903304a90611228905f90869060040161508f565b61014060405180830381865af4158015611244573d5f803e3d5ffd5b505050506040513d601f19601f82011682018060405250810190610b689190615162565b6112718261103c565b61127a81612d0a565b6112848383613108565b50505050565b6001600160a01b03811633146112b35760405163334bd91960e11b815260040160405180910390fd5b6112bd82826131b0565b505050565b6112ca612d14565b604051634cf319b960e11b815273__$bb87e4d06c905b2a40fd4eb630d02af12b$__906399e6337290611303905f908590600401615296565b5f6040518083038186803b158015611319575f80fd5b505af415801561132b573d5f803e3d5ffd5b505060405163339bb63160e01b815273__$bb87e4d06c905b2a40fd4eb630d02af12b$__925063339bb6319150610cec905f908590600401615296565b611370614343565b60405163301d1d1560e21b815273__$6a70d15ccab52e60961e0e6eac4956e318$__9063c0747454906113a9905f90869060040161508f565b61012060405180830381865af41580156113c5573d5f803e3d5ffd5b505050506040513d601f19601f82011682018060405250810190610b6891906152ae565b5f806113f3612d14565b7ffc8737ab85eb45125971625a9ebdb75cc78e01d5c1fa80c4c6e5203f47bc4fab61141d81612d0a565b604051639f53ee0f60e01b815273__$083884a3186f9b2b23885dfeba78ff7244$__90639f53ee0f90611456905f90889060040161534f565b5f6040518083038186803b15801561146c575f80fd5b505af415801561147e573d5f803e3d5ffd5b505060405163647a4b7560e11b81525f925073__$083884a3186f9b2b23885dfeba78ff7244$__915063c8f496ea906114bd908490899060040161534f565b606060405180830381865af41580156114d8573d5f803e3d5ffd5b505050506040513d601f19601f820116820180604052508101906114fc9190615363565b9095509350905073__$54339234670bed530be64a2569bfcff861$__632d77afb65f61152e6040890160208a016149a2565b6040516001600160e01b031960e085901b16815260048101929092526001600160a01b031660248201526044015f6040518083038186803b158015611571575f80fd5b505af4158015611583573d5f803e3d5ffd5b5050604051636e6595c160e01b815273__$083884a3186f9b2b23885dfeba78ff7244$__9250636e6595c191506115c2905f908990899060040161538e565b5f6040518083038186803b1580156115d8575f80fd5b505af41580156115ea573d5f803e3d5ffd5b505060405163bfbfe8ab60e01b81525f60048201526024810184905273__$5e1dc6026664d540c986e6d76069f97e44$__925063bfbfe8ab91506044015f6040518083038186803b15801561163d575f80fd5b505af415801561164f573d5f803e3d5ffd5b505050505050915091565b7f65d7a28e3265b37a6474929f336521b332c1681b933f6cb9f3376673440d862a61168481612d0a565b61168c613229565b50565b7f1eae1854c74a696c6de86fd3c6383d5c1e2c33fbc86e1aa6b6c872d95bd240386116b981612d0a565b600d80546001600160801b038481166001600160c01b031983168117600160801b426001600160401b031602179093556040805191909216808252602082019390935233917f26b8010a81fad3e15c7545637c99390bdeb250bf0a67e4cf43c3d220ec2acc31910160405180910390a2505050565b611736613288565b61173f8261332c565b6117498282613336565b5050565b5f6117566133f2565b505f80516020615a6083398151915290565b604051634c9829bf60e11b81525f600482018190526024820183905290819073__$137de846162d19becd7adae071bc6b8643$__90639930537e90604401602060405180830381865af41580156117c1573d5f803e3d5ffd5b505050506040513d601f19601f820116820180604052508101906117e59190614ee4565b6040805160808101825282546001600160a01b03168152600183015460208201526002830154818301526003909201546060830152516345ffd36d60e01b815290915073__$137de846162d19becd7adae071bc6b8643$__906345ffd36d90611854905f9085906004016153b0565b602060405180830381865af415801561186f573d5f803e3d5ffd5b505050506040513d601f19601f8201168201806040525081019061112e9190614ee4565b61189b61437a565b604080516001600160a01b0384165f908152600e60209081529083902061016083018452805461012084019081528451600183018054608095810283018601909752606082018781529596879660a088019687959487946101408b0194919390928492849184018282801561192d57602002820191905f5260205f20905b815481526020019060010190808311611919575b505050505081526020016001820180548060200260200160405190810160405280929190818152602001828054801561198357602002820191905f5260205f20905b81548152602001906001019080831161196f575b50505050508152602001600282018054806020026020016040519081016040528092919081815260200182805480156119d957602002820191905f5260205f20905b8154815260200190600101908083116119c5575b505050505081525050815250508152602001600482016040518060400160405290815f8201548152602001600182016040518060600160405290815f8201805480602002602001604051908101604052809291908181526020018280548015611a5f57602002820191905f5260205f20905b815481526020019060010190808311611a4b575b5050505050815260200160018201805480602002602001604051908101604052809291908181526020018280548015611ab557602002820191905f5260205f20905b815481526020019060010190808311611aa1575b5050505050815260200160028201805480602002602001604051908101604052809291908181526020018280548015611b0b57602002820191905f5260205f20905b815481526020019060010190808311611af7575b505050919092525050509052508152600882015460208083019190915260099092015460ff1615156040918201529183526001600160a01b0386811691840182905260165483516370a0823160e01b815260048101939093529390920192909116906370a0823190602401602060405180830381865afa158015611b91573d5f803e3d5ffd5b505050506040513d601f19601f82011682018060405250810190611bb59190614ee4565b8152601a546040516370a0823160e01b81526001600160a01b038681166004830152602090930192909116906370a0823190602401602060405180830381865afa158015611c05573d5f803e3d5ffd5b505050506040513d601f19601f82011682018060405250810190611c299190614ee4565b81526018546040516370a0823160e01b81526001600160a01b038681166004830152602090930192909116906370a0823190602401602060405180830381865afa158015611c79573d5f803e3d5ffd5b505050506040513d601f19601f82011682018060405250810190611c9d9190614ee4565b905292915050565b7ff0c57e16840df040f15088dc2f81fe391c3923bec73e23a9662efc9c229c6a008054600160401b810460ff1615906001600160401b03165f81158015611ce95750825b90505f826001600160401b03166001148015611d045750303b155b905081158015611d12575080155b15611d305760405163f92ee8a960e01b815260040160405180910390fd5b845467ffffffffffffffff191660011785558315611d5a57845460ff60401b1916600160401b1785555b6040516369777eb960e01b815273__$34e5abf8aed44cb09d2bd12ec9cc797973$__906369777eb990611d9b905f908e908e908e908e908e90600401615501565b5f6040518083038186803b158015611db1575f80fd5b505af4158015611dc3573d5f803e3d5ffd5b50505050611dcf61343b565b611dd7613443565b611ddf61343b565b604051632ffdac7160e21b815273__$34e5abf8aed44cb09d2bd12ec9cc797973$__9063bff6b1c490611e1e905f908d908d908d908d9060040161558b565b5f6040518083038186803b158015611e34575f80fd5b505af4158015611e46573d5f803e3d5ffd5b50505050611e565f801b8b613108565b50611e817f65d7a28e3265b37a6474929f336521b332c1681b933f6cb9f3376673440d862a8b613108565b50611eac7ffc8737ab85eb45125971625a9ebdb75cc78e01d5c1fa80c4c6e5203f47bc4fab8b613108565b50611ed77f1eae1854c74a696c6de86fd3c6383d5c1e2c33fbc86e1aa6b6c872d95bd240388b613108565b508315611f1e57845460ff60401b19168555604051600181527fc7f505b2f371ae2175ee4913f4499e1f2633a7b5936321eed1cdaeb6115181d29060200160405180910390a15b50505050505050505050565b6011545f908210610b68565b611f3e6143b4565b604051633978289f60e01b81525f60048201526024810183905273__$137de846162d19becd7adae071bc6b8643$__90633978289f90604401602060405180830381865af4158015611f92573d5f803e3d5ffd5b505050506040513d601f19601f82011682018060405250810190611fb69190614ee4565b6040805160808101825282546001600160a01b0381168252600160a01b900460ff1615156020820152600183015491810191909152600290910154606082015292915050565b61202f6040518060c001604052805f81526020015f81526020015f81526020015f81526020015f81526020015f81525090565b604051636e9bc7eb60e11b81525f600482015273__$32fe41b939f9fd8fb0430b5111f401f35c$__9063dd378fd69060240160c060405180830381865af415801561207c573d5f803e3d5ffd5b505050506040513d601f19601f8201168201806040525081019061103791906155fa565b604080518082019091525f8082526020820152604051631ae5e80160e31b81525f600482015273__$32fe41b939f9fd8fb0430b5111f401f35c$__9063d72f4008906024016040805180830381865af41580156120ff573d5f803e3d5ffd5b505050506040513d601f19601f820116820180604052508101906110379190615652565b61212b612d14565b6040516210aa0b60e31b815273__$7dc37f9f4797eb854780a74171eb2f4993$__906285505890612162905f9085906004016156ae565b5f6040518083038186803b158015612178575f80fd5b505af415801561218a573d5f803e3d5ffd5b50506040516364140a8360e01b815273__$7dc37f9f4797eb854780a74171eb2f4993$__92506364140a839150610cec905f9085906004016156ae565b7f65d7a28e3265b37a6474929f336521b332c1681b933f6cb9f3376673440d862a6121f181612d0a565b61168c613453565b612201612d14565b604051634ec6ce5b60e11b81525f600482018190523360248301529073__$54339234670bed530be64a2569bfcff861$__90639d8d9cb690604401602060405180830381865af4158015612257573d5f803e3d5ffd5b505050506040513d601f19601f8201168201806040525081019061227b91906156e6565b604051634bc1120160e01b815290915073__$ef4190de80c3c7f10088bb7cf8a0baddca$__90634bc11201906122b7905f908690600401615701565b5f6040518083038186803b1580156122cd575f80fd5b505af41580156122df573d5f803e3d5ffd5b50506040516332f4053b60e01b815273__$ef4190de80c3c7f10088bb7cf8a0baddca$__92506332f4053b915061231c905f908690600401615701565b5f6040518083038186803b158015612332575f80fd5b505af4158015612344573d5f803e3d5ffd5b5050604051634ec6ce5b60e11b81525f60048201819052336024830152925073__$54339234670bed530be64a2569bfcff861$__9150639d8d9cb690604401602060405180830381865af415801561239e573d5f803e3d5ffd5b505050506040513d601f19601f820116820180604052508101906123c291906156e6565b9050811580156123cf5750805b156112bd5760405163046dbd1360e11b81525f600482015233602482018190529073__$54339234670bed530be64a2569bfcff861$__906308db7a2690604401602060405180830381865af415801561242a573d5f803e3d5ffd5b505050506040513d601f19601f8201168201806040525081019061244e9190614ee4565b60405163092ceea960e31b81526001600160a01b03909216600483015260248201526044015b60405180910390fd5b5f9182525f80516020615a80833981519152602090815260408084206001600160a01b0393909316845291905290205460ff1690565b60606124bd612d14565b61112e5f848461349b565b6124d06143e3565b506001600160a01b039081165f908152601b602090815260409182902082516060808201855282549095168152835160a08082018652600184015482526002840154828601526003840154828701526004840154828801526005840154608080840191909152838601929092528551908101865260068401548152600784015494810194909452600883015484860152600983015495840195909552600a90910154938201939093529082015290565b6125b060405180608001604052805f6001600160a01b031681526020015f81526020015f81526020015f81525090565b604051634c9829bf60e11b81525f60048201526024810183905273__$137de846162d19becd7adae071bc6b8643$__90639930537e90604401602060405180830381865af4158015612604573d5f803e3d5ffd5b505050506040513d601f19601f820116820180604052508101906126289190614ee4565b6040805160808101825282546001600160a01b0316815260018301546020820152600283015491810191909152600390910154606082015292915050565b60405163046dbd1360e11b81525f600482018190526001600160a01b03831660248301529073__$54339234670bed530be64a2569bfcff861$__906308db7a2690604401602060405180830381865af41580156126c5573d5f803e3d5ffd5b505050506040513d601f19601f82011682018060405250810190610b689190614ee4565b5f610b688183613802565b6126fc612d14565b6040516329de607960e01b815273__$872edea7acf8ea04327f178ae369cb7d23$__906329de607990612735905f908590600401615296565b5f6040518083038186803b15801561274b575f80fd5b505af415801561275d573d5f803e3d5ffd5b50506040516309f18b1960e11b815273__$872edea7acf8ea04327f178ae369cb7d23$__92506313e316329150610cec905f908590600401615296565b6127a38261103c565b6127ac81612d0a565b61128483836131b0565b6127be612d14565b604051630dd8fb6560e21b815273__$6a70d15ccab52e60961e0e6eac4956e318$__90633763ed94906127f7905f90859060040161508f565b5f6040518083038186803b15801561280d575f80fd5b505af415801561281f573d5f803e3d5ffd5b505060405163d73654eb60e01b81525f925073__$6a70d15ccab52e60961e0e6eac4956e318$__915063d73654eb9061285e908490869060040161508f565b602060405180830381865af4158015612879573d5f803e3d5ffd5b505050506040513d601f19601f8201168201806040525081019061289d9190614ee4565b90505f19826020015103610e9e576040516316bbd7db60e11b81525f600482015233602482015273__$54339234670bed530be64a2569bfcff861$__90632d77afb690604401610e71565b5f6128f1612d14565b6040516320b5435f60e11b815273__$bd78b82d3691bf7d290be9fb9bf4abf7be$__9063416a86be9061292a905f908690600401615701565b5f6040518083038186803b158015612940575f80fd5b505af4158015612952573d5f803e3d5ffd5b5050604051630d0699cb60e21b815273__$bd78b82d3691bf7d290be9fb9bf4abf7be$__925063341a672c915061298f905f908690600401615701565b602060405180830381865af41580156129aa573d5f803e3d5ffd5b505050506040513d601f19601f820116820180604052508101906129ce9190614ee4565b60405163489d188160e01b815290915073__$bd78b82d3691bf7d290be9fb9bf4abf7be$__9063489d188190612a0c905f9086908690600401615729565b5f6040518083038186803b158015612a22575f80fd5b505af4158015612a34573d5f803e3d5ffd5b50505050919050565b604051631928c8e960e11b81525f60048201819052602482018390529073__$54339234670bed530be64a2569bfcff861$__9063325191d2906044015b602060405180830381865af4158015612a95573d5f803e3d5ffd5b505050506040513d601f19601f82011682018060405250810190610b6891906156e6565b612ac1612d14565b6040516339bd577360e11b815273__$e8bb5faa7d0581d9ffa906943161b22b68$__9063737aaee690612afa905f90859060040161575f565b5f6040518083038186803b158015612b10575f80fd5b505af4158015612b22573d5f803e3d5ffd5b5050604051632bb9d55760e01b815273__$e8bb5faa7d0581d9ffa906943161b22b68$__9250632bb9d5579150610cec905f90859060040161575f565b612b67612d14565b604051635792057f60e11b81525f60048201528135602482015273__$65756fc1cb7d5518f865a4f2165258b0ec$__9063af240afe906044015f6040518083038186803b158015612bb6575f80fd5b505af4158015612bc8573d5f803e3d5ffd5b50506040516320e9b9f960e11b81525f60048201528335602482015273__$65756fc1cb7d5518f865a4f2165258b0ec$__92506341d373f29150604401610cec565b604051634ec6ce5b60e11b81525f600482018190526001600160a01b03831660248301529073__$54339234670bed530be64a2569bfcff861$__90639d8d9cb690604401612a7a565b5f61112e818484613825565b612c67612d14565b6040516306241a0160e51b81525f60048201528135602482015273__$20b01ba837bb61c0f81e8afe21d5ca6650$__9063c4834020906044015f6040518083038186803b158015612cb6575f80fd5b505af4158015612cc8573d5f803e3d5ffd5b5050604051632981ae3960e21b81525f60048201528335602482015273__$20b01ba837bb61c0f81e8afe21d5ca6650$__925063a606b8e49150604401610cec565b61168c8133613852565b5f80516020615aa08339815191525460ff1615612d445760405163d93c066560e01b815260040160405180910390fd5b565b5f61112e83600c015f015f9054906101000a90046001600160a01b03166001600160a01b031663313ce5676040518163ffffffff1660e01b8152600401602060405180830381865afa158015612d9e573d5f803e3d5ffd5b505050506040513d601f19601f82011682018060405250810190612dc29190614ee4565b612dcd90600a6158d2565b612dd790846158dd565b60148501546040805163313ce56760e01b815290516001600160a01b039092169163313ce567916004808201926020929091908290030181865afa158015612e21573d5f803e3d5ffd5b505050506040513d601f19601f82011682018060405250810190612e4591906158f4565b612e5090600a615914565b60158601546040805163313ce56760e01b815290516001600160a01b039092169163313ce567916004808201926020929091908290030181865afa158015612e9a573d5f803e3d5ffd5b505050506040513d601f19601f82011682018060405250810190612ebe91906158f4565b612ec990600a615914565b600c87015460408051634c6afee560e11b815290516001600160a01b03909216916398d5fdca916004808201926020929091908290030181865afa158015612f13573d5f803e3d5ffd5b505050506040513d601f19601f82011682018060405250810190612f379190614ee4565b612f4191906158dd565b61388b565b5f612f6383612f558685613897565b670de0b6b3a764000061388b565b949350505050565b5f815f03612f8c576040516301c85f6760e71b815260040160405180910390fd5b5f80612f9886866138aa565b91509150612fa582613c4e565b15612fc35760405163309f293760e21b815260040160405180910390fd5b8051841080612fd55750806020015184115b1561300a578051602082015160405163a35ff9f160e01b81526004810187905260248101929092526044820152606401612474565b60208083015160408051606081018252600d8a01546001600160801b03811682526001600160401b03600160801b8204811695830195909552600160c01b900490931683820152516315c6891560e11b81525f9273__$30cdd3af314c0847e81c95388f79c2a65a$__92632b8d122a9261308992908a90600401615922565b602060405180830381865af41580156130a4573d5f803e3d5ffd5b505050506040513d601f19601f820116820180604052508101906130c89190614ee4565b905081604001518110156130e4575060400151915061112e9050565b81606001518111156130fe575060600151915061112e9050565b9695505050505050565b5f5f80516020615a80833981519152613121848461247d565b6131a0575f848152602082815260408083206001600160a01b03871684529091529020805460ff191660011790556131563390565b6001600160a01b0316836001600160a01b0316857f2f8788117e7eff1d82e926ec794901d17c78024a50270940304540a733656f0d60405160405180910390a46001915050610b68565b5f915050610b68565b5092915050565b5f5f80516020615a808339815191526131c9848461247d565b156131a0575f848152602082815260408083206001600160a01b0387168085529252808320805460ff1916905551339287917ff6391f5c32d9c69d2a47ea670b442974b53935d1edc7fd64eb21e047a839171b9190a46001915050610b68565b613231613c67565b5f80516020615aa0833981519152805460ff191681557f5db9ee0a495bf2e6ff9c91a7834c1ba4fdd244a5e8aa4e537bd38aeae4b073aa335b6040516001600160a01b03909116815260200160405180910390a150565b306001600160a01b037f000000000000000000000000000000000000000000000000000000000000000016148061330e57507f00000000000000000000000000000000000000000000000000000000000000006001600160a01b03166133025f80516020615a60833981519152546001600160a01b031690565b6001600160a01b031614155b15612d445760405163703e46dd60e11b815260040160405180910390fd5b5f61174981612d0a565b816001600160a01b03166352d1902d6040518163ffffffff1660e01b8152600401602060405180830381865afa925050508015613390575060408051601f3d908101601f1916820190925261338d91810190614ee4565b60015b6133b857604051634c9c8ce360e01b81526001600160a01b0383166004820152602401612474565b5f80516020615a6083398151915281146133e857604051632a87526960e21b815260048101829052602401612474565b6112bd8383613c96565b306001600160a01b037f00000000000000000000000000000000000000000000000000000000000000001614612d445760405163703e46dd60e11b815260040160405180910390fd5b612d44613ceb565b61344b613ceb565b612d44613d34565b61345b612d14565b5f80516020615aa0833981519152805460ff191660011781557f62e78cea01bee320cd4e420270b5ea74000d11b0c9f74754ebdbfc544b05a2583361326a565b60198301805460ff60a01b1916600160a01b179055601a830154604080516318160ddd60e01b815290516060925f926001600160a01b03909116916318160ddd916004808201926020929091908290030181865afa1580156134ff573d5f803e3d5ffd5b505050506040513d601f19601f820116820180604052508101906135239190614ee4565b90505f85600e01600a015f9054906101000a90046001600160a01b03166001600160a01b03166318160ddd6040518163ffffffff1660e01b8152600401602060405180830381865afa15801561357b573d5f803e3d5ffd5b505050506040513d601f19601f8201168201806040525081019061359f9190614ee4565b9050836001600160401b038111156135b9576135b9614622565b6040519080825280602002602001820160405280156135ec57816020015b60608152602001906001900390816135d75790505b5092505f5b8481101561367f5761365a3087878481811061360f5761360f6159ee565b90506020028101906136219190615a02565b8080601f0160208091040260200160405190810160405280939291908181526020018383808284375f92019190915250613d5492505050565b84828151811061366c5761366c6159ee565b60209081029190910101526001016135f1565b50601a860154604080516318160ddd60e01b815290515f926001600160a01b0316916318160ddd9160048083019260209291908290030181865afa1580156136c9573d5f803e3d5ffd5b505050506040513d601f19601f820116820180604052508101906136ed9190614ee4565b90505f87600e01600a015f9054906101000a90046001600160a01b03166001600160a01b03166318160ddd6040518163ffffffff1660e01b8152600401602060405180830381865afa158015613745573d5f803e3d5ffd5b505050506040513d601f19601f820116820180604052508101906137699190614ee4565b60405163111a6a5d60e31b8152600481018a90526024810186905260448101859052606481018490526084810182905290915073__$5e1dc6026664d540c986e6d76069f97e44$__906388d352e89060a4015f6040518083038186803b1580156137d1575f80fd5b505af41580156137e3573d5f803e3d5ffd5b5050506019909801805460ff60a01b1916905550929695505050505050565b5f61380f60025f19614f40565b821015801561112e575050601291909101541190565b5f815f03613846576040516301c85f6760e71b815260040160405180910390fd5b5f80612f988686613dc6565b61385c828261247d565b6117495760405163e2517d3f60e01b81526001600160a01b038216600482015260248101839052604401612474565b5f612f63848484614165565b81545f9061112e90836301e1338061388b565b6138b2614417565b6138ba61444c565b6001600160a01b038084165f908152601b8601602090815260409182902082516060808201855282549095168152835160a080820186526001840154825260028401548286015260038401548287015260048401548288015260058401546080808401919091528386019283528651918201875260068501548252600785015495820195909552600884015481870152600984015496810196909652600a9092015492850192909252918101929092525161397490614191565b15613b015784600e015f015f856001600160a01b03166001600160a01b031681526020019081526020015f205f016040518060a001604052805f81526020015f1981526020015f81526020015f1981526020015f815250816040518060400160405290815f8201548152602001600182016040518060600160405290815f8201805480602002602001604051908101604052809291908181526020018280548015613a3c57602002820191905f5260205f20905b815481526020019060010190808311613a28575b5050505050815260200160018201805480602002602001604051908101604052809291908181526020018280548015613a9257602002820191905f5260205f20905b815481526020019060010190808311613a7e575b5050505050815260200160028201805480602002602001604051908101604052809291908181526020018280548015613ae857602002820191905f5260205f20905b815481526020019060010190808311613ad4575b5050505050815250508152505091509250925050613c47565b80516001600160a01b03165f908152600e8601602090815260409182902081840151835180850185528254815284516001840180546080818802840181019098526060830181815295979496939588959487019484928491840182828015613a3c57602002820191905f5260205f2090815481526020019060010190808311613a28575050505050815260200160018201805480602002602001604051908101604052809291908181526020018280548015613a9257602002820191905f5260205f2090815481526020019060010190808311613a7e575050505050815260200160028201805480602002602001604051908101604052809291908181526020018280548015613ae857602002820191905f5260205f2090815481526020019060010190808311613ad4575050505050815250508152505091509250925050613c47565b505b9250929050565b80515f90158015610b685750610b6882602001516141d0565b5f80516020615aa08339815191525460ff16612d4457604051638dfc202b60e01b815260040160405180910390fd5b613c9f826141f6565b6040516001600160a01b038316907fbc7cd75a20ee27fd9adebab32041f755214dbc6bffa90cc0225b39da2e5c2d3b905f90a2805115613ce3576112bd8282613d54565b611749614259565b7ff0c57e16840df040f15088dc2f81fe391c3923bec73e23a9662efc9c229c6a0054600160401b900460ff16612d4457604051631afcd79f60e31b815260040160405180910390fd5b613d3c613ceb565b5f80516020615aa0833981519152805460ff19169055565b60605f80846001600160a01b031684604051613d709190615a44565b5f60405180830381855af49150503d805f8114613da8576040519150601f19603f3d011682016040523d82523d5f602084013e613dad565b606091505b5091509150613dbd858383614278565b95945050505050565b613dce614417565b613dd661444c565b6001600160a01b038084165f908152601b8601602090815260409182902082516060808201855282549095168152835160a08082018652600184015482526002840154828601526003840154828701526004840154828801526005840154608080840191909152838601929092528551908101865260068401548152600784015494810194909452600883015484860152600983015495840195909552600a9091015493820193909352908201819052613e8f90614191565b156140175784600e015f015f856001600160a01b03166001600160a01b031681526020019081526020015f206004016040518060a001604052805f81526020015f1981526020015f81526020015f1981526020015f815250816040518060400160405290815f8201548152602001600182016040518060600160405290815f8201805480602002602001604051908101604052809291908181526020018280548015613a3c57602002820191905f5260205f2090815481526020019060010190808311613a28575050505050815260200160018201805480602002602001604051908101604052809291908181526020018280548015613a9257602002820191905f5260205f2090815481526020019060010190808311613a7e575050505050815260200160028201805480602002602001604051908101604052809291908181526020018280548015613ae857602002820191905f5260205f2090815481526020019060010190808311613ad4575050505050815250508152505091509250925050613c47565b80516001600160a01b03165f908152600e860160209081526040918290208284015183518085018552600483018054825285516005909401805460808188028701810190985260608601818152929794969395889594870194909384929091849190840182828015613a3c57602002820191905f5260205f2090815481526020019060010190808311613a28575050505050815260200160018201805480602002602001604051908101604052809291908181526020018280548015613a9257602002820191905f5260205f2090815481526020019060010190808311613a7e575050505050815260200160028201805480602002602001604051908101604052809291908181526020018280548015613ae857602002820191905f5260205f2090815481526020019060010190808311613ad4575050505050815250508152505091509250925050613c47565b5f825f1904841183021582026141825763ad251c275f526004601cfd5b50910281810615159190040190565b80515f901580156141a457506020820151155b80156141b257506040820151155b80156141c057506060820151155b8015610b68575050608001511590565b8051515f901580156141e55750602082015151155b8015610b6857505060400151511590565b806001600160a01b03163b5f0361422b57604051634c9c8ce360e01b81526001600160a01b0382166004820152602401612474565b5f80516020615a6083398151915280546001600160a01b0319166001600160a01b0392909216919091179055565b3415612d445760405163b398979f60e01b815260040160405180910390fd5b60608261428d57614288826142d4565b61112e565b81511580156142a457506001600160a01b0384163b155b156142cd57604051639996b31560e01b81526001600160a01b0385166004820152602401612474565b508061112e565b8051156142e45780518082602001fd5b604051630a12f52160e11b815260040160405180910390fd5b6040518060e001604052806143106143b4565b81526020015f6001600160a01b031681526020015f81526020015f81526020015f81526020015f81526020015f81525090565b6040518060c001604052806143566143b4565b81526020015f81526020015f81526020015f81526020015f81526020015f81525090565b6040518060a0016040528061438d614476565b81526020015f6001600160a01b031681526020015f81526020015f81526020015f81525090565b60405180608001604052805f6001600160a01b031681526020015f151581526020015f81526020015f81525090565b60405180606001604052805f6001600160a01b0316815260200161440561444c565b815260200161441261444c565b905290565b60405180604001604052805f815260200161441260405180606001604052806060815260200160608152602001606081525090565b6040518060a001604052805f81526020015f81526020015f81526020015f81526020015f81525090565b6040518060800160405280614489614417565b8152602001614496614417565b81525f6020820181905260409091015290565b5f602082840312156144b9575f80fd5b81356001600160e01b03198116811461112e575f80fd5b5f604082840312156144e0575f80fd5b50919050565b5f602082840312156144f6575f80fd5b81356001600160401b0381111561450b575f80fd5b612f63848285016144d0565b5f606082840312156144e0575f80fd5b5f60608284031215614537575f80fd5b61112e8383614517565b5f60208284031215614551575f80fd5b5035919050565b5f60e082840312156144e0575f80fd5b602081016003831061458857634e487b7160e01b5f52602160045260245ffd5b91905290565b5f806040838503121561459f575f80fd5b50508035926020909101359150565b6001600160a01b038116811461168c575f80fd5b5f80604083850312156145d3575f80fd5b82356145de816145ae565b946020939093013593505050565b5f602082840312156145fc575f80fd5b81356001600160401b03811115614611575f80fd5b82016080818503121561112e575f80fd5b634e487b7160e01b5f52604160045260245ffd5b60405160e081016001600160401b038111828210171561465857614658614622565b60405290565b60405160c081016001600160401b038111828210171561465857614658614622565b604051601f8201601f191681016001600160401b03811182821017156146a8576146a8614622565b604052919050565b801515811461168c575f80fd5b5f60e082840312156146cd575f80fd5b6146d5614636565b905081356146e2816145ae565b808252506020820135602082015260408201356040820152606082013560608201526080820135608082015260a082013560a082015260c0820135614726816146b0565b60c082015292915050565b5f60e08284031215614741575f80fd5b61112e83836146bd565b80516001600160a01b0316825260208082015115159083015260408082015190830152606090810151910152565b5f6101408201905061478c82845161474b565b60018060a01b036020840151166080830152604083015160a0830152606083015160c0830152608083015160e083015260a083015161010083015260c083015161012083015292915050565b5f80604083850312156147e9575f80fd5b8235915060208301356147fb816145ae565b809150509250929050565b5f6101208201905061481982845161474b565b60208301516080830152604083015160a0830152606083015160c0830152608083015160e083015260a083015161010083015292915050565b5f60a082840312156144e0575f80fd5b5f60a08284031215614872575f80fd5b61112e8383614852565b5f6020828403121561488c575f80fd5b81356001600160801b038116811461112e575f80fd5b5f80604083850312156148b3575f80fd5b82356148be816145ae565b91506020838101356001600160401b03808211156148da575f80fd5b818601915086601f8301126148ed575f80fd5b8135818111156148ff576148ff614622565b614911601f8201601f19168501614680565b91508082528784828501011115614926575f80fd5b80848401858401375f848284010152508093505050509250929050565b5f5b8381101561495d578181015183820152602001614945565b50505f910152565b5f815180845261497c816020860160208601614943565b601f01601f19169290920160200192915050565b602081525f61112e6020830184614965565b5f602082840312156149b2575f80fd5b813561112e816145ae565b5f815180845260208085019450602084015f5b838110156149ec578151875295820195908201906001016149d0565b509495945050505050565b805182525f602080830151604082860152805160606040870152614a1e60a08701826149bd565b83830151603f19888303810160608a0152815180845291860193505f929091908601905b80841015614a625784518252938601936001939093019290860190614a42565b5060408501519550818982030160808a0152614a7e81876149bd565b9998505050505050505050565b602081525f825160a060208401528051608060c0850152614ab06101408501826149f7565b9050602082015160bf198583030160e0860152614acd82826149f7565b91505060408201516101008501526060820151151561012085015260208501519150614b0460408501836001600160a01b03169052565b6040850151606085015260608501516080850152608085015160a0850152809250505092915050565b5f60c082840312156144e0575f80fd5b5f805f805f6102808688031215614b52575f80fd5b8535614b5d816145ae565b9450614b6c8760208801614b2d565b9350614b7b8760e08801614b2d565b9250614b8b876101a088016144d0565b9150614b9b876101e08801614852565b90509295509295909350565b60808101610b68828461474b565b5f60408284031215614bc5575f80fd5b61112e83836144d0565b5f8060208385031215614be0575f80fd5b82356001600160401b0380821115614bf6575f80fd5b818501915085601f830112614c09575f80fd5b813581811115614c17575f80fd5b8660208260051b8501011115614c2b575f80fd5b60209290920196919550909350505050565b5f60208083016020845280855180835260408601915060408160051b8701019250602087015f5b82811015614c9257603f19888603018452614c80858351614965565b94509285019290850190600101614c64565b5092979650505050505050565b81516001600160a01b03168152602080830151610160830191614cef9084018280518252602081015160208301526040810151604083015260608101516060830152608081015160808301525050565b50604083810151805160c0850152602081015160e085015290810151610100840152606081015161012084015260808101516101408401526131a9565b81516001600160a01b0316815260208083015190820152604080830151908201526060808301519082015260808101610b68565b5f61016082840312156144e0575f80fd5b5f602082840312156144e0575f80fd5b5f60208284031215614d91575f80fd5b61112e8383614d71565b828152604060208201525f8235601e19843603018112614db9575f80fd5b83016020810190356001600160401b03811115614dd4575f80fd5b803603821315614de2575f80fd5b604080850152806080850152808260a08601375f60a082860101526020850135606085015260a0601f19601f830116850101925050509392505050565b8035614e2a816145ae565b6001600160a01b03908116835260208281013590840152604082013590614e50826145ae565b808216604085015250505050565b8281526080810161112e6020830184614e1f565b82815261010081018235614e85816145ae565b60018060a01b038116602084015250602083013560408301526040830135606083015260608301356080830152608083013560a083015260a083013560c083015260c0830135614ed4816146b0565b80151560e0840152509392505050565b5f60208284031215614ef4575f80fd5b5051919050565b5f60208284031215614f0b575f80fd5b81516003811061112e575f80fd5b634e487b7160e01b5f52601160045260245ffd5b81810381811115610b6857610b68614f19565b5f82614f5a57634e487b7160e01b5f52601260045260245ffd5b500490565b5f60c08284031215614f6f575f80fd5b614f7761465e565b825181526020830151602082015260408301516040820152606083015160608201526080830151608082015260a0830151614fb1816145ae565b60a08201529392505050565b5f808335601e19843603018112614fd2575f80fd5b83016020810192503590506001600160401b03811115614ff0575f80fd5b8060051b3603821315613c47575f80fd5b8183525f6001600160fb1b03831115615018575f80fd5b8260051b80836020870137939093016020019392505050565b82815260406020820152813560408201525f6020830135615051816146b0565b151560608301526040830135615066816146b0565b1515608083015261507a6060840184614fbd565b608060a08501526130fe60c085018284615001565b828152610100810161112e602083018480516001600160a01b031682526020808201519083015260408082015190830152606080820151908301526080808201519083015260a0818101519083015260c0908101511515910152565b5f608082840312156150fb575f80fd5b604051608081018181106001600160401b038211171561511d5761511d614622565b80604052508091508251615130816145ae565b81526020830151615140816146b0565b8060208301525060408301516040820152606083015160608201525092915050565b5f6101408284031215615173575f80fd5b61517b614636565b61518584846150eb565b81526080830151615195816145ae565b8060208301525060a0830151604082015260c0830151606082015260e0830151608082015261010083015160a082015261012083015160c08201528091505092915050565b803582525f602080830135605e198436030181126151f6575f80fd5b60408583015283016152088180614fbd565b6060604088015261521d60a088018284615001565b91505061522c83830183614fbd565b603f19888403810160608a015281845291925f929086015b82841015615262578435815293860193600193909301928601615244565b61526f6040870187614fbd565b97509550818a82030160808b0152615288818888615001565b9a9950505050505050505050565b828152604060208201525f612f6360408301846151da565b5f61012082840312156152bf575f80fd5b6152c761465e565b6152d184846150eb565b81526080830151602082015260a0830151604082015260c0830151606082015260e0830151608082015261010083015160a08201528091505092915050565b803582526020810135615322816145ae565b6001600160a01b031660208301526040818101359083015260608082013590830152608090810135910152565b82815260c0810161112e6020830184615310565b5f805f60608486031215615375575f80fd5b8351925060208401519150604084015190509250925092565b83815260e081016153a26020830185615310565b8260c0830152949350505050565b82815260a0810161112e602083018480516001600160a01b031682526020808201519083015260408082015190830152606090810151910152565b803582526020810135602083015260408101356040830152606081013560608301526080810135608083015260a0810135615425816145ae565b6001600160a01b031660a0929092019190915250565b6001600160401b038116811461168c575f80fd5b803561545a816145ae565b6001600160a01b0316825260208101356154738161543b565b6001600160401b0381166020840152505050565b8035615492816145ae565b6001600160a01b0390811683526020820135906154ae826145ae565b90811660208401526040820135906154c5826145ae565b90811660408401526060820135906154dc826145ae565b90811660608401526080820135906154f3826145ae565b808216608085015250505050565b8681526001600160a01b03861660208201526102a0810161552560408301876153eb565b8435610100830152602085013561012083015260408501356101408301526060850135610160830152608085013561018083015260a08501356101a08301526155726101c083018561544f565b615580610200830184615487565b979650505050505050565b85815261028081016155a060208301876153eb565b843560e0830152602085013561010083015260408501356101208301526060850135610140830152608085013561016083015260a08501356101808301526155ec6101a083018561544f565b6130fe6101e0830184615487565b5f60c0828403121561560a575f80fd5b61561261465e565b825181526020830151602082015260408301516040820152606083015160608201526080830151608082015260a083015160a08201528091505092915050565b5f60408284031215615662575f80fd5b604051604081018181106001600160401b038211171561568457615684614622565b6040528251615692816145ae565b815260208301516156a28161543b565b60208201529392505050565b5f6060820190508382528235602083015260208301356156cd816145ae565b6001600160a01b03166040929092019190915292915050565b5f602082840312156156f6575f80fd5b815161112e816146b0565b8281526080810161112e60208301848035825260208082013590830152604090810135910152565b83815260a0810161575160208301858035825260208082013590830152604090810135910152565b826080830152949350505050565b82815261018081018235615772816145ae565b6001600160a01b03166020838101919091526157bf906040840190850180358252602081013560208301526040810135604083015260608101356060830152608081013560808301525050565b61112e60e0830160c0850180358252602081013560208301526040810135604083015260608101356060830152608081013560808301525050565b600181815b80851115613c4557815f190482111561581a5761581a614f19565b8085161561582757918102915b93841c93908002906157ff565b5f8261584257506001610b68565b8161584e57505f610b68565b8160018114615864576002811461586e5761588a565b6001915050610b68565b60ff84111561587f5761587f614f19565b50506001821b610b68565b5060208310610133831016604e8410600b84101617156158ad575081810a610b68565b6158b783836157fa565b805f19048211156158ca576158ca614f19565b029392505050565b5f61112e8383615834565b8082028115828204841417610b6857610b68614f19565b5f60208284031215615904575f80fd5b815160ff8116811461112e575f80fd5b5f61112e60ff841683615834565b60a081525f8451606060a084015261593e6101008401826149bd565b602087810151609f19868403810160c08801528151808552918301945091925f9291908401905b808410156159855785518252948401946001939093019290840190615965565b5060408a01519450818782030160e08801526159a181866149bd565b95505050506159de8185018780516001600160801b031682526020808201516001600160401b039081169184019190915260409182015116910152565b5050826080830152949350505050565b634e487b7160e01b5f52603260045260245ffd5b5f808335601e19843603018112615a17575f80fd5b8301803591506001600160401b03821115615a30575f80fd5b602001915036819003821315613c47575f80fd5b5f8251615a55818460208701614943565b919091019291505056fe360894a13ba1a3210667c828492db98dca3e2076cc3735a920a3ca505d382bbc02dd7bc7dec4dceedda775e58dd541e08a116c6c53815c0bd028192f7b626800cd5ed15c6e187e77e9aee88184c21f4f2182ab5827cb3b7e07fbedcd63f03300a2646970667358221220328fe0aa4ad09d5924ff22760da8427e438aa2fa83879f6c8961868c15a93adb64736f6c63430008170033",
    "linkReferences": {
      "src/libraries/CapsLibrary.sol": {
        "CapsLibrary": [
          {
            "start": 4026,
            "length": 20
          },
          {
            "start": 5896,
            "length": 20
          },
          {
            "start": 14494,
            "length": 20
          }
        ]
      },
      "src/libraries/LoanLibrary.sol": {
        "LoanLibrary": [
          {
            "start": 4091,
            "length": 20
          },
          {
            "start": 6281,
            "length": 20
          },
          {
            "start": 6442,
            "length": 20
          },
          {
            "start": 8282,
            "length": 20
          },
          {
            "start": 9932,
            "length": 20
          }
        ]
      },
      "src/libraries/RiskLibrary.sol": {
        "RiskLibrary": [
          {
            "start": 3869,
            "length": 20
          },
          {
            "start": 5637,
            "length": 20
          },
          {
            "start": 8991,
            "length": 20
          },
          {
            "start": 9317,
            "length": 20
          },
          {
            "start": 9458,
            "length": 20
          },
          {
            "start": 10125,
            "length": 20
          },
          {
            "start": 10694,
            "length": 20
          },
          {
            "start": 11100,
            "length": 20
          },
          {
            "start": 11569,
            "length": 20
          }
        ]
      },
      "src/libraries/YieldCurveLibrary.sol": {
        "YieldCurveLibrary": [
          {
            "start": 12640,
            "length": 20
          }
        ]
      },
      "src/libraries/actions/BuyCreditLimit.sol": {
        "BuyCreditLimit": [
          {
            "start": 5081,
            "length": 20
          },
          {
            "start": 5180,
            "length": 20
          }
        ]
      },
      "src/libraries/actions/BuyCreditMarket.sol": {
        "BuyCreditMarket": [
          {
            "start": 3645,
            "length": 20
          },
          {
            "start": 3747,
            "length": 20
          },
          {
            "start": 4862,
            "length": 20
          }
        ]
      },
      "src/libraries/actions/Claim.sol": {
        "Claim": [
          {
            "start": 11395,
            "length": 20
          },
          {
            "start": 11494,
            "length": 20
          }
        ]
      },
      "src/libraries/actions/Compensate.sol": {
        "Compensate": [
          {
            "start": 9101,
            "length": 20
          },
          {
            "start": 9200,
            "length": 20
          }
        ]
      },
      "src/libraries/actions/CopyLimitOrders.sol": {
        "CopyLimitOrders": [
          {
            "start": 11216,
            "length": 20
          },
          {
            "start": 11315,
            "length": 20
          }
        ]
      },
      "src/libraries/actions/Deposit.sol": {
        "Deposit": [
          {
            "start": 3421,
            "length": 20
          },
          {
            "start": 3520,
            "length": 20
          }
        ]
      },
      "src/libraries/actions/Initialize.sol": {
        "Initialize": [
          {
            "start": 7785,
            "length": 20
          },
          {
            "start": 7918,
            "length": 20
          }
        ]
      },
      "src/libraries/actions/Liquidate.sol": {
        "Liquidate": [
          {
            "start": 10752,
            "length": 20
          },
          {
            "start": 10851,
            "length": 20
          },
          {
            "start": 10976,
            "length": 20
          }
        ]
      },
      "src/libraries/actions/LiquidateWithReplacement.sol": {
        "LiquidateWithReplacement": [
          {
            "start": 5420,
            "length": 20
          },
          {
            "start": 5522,
            "length": 20
          },
          {
            "start": 5780,
            "length": 20
          }
        ]
      },
      "src/libraries/actions/Repay.sol": {
        "Repay": [
          {
            "start": 8761,
            "length": 20
          },
          {
            "start": 8859,
            "length": 20
          }
        ]
      },
      "src/libraries/actions/SelfLiquidate.sol": {
        "SelfLiquidate": [
          {
            "start": 11651,
            "length": 20
          },
          {
            "start": 11750,
            "length": 20
          }
        ]
      },
      "src/libraries/actions/SellCreditLimit.sol": {
        "SellCreditLimit": [
          {
            "start": 10251,
            "length": 20
          },
          {
            "start": 10350,
            "length": 20
          }
        ]
      },
      "src/libraries/actions/SellCreditMarket.sol": {
        "SellCreditMarket": [
          {
            "start": 5247,
            "length": 20
          },
          {
            "start": 10445,
            "length": 20
          },
          {
            "start": 10547,
            "length": 20
          }
        ]
      },
      "src/libraries/actions/SetUserConfiguration.sol": {
        "SetUserConfiguration": [
          {
            "start": 4696,
            "length": 20
          },
          {
            "start": 4795,
            "length": 20
          }
        ]
      },
      "src/libraries/actions/UpdateConfig.sol": {
        "UpdateConfig": [
          {
            "start": 3207,
            "length": 20
          },
          {
            "start": 3306,
            "length": 20
          },
          {
            "start": 4315,
            "length": 20
          },
          {
            "start": 8516,
            "length": 20
          },
          {
            "start": 8648,
            "length": 20
          }
        ]
      },
      "src/libraries/actions/Withdraw.sol": {
        "Withdraw": [
          {
            "start": 4467,
            "length": 20
          },
          {
            "start": 4566,
            "length": 20
          }
        ]
      }
    }
  },
  "methodIdentifiers": {
    "DEFAULT_ADMIN_ROLE()": "a217fddf",
    "UPGRADE_INTERFACE_VERSION()": "ad3cb1cc",
    "buyCreditLimit((uint256,(uint256[],int256[],uint256[])))": "3746f858",
    "buyCreditMarket((address,uint256,uint256,uint256,uint256,uint256,bool))": "19a7359b",
    "claim((uint256))": "f45bf01c",
    "collateralRatio(address)": "ca40742c",
    "compensate((uint256,uint256,uint256))": "8e572776",
    "copyLimitOrders((address,(uint256,uint256,uint256,uint256,int256),(uint256,uint256,uint256,uint256,int256)))": "f052e7a4",
    "data()": "73d4a13a",
    "debtTokenAmountToCollateralTokenAmount(uint256)": "1970e5ea",
    "deposit((address,uint256,address))": "0cf8542f",
    "feeConfig()": "1e5eb1d0",
    "getBorrowOfferAPR(address,uint256)": "f85c3cd4",
    "getBuyCreditMarketSwapData((address,uint256,uint256,uint256,uint256,uint256,bool))": "2ed28ba2",
    "getCreditPosition(uint256)": "76c1b82f",
    "getDebtPosition(uint256)": "b5ec7487",
    "getDebtPositionAssignedCollateral(uint256)": "54137c7e",
    "getLoanOfferAPR(address,uint256)": "2cc884c5",
    "getLoanStatus(uint256)": "1c4fd41c",
    "getPositionsCount()": "1ca3b0cb",
    "getRoleAdmin(bytes32)": "248a9ca3",
    "getSellCreditMarketSwapData((address,uint256,uint256,uint256,uint256,uint256,bool))": "37501921",
    "getSwapFee(uint256,uint256)": "2c60185c",
    "getUserCopyLimitOrders(address)": "b36116f6",
    "getUserView(address)": "5cbc51eb",
    "grantRole(bytes32,address)": "2f2ff15d",
    "hasRole(bytes32,address)": "91d14854",
    "initialize(address,(uint256,uint256,uint256,uint256,uint256,address),(uint256,uint256,uint256,uint256,uint256,uint256),(address,uint64),(address,address,address,address,address))": "61a10df2",
    "isCreditPositionId(uint256)": "ccc96815",
    "isDebtPositionId(uint256)": "64eb0a71",
    "isDebtPositionLiquidatable(uint256)": "e5af06ce",
    "isUserUnderwater(address)": "f731a57a",
    "liquidate((uint256,uint256,uint256))": "e05001f5",
    "liquidateWithReplacement((uint256,address,uint256,uint256,uint256))": "3e3c119b",
    "multicall(bytes[])": "ac9650d8",
    "oracle()": "7dc0d1d0",
    "pause()": "8456cb59",
    "paused()": "5c975abb",
    "proxiableUUID()": "52d1902d",
    "renounceRole(bytes32,address)": "36568abe",
    "repay((uint256,address))": "7f417c06",
    "revokeRole(bytes32,address)": "d547741f",
    "riskConfig()": "7c90a6ca",
    "selfLiquidate((uint256))": "fd17174a",
    "sellCreditLimit((uint256,(uint256[],int256[],uint256[])))": "ccd8d4d1",
    "sellCreditMarket((address,uint256,uint256,uint256,uint256,uint256,bool))": "d8d933a5",
    "setUserConfiguration((uint256,bool,bool,uint256[]))": "2e106f21",
    "setVariablePoolBorrowRate(uint128)": "4cbd882c",
    "supportsInterface(bytes4)": "01ffc9a7",
    "unpause()": "3f4ba83a",
    "updateConfig((string,uint256))": "0317b9df",
    "upgradeToAndCall(address,bytes)": "4f1ef286",
    "version()": "54fd4d50",
    "withdraw((address,uint256,address))": "2b4c9a20"
  },
  "id": 120
}