{
  "abi": [
    {
      "type": "constructor",
      "inputs": [],
      "stateMutability": "nonpayable"
    },
    {
      "type": "function",
      "name": "UPGRADE_INTERFACE_VERSION",
      "inputs": [],
      "outputs": [
        {
          "name": "",
          "type": "string",
          "internalType": "string"
        }
      ],
      "stateMutability": "view"
    },
    {
      "type": "function",
      "name": "acceptOwnership",
      "inputs": [],
      "outputs": [],
      "stateMutability": "nonpayable"
    },
    {
      "type": "function",
      "name": "addBorrowATokenV1_5",
      "inputs": [
        {
          "name": "borrowATokenV1_5",
          "type": "address",
          "internalType": "contract IERC20Metadata"
        }
      ],
      "outputs": [
        {
          "name": "existed",
          "type": "bool",
          "internalType": "bool"
        }
      ],
      "stateMutability": "nonpayable"
    },
    {
      "type": "function",
      "name": "addMarket",
      "inputs": [
        {
          "name": "market",
          "type": "address",
          "internalType": "contract ISize"
        }
      ],
      "outputs": [
        {
          "name": "existed",
          "type": "bool",
          "internalType": "bool"
        }
      ],
      "stateMutability": "nonpayable"
    },
    {
      "type": "function",
      "name": "addPriceFeed",
      "inputs": [
        {
          "name": "priceFeed",
          "type": "address",
          "internalType": "contract PriceFeed"
        }
      ],
      "outputs": [
        {
          "name": "existed",
          "type": "bool",
          "internalType": "bool"
        }
      ],
      "stateMutability": "nonpayable"
    },
    {
      "type": "function",
      "name": "createBorrowATokenV1_5",
      "inputs": [
        {
          "name": "variablePool",
          "type": "address",
          "internalType": "contract IPool"
        },
        {
          "name": "underlyingBorrowToken",
          "type": "address",
          "internalType": "contract IERC20Metadata"
        }
      ],
      "outputs": [
        {
          "name": "borrowATokenV1_5",
          "type": "address",
          "internalType": "contract NonTransferrableScaledTokenV1_5"
        }
      ],
      "stateMutability": "nonpayable"
    },
    {
      "type": "function",
      "name": "createMarket",
      "inputs": [
        {
          "name": "f",
          "type": "tuple",
          "internalType": "struct InitializeFeeConfigParams",
          "components": [
            {
              "name": "swapFeeAPR",
              "type": "uint256",
              "internalType": "uint256"
            },
            {
              "name": "fragmentationFee",
              "type": "uint256",
              "internalType": "uint256"
            },
            {
              "name": "liquidationRewardPercent",
              "type": "uint256",
              "internalType": "uint256"
            },
            {
              "name": "overdueCollateralProtocolPercent",
              "type": "uint256",
              "internalType": "uint256"
            },
            {
              "name": "collateralProtocolPercent",
              "type": "uint256",
              "internalType": "uint256"
            },
            {
              "name": "feeRecipient",
              "type": "address",
              "internalType": "address"
            }
          ]
        },
        {
          "name": "r",
          "type": "tuple",
          "internalType": "struct InitializeRiskConfigParams",
          "components": [
            {
              "name": "crOpening",
              "type": "uint256",
              "internalType": "uint256"
            },
            {
              "name": "crLiquidation",
              "type": "uint256",
              "internalType": "uint256"
            },
            {
              "name": "minimumCreditBorrowAToken",
              "type": "uint256",
              "internalType": "uint256"
            },
            {
              "name": "borrowATokenCap",
              "type": "uint256",
              "internalType": "uint256"
            },
            {
              "name": "minTenor",
              "type": "uint256",
              "internalType": "uint256"
            },
            {
              "name": "maxTenor",
              "type": "uint256",
              "internalType": "uint256"
            }
          ]
        },
        {
          "name": "o",
          "type": "tuple",
          "internalType": "struct InitializeOracleParams",
          "components": [
            {
              "name": "priceFeed",
              "type": "address",
              "internalType": "address"
            },
            {
              "name": "variablePoolBorrowRateStaleRateInterval",
              "type": "uint64",
              "internalType": "uint64"
            }
          ]
        },
        {
          "name": "d",
          "type": "tuple",
          "internalType": "struct InitializeDataParams",
          "components": [
            {
              "name": "weth",
              "type": "address",
              "internalType": "address"
            },
            {
              "name": "underlyingCollateralToken",
              "type": "address",
              "internalType": "address"
            },
            {
              "name": "underlyingBorrowToken",
              "type": "address",
              "internalType": "address"
            },
            {
              "name": "variablePool",
              "type": "address",
              "internalType": "address"
            },
            {
              "name": "borrowATokenV1_5",
              "type": "address",
              "internalType": "address"
            }
          ]
        }
      ],
      "outputs": [
        {
          "name": "market",
          "type": "address",
          "internalType": "contract ISize"
        }
      ],
      "stateMutability": "nonpayable"
    },
    {
      "type": "function",
      "name": "createPriceFeed",
      "inputs": [
        {
          "name": "underlyingCollateralTokenAggregator",
          "type": "address",
          "internalType": "address"
        },
        {
          "name": "underlyingBorrowTokenAggregator",
          "type": "address",
          "internalType": "address"
        },
        {
          "name": "sequencerUptimeFeed",
          "type": "address",
          "internalType": "address"
        },
        {
          "name": "underlyingCollateralTokenHeartbeat",
          "type": "uint256",
          "internalType": "uint256"
        },
        {
          "name": "underlyingBorrowTokenHeartbeat",
          "type": "uint256",
          "internalType": "uint256"
        }
      ],
      "outputs": [
        {
          "name": "priceFeed",
          "type": "address",
          "internalType": "contract PriceFeed"
        }
      ],
      "stateMutability": "nonpayable"
    },
    {
      "type": "function",
      "name": "getBorrowATokenV1_5",
      "inputs": [
        {
          "name": "index",
          "type": "uint256",
          "internalType": "uint256"
        }
      ],
      "outputs": [
        {
          "name": "",
          "type": "address",
          "internalType": "contract IERC20Metadata"
        }
      ],
      "stateMutability": "view"
    },
    {
      "type": "function",
      "name": "getBorrowATokenV1_5Descriptions",
      "inputs": [],
      "outputs": [
        {
          "name": "descriptions",
          "type": "string[]",
          "internalType": "string[]"
        }
      ],
      "stateMutability": "view"
    },
    {
      "type": "function",
      "name": "getBorrowATokensV1_5",
      "inputs": [],
      "outputs": [
        {
          "name": "_borrowATokensV1_5",
          "type": "address[]",
          "internalType": "contract IERC20Metadata[]"
        }
      ],
      "stateMutability": "view"
    },
    {
      "type": "function",
      "name": "getBorrowATokensV1_5Count",
      "inputs": [],
      "outputs": [
        {
          "name": "",
          "type": "uint256",
          "internalType": "uint256"
        }
      ],
      "stateMutability": "view"
    },
    {
      "type": "function",
      "name": "getMarket",
      "inputs": [
        {
          "name": "index",
          "type": "uint256",
          "internalType": "uint256"
        }
      ],
      "outputs": [
        {
          "name": "",
          "type": "address",
          "internalType": "contract ISize"
        }
      ],
      "stateMutability": "view"
    },
    {
      "type": "function",
      "name": "getMarketDescriptions",
      "inputs": [],
      "outputs": [
        {
          "name": "descriptions",
          "type": "string[]",
          "internalType": "string[]"
        }
      ],
      "stateMutability": "view"
    },
    {
      "type": "function",
      "name": "getMarkets",
      "inputs": [],
      "outputs": [
        {
          "name": "_markets",
          "type": "address[]",
          "internalType": "contract ISize[]"
        }
      ],
      "stateMutability": "view"
    },
    {
      "type": "function",
      "name": "getMarketsCount",
      "inputs": [],
      "outputs": [
        {
          "name": "",
          "type": "uint256",
          "internalType": "uint256"
        }
      ],
      "stateMutability": "view"
    },
    {
      "type": "function",
      "name": "getPriceFeed",
      "inputs": [
        {
          "name": "index",
          "type": "uint256",
          "internalType": "uint256"
        }
      ],
      "outputs": [
        {
          "name": "",
          "type": "address",
          "internalType": "contract PriceFeed"
        }
      ],
      "stateMutability": "view"
    },
    {
      "type": "function",
      "name": "getPriceFeedDescriptions",
      "inputs": [],
      "outputs": [
        {
          "name": "descriptions",
          "type": "string[]",
          "internalType": "string[]"
        }
      ],
      "stateMutability": "view"
    },
    {
      "type": "function",
      "name": "getPriceFeeds",
      "inputs": [],
      "outputs": [
        {
          "name": "_priceFeeds",
          "type": "address[]",
          "internalType": "contract PriceFeed[]"
        }
      ],
      "stateMutability": "view"
    },
    {
      "type": "function",
      "name": "getPriceFeedsCount",
      "inputs": [],
      "outputs": [
        {
          "name": "",
          "type": "uint256",
          "internalType": "uint256"
        }
      ],
      "stateMutability": "view"
    },
    {
      "type": "function",
      "name": "initialize",
      "inputs": [
        {
          "name": "_owner",
          "type": "address",
          "internalType": "address"
        }
      ],
      "outputs": [],
      "stateMutability": "nonpayable"
    },
    {
      "type": "function",
      "name": "isBorrowATokenV1_5",
      "inputs": [
        {
          "name": "candidate",
          "type": "address",
          "internalType": "address"
        }
      ],
      "outputs": [
        {
          "name": "",
          "type": "bool",
          "internalType": "bool"
        }
      ],
      "stateMutability": "view"
    },
    {
      "type": "function",
      "name": "isMarket",
      "inputs": [
        {
          "name": "candidate",
          "type": "address",
          "internalType": "address"
        }
      ],
      "outputs": [
        {
          "name": "",
          "type": "bool",
          "internalType": "bool"
        }
      ],
      "stateMutability": "view"
    },
    {
      "type": "function",
      "name": "isPriceFeed",
      "inputs": [
        {
          "name": "candidate",
          "type": "address",
          "internalType": "address"
        }
      ],
      "outputs": [
        {
          "name": "",
          "type": "bool",
          "internalType": "bool"
        }
      ],
      "stateMutability": "view"
    },
    {
      "type": "function",
      "name": "owner",
      "inputs": [],
      "outputs": [
        {
          "name": "",
          "type": "address",
          "internalType": "address"
        }
      ],
      "stateMutability": "view"
    },
    {
      "type": "function",
      "name": "pendingOwner",
      "inputs": [],
      "outputs": [
        {
          "name": "",
          "type": "address",
          "internalType": "address"
        }
      ],
      "stateMutability": "view"
    },
    {
      "type": "function",
      "name": "proxiableUUID",
      "inputs": [],
      "outputs": [
        {
          "name": "",
          "type": "bytes32",
          "internalType": "bytes32"
        }
      ],
      "stateMutability": "view"
    },
    {
      "type": "function",
      "name": "removeBorrowATokenV1_5",
      "inputs": [
        {
          "name": "borrowATokenV1_5",
          "type": "address",
          "internalType": "contract IERC20Metadata"
        }
      ],
      "outputs": [
        {
          "name": "existed",
          "type": "bool",
          "internalType": "bool"
        }
      ],
      "stateMutability": "nonpayable"
    },
    {
      "type": "function",
      "name": "removeMarket",
      "inputs": [
        {
          "name": "market",
          "type": "address",
          "internalType": "contract ISize"
        }
      ],
      "outputs": [
        {
          "name": "existed",
          "type": "bool",
          "internalType": "bool"
        }
      ],
      "stateMutability": "nonpayable"
    },
    {
      "type": "function",
      "name": "removePriceFeed",
      "inputs": [
        {
          "name": "priceFeed",
          "type": "address",
          "internalType": "contract PriceFeed"
        }
      ],
      "outputs": [
        {
          "name": "existed",
          "type": "bool",
          "internalType": "bool"
        }
      ],
      "stateMutability": "nonpayable"
    },
    {
      "type": "function",
      "name": "renounceOwnership",
      "inputs": [],
      "outputs": [],
      "stateMutability": "nonpayable"
    },
    {
      "type": "function",
      "name": "transferOwnership",
      "inputs": [
        {
          "name": "newOwner",
          "type": "address",
          "internalType": "address"
        }
      ],
      "outputs": [],
      "stateMutability": "nonpayable"
    },
    {
      "type": "function",
      "name": "upgradeToAndCall",
      "inputs": [
        {
          "name": "newImplementation",
          "type": "address",
          "internalType": "address"
        },
        {
          "name": "data",
          "type": "bytes",
          "internalType": "bytes"
        }
      ],
      "outputs": [],
      "stateMutability": "payable"
    },
    {
      "type": "function",
      "name": "version",
      "inputs": [],
      "outputs": [
        {
          "name": "",
          "type": "string",
          "internalType": "string"
        }
      ],
      "stateMutability": "pure"
    },
    {
      "type": "event",
      "name": "BorrowATokenV1_5Added",
      "inputs": [
        {
          "name": "borrowATokenV1_5",
          "type": "address",
          "indexed": true,
          "internalType": "address"
        },
        {
          "name": "existed",
          "type": "bool",
          "indexed": true,
          "internalType": "bool"
        }
      ],
      "anonymous": false
    },
    {
      "type": "event",
      "name": "BorrowATokenV1_5Removed",
      "inputs": [
        {
          "name": "borrowATokenV1_5",
          "type": "address",
          "indexed": true,
          "internalType": "address"
        },
        {
          "name": "existed",
          "type": "bool",
          "indexed": true,
          "internalType": "bool"
        }
      ],
      "anonymous": false
    },
    {
      "type": "event",
      "name": "Initialized",
      "inputs": [
        {
          "name": "version",
          "type": "uint64",
          "indexed": false,
          "internalType": "uint64"
        }
      ],
      "anonymous": false
    },
    {
      "type": "event",
      "name": "MarketAdded",
      "inputs": [
        {
          "name": "market",
          "type": "address",
          "indexed": true,
          "internalType": "address"
        },
        {
          "name": "existed",
          "type": "bool",
          "indexed": true,
          "internalType": "bool"
        }
      ],
      "anonymous": false
    },
    {
      "type": "event",
      "name": "MarketRemoved",
      "inputs": [
        {
          "name": "market",
          "type": "address",
          "indexed": true,
          "internalType": "address"
        },
        {
          "name": "existed",
          "type": "bool",
          "indexed": true,
          "internalType": "bool"
        }
      ],
      "anonymous": false
    },
    {
      "type": "event",
      "name": "OwnershipTransferStarted",
      "inputs": [
        {
          "name": "previousOwner",
          "type": "address",
          "indexed": true,
          "internalType": "address"
        },
        {
          "name": "newOwner",
          "type": "address",
          "indexed": true,
          "internalType": "address"
        }
      ],
      "anonymous": false
    },
    {
      "type": "event",
      "name": "OwnershipTransferred",
      "inputs": [
        {
          "name": "previousOwner",
          "type": "address",
          "indexed": true,
          "internalType": "address"
        },
        {
          "name": "newOwner",
          "type": "address",
          "indexed": true,
          "internalType": "address"
        }
      ],
      "anonymous": false
    },
    {
      "type": "event",
      "name": "PriceFeedAdded",
      "inputs": [
        {
          "name": "priceFeed",
          "type": "address",
          "indexed": true,
          "internalType": "address"
        },
        {
          "name": "existed",
          "type": "bool",
          "indexed": true,
          "internalType": "bool"
        }
      ],
      "anonymous": false
    },
    {
      "type": "event",
      "name": "PriceFeedRemoved",
      "inputs": [
        {
          "name": "priceFeed",
          "type": "address",
          "indexed": true,
          "internalType": "address"
        },
        {
          "name": "existed",
          "type": "bool",
          "indexed": true,
          "internalType": "bool"
        }
      ],
      "anonymous": false
    },
    {
      "type": "event",
      "name": "Upgraded",
      "inputs": [
        {
          "name": "implementation",
          "type": "address",
          "indexed": true,
          "internalType": "address"
        }
      ],
      "anonymous": false
    },
    {
      "type": "error",
      "name": "AddressEmptyCode",
      "inputs": [
        {
          "name": "target",
          "type": "address",
          "internalType": "address"
        }
      ]
    },
    {
      "type": "error",
      "name": "ERC1967InvalidImplementation",
      "inputs": [
        {
          "name": "implementation",
          "type": "address",
          "internalType": "address"
        }
      ]
    },
    {
      "type": "error",
      "name": "ERC1967NonPayable",
      "inputs": []
    },
    {
      "type": "error",
      "name": "FailedInnerCall",
      "inputs": []
    },
    {
      "type": "error",
      "name": "InvalidInitialization",
      "inputs": []
    },
    {
      "type": "error",
      "name": "NULL_ADDRESS",
      "inputs": []
    },
    {
      "type": "error",
      "name": "NotInitializing",
      "inputs": []
    },
    {
      "type": "error",
      "name": "OwnableInvalidOwner",
      "inputs": [
        {
          "name": "owner",
          "type": "address",
          "internalType": "address"
        }
      ]
    },
    {
      "type": "error",
      "name": "OwnableUnauthorizedAccount",
      "inputs": [
        {
          "name": "account",
          "type": "address",
          "internalType": "address"
        }
      ]
    },
    {
      "type": "error",
      "name": "UUPSUnauthorizedCallContext",
      "inputs": []
    },
    {
      "type": "error",
      "name": "UUPSUnsupportedProxiableUUID",
      "inputs": [
        {
          "name": "slot",
          "type": "bytes32",
          "internalType": "bytes32"
        }
      ]
    }
  ],
  "bytecode": {
    "object": "0x60a06040523060805234801562000014575f80fd5b506200001f62000025565b620000d9565b7ff0c57e16840df040f15088dc2f81fe391c3923bec73e23a9662efc9c229c6a00805468010000000000000000900460ff1615620000765760405163f92ee8a960e01b815260040160405180910390fd5b80546001600160401b0390811614620000d65780546001600160401b0319166001600160401b0390811782556040519081527fc7f505b2f371ae2175ee4913f4499e1f2633a7b5936321eed1cdaeb6115181d29060200160405180910390a15b50565b60805161269a620001005f395f81816116610152818161168a01526117ce015261269a5ff3fe6080604052600436106101f1575f3560e01c806389fd57b111610108578063db9132361161009d578063ef0965721161006d578063ef09657214610550578063f2fde38b1461056f578063f607f1a81461058e578063f91d443f146105ad578063fceb0024146105cc575f80fd5b8063db913236146104ea578063e30c397814610509578063eb44fdd31461051d578063ec2c90161461053c575f80fd5b8063ad3cb1cc116100d8578063ad3cb1cc14610468578063b4208ef214610498578063b7621145146104ac578063c4d66de8146104cb575f80fd5b806389fd57b1146104025780638da5cb5b146104165780638e6ee8e51461042a57806393e3063314610449575f80fd5b806357a94beb116101895780636ca42ae3116101595780636ca42ae3146103865780636ec934da146103a7578063715018a6146103c65780637643d7ec146103da57806379ba5097146103ee575f80fd5b806357a94beb146103135780635a58a812146103325780635dbd6102146103465780636c59803b14610365575f80fd5b806327fa35c3116101c457806327fa35c3146102a15780634f1ef286146102b557806352d1902d146102ca57806354fd4d50146102de575f80fd5b8063025e0812146101f557806307d4e090146102295780630bb6842d1461026057806317180f341461027f575b5f80fd5b348015610200575f80fd5b5061021461020f366004611e73565b6105eb565b60405190151581526020015b60405180910390f35b348015610234575f80fd5b50610248610243366004611ea4565b610603565b6040516001600160a01b039091168152602001610220565b34801561026b575f80fd5b5061021461027a366004611e73565b6106a5565b34801561028a575f80fd5b506102936106b7565b604051908152602001610220565b3480156102ac575f80fd5b506102936106c7565b6102c86102c3366004611f78565b6106d1565b005b3480156102d5575f80fd5b506102936106f0565b3480156102e9575f80fd5b5060408051808201909152600481526376312e3560e01b60208201525b6040516102209190612051565b34801561031e575f80fd5b5061021461032d366004611e73565b61070b565b34801561033d575f80fd5b50610293610717565b348015610351575f80fd5b50610214610360366004611e73565b610722565b348015610370575f80fd5b5061037961079d565b6040516102209190612063565b348015610391575f80fd5b5061039a61089b565b60405161022091906120c5565b3480156103b2575f80fd5b506102146103c1366004611e73565b610932565b3480156103d1575f80fd5b506102c861093d565b3480156103e5575f80fd5b50610379610950565b3480156103f9575f80fd5b506102c8610c7a565b34801561040d575f80fd5b5061039a610cc7565b348015610421575f80fd5b50610248610d5e565b348015610435575f80fd5b50610248610444366004612111565b610d92565b348015610454575f80fd5b50610214610463366004611e73565b610e45565b348015610473575f80fd5b50610306604051806040016040528060058152602001640352e302e360dc1b81525081565b3480156104a3575f80fd5b50610379610e57565b3480156104b7575f80fd5b506102146104c6366004611e73565b611091565b3480156104d6575f80fd5b506102c86104e5366004611e73565b61109d565b3480156104f5575f80fd5b50610214610504366004611e73565b6111b9565b348015610514575f80fd5b50610248611233565b348015610528575f80fd5b50610248610537366004612148565b61125b565b348015610547575f80fd5b5061039a611266565b34801561055b575f80fd5b5061024861056a366004612148565b6112fb565b34801561057a575f80fd5b506102c8610589366004611e73565b611307565b348015610599575f80fd5b506102486105a836600461215f565b61138c565b3480156105b8575f80fd5b506102486105c7366004612148565b611442565b3480156105d7575f80fd5b506102146105e6366004611e73565b61144e565b5f6105f46114c9565b6105fd826114fb565b92915050565b5f61060c6114c9565b73__$0cec9b92a4a5041913558f257920b03236$__63310657f961062e610d5e565b878787876040518663ffffffff1660e01b815260040161065295949392919061226c565b602060405180830381865af415801561066d573d5f803e3d5ffd5b505050506040513d601f19601f820116820180604052508101906106919190612327565b905061069c8161156c565b50949350505050565b5f6106ae6114c9565b6105fd826115dc565b5f6106c2600261164d565b905090565b5f6106c25f61164d565b6106d9611656565b6106e2826116fa565b6106ec8282611702565b5050565b5f6106f96117c3565b505f8051602061264583398151915290565b5f6105fd60028361180c565b5f6106c2600461164d565b5f61072b6114c9565b6001600160a01b0382166107525760405163de0ce17d60e01b815260040160405180910390fd5b61075d600483611830565b9050801515826001600160a01b03167f8d73d27027613eea51b73041fbb3e53c27e7fed218a338331989912b6c4b4be860405160405180910390a3919050565b60606107a9600461164d565b6001600160401b038111156107c0576107c0611f0e565b6040519080825280602002602001820160405280156107f357816020015b60608152602001906001900390816107de5790505b5090505f5b8151811015610897575f61080d600483611844565b9050806001600160a01b03166395d89b416040518163ffffffff1660e01b81526004015f60405180830381865afa15801561084a573d5f803e3d5ffd5b505050506040513d5f823e601f3d908101601f191682016040526108719190810190612342565b838381518110610883576108836123aa565b6020908102919091010152506001016107f8565b5090565b60606108a7600261164d565b6001600160401b038111156108be576108be611f0e565b6040519080825280602002602001820160405280156108e7578160200160208202803683370190505b5090505f5b815181101561089757610900600282611844565b828281518110610912576109126123aa565b6001600160a01b03909216602092830291909101909101526001016108ec565b5f6105fd818361180c565b6109456114c9565b61094e5f61184f565b565b606061095b5f61164d565b6001600160401b0381111561097257610972611f0e565b6040519080825280602002602001820160405280156109a557816020015b60608152602001906001900390816109905790505b5090505f5b8151811015610897575f6109be8183611844565b90505f610a386064836001600160a01b0316637c90a6ca6040518163ffffffff1660e01b815260040160c060405180830381865afa158015610a02573d5f803e3d5ffd5b505050506040513d601f19601f82011682018060405250810190610a2691906123be565b60200151670de0b6b3a7640000611887565b9050816001600160a01b03166373d4a13a6040518163ffffffff1660e01b815260040161010060405180830381865afa158015610a77573d5f803e3d5ffd5b505050506040513d601f19601f82011682018060405250810190610a9b9190612445565b604001516001600160a01b03166395d89b416040518163ffffffff1660e01b81526004015f60405180830381865afa158015610ad9573d5f803e3d5ffd5b505050506040513d5f823e601f3d908101601f19168201604052610b009190810190612342565b826001600160a01b03166373d4a13a6040518163ffffffff1660e01b815260040161010060405180830381865afa158015610b3d573d5f803e3d5ffd5b505050506040513d601f19601f82011682018060405250810190610b619190612445565b606001516001600160a01b03166395d89b416040518163ffffffff1660e01b81526004015f60405180830381865afa158015610b9f573d5f803e3d5ffd5b505050506040513d5f823e601f3d908101601f19168201604052610bc69190810190612342565b610bcf8361189b565b846001600160a01b03166354fd4d506040518163ffffffff1660e01b81526004015f60405180830381865afa158015610c0a573d5f803e3d5ffd5b505050506040513d5f823e601f3d908101601f19168201604052610c319190810190612342565b604051602001610c4494939291906124fe565b604051602081830303815290604052848481518110610c6557610c656123aa565b602090810291909101015250506001016109aa565b3380610c84611233565b6001600160a01b031614610cbb5760405163118cdaa760e01b81526001600160a01b03821660048201526024015b60405180910390fd5b610cc48161184f565b50565b6060610cd3600461164d565b6001600160401b03811115610cea57610cea611f0e565b604051908082528060200260200182016040528015610d13578160200160208202803683370190505b5090505f5b815181101561089757610d2c600482611844565b828281518110610d3e57610d3e6123aa565b6001600160a01b0390921660209283029190910190910152600101610d18565b5f807f9016d09d72d40fdae2fd8ceac6b6234c7706214fd39c1cd1e609a0528c1993005b546001600160a01b031692915050565b5f610d9b6114c9565b73__$9de08c5fadaa7cf6906224c71f8a8fe49b$__634299eb2d610dbd610d5e565b6040516001600160e01b031960e084901b1681526001600160a01b03918216600482015281871660248201529085166044820152606401602060405180830381865af4158015610e0f573d5f803e3d5ffd5b505050506040513d601f19601f82011682018060405250810190610e339190612327565b9050610e3e816114fb565b5092915050565b5f610e4e6114c9565b6105fd8261156c565b6060610e63600261164d565b6001600160401b03811115610e7a57610e7a611f0e565b604051908082528060200260200182016040528015610ead57816020015b6060815260200190600190039081610e985790505b5090505f5b8151811015610897575f610ec7600283611844565b9050806001600160a01b0316635001f3b56040518163ffffffff1660e01b8152600401602060405180830381865afa158015610f05573d5f803e3d5ffd5b505050506040513d601f19601f82011682018060405250810190610f299190612327565b6001600160a01b0316637284e4166040518163ffffffff1660e01b81526004015f60405180830381865afa158015610f63573d5f803e3d5ffd5b505050506040513d5f823e601f3d908101601f19168201604052610f8a9190810190612342565b816001600160a01b031663999b93af6040518163ffffffff1660e01b8152600401602060405180830381865afa158015610fc6573d5f803e3d5ffd5b505050506040513d601f19601f82011682018060405250810190610fea9190612327565b6001600160a01b0316637284e4166040518163ffffffff1660e01b81526004015f60405180830381865afa158015611024573d5f803e3d5ffd5b505050506040513d5f823e601f3d908101601f1916820160405261104b9190810190612342565b60405160200161105c92919061258a565b60405160208183030381529060405283838151811061107d5761107d6123aa565b602090810291909101015250600101610eb2565b5f6105fd60048361180c565b7ff0c57e16840df040f15088dc2f81fe391c3923bec73e23a9662efc9c229c6a008054600160401b810460ff1615906001600160401b03165f811580156110e15750825b90505f826001600160401b031660011480156110fc5750303b155b90508115801561110a575080155b156111285760405163f92ee8a960e01b815260040160405180910390fd5b845467ffffffffffffffff19166001178555831561115257845460ff60401b1916600160401b1785555b61115b8661192a565b61116361193b565b61116b61193b565b83156111b157845460ff60401b19168555604051600181527fc7f505b2f371ae2175ee4913f4499e1f2633a7b5936321eed1cdaeb6115181d29060200160405180910390a15b505050505050565b5f6111c26114c9565b6001600160a01b0382166111e95760405163de0ce17d60e01b815260040160405180910390fd5b6111f35f83611830565b9050801515826001600160a01b03167f0e4a8f27c6352e6fe6149b046737df5653aa907ab5f60a2e6f44b9fbe74d36fa60405160405180910390a3919050565b5f807f237e158222e3e6968b72b9db0d8043aacf074ad9f650f0d1606b4d82ee432c00610d82565b5f6105fd8183611844565b60606112715f61164d565b6001600160401b0381111561128857611288611f0e565b6040519080825280602002602001820160405280156112b1578160200160208202803683370190505b5090505f5b8151811015610897576112c95f82611844565b8282815181106112db576112db6123aa565b6001600160a01b03909216602092830291909101909101526001016112b6565b5f6105fd600483611844565b61130f6114c9565b7f237e158222e3e6968b72b9db0d8043aacf074ad9f650f0d1606b4d82ee432c0080546001600160a01b0319166001600160a01b0383169081178255611353610d5e565b6001600160a01b03167f38d16b8cac22d99fc7c124b9cd0de2d3fa1faef420bfe791d8c362d765e2270060405160405180910390a35050565b5f6113956114c9565b604051631ec0fe3560e31b81526001600160a01b038088166004830152808716602483015285166044820152606481018490526084810183905273__$929f8e7f755903a09e0d9854708adfe429$__9063f607f1a89060a401602060405180830381865af4158015611409573d5f803e3d5ffd5b505050506040513d601f19601f8201168201806040525081019061142d9190612327565b9050611438816115dc565b5095945050505050565b5f6105fd600283611844565b5f6114576114c9565b6001600160a01b03821661147e5760405163de0ce17d60e01b815260040160405180910390fd5b611489600283611830565b9050801515826001600160a01b03167f4192bb627423ed9ad89a0007e7b220e804aeac006b70f9f34283ad4f475b156e60405160405180910390a3919050565b336114d2610d5e565b6001600160a01b03161461094e5760405163118cdaa760e01b8152336004820152602401610cb2565b5f6001600160a01b0382166115235760405163de0ce17d60e01b815260040160405180910390fd5b61152e600483611943565b6040519015915081906001600160a01b038416907f8728dad4104402ec48bfe4e6dbda57ccb04fde1b4c7d2781716125a6203d717d905f90a3919050565b5f6001600160a01b0382166115945760405163de0ce17d60e01b815260040160405180910390fd5b61159e5f83611943565b6040519015915081906001600160a01b038416907f31b5222362b7d52d7e24d96723c4b09a0043f8b859a4eaeefd5c69c6c8ca5877905f90a3919050565b5f6001600160a01b0382166116045760405163de0ce17d60e01b815260040160405180910390fd5b61160f600283611943565b6040519015915081906001600160a01b038416907f8ed7f0e9b2ee05a88d7dead0712832e6b8c32512e38cef5ee45c4f1816af204c905f90a3919050565b5f6105fd825490565b306001600160a01b037f00000000000000000000000000000000000000000000000000000000000000001614806116dc57507f00000000000000000000000000000000000000000000000000000000000000006001600160a01b03166116d05f80516020612645833981519152546001600160a01b031690565b6001600160a01b031614155b1561094e5760405163703e46dd60e11b815260040160405180910390fd5b610cc46114c9565b816001600160a01b03166352d1902d6040518163ffffffff1660e01b8152600401602060405180830381865afa92505050801561175c575060408051601f3d908101601f19168201909252611759918101906125df565b60015b61178457604051634c9c8ce360e01b81526001600160a01b0383166004820152602401610cb2565b5f8051602061264583398151915281146117b457604051632a87526960e21b815260048101829052602401610cb2565b6117be8383611957565b505050565b306001600160a01b037f0000000000000000000000000000000000000000000000000000000000000000161461094e5760405163703e46dd60e11b815260040160405180910390fd5b6001600160a01b0381165f90815260018301602052604081205415155b9392505050565b5f611829836001600160a01b0384166119ac565b5f6118298383611a8f565b7f237e158222e3e6968b72b9db0d8043aacf074ad9f650f0d1606b4d82ee432c0080546001600160a01b03191681556106ec82611ab5565b5f611893848484611b25565b949350505050565b60605f6118a783611b49565b60010190505f816001600160401b038111156118c5576118c5611f0e565b6040519080825280601f01601f1916602001820160405280156118ef576020820181803683370190505b5090508181016020015b5f19016f181899199a1a9b1b9c1cb0b131b232b360811b600a86061a8153600a85049450846118f957509392505050565b611932611c20565b610cc481611c69565b61094e611c20565b5f611829836001600160a01b038416611c9a565b61196082611ce6565b6040516001600160a01b038316907fbc7cd75a20ee27fd9adebab32041f755214dbc6bffa90cc0225b39da2e5c2d3b905f90a28051156119a4576117be8282611d49565b6106ec611dbb565b5f8181526001830160205260408120548015611a86575f6119ce6001836125f6565b85549091505f906119e1906001906125f6565b9050808214611a40575f865f0182815481106119ff576119ff6123aa565b905f5260205f200154905080875f018481548110611a1f57611a1f6123aa565b5f918252602080832090910192909255918252600188019052604090208390555b8554869080611a5157611a51612615565b600190038181905f5260205f20015f90559055856001015f8681526020019081526020015f205f9055600193505050506105fd565b5f9150506105fd565b5f825f018281548110611aa457611aa46123aa565b905f5260205f200154905092915050565b7f9016d09d72d40fdae2fd8ceac6b6234c7706214fd39c1cd1e609a0528c19930080546001600160a01b031981166001600160a01b03848116918217845560405192169182907f8be0079c531659141344cd1fd0a4f28419497f9722a3daafe3b4186f6b6457e0905f90a3505050565b5f825f190484118302158202611b425763ad251c275f526004601cfd5b5091020490565b5f8072184f03e93ff9f4daa797ed6e38ed64bf6a1f0160401b8310611b875772184f03e93ff9f4daa797ed6e38ed64bf6a1f0160401b830492506040015b6d04ee2d6d415b85acef81000000008310611bb3576d04ee2d6d415b85acef8100000000830492506020015b662386f26fc100008310611bd157662386f26fc10000830492506010015b6305f5e1008310611be9576305f5e100830492506008015b6127108310611bfd57612710830492506004015b60648310611c0f576064830492506002015b600a83106105fd5760010192915050565b7ff0c57e16840df040f15088dc2f81fe391c3923bec73e23a9662efc9c229c6a0054600160401b900460ff1661094e57604051631afcd79f60e31b815260040160405180910390fd5b611c71611c20565b6001600160a01b038116610cbb57604051631e4fbdf760e01b81525f6004820152602401610cb2565b5f818152600183016020526040812054611cdf57508154600181810184555f8481526020808220909301849055845484825282860190935260409020919091556105fd565b505f6105fd565b806001600160a01b03163b5f03611d1b57604051634c9c8ce360e01b81526001600160a01b0382166004820152602401610cb2565b5f8051602061264583398151915280546001600160a01b0319166001600160a01b0392909216919091179055565b60605f80846001600160a01b031684604051611d659190612629565b5f60405180830381855af49150503d805f8114611d9d576040519150601f19603f3d011682016040523d82523d5f602084013e611da2565b606091505b5091509150611db2858383611dda565b95945050505050565b341561094e5760405163b398979f60e01b815260040160405180910390fd5b606082611def57611dea82611e36565b611829565b8151158015611e0657506001600160a01b0384163b155b15611e2f57604051639996b31560e01b81526001600160a01b0385166004820152602401610cb2565b5080611829565b805115611e465780518082602001fd5b604051630a12f52160e11b815260040160405180910390fd5b6001600160a01b0381168114610cc4575f80fd5b5f60208284031215611e83575f80fd5b813561182981611e5f565b5f60c08284031215611e9e575f80fd5b50919050565b5f805f80848603610260811215611eb9575f80fd5b611ec38787611e8e565b9450611ed28760c08801611e8e565b9350604061017f1982011215611ee6575f80fd5b6101808601925060a06101bf1982011215611eff575f80fd5b509295919450926101c0019150565b634e487b7160e01b5f52604160045260245ffd5b604051601f8201601f191681016001600160401b0381118282101715611f4a57611f4a611f0e565b604052919050565b5f6001600160401b03821115611f6a57611f6a611f0e565b50601f01601f191660200190565b5f8060408385031215611f89575f80fd5b8235611f9481611e5f565b915060208301356001600160401b03811115611fae575f80fd5b8301601f81018513611fbe575f80fd5b8035611fd1611fcc82611f52565b611f22565b818152866020838501011115611fe5575f80fd5b816020840160208301375f602083830101528093505050509250929050565b5f5b8381101561201e578181015183820152602001612006565b50505f910152565b5f815180845261203d816020860160208601612004565b601f01601f19169290920160200192915050565b602081525f6118296020830184612026565b5f60208083016020845280855180835260408601915060408160051b8701019250602087015f5b828110156120b857603f198886030184526120a6858351612026565b9450928501929085019060010161208a565b5092979650505050505050565b602080825282518282018190525f9190848201906040850190845b818110156121055783516001600160a01b0316835292840192918401916001016120e0565b50909695505050505050565b5f8060408385031215612122575f80fd5b823561212d81611e5f565b9150602083013561213d81611e5f565b809150509250929050565b5f60208284031215612158575f80fd5b5035919050565b5f805f805f60a08688031215612173575f80fd5b853561217e81611e5f565b9450602086013561218e81611e5f565b9350604086013561219e81611e5f565b94979396509394606081013594506080013592915050565b80356121c181611e5f565b6001600160a01b0316825260208101356001600160401b0381168082146121e6575f80fd5b80602085015250505050565b80356121fd81611e5f565b6001600160a01b03908116835260208201359061221982611e5f565b908116602084015260408201359061223082611e5f565b908116604084015260608201359061224782611e5f565b908116606084015260808201359061225e82611e5f565b808216608085015250505050565b5f6102808201905060018060a01b03808816835286356020840152602087013560408401526040870135606084015260608701356080840152608087013560a084015260a08701356122bd81611e5f565b1660c0830152843560e0830152602085013561010083015260408501356101208301526060850135610140830152608085013561016083015260a085013561018083015261230f6101a08301856121b6565b61231d6101e08301846121f2565b9695505050505050565b5f60208284031215612337575f80fd5b815161182981611e5f565b5f60208284031215612352575f80fd5b81516001600160401b03811115612367575f80fd5b8201601f81018413612377575f80fd5b8051612385611fcc82611f52565b818152856020838501011115612399575f80fd5b611db2826020830160208601612004565b634e487b7160e01b5f52603260045260245ffd5b5f60c082840312156123ce575f80fd5b60405160c081018181106001600160401b03821117156123f0576123f0611f0e565b8060405250825181526020830151602082015260408301516040820152606083015160608201526080830151608082015260a083015160a08201528091505092915050565b805161244081611e5f565b919050565b5f610100808385031215612457575f80fd5b604051908101906001600160401b038211818310171561247957612479611f0e565b8160405283518152602084015160208201526040840151915061249b82611e5f565b8160408201526124ad60608501612435565b60608201526124be60808501612435565b60808201526124cf60a08501612435565b60a08201526124e060c08501612435565b60c08201526124f160e08501612435565b60e0820152949350505050565b66029b4bd32903e160cd1b81525f855161251f816007850160208a01612004565b8083019050620103e160ed1b806007830152865161254481600a850160208b01612004565b600a9201918201819052855161256181600d850160208a01612004565b600d920191820152835161257c816010840160208801612004565b016010019695505050505050565b6b0283934b1b2a332b2b2103e160a51b81525f83516125b081600c850160208801612004565b620103e160ed1b600c9184019182015283516125d381600f840160208801612004565b01600f01949350505050565b5f602082840312156125ef575f80fd5b5051919050565b818103818111156105fd57634e487b7160e01b5f52601160045260245ffd5b634e487b7160e01b5f52603160045260245ffd5b5f825161263a818460208701612004565b919091019291505056fe360894a13ba1a3210667c828492db98dca3e2076cc3735a920a3ca505d382bbca26469706673582212208325213bc6d502d562ba852e746e0abbe5e451be29fe8ee2860e4a57cf34e6a164736f6c63430008170033",
    "linkReferences": {
      "src/v1.5/libraries/MarketFactoryLibrary.sol": {
        "MarketFactoryLibrary": [
          {
            "start": 1806,
            "length": 20
          }
        ]
      },
      "src/v1.5/libraries/NonTransferrableScaledTokenV1_5FactoryLibrary.sol": {
        "NonTransferrableScaledTokenV1_5FactoryLibrary": [
          {
            "start": 3741,
            "length": 20
          }
        ]
      },
      "src/v1.5/libraries/PriceFeedFactoryLibrary.sol": {
        "PriceFeedFactoryLibrary": [
          {
            "start": 5329,
            "length": 20
          }
        ]
      }
    }
  },
  "methodIdentifiers": {
    "UPGRADE_INTERFACE_VERSION()": "ad3cb1cc",
    "acceptOwnership()": "79ba5097",
    "addBorrowATokenV1_5(address)": "025e0812",
    "addMarket(address)": "93e30633",
    "addPriceFeed(address)": "0bb6842d",
    "createBorrowATokenV1_5(address,address)": "8e6ee8e5",
    "createMarket((uint256,uint256,uint256,uint256,uint256,address),(uint256,uint256,uint256,uint256,uint256,uint256),(address,uint64),(address,address,address,address,address))": "07d4e090",
    "createPriceFeed(address,address,address,uint256,uint256)": "f607f1a8",
    "getBorrowATokenV1_5(uint256)": "ef096572",
    "getBorrowATokenV1_5Descriptions()": "6c59803b",
    "getBorrowATokensV1_5()": "89fd57b1",
    "getBorrowATokensV1_5Count()": "5a58a812",
    "getMarket(uint256)": "eb44fdd3",
    "getMarketDescriptions()": "7643d7ec",
    "getMarkets()": "ec2c9016",
    "getMarketsCount()": "27fa35c3",
    "getPriceFeed(uint256)": "f91d443f",
    "getPriceFeedDescriptions()": "b4208ef2",
    "getPriceFeeds()": "6ca42ae3",
    "getPriceFeedsCount()": "17180f34",
    "initialize(address)": "c4d66de8",
    "isBorrowATokenV1_5(address)": "b7621145",
    "isMarket(address)": "6ec934da",
    "isPriceFeed(address)": "57a94beb",
    "owner()": "8da5cb5b",
    "pendingOwner()": "e30c3978",
    "proxiableUUID()": "52d1902d",
    "removeBorrowATokenV1_5(address)": "5dbd6102",
    "removeMarket(address)": "db913236",
    "removePriceFeed(address)": "fceb0024",
    "renounceOwnership()": "715018a6",
    "transferOwnership(address)": "f2fde38b",
    "upgradeToAndCall(address,bytes)": "4f1ef286",
    "version()": "54fd4d50"
  },
  "id": 136
}