{"abi":[{"type":"constructor","inputs":[],"stateMutability":"nonpayable"},{"type":"function","name":"DEFAULT_ADMIN_ROLE","inputs":[],"outputs":[{"name":"","type":"bytes32","internalType":"bytes32"}],"stateMutability":"view"},{"type":"function","name":"UPGRADE_INTERFACE_VERSION","inputs":[],"outputs":[{"name":"","type":"string","internalType":"string"}],"stateMutability":"view"},{"type":"function","name":"buyCreditLimit","inputs":[{"name":"params","type":"tuple","internalType":"struct BuyCreditLimitParams","components":[{"name":"maxDueDate","type":"uint256","internalType":"uint256"},{"name":"curveRelativeTime","type":"tuple","internalType":"struct YieldCurve","components":[{"name":"tenors","type":"uint256[]","internalType":"uint256[]"},{"name":"aprs","type":"int256[]","internalType":"int256[]"},{"name":"marketRateMultipliers","type":"uint256[]","internalType":"uint256[]"}]}]}],"outputs":[],"stateMutability":"payable"},{"type":"function","name":"buyCreditMarket","inputs":[{"name":"params","type":"tuple","internalType":"struct BuyCreditMarketParams","components":[{"name":"borrower","type":"address","internalType":"address"},{"name":"creditPositionId","type":"uint256","internalType":"uint256"},{"name":"amount","type":"uint256","internalType":"uint256"},{"name":"tenor","type":"uint256","internalType":"uint256"},{"name":"deadline","type":"uint256","internalType":"uint256"},{"name":"minAPR","type":"uint256","internalType":"uint256"},{"name":"exactAmountIn","type":"bool","internalType":"bool"}]}],"outputs":[],"stateMutability":"payable"},{"type":"function","name":"claim","inputs":[{"name":"params","type":"tuple","internalType":"struct ClaimParams","components":[{"name":"creditPositionId","type":"uint256","internalType":"uint256"}]}],"outputs":[],"stateMutability":"payable"},{"type":"function","name":"collateralRatio","inputs":[{"name":"user","type":"address","internalType":"address"}],"outputs":[{"name":"","type":"uint256","internalType":"uint256"}],"stateMutability":"view"},{"type":"function","name":"compensate","inputs":[{"name":"params","type":"tuple","internalType":"struct CompensateParams","components":[{"name":"creditPositionWithDebtToRepayId","type":"uint256","internalType":"uint256"},{"name":"creditPositionToCompensateId","type":"uint256","internalType":"uint256"},{"name":"amount","type":"uint256","internalType":"uint256"}]}],"outputs":[],"stateMutability":"payable"},{"type":"function","name":"data","inputs":[],"outputs":[{"name":"","type":"tuple","internalType":"struct DataView","components":[{"name":"nextDebtPositionId","type":"uint256","internalType":"uint256"},{"name":"nextCreditPositionId","type":"uint256","internalType":"uint256"},{"name":"underlyingCollateralToken","type":"address","internalType":"contract IERC20Metadata"},{"name":"underlyingBorrowToken","type":"address","internalType":"contract IERC20Metadata"},{"name":"collateralToken","type":"address","internalType":"contract NonTransferrableToken"},{"name":"borrowAToken","type":"address","internalType":"contract NonTransferrableScaledToken"},{"name":"debtToken","type":"address","internalType":"contract NonTransferrableToken"},{"name":"variablePool","type":"address","internalType":"contract IPool"}]}],"stateMutability":"view"},{"type":"function","name":"debtTokenAmountToCollateralTokenAmount","inputs":[{"name":"borrowATokenAmount","type":"uint256","internalType":"uint256"}],"outputs":[{"name":"","type":"uint256","internalType":"uint256"}],"stateMutability":"view"},{"type":"function","name":"deposit","inputs":[{"name":"params","type":"tuple","internalType":"struct DepositParams","components":[{"name":"token","type":"address","internalType":"address"},{"name":"amount","type":"uint256","internalType":"uint256"},{"name":"to","type":"address","internalType":"address"}]}],"outputs":[],"stateMutability":"payable"},{"type":"function","name":"feeConfig","inputs":[],"outputs":[{"name":"","type":"tuple","internalType":"struct InitializeFeeConfigParams","components":[{"name":"swapFeeAPR","type":"uint256","internalType":"uint256"},{"name":"fragmentationFee","type":"uint256","internalType":"uint256"},{"name":"liquidationRewardPercent","type":"uint256","internalType":"uint256"},{"name":"overdueCollateralProtocolPercent","type":"uint256","internalType":"uint256"},{"name":"collateralProtocolPercent","type":"uint256","internalType":"uint256"},{"name":"feeRecipient","type":"address","internalType":"address"}]}],"stateMutability":"view"},{"type":"function","name":"getBorrowOfferAPR","inputs":[{"name":"borrower","type":"address","internalType":"address"},{"name":"tenor","type":"uint256","internalType":"uint256"}],"outputs":[{"name":"","type":"uint256","internalType":"uint256"}],"stateMutability":"view"},{"type":"function","name":"getCreditPosition","inputs":[{"name":"creditPositionId","type":"uint256","internalType":"uint256"}],"outputs":[{"name":"","type":"tuple","internalType":"struct CreditPosition","components":[{"name":"lender","type":"address","internalType":"address"},{"name":"forSale","type":"bool","internalType":"bool"},{"name":"credit","type":"uint256","internalType":"uint256"},{"name":"debtPositionId","type":"uint256","internalType":"uint256"}]}],"stateMutability":"view"},{"type":"function","name":"getDebtPosition","inputs":[{"name":"debtPositionId","type":"uint256","internalType":"uint256"}],"outputs":[{"name":"","type":"tuple","internalType":"struct DebtPosition","components":[{"name":"borrower","type":"address","internalType":"address"},{"name":"futureValue","type":"uint256","internalType":"uint256"},{"name":"dueDate","type":"uint256","internalType":"uint256"},{"name":"liquidityIndexAtRepayment","type":"uint256","internalType":"uint256"}]}],"stateMutability":"view"},{"type":"function","name":"getDebtPositionAssignedCollateral","inputs":[{"name":"debtPositionId","type":"uint256","internalType":"uint256"}],"outputs":[{"name":"","type":"uint256","internalType":"uint256"}],"stateMutability":"view"},{"type":"function","name":"getLoanOfferAPR","inputs":[{"name":"lender","type":"address","internalType":"address"},{"name":"tenor","type":"uint256","internalType":"uint256"}],"outputs":[{"name":"","type":"uint256","internalType":"uint256"}],"stateMutability":"view"},{"type":"function","name":"getLoanStatus","inputs":[{"name":"positionId","type":"uint256","internalType":"uint256"}],"outputs":[{"name":"","type":"uint8","internalType":"enum LoanStatus"}],"stateMutability":"view"},{"type":"function","name":"getPositionsCount","inputs":[],"outputs":[{"name":"","type":"uint256","internalType":"uint256"},{"name":"","type":"uint256","internalType":"uint256"}],"stateMutability":"view"},{"type":"function","name":"getRoleAdmin","inputs":[{"name":"role","type":"bytes32","internalType":"bytes32"}],"outputs":[{"name":"","type":"bytes32","internalType":"bytes32"}],"stateMutability":"view"},{"type":"function","name":"getSwapFee","inputs":[{"name":"cash","type":"uint256","internalType":"uint256"},{"name":"tenor","type":"uint256","internalType":"uint256"}],"outputs":[{"name":"","type":"uint256","internalType":"uint256"}],"stateMutability":"view"},{"type":"function","name":"getUserView","inputs":[{"name":"user","type":"address","internalType":"address"}],"outputs":[{"name":"","type":"tuple","internalType":"struct UserView","components":[{"name":"user","type":"tuple","internalType":"struct User","components":[{"name":"loanOffer","type":"tuple","internalType":"struct LimitOrder","components":[{"name":"maxDueDate","type":"uint256","internalType":"uint256"},{"name":"curveRelativeTime","type":"tuple","internalType":"struct YieldCurve","components":[{"name":"tenors","type":"uint256[]","internalType":"uint256[]"},{"name":"aprs","type":"int256[]","internalType":"int256[]"},{"name":"marketRateMultipliers","type":"uint256[]","internalType":"uint256[]"}]}]},{"name":"borrowOffer","type":"tuple","internalType":"struct LimitOrder","components":[{"name":"maxDueDate","type":"uint256","internalType":"uint256"},{"name":"curveRelativeTime","type":"tuple","internalType":"struct YieldCurve","components":[{"name":"tenors","type":"uint256[]","internalType":"uint256[]"},{"name":"aprs","type":"int256[]","internalType":"int256[]"},{"name":"marketRateMultipliers","type":"uint256[]","internalType":"uint256[]"}]}]},{"name":"openingLimitBorrowCR","type":"uint256","internalType":"uint256"},{"name":"allCreditPositionsForSaleDisabled","type":"bool","internalType":"bool"}]},{"name":"account","type":"address","internalType":"address"},{"name":"collateralTokenBalance","type":"uint256","internalType":"uint256"},{"name":"borrowATokenBalance","type":"uint256","internalType":"uint256"},{"name":"debtBalance","type":"uint256","internalType":"uint256"}]}],"stateMutability":"view"},{"type":"function","name":"grantRole","inputs":[{"name":"role","type":"bytes32","internalType":"bytes32"},{"name":"account","type":"address","internalType":"address"}],"outputs":[],"stateMutability":"nonpayable"},{"type":"function","name":"hasRole","inputs":[{"name":"role","type":"bytes32","internalType":"bytes32"},{"name":"account","type":"address","internalType":"address"}],"outputs":[{"name":"","type":"bool","internalType":"bool"}],"stateMutability":"view"},{"type":"function","name":"initialize","inputs":[{"name":"owner","type":"address","internalType":"address"},{"name":"f","type":"tuple","internalType":"struct InitializeFeeConfigParams","components":[{"name":"swapFeeAPR","type":"uint256","internalType":"uint256"},{"name":"fragmentationFee","type":"uint256","internalType":"uint256"},{"name":"liquidationRewardPercent","type":"uint256","internalType":"uint256"},{"name":"overdueCollateralProtocolPercent","type":"uint256","internalType":"uint256"},{"name":"collateralProtocolPercent","type":"uint256","internalType":"uint256"},{"name":"feeRecipient","type":"address","internalType":"address"}]},{"name":"r","type":"tuple","internalType":"struct InitializeRiskConfigParams","components":[{"name":"crOpening","type":"uint256","internalType":"uint256"},{"name":"crLiquidation","type":"uint256","internalType":"uint256"},{"name":"minimumCreditBorrowAToken","type":"uint256","internalType":"uint256"},{"name":"borrowATokenCap","type":"uint256","internalType":"uint256"},{"name":"minTenor","type":"uint256","internalType":"uint256"},{"name":"maxTenor","type":"uint256","internalType":"uint256"}]},{"name":"o","type":"tuple","internalType":"struct InitializeOracleParams","components":[{"name":"priceFeed","type":"address","internalType":"address"},{"name":"variablePoolBorrowRateStaleRateInterval","type":"uint64","internalType":"uint64"}]},{"name":"d","type":"tuple","internalType":"struct InitializeDataParams","components":[{"name":"weth","type":"address","internalType":"address"},{"name":"underlyingCollateralToken","type":"address","internalType":"address"},{"name":"underlyingBorrowToken","type":"address","internalType":"address"},{"name":"variablePool","type":"address","internalType":"address"}]}],"outputs":[],"stateMutability":"nonpayable"},{"type":"function","name":"isCreditPositionId","inputs":[{"name":"creditPositionId","type":"uint256","internalType":"uint256"}],"outputs":[{"name":"","type":"bool","internalType":"bool"}],"stateMutability":"view"},{"type":"function","name":"isDebtPositionId","inputs":[{"name":"debtPositionId","type":"uint256","internalType":"uint256"}],"outputs":[{"name":"","type":"bool","internalType":"bool"}],"stateMutability":"view"},{"type":"function","name":"isDebtPositionLiquidatable","inputs":[{"name":"debtPositionId","type":"uint256","internalType":"uint256"}],"outputs":[{"name":"","type":"bool","internalType":"bool"}],"stateMutability":"view"},{"type":"function","name":"isUserUnderwater","inputs":[{"name":"user","type":"address","internalType":"address"}],"outputs":[{"name":"","type":"bool","internalType":"bool"}],"stateMutability":"view"},{"type":"function","name":"liquidate","inputs":[{"name":"params","type":"tuple","internalType":"struct LiquidateParams","components":[{"name":"debtPositionId","type":"uint256","internalType":"uint256"},{"name":"minimumCollateralProfit","type":"uint256","internalType":"uint256"},{"name":"deadline","type":"uint256","internalType":"uint256"}]}],"outputs":[{"name":"liquidatorProfitCollateralToken","type":"uint256","internalType":"uint256"}],"stateMutability":"payable"},{"type":"function","name":"liquidateWithReplacement","inputs":[{"name":"params","type":"tuple","internalType":"struct LiquidateWithReplacementParams","components":[{"name":"debtPositionId","type":"uint256","internalType":"uint256"},{"name":"borrower","type":"address","internalType":"address"},{"name":"minimumCollateralProfit","type":"uint256","internalType":"uint256"},{"name":"deadline","type":"uint256","internalType":"uint256"},{"name":"minAPR","type":"uint256","internalType":"uint256"}]}],"outputs":[{"name":"liquidatorProfitCollateralToken","type":"uint256","internalType":"uint256"},{"name":"liquidatorProfitBorrowToken","type":"uint256","internalType":"uint256"}],"stateMutability":"payable"},{"type":"function","name":"multicall","inputs":[{"name":"_data","type":"bytes[]","internalType":"bytes[]"}],"outputs":[{"name":"results","type":"bytes[]","internalType":"bytes[]"}],"stateMutability":"payable"},{"type":"function","name":"oracle","inputs":[],"outputs":[{"name":"","type":"tuple","internalType":"struct InitializeOracleParams","components":[{"name":"priceFeed","type":"address","internalType":"address"},{"name":"variablePoolBorrowRateStaleRateInterval","type":"uint64","internalType":"uint64"}]}],"stateMutability":"view"},{"type":"function","name":"pause","inputs":[],"outputs":[],"stateMutability":"nonpayable"},{"type":"function","name":"paused","inputs":[],"outputs":[{"name":"","type":"bool","internalType":"bool"}],"stateMutability":"view"},{"type":"function","name":"proxiableUUID","inputs":[],"outputs":[{"name":"","type":"bytes32","internalType":"bytes32"}],"stateMutability":"view"},{"type":"function","name":"renounceRole","inputs":[{"name":"role","type":"bytes32","internalType":"bytes32"},{"name":"callerConfirmation","type":"address","internalType":"address"}],"outputs":[],"stateMutability":"nonpayable"},{"type":"function","name":"repay","inputs":[{"name":"params","type":"tuple","internalType":"struct RepayParams","components":[{"name":"debtPositionId","type":"uint256","internalType":"uint256"},{"name":"borrower","type":"address","internalType":"address"}]}],"outputs":[],"stateMutability":"payable"},{"type":"function","name":"revokeRole","inputs":[{"name":"role","type":"bytes32","internalType":"bytes32"},{"name":"account","type":"address","internalType":"address"}],"outputs":[],"stateMutability":"nonpayable"},{"type":"function","name":"riskConfig","inputs":[],"outputs":[{"name":"","type":"tuple","internalType":"struct InitializeRiskConfigParams","components":[{"name":"crOpening","type":"uint256","internalType":"uint256"},{"name":"crLiquidation","type":"uint256","internalType":"uint256"},{"name":"minimumCreditBorrowAToken","type":"uint256","internalType":"uint256"},{"name":"borrowATokenCap","type":"uint256","internalType":"uint256"},{"name":"minTenor","type":"uint256","internalType":"uint256"},{"name":"maxTenor","type":"uint256","internalType":"uint256"}]}],"stateMutability":"view"},{"type":"function","name":"selfLiquidate","inputs":[{"name":"params","type":"tuple","internalType":"struct SelfLiquidateParams","components":[{"name":"creditPositionId","type":"uint256","internalType":"uint256"}]}],"outputs":[],"stateMutability":"payable"},{"type":"function","name":"sellCreditLimit","inputs":[{"name":"params","type":"tuple","internalType":"struct SellCreditLimitParams","components":[{"name":"maxDueDate","type":"uint256","internalType":"uint256"},{"name":"curveRelativeTime","type":"tuple","internalType":"struct YieldCurve","components":[{"name":"tenors","type":"uint256[]","internalType":"uint256[]"},{"name":"aprs","type":"int256[]","internalType":"int256[]"},{"name":"marketRateMultipliers","type":"uint256[]","internalType":"uint256[]"}]}]}],"outputs":[],"stateMutability":"payable"},{"type":"function","name":"sellCreditMarket","inputs":[{"name":"params","type":"tuple","internalType":"struct SellCreditMarketParams","components":[{"name":"lender","type":"address","internalType":"address"},{"name":"creditPositionId","type":"uint256","internalType":"uint256"},{"name":"amount","type":"uint256","internalType":"uint256"},{"name":"tenor","type":"uint256","internalType":"uint256"},{"name":"deadline","type":"uint256","internalType":"uint256"},{"name":"maxAPR","type":"uint256","internalType":"uint256"},{"name":"exactAmountIn","type":"bool","internalType":"bool"}]}],"outputs":[],"stateMutability":"payable"},{"type":"function","name":"setUserConfiguration","inputs":[{"name":"params","type":"tuple","internalType":"struct SetUserConfigurationParams","components":[{"name":"openingLimitBorrowCR","type":"uint256","internalType":"uint256"},{"name":"allCreditPositionsForSaleDisabled","type":"bool","internalType":"bool"},{"name":"creditPositionIdsForSale","type":"bool","internalType":"bool"},{"name":"creditPositionIds","type":"uint256[]","internalType":"uint256[]"}]}],"outputs":[],"stateMutability":"payable"},{"type":"function","name":"setVariablePoolBorrowRate","inputs":[{"name":"borrowRate","type":"uint128","internalType":"uint128"}],"outputs":[],"stateMutability":"nonpayable"},{"type":"function","name":"supportsInterface","inputs":[{"name":"interfaceId","type":"bytes4","internalType":"bytes4"}],"outputs":[{"name":"","type":"bool","internalType":"bool"}],"stateMutability":"view"},{"type":"function","name":"unpause","inputs":[],"outputs":[],"stateMutability":"nonpayable"},{"type":"function","name":"updateConfig","inputs":[{"name":"params","type":"tuple","internalType":"struct UpdateConfigParams","components":[{"name":"key","type":"string","internalType":"string"},{"name":"value","type":"uint256","internalType":"uint256"}]}],"outputs":[],"stateMutability":"nonpayable"},{"type":"function","name":"upgradeToAndCall","inputs":[{"name":"newImplementation","type":"address","internalType":"address"},{"name":"data","type":"bytes","internalType":"bytes"}],"outputs":[],"stateMutability":"payable"},{"type":"function","name":"version","inputs":[],"outputs":[{"name":"","type":"string","internalType":"string"}],"stateMutability":"pure"},{"type":"function","name":"withdraw","inputs":[{"name":"params","type":"tuple","internalType":"struct WithdrawParams","components":[{"name":"token","type":"address","internalType":"address"},{"name":"amount","type":"uint256","internalType":"uint256"},{"name":"to","type":"address","internalType":"address"}]}],"outputs":[],"stateMutability":"payable"},{"type":"event","name":"Initialized","inputs":[{"name":"version","type":"uint64","indexed":false,"internalType":"uint64"}],"anonymous":false},{"type":"event","name":"Paused","inputs":[{"name":"account","type":"address","indexed":false,"internalType":"address"}],"anonymous":false},{"type":"event","name":"RoleAdminChanged","inputs":[{"name":"role","type":"bytes32","indexed":true,"internalType":"bytes32"},{"name":"previousAdminRole","type":"bytes32","indexed":true,"internalType":"bytes32"},{"name":"newAdminRole","type":"bytes32","indexed":true,"internalType":"bytes32"}],"anonymous":false},{"type":"event","name":"RoleGranted","inputs":[{"name":"role","type":"bytes32","indexed":true,"internalType":"bytes32"},{"name":"account","type":"address","indexed":true,"internalType":"address"},{"name":"sender","type":"address","indexed":true,"internalType":"address"}],"anonymous":false},{"type":"event","name":"RoleRevoked","inputs":[{"name":"role","type":"bytes32","indexed":true,"internalType":"bytes32"},{"name":"account","type":"address","indexed":true,"internalType":"address"},{"name":"sender","type":"address","indexed":true,"internalType":"address"}],"anonymous":false},{"type":"event","name":"Unpaused","inputs":[{"name":"account","type":"address","indexed":false,"internalType":"address"}],"anonymous":false},{"type":"event","name":"Upgraded","inputs":[{"name":"implementation","type":"address","indexed":true,"internalType":"address"}],"anonymous":false},{"type":"event","name":"VariablePoolBorrowRateUpdated","inputs":[{"name":"oldBorrowRate","type":"uint128","indexed":true,"internalType":"uint128"},{"name":"newBorrowRate","type":"uint128","indexed":true,"internalType":"uint128"}],"anonymous":false},{"type":"error","name":"AccessControlBadConfirmation","inputs":[]},{"type":"error","name":"AccessControlUnauthorizedAccount","inputs":[{"name":"account","type":"address","internalType":"address"},{"name":"neededRole","type":"bytes32","internalType":"bytes32"}]},{"type":"error","name":"AddressEmptyCode","inputs":[{"name":"target","type":"address","internalType":"address"}]},{"type":"error","name":"ERC1967InvalidImplementation","inputs":[{"name":"implementation","type":"address","internalType":"address"}]},{"type":"error","name":"ERC1967NonPayable","inputs":[]},{"type":"error","name":"EnforcedPause","inputs":[]},{"type":"error","name":"ExpectedPause","inputs":[]},{"type":"error","name":"FailedInnerCall","inputs":[]},{"type":"error","name":"InvalidInitialization","inputs":[]},{"type":"error","name":"NULL_OFFER","inputs":[]},{"type":"error","name":"NULL_TENOR","inputs":[]},{"type":"error","name":"NotInitializing","inputs":[]},{"type":"error","name":"USER_IS_UNDERWATER","inputs":[{"name":"account","type":"address","internalType":"address"},{"name":"cr","type":"uint256","internalType":"uint256"}]},{"type":"error","name":"UUPSUnauthorizedCallContext","inputs":[]},{"type":"error","name":"UUPSUnsupportedProxiableUUID","inputs":[{"name":"slot","type":"bytes32","internalType":"bytes32"}]}],"bytecode":{"object":"0x60a0604052306080523480156200001557600080fd5b506200002062000026565b620000da565b7ff0c57e16840df040f15088dc2f81fe391c3923bec73e23a9662efc9c229c6a00805468010000000000000000900460ff1615620000775760405163f92ee8a960e01b815260040160405180910390fd5b80546001600160401b0390811614620000d75780546001600160401b0319166001600160401b0390811782556040519081527fc7f505b2f371ae2175ee4913f4499e1f2633a7b5936321eed1cdaeb6115181d29060200160405180910390a15b50565b608051614ef162000104600039600081816132060152818161322f01526133730152614ef16000f3fe6080604052600436106102c95760003560e01c806364eb0a7111610175578063ad3cb1cc116100dc578063d8d933a511610095578063f45bf01c1161006f578063f45bf01c14610a36578063f731a57a14610a49578063f85c3cd414610a69578063fd17174a14610a8957600080fd5b8063d8d933a5146109f0578063e05001f514610a03578063e5af06ce14610a1657600080fd5b8063ad3cb1cc1461091f578063b5ec748714610950578063ca40742c1461097d578063ccc968151461099d578063ccd8d4d1146109bd578063d547741f146109d057600080fd5b80637f417c061161012e5780637f417c061461088f5780638456cb59146108a25780638e572776146108b757806391d14854146108ca578063a217fddf146108ea578063ac9650d8146108ff57600080fd5b806364eb0a71146106285780636a0b06371461064857806373d4a13a1461066857806376c1b82f1461078e5780637c90a6ca146107ec5780637dc0d1d01461084d57600080fd5b80632e106f21116102345780634cbd882c116101ed57806354137c7e116101c757806354137c7e1461057e57806354fd4d501461059e5780635c975abb146105d65780635cbc51eb146105fb57600080fd5b80634cbd882c146105365780634f1ef2861461055657806352d1902d1461056957600080fd5b80632e106f21146104a85780632f2ff15d146104bb57806336568abe146104db5780633746f858146104fb5780633e3c119b1461050e5780633f4ba83a1461052157600080fd5b80631ca3b0cb116102865780631ca3b0cb146103a65780631e5eb1d0146103d0578063248a9ca3146104355780632b4c9a20146104555780632c60185c146104685780632cc884c51461048857600080fd5b806301ffc9a7146102ce5780630317b9df146103035780630cf8542f146103255780631970e5ea1461033857806319a7359b146103665780631c4fd41c14610379575b600080fd5b3480156102da57600080fd5b506102ee6102e9366004613ba0565b610a9c565b60405190151581526020015b60405180910390f35b34801561030f57600080fd5b5061032361031e366004613be2565b610ad3565b005b610323610333366004613c28565b610bb6565b34801561034457600080fd5b50610358610353366004613c44565b610c95565b6040519081526020016102fa565b610323610374366004613c5d565b610ca1565b34801561038557600080fd5b50610399610394366004613c44565b610e66565b6040516102fa9190613c6f565b3480156103b257600080fd5b506103bb610ee4565b604080519283526020830191909152016102fa565b3480156103dc57600080fd5b506103e5610f19565b6040516102fa9190815181526020808301519082015260408083015190820152606080830151908201526080808301519082015260a0918201516001600160a01b03169181019190915260c00190565b34801561044157600080fd5b50610358610450366004613c44565b610fd4565b610323610463366004613c28565b610ff6565b34801561047457600080fd5b50610358610483366004613c97565b6110a2565b34801561049457600080fd5b506103586104a3366004613cce565b6110d8565b6103236104b6366004613d0c565b61128d565b3480156104c757600080fd5b506103236104d6366004613d40565b611339565b3480156104e757600080fd5b506103236104f6366004613d40565b61135b565b610323610509366004613be2565b611393565b6103bb61051c366004613d70565b61143f565b34801561052d57600080fd5b506103236116c8565b34801561054257600080fd5b50610323610551366004613d82565b6116fd565b610323610564366004613e19565b61178b565b34801561057557600080fd5b506103586117aa565b34801561058a57600080fd5b50610358610599366004613c44565b6117c7565b3480156105aa57600080fd5b5060408051808201909152600681526576312e312e3160d01b60208201525b6040516102fa9190613f10565b3480156105e257600080fd5b50600080516020614e9c8339815191525460ff166102ee565b34801561060757600080fd5b5061061b610616366004613f23565b6118f8565b6040516102fa9190614012565b34801561063457600080fd5b506102ee610643366004613c44565b611d1f565b34801561065457600080fd5b506103236106633660046140c7565b611d2c565b34801561067457600080fd5b5061071d6040805161010081018252600080825260208201819052918101829052606081018290526080810182905260a0810182905260c0810182905260e0810191909152506040805161010081018252601154815260125460208201526014546001600160a01b03908116928201929092526015548216606082015260165482166080820152601754821660a0820152601854821660c082015260195490911660e082015290565b604080518251815260208084015190820152828201516001600160a01b039081169282019290925260608084015183169082015260808084015183169082015260a08084015183169082015260c08084015183169082015260e09283015190911691810191909152610100016102fa565b34801561079a57600080fd5b506107ae6107a9366004613c44565b611fbe565b6040516102fa919081516001600160a01b03168152602080830151151590820152604080830151908201526060918201519181019190915260800190565b3480156107f857600080fd5b506108016120a3565b6040516102fa9190600060c082019050825182526020830151602083015260408301516040830152606083015160608301526080830151608083015260a083015160a083015292915050565b34801561085957600080fd5b50610862612150565b6040805182516001600160a01b031681526020928301516001600160401b031692810192909252016102fa565b61032361089d366004614135565b6121d7565b3480156108ae57600080fd5b50610323612281565b6103236108c5366004613c28565b6122b3565b3480156108d657600080fd5b506102ee6108e5366004613d40565b61254a565b3480156108f657600080fd5b50610358600081565b61091261090d366004614151565b612582565b6040516102fa91906141c5565b34801561092b57600080fd5b506105c9604051806040016040528060058152602001640352e302e360dc1b81525081565b34801561095c57600080fd5b5061097061096b366004613c44565b612598565b6040516102fa9190614229565b34801561098957600080fd5b50610358610998366004613f23565b612685565b3480156109a957600080fd5b506102ee6109b8366004613c44565b61270b565b6103236109cb366004613be2565b612717565b3480156109dc57600080fd5b506103236109eb366004613d40565b6127c3565b6103236109fe36600461426b565b6127df565b610358610a11366004613c28565b61291b565b348015610a2257600080fd5b506102ee610a31366004613c44565b612a7e565b610323610a4436600461430f565b612afd565b348015610a5557600080fd5b506102ee610a64366004613f23565b612bae565b348015610a7557600080fd5b50610358610a84366004613cce565b612bf8565b610323610a9736600461430f565b612d3e565b60006001600160e01b03198216637965db0b60e01b1480610acd57506301ffc9a760e01b6001600160e01b03198316145b92915050565b6000610ade81612def565b60405163e57980dd60e01b815273__$32fe41b939f9fd8fb0430b5111f401f35c$__9063e57980dd90610b1890600090869060040161432b565b60006040518083038186803b158015610b3057600080fd5b505af4158015610b44573d6000803e3d6000fd5b5050604051634752b3b360e01b815273__$32fe41b939f9fd8fb0430b5111f401f35c$__9250634752b3b39150610b8290600090869060040161432b565b60006040518083038186803b158015610b9a57600080fd5b505af4158015610bae573d6000803e3d6000fd5b505050505050565b610bbe612df9565b604051638046123560e01b815273__$102e258b2685b09f31e1bdc044a973265c$__90638046123590610bf89060009085906004016143f3565b60006040518083038186803b158015610c1057600080fd5b505af4158015610c24573d6000803e3d6000fd5b50506040516387e2411560e01b815273__$102e258b2685b09f31e1bdc044a973265c$__92506387e241159150610c629060009085906004016143f3565b60006040518083038186803b158015610c7a57600080fd5b505af4158015610c8e573d6000803e3d6000fd5b5050505050565b6000610acd8183612e2c565b610ca9612df9565b604051631621030760e01b815273__$40338b66eef5a4814456f5e5d0057a85cb$__90631621030790610ce3906000908590600401614407565b60006040518083038186803b158015610cfb57600080fd5b505af4158015610d0f573d6000803e3d6000fd5b505060405163b71df57f60e01b81526000925073__$40338b66eef5a4814456f5e5d0057a85cb$__915063b71df57f90610d4f9084908690600401614407565b602060405180830381865af4158015610d6c573d6000803e3d6000fd5b505050506040513d601f19601f82011682018060405250810190610d909190614479565b9050600019826020013503610e275773__$54339234670bed530be64a2569bfcff861$__632d77afb66000610dc86020860186613f23565b6040516001600160e01b031960e085901b16815260048101929092526001600160a01b031660248201526044015b60006040518083038186803b158015610e0e57600080fd5b505af4158015610e22573d6000803e3d6000fd5b505050505b60405163bfbfe8ab60e01b8152600060048201526024810182905273__$5e1dc6026664d540c986e6d76069f97e44$__9063bfbfe8ab90604401610b82565b6040516303eb153f60e51b8152600060048201819052602482018390529073__$137de846162d19becd7adae071bc6b8643$__90637d62a7e090604401602060405180830381865af4158015610ec0573d6000803e3d6000fd5b505050506040513d601f19601f82011682018060405250810190610acd9190614492565b6011546000908190610ef79082906144c9565b610f0460026000196144dc565b601254610f1191906144c9565b915091509091565b610f5b6040518060c00160405280600081526020016000815260200160008152602001600081526020016000815260200160006001600160a01b031681525090565b6040516386617e7760e01b81526000600482015273__$32fe41b939f9fd8fb0430b5111f401f35c$__906386617e779060240160c060405180830381865af4158015610fab573d6000803e3d6000fd5b505050506040513d601f19601f82011682018060405250810190610fcf91906144fe565b905090565b6000908152600080516020614e7c833981519152602052604090206001015490565b610ffe612df9565b60405163010cc09b60e21b815273__$d7ed34c1233366b4d2093a06a83503a127$__90630433026c906110389060009085906004016143f3565b60006040518083038186803b15801561105057600080fd5b505af4158015611064573d6000803e3d6000fd5b505060405163b8359e9760e01b815273__$d7ed34c1233366b4d2093a06a83503a127$__925063b8359e979150610c629060009085906004016143f3565b6000816000036110c5576040516301c85f6760e71b815260040160405180910390fd5b6110d160008484612f9f565b9392505050565b6001600160a01b0382166000908152600e60209081526040808320815180830183528154815282516001830180546080818802840181019096526060830181815288979496948701948492849184018282801561115457602002820191906000526020600020905b815481526020019060010190808311611140575b50505050508152602001600182018054806020026020016040519081016040528092919081815260200182805480156111ac57602002820191906000526020600020905b815481526020019060010190808311611198575b505050505081526020016002820180548060200260200160405190810160405280929190818152602001828054801561120457602002820191906000526020600020905b8154815260200190600101908083116111f0575b50505050508152505081525050905061121c81612fbd565b1561123a5760405163309f293760e21b815260040160405180910390fd5b60408051606081018252600d546001600160801b03811682526001600160401b03600160801b820481166020840152600160c01b909104169181019190915261128590829085612fd7565b949350505050565b611295612df9565b60405163603ed05b60e01b815273__$522109956a60eeb242799fac64155e2c7d$__9063603ed05b906112cf9060009085906004016145df565b60006040518083038186803b1580156112e757600080fd5b505af41580156112fb573d6000803e3d6000fd5b505060405163153f43e560e31b815273__$522109956a60eeb242799fac64155e2c7d$__925063a9fa1f289150610c629060009085906004016145df565b61134282610fd4565b61134b81612def565b611355838361307a565b50505050565b6001600160a01b03811633146113845760405163334bd91960e11b815260040160405180910390fd5b61138e828261311f565b505050565b61139b612df9565b604051634cf319b960e11b815273__$bb87e4d06c905b2a40fd4eb630d02af12b$__906399e63372906113d5906000908590600401614707565b60006040518083038186803b1580156113ed57600080fd5b505af4158015611401573d6000803e3d6000fd5b505060405163339bb63160e01b815273__$bb87e4d06c905b2a40fd4eb630d02af12b$__925063339bb6319150610c62906000908590600401614707565b60008061144a612df9565b7ffc8737ab85eb45125971625a9ebdb75cc78e01d5c1fa80c4c6e5203f47bc4fab61147481612def565b604051639f53ee0f60e01b815273__$083884a3186f9b2b23885dfeba78ff7244$__90639f53ee0f906114ae90600090889060040161475f565b60006040518083038186803b1580156114c657600080fd5b505af41580156114da573d6000803e3d6000fd5b505060405163647a4b7560e11b81526000925073__$083884a3186f9b2b23885dfeba78ff7244$__915063c8f496ea9061151a908490899060040161475f565b606060405180830381865af4158015611537573d6000803e3d6000fd5b505050506040513d601f19601f8201168201806040525081019061155b9190614773565b9095509350905073__$54339234670bed530be64a2569bfcff861$__632d77afb6600061158e6040890160208a01613f23565b6040516001600160e01b031960e085901b16815260048101929092526001600160a01b0316602482015260440160006040518083038186803b1580156115d357600080fd5b505af41580156115e7573d6000803e3d6000fd5b5050604051636e6595c160e01b815273__$083884a3186f9b2b23885dfeba78ff7244$__9250636e6595c1915061162790600090899089906004016147a1565b60006040518083038186803b15801561163f57600080fd5b505af4158015611653573d6000803e3d6000fd5b505060405163bfbfe8ab60e01b8152600060048201526024810184905273__$5e1dc6026664d540c986e6d76069f97e44$__925063bfbfe8ab915060440160006040518083038186803b1580156116a957600080fd5b505af41580156116bd573d6000803e3d6000fd5b505050505050915091565b7f65d7a28e3265b37a6474929f336521b332c1681b933f6cb9f3376673440d862a6116f281612def565b6116fa61319b565b50565b7f1eae1854c74a696c6de86fd3c6383d5c1e2c33fbc86e1aa6b6c872d95bd2403861172781612def565b600d80546001600160801b038481166001600160c01b031983168117600160801b426001600160401b031602179093556040519116919082907f5dd867e3010e89c86273dfd293660a318f5751183db3eb823fccb822db1798d990600090a3505050565b6117936131fb565b61179c826132a0565b6117a682826132ab565b5050565b60006117b4613368565b50600080516020614e5c83398151915290565b604051634c9829bf60e11b81526000600482018190526024820183905290819073__$137de846162d19becd7adae071bc6b8643$__90639930537e90604401602060405180830381865af4158015611823573d6000803e3d6000fd5b505050506040513d601f19601f820116820180604052508101906118479190614479565b6040805160808101825282546001600160a01b03168152600183015460208201526002830154818301526003909201546060830152516345ffd36d60e01b815290915073__$137de846162d19becd7adae071bc6b8643$__906345ffd36d906118b79060009085906004016147c3565b602060405180830381865af41580156118d4573d6000803e3d6000fd5b505050506040513d601f19601f820116820180604052508101906110d19190614479565b611900613af3565b604080516001600160a01b0384166000908152600e60209081529083902061016083018452805461012084019081528451600183018054608095810283018601909752606082018781529596879660a088019687959487946101408b0194919390928492849184018282801561199557602002820191906000526020600020905b815481526020019060010190808311611981575b50505050508152602001600182018054806020026020016040519081016040528092919081815260200182805480156119ed57602002820191906000526020600020905b8154815260200190600101908083116119d9575b5050505050815260200160028201805480602002602001604051908101604052809291908181526020018280548015611a4557602002820191906000526020600020905b815481526020019060010190808311611a31575b50505050508152505081525050815260200160048201604051806040016040529081600082015481526020016001820160405180606001604052908160008201805480602002602001604051908101604052809291908181526020018280548015611acf57602002820191906000526020600020905b815481526020019060010190808311611abb575b5050505050815260200160018201805480602002602001604051908101604052809291908181526020018280548015611b2757602002820191906000526020600020905b815481526020019060010190808311611b13575b5050505050815260200160028201805480602002602001604051908101604052809291908181526020018280548015611b7f57602002820191906000526020600020905b815481526020019060010190808311611b6b575b505050919092525050509052508152600882015460208083019190915260099092015460ff1615156040918201529183526001600160a01b0386811691840182905260165483516370a0823160e01b815260048101939093529390920192909116906370a0823190602401602060405180830381865afa158015611c07573d6000803e3d6000fd5b505050506040513d601f19601f82011682018060405250810190611c2b9190614479565b81526017546040516370a0823160e01b81526001600160a01b038681166004830152602090930192909116906370a0823190602401602060405180830381865afa158015611c7d573d6000803e3d6000fd5b505050506040513d601f19601f82011682018060405250810190611ca19190614479565b81526018546040516370a0823160e01b81526001600160a01b038681166004830152602090930192909116906370a0823190602401602060405180830381865afa158015611cf3573d6000803e3d6000fd5b505050506040513d601f19601f82011682018060405250810190611d179190614479565b905292915050565b6011546000908210610acd565b7ff0c57e16840df040f15088dc2f81fe391c3923bec73e23a9662efc9c229c6a008054600160401b810460ff1615906001600160401b0316600081158015611d715750825b90506000826001600160401b03166001148015611d8d5750303b155b905081158015611d9b575080155b15611db95760405163f92ee8a960e01b815260040160405180910390fd5b845467ffffffffffffffff191660011785558315611de357845460ff60401b1916600160401b1785555b6040516369777eb960e01b815273__$34e5abf8aed44cb09d2bd12ec9cc797973$__906369777eb990611e25906000908e908e908e908e908e906004016148fe565b60006040518083038186803b158015611e3d57600080fd5b505af4158015611e51573d6000803e3d6000fd5b50505050611e5d6133b1565b611e656133b9565b611e6d6133b1565b604051632ffdac7160e21b815273__$34e5abf8aed44cb09d2bd12ec9cc797973$__9063bff6b1c490611ead906000908d908d908d908d90600401614988565b60006040518083038186803b158015611ec557600080fd5b505af4158015611ed9573d6000803e3d6000fd5b50505050611eea6000801b8b61307a565b50611f157f65d7a28e3265b37a6474929f336521b332c1681b933f6cb9f3376673440d862a8b61307a565b50611f407ffc8737ab85eb45125971625a9ebdb75cc78e01d5c1fa80c4c6e5203f47bc4fab8b61307a565b50611f6b7f1eae1854c74a696c6de86fd3c6383d5c1e2c33fbc86e1aa6b6c872d95bd240388b61307a565b508315611fb257845460ff60401b19168555604051600181527fc7f505b2f371ae2175ee4913f4499e1f2633a7b5936321eed1cdaeb6115181d29060200160405180910390a15b50505050505050505050565b604080516080810182526000808252602082018190529181018290526060810191909152604051633978289f60e01b8152600060048201526024810183905273__$137de846162d19becd7adae071bc6b8643$__90633978289f90604401602060405180830381865af4158015612039573d6000803e3d6000fd5b505050506040513d601f19601f8201168201806040525081019061205d9190614479565b6040805160808101825282546001600160a01b0381168252600160a01b900460ff1615156020820152600183015491810191909152600290910154606082015292915050565b6120dc6040518060c001604052806000815260200160008152602001600081526020016000815260200160008152602001600081525090565b604051636e9bc7eb60e11b81526000600482015273__$32fe41b939f9fd8fb0430b5111f401f35c$__9063dd378fd69060240160c060405180830381865af415801561212c573d6000803e3d6000fd5b505050506040513d601f19601f82011682018060405250810190610fcf91906149f7565b6040805180820190915260008082526020820152604051631ae5e80160e31b81526000600482015273__$32fe41b939f9fd8fb0430b5111f401f35c$__9063d72f4008906024016040805180830381865af41580156121b3573d6000803e3d6000fd5b505050506040513d601f19601f82011682018060405250810190610fcf9190614a51565b6121df612df9565b6040516210aa0b60e31b815273__$7dc37f9f4797eb854780a74171eb2f4993$__906285505890612217906000908590600401614aaf565b60006040518083038186803b15801561222f57600080fd5b505af4158015612243573d6000803e3d6000fd5b50506040516364140a8360e01b815273__$7dc37f9f4797eb854780a74171eb2f4993$__92506364140a839150610c62906000908590600401614aaf565b7f65d7a28e3265b37a6474929f336521b332c1681b933f6cb9f3376673440d862a6122ab81612def565b6116fa6133c9565b6122bb612df9565b604051634ec6ce5b60e11b81526000600482018190523360248301529073__$54339234670bed530be64a2569bfcff861$__90639d8d9cb690604401602060405180830381865af4158015612314573d6000803e3d6000fd5b505050506040513d601f19601f820116820180604052508101906123389190614ae8565b604051634bc1120160e01b815290915073__$ef4190de80c3c7f10088bb7cf8a0baddca$__90634bc1120190612375906000908690600401614b05565b60006040518083038186803b15801561238d57600080fd5b505af41580156123a1573d6000803e3d6000fd5b50506040516332f4053b60e01b815273__$ef4190de80c3c7f10088bb7cf8a0baddca$__92506332f4053b91506123df906000908690600401614b05565b60006040518083038186803b1580156123f757600080fd5b505af415801561240b573d6000803e3d6000fd5b5050604051634ec6ce5b60e11b8152600060048201819052336024830152925073__$54339234670bed530be64a2569bfcff861$__9150639d8d9cb690604401602060405180830381865af4158015612468573d6000803e3d6000fd5b505050506040513d601f19601f8201168201806040525081019061248c9190614ae8565b9050811580156124995750805b1561138e5760405163046dbd1360e11b81526000600482015233602482018190529073__$54339234670bed530be64a2569bfcff861$__906308db7a2690604401602060405180830381865af41580156124f7573d6000803e3d6000fd5b505050506040513d601f19601f8201168201806040525081019061251b9190614479565b60405163092ceea960e31b81526001600160a01b03909216600483015260248201526044015b60405180910390fd5b6000918252600080516020614e7c833981519152602090815260408084206001600160a01b0393909316845291905290205460ff1690565b606061258c612df9565b6110d160008484613412565b6125cc604051806080016040528060006001600160a01b031681526020016000815260200160008152602001600081525090565b604051634c9829bf60e11b8152600060048201526024810183905273__$137de846162d19becd7adae071bc6b8643$__90639930537e90604401602060405180830381865af4158015612623573d6000803e3d6000fd5b505050506040513d601f19601f820116820180604052508101906126479190614479565b6040805160808101825282546001600160a01b0316815260018301546020820152600283015491810191909152600390910154606082015292915050565b60405163046dbd1360e11b81526000600482018190526001600160a01b03831660248301529073__$54339234670bed530be64a2569bfcff861$__906308db7a2690604401602060405180830381865af41580156126e7573d6000803e3d6000fd5b505050506040513d601f19601f82011682018060405250810190610acd9190614479565b6000610acd818361378d565b61271f612df9565b6040516329de607960e01b815273__$872edea7acf8ea04327f178ae369cb7d23$__906329de607990612759906000908590600401614707565b60006040518083038186803b15801561277157600080fd5b505af4158015612785573d6000803e3d6000fd5b50506040516309f18b1960e11b815273__$872edea7acf8ea04327f178ae369cb7d23$__92506313e316329150610c62906000908590600401614707565b6127cc82610fd4565b6127d581612def565b611355838361311f565b6127e7612df9565b604051630dd8fb6560e21b815273__$6a70d15ccab52e60961e0e6eac4956e318$__90633763ed9490612821906000908590600401614b2d565b60006040518083038186803b15801561283957600080fd5b505af415801561284d573d6000803e3d6000fd5b505060405163d73654eb60e01b81526000925073__$6a70d15ccab52e60961e0e6eac4956e318$__915063d73654eb9061288d9084908690600401614b2d565b602060405180830381865af41580156128aa573d6000803e3d6000fd5b505050506040513d601f19601f820116820180604052508101906128ce9190614479565b9050600019826020015103610e27576040516316bbd7db60e11b81526000600482015233602482015273__$54339234670bed530be64a2569bfcff861$__90632d77afb690604401610df6565b6000612925612df9565b6040516320b5435f60e11b815273__$bd78b82d3691bf7d290be9fb9bf4abf7be$__9063416a86be9061295f906000908690600401614b05565b60006040518083038186803b15801561297757600080fd5b505af415801561298b573d6000803e3d6000fd5b5050604051630d0699cb60e21b815273__$bd78b82d3691bf7d290be9fb9bf4abf7be$__925063341a672c91506129c9906000908690600401614b05565b602060405180830381865af41580156129e6573d6000803e3d6000fd5b505050506040513d601f19601f82011682018060405250810190612a0a9190614479565b60405163489d188160e01b815290915073__$bd78b82d3691bf7d290be9fb9bf4abf7be$__9063489d188190612a499060009086908690600401614b8d565b60006040518083038186803b158015612a6157600080fd5b505af4158015612a75573d6000803e3d6000fd5b50505050919050565b604051631928c8e960e11b8152600060048201819052602482018390529073__$54339234670bed530be64a2569bfcff861$__9063325191d2906044015b602060405180830381865af4158015612ad9573d6000803e3d6000fd5b505050506040513d601f19601f82011682018060405250810190610acd9190614ae8565b612b05612df9565b604051635792057f60e11b8152600060048201528135602482015273__$65756fc1cb7d5518f865a4f2165258b0ec$__9063af240afe9060440160006040518083038186803b158015612b5757600080fd5b505af4158015612b6b573d6000803e3d6000fd5b50506040516320e9b9f960e11b8152600060048201528335602482015273__$65756fc1cb7d5518f865a4f2165258b0ec$__92506341d373f29150604401610c62565b604051634ec6ce5b60e11b81526000600482018190526001600160a01b03831660248301529073__$54339234670bed530be64a2569bfcff861$__90639d8d9cb690604401612abc565b6001600160a01b0382166000908152600e602090815260408083208151808301835260048201805482528351600590930180546080818802860181019096526060850181815288979496939594870194938492849184018282801561115457602002820191906000526020600020908154815260200190600101908083116111405750505050508152602001600182018054806020026020016040519081016040528092919081815260200182805480156111ac576020028201919060005260206000209081548152602001906001019080831161119857505050505081526020016002820180548060200260200160405190810160405280929190818152602001828054801561120457602002820191906000526020600020908154815260200190600101908083116111f05750505050508152505081525050905061121c81612fbd565b612d46612df9565b6040516306241a0160e51b8152600060048201528135602482015273__$20b01ba837bb61c0f81e8afe21d5ca6650$__9063c48340209060440160006040518083038186803b158015612d9857600080fd5b505af4158015612dac573d6000803e3d6000fd5b5050604051632981ae3960e21b8152600060048201528335602482015273__$20b01ba837bb61c0f81e8afe21d5ca6650$__925063a606b8e49150604401610c62565b6116fa81336137b2565b600080516020614e9c8339815191525460ff1615612e2a5760405163d93c066560e01b815260040160405180910390fd5b565b60158201546040805163313ce56760e01b815290516000928392612ea99286926001600160a01b03169163313ce5679160048083019260209291908290030181865afa158015612e80573d6000803e3d6000fd5b505050506040513d601f19601f82011682018060405250810190612ea49190614bc3565b6137eb565b600c8501546040805163313ce56760e01b815290519293506112859284926001600160a01b03169163313ce5679160048083019260209291908290030181865afa158015612efb573d6000803e3d6000fd5b505050506040513d601f19601f82011682018060405250810190612f1f9190614479565b612f2a90600a614cca565b600c87015460408051634c6afee560e11b815290516001600160a01b03909216916398d5fdca916004808201926020929091908290030181865afa158015612f76573d6000803e3d6000fd5b505050506040513d601f19601f82011682018060405250810190612f9a9190614479565b61380d565b600061128583612faf868561381a565b670de0b6b3a764000061380d565b8051600090158015610acd5750610acd826020015161382e565b600081600003612ffa576040516301c85f6760e71b815260040160405180910390fd5b60208401516040516315c6891560e11b815273__$30cdd3af314c0847e81c95388f79c2a65a$__91632b8d122a91613039919087908790600401614cd6565b602060405180830381865af4158015613056573d6000803e3d6000fd5b505050506040513d601f19601f820116820180604052508101906112859190614479565b6000600080516020614e7c833981519152613095848461254a565b613115576000848152602082815260408083206001600160a01b03871684529091529020805460ff191660011790556130cb3390565b6001600160a01b0316836001600160a01b0316857f2f8788117e7eff1d82e926ec794901d17c78024a50270940304540a733656f0d60405160405180910390a46001915050610acd565b6000915050610acd565b6000600080516020614e7c83398151915261313a848461254a565b15613115576000848152602082815260408083206001600160a01b0387168085529252808320805460ff1916905551339287917ff6391f5c32d9c69d2a47ea670b442974b53935d1edc7fd64eb21e047a839171b9190a46001915050610acd565b6131a3613855565b600080516020614e9c833981519152805460ff191681557f5db9ee0a495bf2e6ff9c91a7834c1ba4fdd244a5e8aa4e537bd38aeae4b073aa335b6040516001600160a01b03909116815260200160405180910390a150565b306001600160a01b037f000000000000000000000000000000000000000000000000000000000000000016148061328257507f00000000000000000000000000000000000000000000000000000000000000006001600160a01b0316613276600080516020614e5c833981519152546001600160a01b031690565b6001600160a01b031614155b15612e2a5760405163703e46dd60e11b815260040160405180910390fd5b60006117a681612def565b816001600160a01b03166352d1902d6040518163ffffffff1660e01b8152600401602060405180830381865afa925050508015613305575060408051601f3d908101601f1916820190925261330291810190614479565b60015b61332d57604051634c9c8ce360e01b81526001600160a01b0383166004820152602401612541565b600080516020614e5c833981519152811461335e57604051632a87526960e21b815260048101829052602401612541565b61138e8383613885565b306001600160a01b037f00000000000000000000000000000000000000000000000000000000000000001614612e2a5760405163703e46dd60e11b815260040160405180910390fd5b612e2a6138db565b6133c16138db565b612e2a613924565b6133d1612df9565b600080516020614e9c833981519152805460ff191660011781557f62e78cea01bee320cd4e420270b5ea74000d11b0c9f74754ebdbfc544b05a258336131dd565b60198301805460ff60a01b1916600160a01b1790556017830154604080516318160ddd60e01b815290516060926000926001600160a01b03909116916318160ddd916004808201926020929091908290030181865afa158015613479573d6000803e3d6000fd5b505050506040513d601f19601f8201168201806040525081019061349d9190614479565b9050600085600e01600a0160009054906101000a90046001600160a01b03166001600160a01b03166318160ddd6040518163ffffffff1660e01b8152600401602060405180830381865afa1580156134f9573d6000803e3d6000fd5b505050506040513d601f19601f8201168201806040525081019061351d9190614479565b9050836001600160401b0381111561353757613537613dab565b60405190808252806020026020018201604052801561356a57816020015b60608152602001906001900390816135555790505b50925060005b848110156135ff576135da3087878481811061358e5761358e614da4565b90506020028101906135a09190614dba565b8080601f01602080910402602001604051908101604052809392919081815260200183838082843760009201919091525061394592505050565b8482815181106135ec576135ec614da4565b6020908102919091010152600101613570565b506017860154604080516318160ddd60e01b815290516000926001600160a01b0316916318160ddd9160048083019260209291908290030181865afa15801561364c573d6000803e3d6000fd5b505050506040513d601f19601f820116820180604052508101906136709190614479565b9050600087600e01600a0160009054906101000a90046001600160a01b03166001600160a01b03166318160ddd6040518163ffffffff1660e01b8152600401602060405180830381865afa1580156136cc573d6000803e3d6000fd5b505050506040513d601f19601f820116820180604052508101906136f09190614479565b60405163111a6a5d60e31b8152600481018a90526024810186905260448101859052606481018490526084810182905290915073__$5e1dc6026664d540c986e6d76069f97e44$__906388d352e89060a40160006040518083038186803b15801561375a57600080fd5b505af415801561376e573d6000803e3d6000fd5b5050506019909801805460ff60a01b1916905550929695505050505050565b600061379c60026000196144dc565b82101580156110d1575050601291909101541190565b6137bc828261254a565b6117a65760405163e2517d3f60e01b81526001600160a01b038216600482015260248101839052604401612541565b60006137f8826012614e00565b61380390600a614e19565b6110d19084614e28565b60006112858484846139bb565b81546000906110d190836301e1338061380d565b8051516000901580156138445750602082015151155b8015610acd57505060400151511590565b600080516020614e9c8339815191525460ff16612e2a57604051638dfc202b60e01b815260040160405180910390fd5b61388e826139ea565b6040516001600160a01b038316907fbc7cd75a20ee27fd9adebab32041f755214dbc6bffa90cc0225b39da2e5c2d3b90600090a28051156138d35761138e8282613945565b6117a6613a4f565b7ff0c57e16840df040f15088dc2f81fe391c3923bec73e23a9662efc9c229c6a0054600160401b900460ff16612e2a57604051631afcd79f60e31b815260040160405180910390fd5b61392c6138db565b600080516020614e9c833981519152805460ff19169055565b6060600080846001600160a01b0316846040516139629190614e3f565b600060405180830381855af49150503d806000811461399d576040519150601f19603f3d011682016040523d82523d6000602084013e6139a2565b606091505b50915091506139b2858383613a6e565b95945050505050565b60008260001904841183021582026139db5763ad251c276000526004601cfd5b50910281810615159190040190565b806001600160a01b03163b600003613a2057604051634c9c8ce360e01b81526001600160a01b0382166004820152602401612541565b600080516020614e5c83398151915280546001600160a01b0319166001600160a01b0392909216919091179055565b3415612e2a5760405163b398979f60e01b815260040160405180910390fd5b606082613a8357613a7e82613aca565b6110d1565b8151158015613a9a57506001600160a01b0384163b155b15613ac357604051639996b31560e01b81526001600160a01b0385166004820152602401612541565b50806110d1565b805115613ada5780518082602001fd5b604051630a12f52160e11b815260040160405180910390fd5b6040518060a00160405280613b06613b31565b815260200160006001600160a01b031681526020016000815260200160008152602001600081525090565b6040518060800160405280613b44613b65565b8152602001613b51613b65565b815260006020820181905260409091015290565b604051806040016040528060008152602001613b9b60405180606001604052806060815260200160608152602001606081525090565b905290565b600060208284031215613bb257600080fd5b81356001600160e01b0319811681146110d157600080fd5b600060408284031215613bdc57600080fd5b50919050565b600060208284031215613bf457600080fd5b81356001600160401b03811115613c0a57600080fd5b61128584828501613bca565b600060608284031215613bdc57600080fd5b600060608284031215613c3a57600080fd5b6110d18383613c16565b600060208284031215613c5657600080fd5b5035919050565b600060e08284031215613bdc57600080fd5b6020810160038310613c9157634e487b7160e01b600052602160045260246000fd5b91905290565b60008060408385031215613caa57600080fd5b50508035926020909101359150565b6001600160a01b03811681146116fa57600080fd5b60008060408385031215613ce157600080fd5b8235613cec81613cb9565b946020939093013593505050565b600060808284031215613bdc57600080fd5b600060208284031215613d1e57600080fd5b81356001600160401b03811115613d3457600080fd5b61128584828501613cfa565b60008060408385031215613d5357600080fd5b823591506020830135613d6581613cb9565b809150509250929050565b600060a08284031215613bdc57600080fd5b600060208284031215613d9457600080fd5b81356001600160801b03811681146110d157600080fd5b634e487b7160e01b600052604160045260246000fd5b60405160c081016001600160401b0381118282101715613de357613de3613dab565b60405290565b604051601f8201601f191681016001600160401b0381118282101715613e1157613e11613dab565b604052919050565b60008060408385031215613e2c57600080fd5b8235613e3781613cb9565b91506020838101356001600160401b0380821115613e5457600080fd5b818601915086601f830112613e6857600080fd5b813581811115613e7a57613e7a613dab565b613e8c601f8201601f19168501613de9565b91508082528784828501011115613ea257600080fd5b80848401858401376000848284010152508093505050509250929050565b60005b83811015613edb578181015183820152602001613ec3565b50506000910152565b60008151808452613efc816020860160208601613ec0565b601f01601f19169290920160200192915050565b6020815260006110d16020830184613ee4565b600060208284031215613f3557600080fd5b81356110d181613cb9565b60008151808452602080850194506020840160005b83811015613f7157815187529582019590820190600101613f55565b509495945050505050565b805182526000602080830151604082860152805160606040870152613fa460a0870182613f40565b83830151603f19888303810160608a0152815180845291860193506000929091908601905b80841015613fe95784518252938601936001939093019290860190613fc9565b5060408501519550818982030160808a01526140058187613f40565b9998505050505050505050565b602081526000825160a060208401528051608060c0850152614038610140850182613f7c565b9050602082015160bf198583030160e08601526140558282613f7c565b9150506040820151610100850152606082015115156101208501526020850151915061408c60408501836001600160a01b03169052565b6040850151606085015260608501516080850152608085015160a0850152809250505092915050565b600060c08284031215613bdc57600080fd5b600080600080600061026086880312156140e057600080fd5b85356140eb81613cb9565b94506140fa87602088016140b5565b93506141098760e088016140b5565b9250614119876101a08801613bca565b9150614129876101e08801613cfa565b90509295509295909350565b60006040828403121561414757600080fd5b6110d18383613bca565b6000806020838503121561416457600080fd5b82356001600160401b038082111561417b57600080fd5b818501915085601f83011261418f57600080fd5b81358181111561419e57600080fd5b8660208260051b85010111156141b357600080fd5b60209290920196919550909350505050565b600060208083016020845280855180835260408601915060408160051b87010192506020870160005b8281101561421c57603f1988860301845261420a858351613ee4565b945092850192908501906001016141ee565b5092979650505050505050565b81516001600160a01b0316815260208083015190820152604080830151908201526060808301519082015260808101610acd565b80151581146116fa57600080fd5b600060e0828403121561427d57600080fd5b60405160e081018181106001600160401b038211171561429f5761429f613dab565b60405282356142ad81613cb9565b808252506020830135602082015260408301356040820152606083013560608201526080830135608082015260a083013560a082015260c08301356142f18161425d565b60c08201529392505050565b600060208284031215613bdc57600080fd5b60006020828403121561432157600080fd5b6110d183836142fd565b8281526040602082015260008235601e1984360301811261434b57600080fd5b83016020810190356001600160401b0381111561436757600080fd5b80360382131561437657600080fd5b604080850152806080850152808260a0860137600060a082860101526020850135606085015260a0601f19601f830116850101925050509392505050565b80356143bf81613cb9565b6001600160a01b039081168352602082810135908401526040820135906143e582613cb9565b808216604085015250505050565b828152608081016110d160208301846143b4565b8281526101008101823561441a81613cb9565b60018060a01b038116602084015250602083013560408301526040830135606083015260608301356080830152608083013560a083015260a083013560c083015260c08301356144698161425d565b80151560e0840152509392505050565b60006020828403121561448b57600080fd5b5051919050565b6000602082840312156144a457600080fd5b8151600381106110d157600080fd5b634e487b7160e01b600052601160045260246000fd5b81810381811115610acd57610acd6144b3565b6000826144f957634e487b7160e01b600052601260045260246000fd5b500490565b600060c0828403121561451057600080fd5b614518613dc1565b825181526020830151602082015260408301516040820152606083015160608201526080830151608082015260a083015161455281613cb9565b60a08201529392505050565b6000808335601e1984360301811261457557600080fd5b83016020810192503590506001600160401b0381111561459457600080fd5b8060051b36038213156145a657600080fd5b9250929050565b81835260006001600160fb1b038311156145c657600080fd5b8260051b80836020870137939093016020019392505050565b8281526040602082015281356040820152600060208301356146008161425d565b1515606083015260408301356146158161425d565b15156080830152614629606084018461455e565b608060a085015261463e60c0850182846145ad565b9695505050505050565b803582526000602080830135605e1984360301811261466657600080fd5b6040858301528301614678818061455e565b6060604088015261468d60a0880182846145ad565b91505061469c8383018361455e565b603f19888403810160608a015281845291926000929086015b828410156146d35784358152938601936001939093019286016146b5565b6146e0604087018761455e565b97509550818a82030160808b01526146f98188886145ad565b9a9950505050505050505050565b8281526040602082015260006112856040830184614648565b80358252602081013561473281613cb9565b6001600160a01b031660208301526040818101359083015260608082013590830152608090810135910152565b82815260c081016110d16020830184614720565b60008060006060848603121561478857600080fd5b8351925060208401519150604084015190509250925092565b83815260e081016147b56020830185614720565b8260c0830152949350505050565b82815260a081016110d1602083018480516001600160a01b031682526020808201519083015260408082015190830152606090810151910152565b803582526020810135602083015260408101356040830152606081013560608301526080810135608083015260a081013561483881613cb9565b6001600160a01b031660a0929092019190915250565b6001600160401b03811681146116fa57600080fd5b803561486e81613cb9565b6001600160a01b0316825260208101356148878161484e565b6001600160401b0381166020840152505050565b80356148a681613cb9565b6001600160a01b0390811683526020820135906148c282613cb9565b90811660208401526040820135906148d982613cb9565b90811660408401526060820135906148f082613cb9565b808216606085015250505050565b8681526001600160a01b0386166020820152610280810161492260408301876147fe565b8435610100830152602085013561012083015260408501356101408301526060850135610160830152608085013561018083015260a08501356101a083015261496f6101c0830185614863565b61497d61020083018461489b565b979650505050505050565b858152610260810161499d60208301876147fe565b843560e0830152602085013561010083015260408501356101208301526060850135610140830152608085013561016083015260a08501356101808301526149e96101a0830185614863565b61463e6101e083018461489b565b600060c08284031215614a0957600080fd5b614a11613dc1565b825181526020830151602082015260408301516040820152606083015160608201526080830151608082015260a083015160a08201528091505092915050565b600060408284031215614a6357600080fd5b604051604081018181106001600160401b0382111715614a8557614a85613dab565b6040528251614a9381613cb9565b81526020830151614aa38161484e565b60208201529392505050565b6000606082019050838252823560208301526020830135614acf81613cb9565b6001600160a01b03166040929092019190915292915050565b600060208284031215614afa57600080fd5b81516110d18161425d565b828152608081016110d160208301848035825260208082013590830152604090810135910152565b60006101008201905083825260018060a01b038351166020830152602083015160408301526040830151606083015260608301516080830152608083015160a083015260a083015160c083015260c0830151151560e08301529392505050565b83815260a08101614bb560208301858035825260208082013590830152604090810135910152565b826080830152949350505050565b600060208284031215614bd557600080fd5b815160ff811681146110d157600080fd5b600181815b80851115614c21578160001904821115614c0757614c076144b3565b80851615614c1457918102915b93841c9390800290614beb565b509250929050565b600082614c3857506001610acd565b81614c4557506000610acd565b8160018114614c5b5760028114614c6557614c81565b6001915050610acd565b60ff841115614c7657614c766144b3565b50506001821b610acd565b5060208310610133831016604e8410600b8410161715614ca4575081810a610acd565b614cae8383614be6565b8060001904821115614cc257614cc26144b3565b029392505050565b60006110d18383614c29565b60a0815260008451606060a0840152614cf3610100840182613f40565b602087810151609f19868403810160c088015281518085529183019450919260009291908401905b80841015614d3b5785518252948401946001939093019290840190614d1b565b5060408a01519450818782030160e0880152614d578186613f40565b9550505050614d948185018780516001600160801b031682526020808201516001600160401b039081169184019190915260409182015116910152565b5050826080830152949350505050565b634e487b7160e01b600052603260045260246000fd5b6000808335601e19843603018112614dd157600080fd5b8301803591506001600160401b03821115614deb57600080fd5b6020019150368190038213156145a657600080fd5b60ff8281168282160390811115610acd57610acd6144b3565b60006110d160ff841683614c29565b8082028115828204841417610acd57610acd6144b3565b60008251614e51818460208701613ec0565b919091019291505056fe360894a13ba1a3210667c828492db98dca3e2076cc3735a920a3ca505d382bbc02dd7bc7dec4dceedda775e58dd541e08a116c6c53815c0bd028192f7b626800cd5ed15c6e187e77e9aee88184c21f4f2182ab5827cb3b7e07fbedcd63f03300a2646970667358221220844b832541e448db32309a8a9d18dedb2a05494966278ec2cc940731105d474464736f6c63430008170033","linkReferences":{"src/libraries/CapsLibrary.sol":{"CapsLibrary":[{"start":3912,"length":20},{"start":6006,"length":20},{"start":14377,"length":20}]},"src/libraries/LoanLibrary.sol":{"LoanLibrary":[{"start":3978,"length":20},{"start":6381,"length":20},{"start":6544,"length":20},{"start":8451,"length":20},{"start":9965,"length":20}]},"src/libraries/RiskLibrary.sol":{"RiskLibrary":[{"start":3749,"length":20},{"start":5736,"length":20},{"start":9182,"length":20},{"start":9521,"length":20},{"start":9665,"length":20},{"start":10161,"length":20},{"start":10749,"length":20},{"start":11170,"length":20},{"start":11482,"length":20}]},"src/libraries/YieldCurveLibrary.sol":{"YieldCurveLibrary":[{"start":12562,"length":20}]},"src/libraries/actions/BuyCreditLimit.sol":{"BuyCreditLimit":[{"start":5294,"length":20},{"start":5398,"length":20}]},"src/libraries/actions/BuyCreditMarket.sol":{"BuyCreditMarket":[{"start":3516,"length":20},{"start":3624,"length":20}]},"src/libraries/actions/Claim.sol":{"Claim":[{"start":11302,"length":20},{"start":11406,"length":20}]},"src/libraries/actions/Compensate.sol":{"Compensate":[{"start":9294,"length":20},{"start":9398,"length":20}]},"src/libraries/actions/Deposit.sol":{"Deposit":[{"start":3281,"length":20},{"start":3385,"length":20}]},"src/libraries/actions/Initialize.sol":{"Initialize":[{"start":7926,"length":20},{"start":8064,"length":20}]},"src/libraries/actions/Liquidate.sol":{"Liquidate":[{"start":10808,"length":20},{"start":10912,"length":20},{"start":11040,"length":20}]},"src/libraries/actions/LiquidateWithReplacement.sol":{"LiquidateWithReplacement":[{"start":5511,"length":20},{"start":5619,"length":20},{"start":5884,"length":20}]},"src/libraries/actions/Repay.sol":{"Repay":[{"start":8945,"length":20},{"start":9048,"length":20}]},"src/libraries/actions/SelfLiquidate.sol":{"SelfLiquidate":[{"start":11879,"length":20},{"start":11983,"length":20}]},"src/libraries/actions/SellCreditLimit.sol":{"SellCreditLimit":[{"start":10290,"length":20},{"start":10394,"length":20}]},"src/libraries/actions/SellCreditMarket.sol":{"SellCreditMarket":[{"start":10490,"length":20},{"start":10598,"length":20}]},"src/libraries/actions/SetUserConfiguration.sol":{"SetUserConfiguration":[{"start":5032,"length":20},{"start":5136,"length":20}]},"src/libraries/actions/UpdateConfig.sol":{"UpdateConfig":[{"start":3057,"length":20},{"start":3161,"length":20},{"start":4213,"length":20},{"start":8694,"length":20},{"start":8830,"length":20}]},"src/libraries/actions/Withdraw.sol":{"Withdraw":[{"start":4369,"length":20},{"start":4473,"length":20}]}}},"methodIdentifiers":{"DEFAULT_ADMIN_ROLE()":"a217fddf","UPGRADE_INTERFACE_VERSION()":"ad3cb1cc","buyCreditLimit((uint256,(uint256[],int256[],uint256[])))":"3746f858","buyCreditMarket((address,uint256,uint256,uint256,uint256,uint256,bool))":"19a7359b","claim((uint256))":"f45bf01c","collateralRatio(address)":"ca40742c","compensate((uint256,uint256,uint256))":"8e572776","data()":"73d4a13a","debtTokenAmountToCollateralTokenAmount(uint256)":"1970e5ea","deposit((address,uint256,address))":"0cf8542f","feeConfig()":"1e5eb1d0","getBorrowOfferAPR(address,uint256)":"f85c3cd4","getCreditPosition(uint256)":"76c1b82f","getDebtPosition(uint256)":"b5ec7487","getDebtPositionAssignedCollateral(uint256)":"54137c7e","getLoanOfferAPR(address,uint256)":"2cc884c5","getLoanStatus(uint256)":"1c4fd41c","getPositionsCount()":"1ca3b0cb","getRoleAdmin(bytes32)":"248a9ca3","getSwapFee(uint256,uint256)":"2c60185c","getUserView(address)":"5cbc51eb","grantRole(bytes32,address)":"2f2ff15d","hasRole(bytes32,address)":"91d14854","initialize(address,(uint256,uint256,uint256,uint256,uint256,address),(uint256,uint256,uint256,uint256,uint256,uint256),(address,uint64),(address,address,address,address))":"6a0b0637","isCreditPositionId(uint256)":"ccc96815","isDebtPositionId(uint256)":"64eb0a71","isDebtPositionLiquidatable(uint256)":"e5af06ce","isUserUnderwater(address)":"f731a57a","liquidate((uint256,uint256,uint256))":"e05001f5","liquidateWithReplacement((uint256,address,uint256,uint256,uint256))":"3e3c119b","multicall(bytes[])":"ac9650d8","oracle()":"7dc0d1d0","pause()":"8456cb59","paused()":"5c975abb","proxiableUUID()":"52d1902d","renounceRole(bytes32,address)":"36568abe","repay((uint256,address))":"7f417c06","revokeRole(bytes32,address)":"d547741f","riskConfig()":"7c90a6ca","selfLiquidate((uint256))":"fd17174a","sellCreditLimit((uint256,(uint256[],int256[],uint256[])))":"ccd8d4d1","sellCreditMarket((address,uint256,uint256,uint256,uint256,uint256,bool))":"d8d933a5","setUserConfiguration((uint256,bool,bool,uint256[]))":"2e106f21","setVariablePoolBorrowRate(uint128)":"4cbd882c","supportsInterface(bytes4)":"01ffc9a7","unpause()":"3f4ba83a","updateConfig((string,uint256))":"0317b9df","upgradeToAndCall(address,bytes)":"4f1ef286","version()":"54fd4d50","withdraw((address,uint256,address))":"2b4c9a20"},"id":83}