{
  "abi": [
    {
      "type": "constructor",
      "inputs": [],
      "stateMutability": "nonpayable"
    },
    {
      "type": "function",
      "name": "DEFAULT_ADMIN_ROLE",
      "inputs": [],
      "outputs": [
        {
          "name": "",
          "type": "bytes32",
          "internalType": "bytes32"
        }
      ],
      "stateMutability": "view"
    },
    {
      "type": "function",
      "name": "UPGRADE_INTERFACE_VERSION",
      "inputs": [],
      "outputs": [
        {
          "name": "",
          "type": "string",
          "internalType": "string"
        }
      ],
      "stateMutability": "view"
    },
    {
      "type": "function",
      "name": "buyCreditLimit",
      "inputs": [
        {
          "name": "params",
          "type": "tuple",
          "internalType": "struct BuyCreditLimitParams",
          "components": [
            {
              "name": "maxDueDate",
              "type": "uint256",
              "internalType": "uint256"
            },
            {
              "name": "curveRelativeTime",
              "type": "tuple",
              "internalType": "struct YieldCurve",
              "components": [
                {
                  "name": "tenors",
                  "type": "uint256[]",
                  "internalType": "uint256[]"
                },
                {
                  "name": "aprs",
                  "type": "int256[]",
                  "internalType": "int256[]"
                },
                {
                  "name": "marketRateMultipliers",
                  "type": "uint256[]",
                  "internalType": "uint256[]"
                }
              ]
            }
          ]
        }
      ],
      "outputs": [],
      "stateMutability": "payable"
    },
    {
      "type": "function",
      "name": "buyCreditMarket",
      "inputs": [
        {
          "name": "params",
          "type": "tuple",
          "internalType": "struct BuyCreditMarketParams",
          "components": [
            {
              "name": "borrower",
              "type": "address",
              "internalType": "address"
            },
            {
              "name": "creditPositionId",
              "type": "uint256",
              "internalType": "uint256"
            },
            {
              "name": "amount",
              "type": "uint256",
              "internalType": "uint256"
            },
            {
              "name": "tenor",
              "type": "uint256",
              "internalType": "uint256"
            },
            {
              "name": "deadline",
              "type": "uint256",
              "internalType": "uint256"
            },
            {
              "name": "minAPR",
              "type": "uint256",
              "internalType": "uint256"
            },
            {
              "name": "exactAmountIn",
              "type": "bool",
              "internalType": "bool"
            }
          ]
        }
      ],
      "outputs": [],
      "stateMutability": "payable"
    },
    {
      "type": "function",
      "name": "claim",
      "inputs": [
        {
          "name": "params",
          "type": "tuple",
          "internalType": "struct ClaimParams",
          "components": [
            {
              "name": "creditPositionId",
              "type": "uint256",
              "internalType": "uint256"
            }
          ]
        }
      ],
      "outputs": [],
      "stateMutability": "payable"
    },
    {
      "type": "function",
      "name": "collateralRatio",
      "inputs": [
        {
          "name": "user",
          "type": "address",
          "internalType": "address"
        }
      ],
      "outputs": [
        {
          "name": "",
          "type": "uint256",
          "internalType": "uint256"
        }
      ],
      "stateMutability": "view"
    },
    {
      "type": "function",
      "name": "compensate",
      "inputs": [
        {
          "name": "params",
          "type": "tuple",
          "internalType": "struct CompensateParams",
          "components": [
            {
              "name": "creditPositionWithDebtToRepayId",
              "type": "uint256",
              "internalType": "uint256"
            },
            {
              "name": "creditPositionToCompensateId",
              "type": "uint256",
              "internalType": "uint256"
            },
            {
              "name": "amount",
              "type": "uint256",
              "internalType": "uint256"
            }
          ]
        }
      ],
      "outputs": [],
      "stateMutability": "payable"
    },
    {
      "type": "function",
      "name": "data",
      "inputs": [],
      "outputs": [
        {
          "name": "",
          "type": "tuple",
          "internalType": "struct DataView",
          "components": [
            {
              "name": "nextDebtPositionId",
              "type": "uint256",
              "internalType": "uint256"
            },
            {
              "name": "nextCreditPositionId",
              "type": "uint256",
              "internalType": "uint256"
            },
            {
              "name": "underlyingCollateralToken",
              "type": "address",
              "internalType": "contract IERC20Metadata"
            },
            {
              "name": "underlyingBorrowToken",
              "type": "address",
              "internalType": "contract IERC20Metadata"
            },
            {
              "name": "collateralToken",
              "type": "address",
              "internalType": "contract NonTransferrableToken"
            },
            {
              "name": "borrowAToken",
              "type": "address",
              "internalType": "contract NonTransferrableScaledTokenV1_5"
            },
            {
              "name": "debtToken",
              "type": "address",
              "internalType": "contract NonTransferrableToken"
            },
            {
              "name": "variablePool",
              "type": "address",
              "internalType": "contract IPool"
            }
          ]
        }
      ],
      "stateMutability": "view"
    },
    {
      "type": "function",
      "name": "debtTokenAmountToCollateralTokenAmount",
      "inputs": [
        {
          "name": "borrowATokenAmount",
          "type": "uint256",
          "internalType": "uint256"
        }
      ],
      "outputs": [
        {
          "name": "",
          "type": "uint256",
          "internalType": "uint256"
        }
      ],
      "stateMutability": "view"
    },
    {
      "type": "function",
      "name": "deposit",
      "inputs": [
        {
          "name": "params",
          "type": "tuple",
          "internalType": "struct DepositParams",
          "components": [
            {
              "name": "token",
              "type": "address",
              "internalType": "address"
            },
            {
              "name": "amount",
              "type": "uint256",
              "internalType": "uint256"
            },
            {
              "name": "to",
              "type": "address",
              "internalType": "address"
            }
          ]
        }
      ],
      "outputs": [],
      "stateMutability": "payable"
    },
    {
      "type": "function",
      "name": "feeConfig",
      "inputs": [],
      "outputs": [
        {
          "name": "",
          "type": "tuple",
          "internalType": "struct InitializeFeeConfigParams",
          "components": [
            {
              "name": "swapFeeAPR",
              "type": "uint256",
              "internalType": "uint256"
            },
            {
              "name": "fragmentationFee",
              "type": "uint256",
              "internalType": "uint256"
            },
            {
              "name": "liquidationRewardPercent",
              "type": "uint256",
              "internalType": "uint256"
            },
            {
              "name": "overdueCollateralProtocolPercent",
              "type": "uint256",
              "internalType": "uint256"
            },
            {
              "name": "collateralProtocolPercent",
              "type": "uint256",
              "internalType": "uint256"
            },
            {
              "name": "feeRecipient",
              "type": "address",
              "internalType": "address"
            }
          ]
        }
      ],
      "stateMutability": "view"
    },
    {
      "type": "function",
      "name": "getBorrowOfferAPR",
      "inputs": [
        {
          "name": "borrower",
          "type": "address",
          "internalType": "address"
        },
        {
          "name": "tenor",
          "type": "uint256",
          "internalType": "uint256"
        }
      ],
      "outputs": [
        {
          "name": "",
          "type": "uint256",
          "internalType": "uint256"
        }
      ],
      "stateMutability": "view"
    },
    {
      "type": "function",
      "name": "getBuyCreditMarketSwapData",
      "inputs": [
        {
          "name": "params",
          "type": "tuple",
          "internalType": "struct BuyCreditMarketParams",
          "components": [
            {
              "name": "borrower",
              "type": "address",
              "internalType": "address"
            },
            {
              "name": "creditPositionId",
              "type": "uint256",
              "internalType": "uint256"
            },
            {
              "name": "amount",
              "type": "uint256",
              "internalType": "uint256"
            },
            {
              "name": "tenor",
              "type": "uint256",
              "internalType": "uint256"
            },
            {
              "name": "deadline",
              "type": "uint256",
              "internalType": "uint256"
            },
            {
              "name": "minAPR",
              "type": "uint256",
              "internalType": "uint256"
            },
            {
              "name": "exactAmountIn",
              "type": "bool",
              "internalType": "bool"
            }
          ]
        }
      ],
      "outputs": [
        {
          "name": "",
          "type": "tuple",
          "internalType": "struct BuyCreditMarket.SwapDataBuyCreditMarket",
          "components": [
            {
              "name": "creditPosition",
              "type": "tuple",
              "internalType": "struct CreditPosition",
              "components": [
                {
                  "name": "lender",
                  "type": "address",
                  "internalType": "address"
                },
                {
                  "name": "forSale",
                  "type": "bool",
                  "internalType": "bool"
                },
                {
                  "name": "credit",
                  "type": "uint256",
                  "internalType": "uint256"
                },
                {
                  "name": "debtPositionId",
                  "type": "uint256",
                  "internalType": "uint256"
                }
              ]
            },
            {
              "name": "borrower",
              "type": "address",
              "internalType": "address"
            },
            {
              "name": "creditAmountOut",
              "type": "uint256",
              "internalType": "uint256"
            },
            {
              "name": "cashAmountIn",
              "type": "uint256",
              "internalType": "uint256"
            },
            {
              "name": "swapFee",
              "type": "uint256",
              "internalType": "uint256"
            },
            {
              "name": "fragmentationFee",
              "type": "uint256",
              "internalType": "uint256"
            },
            {
              "name": "tenor",
              "type": "uint256",
              "internalType": "uint256"
            }
          ]
        }
      ],
      "stateMutability": "view"
    },
    {
      "type": "function",
      "name": "getCreditPosition",
      "inputs": [
        {
          "name": "creditPositionId",
          "type": "uint256",
          "internalType": "uint256"
        }
      ],
      "outputs": [
        {
          "name": "",
          "type": "tuple",
          "internalType": "struct CreditPosition",
          "components": [
            {
              "name": "lender",
              "type": "address",
              "internalType": "address"
            },
            {
              "name": "forSale",
              "type": "bool",
              "internalType": "bool"
            },
            {
              "name": "credit",
              "type": "uint256",
              "internalType": "uint256"
            },
            {
              "name": "debtPositionId",
              "type": "uint256",
              "internalType": "uint256"
            }
          ]
        }
      ],
      "stateMutability": "view"
    },
    {
      "type": "function",
      "name": "getDebtPosition",
      "inputs": [
        {
          "name": "debtPositionId",
          "type": "uint256",
          "internalType": "uint256"
        }
      ],
      "outputs": [
        {
          "name": "",
          "type": "tuple",
          "internalType": "struct DebtPosition",
          "components": [
            {
              "name": "borrower",
              "type": "address",
              "internalType": "address"
            },
            {
              "name": "futureValue",
              "type": "uint256",
              "internalType": "uint256"
            },
            {
              "name": "dueDate",
              "type": "uint256",
              "internalType": "uint256"
            },
            {
              "name": "liquidityIndexAtRepayment",
              "type": "uint256",
              "internalType": "uint256"
            }
          ]
        }
      ],
      "stateMutability": "view"
    },
    {
      "type": "function",
      "name": "getDebtPositionAssignedCollateral",
      "inputs": [
        {
          "name": "debtPositionId",
          "type": "uint256",
          "internalType": "uint256"
        }
      ],
      "outputs": [
        {
          "name": "",
          "type": "uint256",
          "internalType": "uint256"
        }
      ],
      "stateMutability": "view"
    },
    {
      "type": "function",
      "name": "getLoanOfferAPR",
      "inputs": [
        {
          "name": "lender",
          "type": "address",
          "internalType": "address"
        },
        {
          "name": "tenor",
          "type": "uint256",
          "internalType": "uint256"
        }
      ],
      "outputs": [
        {
          "name": "",
          "type": "uint256",
          "internalType": "uint256"
        }
      ],
      "stateMutability": "view"
    },
    {
      "type": "function",
      "name": "getLoanStatus",
      "inputs": [
        {
          "name": "positionId",
          "type": "uint256",
          "internalType": "uint256"
        }
      ],
      "outputs": [
        {
          "name": "",
          "type": "uint8",
          "internalType": "enum LoanStatus"
        }
      ],
      "stateMutability": "view"
    },
    {
      "type": "function",
      "name": "getPositionsCount",
      "inputs": [],
      "outputs": [
        {
          "name": "",
          "type": "uint256",
          "internalType": "uint256"
        },
        {
          "name": "",
          "type": "uint256",
          "internalType": "uint256"
        }
      ],
      "stateMutability": "view"
    },
    {
      "type": "function",
      "name": "getRoleAdmin",
      "inputs": [
        {
          "name": "role",
          "type": "bytes32",
          "internalType": "bytes32"
        }
      ],
      "outputs": [
        {
          "name": "",
          "type": "bytes32",
          "internalType": "bytes32"
        }
      ],
      "stateMutability": "view"
    },
    {
      "type": "function",
      "name": "getSellCreditMarketSwapData",
      "inputs": [
        {
          "name": "params",
          "type": "tuple",
          "internalType": "struct SellCreditMarketParams",
          "components": [
            {
              "name": "lender",
              "type": "address",
              "internalType": "address"
            },
            {
              "name": "creditPositionId",
              "type": "uint256",
              "internalType": "uint256"
            },
            {
              "name": "amount",
              "type": "uint256",
              "internalType": "uint256"
            },
            {
              "name": "tenor",
              "type": "uint256",
              "internalType": "uint256"
            },
            {
              "name": "deadline",
              "type": "uint256",
              "internalType": "uint256"
            },
            {
              "name": "maxAPR",
              "type": "uint256",
              "internalType": "uint256"
            },
            {
              "name": "exactAmountIn",
              "type": "bool",
              "internalType": "bool"
            }
          ]
        }
      ],
      "outputs": [
        {
          "name": "",
          "type": "tuple",
          "internalType": "struct SellCreditMarket.SwapDataSellCreditMarket",
          "components": [
            {
              "name": "creditPosition",
              "type": "tuple",
              "internalType": "struct CreditPosition",
              "components": [
                {
                  "name": "lender",
                  "type": "address",
                  "internalType": "address"
                },
                {
                  "name": "forSale",
                  "type": "bool",
                  "internalType": "bool"
                },
                {
                  "name": "credit",
                  "type": "uint256",
                  "internalType": "uint256"
                },
                {
                  "name": "debtPositionId",
                  "type": "uint256",
                  "internalType": "uint256"
                }
              ]
            },
            {
              "name": "creditAmountIn",
              "type": "uint256",
              "internalType": "uint256"
            },
            {
              "name": "cashAmountOut",
              "type": "uint256",
              "internalType": "uint256"
            },
            {
              "name": "swapFee",
              "type": "uint256",
              "internalType": "uint256"
            },
            {
              "name": "fragmentationFee",
              "type": "uint256",
              "internalType": "uint256"
            },
            {
              "name": "tenor",
              "type": "uint256",
              "internalType": "uint256"
            }
          ]
        }
      ],
      "stateMutability": "view"
    },
    {
      "type": "function",
      "name": "getSwapFee",
      "inputs": [
        {
          "name": "cash",
          "type": "uint256",
          "internalType": "uint256"
        },
        {
          "name": "tenor",
          "type": "uint256",
          "internalType": "uint256"
        }
      ],
      "outputs": [
        {
          "name": "",
          "type": "uint256",
          "internalType": "uint256"
        }
      ],
      "stateMutability": "view"
    },
    {
      "type": "function",
      "name": "getUserView",
      "inputs": [
        {
          "name": "user",
          "type": "address",
          "internalType": "address"
        }
      ],
      "outputs": [
        {
          "name": "",
          "type": "tuple",
          "internalType": "struct UserView",
          "components": [
            {
              "name": "user",
              "type": "tuple",
              "internalType": "struct User",
              "components": [
                {
                  "name": "loanOffer",
                  "type": "tuple",
                  "internalType": "struct LimitOrder",
                  "components": [
                    {
                      "name": "maxDueDate",
                      "type": "uint256",
                      "internalType": "uint256"
                    },
                    {
                      "name": "curveRelativeTime",
                      "type": "tuple",
                      "internalType": "struct YieldCurve",
                      "components": [
                        {
                          "name": "tenors",
                          "type": "uint256[]",
                          "internalType": "uint256[]"
                        },
                        {
                          "name": "aprs",
                          "type": "int256[]",
                          "internalType": "int256[]"
                        },
                        {
                          "name": "marketRateMultipliers",
                          "type": "uint256[]",
                          "internalType": "uint256[]"
                        }
                      ]
                    }
                  ]
                },
                {
                  "name": "borrowOffer",
                  "type": "tuple",
                  "internalType": "struct LimitOrder",
                  "components": [
                    {
                      "name": "maxDueDate",
                      "type": "uint256",
                      "internalType": "uint256"
                    },
                    {
                      "name": "curveRelativeTime",
                      "type": "tuple",
                      "internalType": "struct YieldCurve",
                      "components": [
                        {
                          "name": "tenors",
                          "type": "uint256[]",
                          "internalType": "uint256[]"
                        },
                        {
                          "name": "aprs",
                          "type": "int256[]",
                          "internalType": "int256[]"
                        },
                        {
                          "name": "marketRateMultipliers",
                          "type": "uint256[]",
                          "internalType": "uint256[]"
                        }
                      ]
                    }
                  ]
                },
                {
                  "name": "openingLimitBorrowCR",
                  "type": "uint256",
                  "internalType": "uint256"
                },
                {
                  "name": "allCreditPositionsForSaleDisabled",
                  "type": "bool",
                  "internalType": "bool"
                }
              ]
            },
            {
              "name": "account",
              "type": "address",
              "internalType": "address"
            },
            {
              "name": "collateralTokenBalance",
              "type": "uint256",
              "internalType": "uint256"
            },
            {
              "name": "borrowATokenBalance",
              "type": "uint256",
              "internalType": "uint256"
            },
            {
              "name": "debtBalance",
              "type": "uint256",
              "internalType": "uint256"
            }
          ]
        }
      ],
      "stateMutability": "view"
    },
    {
      "type": "function",
      "name": "grantRole",
      "inputs": [
        {
          "name": "role",
          "type": "bytes32",
          "internalType": "bytes32"
        },
        {
          "name": "account",
          "type": "address",
          "internalType": "address"
        }
      ],
      "outputs": [],
      "stateMutability": "nonpayable"
    },
    {
      "type": "function",
      "name": "hasRole",
      "inputs": [
        {
          "name": "role",
          "type": "bytes32",
          "internalType": "bytes32"
        },
        {
          "name": "account",
          "type": "address",
          "internalType": "address"
        }
      ],
      "outputs": [
        {
          "name": "",
          "type": "bool",
          "internalType": "bool"
        }
      ],
      "stateMutability": "view"
    },
    {
      "type": "function",
      "name": "initialize",
      "inputs": [
        {
          "name": "owner",
          "type": "address",
          "internalType": "address"
        },
        {
          "name": "f",
          "type": "tuple",
          "internalType": "struct InitializeFeeConfigParams",
          "components": [
            {
              "name": "swapFeeAPR",
              "type": "uint256",
              "internalType": "uint256"
            },
            {
              "name": "fragmentationFee",
              "type": "uint256",
              "internalType": "uint256"
            },
            {
              "name": "liquidationRewardPercent",
              "type": "uint256",
              "internalType": "uint256"
            },
            {
              "name": "overdueCollateralProtocolPercent",
              "type": "uint256",
              "internalType": "uint256"
            },
            {
              "name": "collateralProtocolPercent",
              "type": "uint256",
              "internalType": "uint256"
            },
            {
              "name": "feeRecipient",
              "type": "address",
              "internalType": "address"
            }
          ]
        },
        {
          "name": "r",
          "type": "tuple",
          "internalType": "struct InitializeRiskConfigParams",
          "components": [
            {
              "name": "crOpening",
              "type": "uint256",
              "internalType": "uint256"
            },
            {
              "name": "crLiquidation",
              "type": "uint256",
              "internalType": "uint256"
            },
            {
              "name": "minimumCreditBorrowAToken",
              "type": "uint256",
              "internalType": "uint256"
            },
            {
              "name": "borrowATokenCap",
              "type": "uint256",
              "internalType": "uint256"
            },
            {
              "name": "minTenor",
              "type": "uint256",
              "internalType": "uint256"
            },
            {
              "name": "maxTenor",
              "type": "uint256",
              "internalType": "uint256"
            }
          ]
        },
        {
          "name": "o",
          "type": "tuple",
          "internalType": "struct InitializeOracleParams",
          "components": [
            {
              "name": "priceFeed",
              "type": "address",
              "internalType": "address"
            },
            {
              "name": "variablePoolBorrowRateStaleRateInterval",
              "type": "uint64",
              "internalType": "uint64"
            }
          ]
        },
        {
          "name": "d",
          "type": "tuple",
          "internalType": "struct InitializeDataParams",
          "components": [
            {
              "name": "weth",
              "type": "address",
              "internalType": "address"
            },
            {
              "name": "underlyingCollateralToken",
              "type": "address",
              "internalType": "address"
            },
            {
              "name": "underlyingBorrowToken",
              "type": "address",
              "internalType": "address"
            },
            {
              "name": "variablePool",
              "type": "address",
              "internalType": "address"
            },
            {
              "name": "borrowATokenV1_5",
              "type": "address",
              "internalType": "address"
            }
          ]
        }
      ],
      "outputs": [],
      "stateMutability": "nonpayable"
    },
    {
      "type": "function",
      "name": "isCreditPositionId",
      "inputs": [
        {
          "name": "creditPositionId",
          "type": "uint256",
          "internalType": "uint256"
        }
      ],
      "outputs": [
        {
          "name": "",
          "type": "bool",
          "internalType": "bool"
        }
      ],
      "stateMutability": "view"
    },
    {
      "type": "function",
      "name": "isDebtPositionId",
      "inputs": [
        {
          "name": "debtPositionId",
          "type": "uint256",
          "internalType": "uint256"
        }
      ],
      "outputs": [
        {
          "name": "",
          "type": "bool",
          "internalType": "bool"
        }
      ],
      "stateMutability": "view"
    },
    {
      "type": "function",
      "name": "isDebtPositionLiquidatable",
      "inputs": [
        {
          "name": "debtPositionId",
          "type": "uint256",
          "internalType": "uint256"
        }
      ],
      "outputs": [
        {
          "name": "",
          "type": "bool",
          "internalType": "bool"
        }
      ],
      "stateMutability": "view"
    },
    {
      "type": "function",
      "name": "isUserUnderwater",
      "inputs": [
        {
          "name": "user",
          "type": "address",
          "internalType": "address"
        }
      ],
      "outputs": [
        {
          "name": "",
          "type": "bool",
          "internalType": "bool"
        }
      ],
      "stateMutability": "view"
    },
    {
      "type": "function",
      "name": "liquidate",
      "inputs": [
        {
          "name": "params",
          "type": "tuple",
          "internalType": "struct LiquidateParams",
          "components": [
            {
              "name": "debtPositionId",
              "type": "uint256",
              "internalType": "uint256"
            },
            {
              "name": "minimumCollateralProfit",
              "type": "uint256",
              "internalType": "uint256"
            },
            {
              "name": "deadline",
              "type": "uint256",
              "internalType": "uint256"
            }
          ]
        }
      ],
      "outputs": [
        {
          "name": "liquidatorProfitCollateralToken",
          "type": "uint256",
          "internalType": "uint256"
        }
      ],
      "stateMutability": "payable"
    },
    {
      "type": "function",
      "name": "liquidateWithReplacement",
      "inputs": [
        {
          "name": "params",
          "type": "tuple",
          "internalType": "struct LiquidateWithReplacementParams",
          "components": [
            {
              "name": "debtPositionId",
              "type": "uint256",
              "internalType": "uint256"
            },
            {
              "name": "borrower",
              "type": "address",
              "internalType": "address"
            },
            {
              "name": "minimumCollateralProfit",
              "type": "uint256",
              "internalType": "uint256"
            },
            {
              "name": "deadline",
              "type": "uint256",
              "internalType": "uint256"
            },
            {
              "name": "minAPR",
              "type": "uint256",
              "internalType": "uint256"
            }
          ]
        }
      ],
      "outputs": [
        {
          "name": "liquidatorProfitCollateralToken",
          "type": "uint256",
          "internalType": "uint256"
        },
        {
          "name": "liquidatorProfitBorrowToken",
          "type": "uint256",
          "internalType": "uint256"
        }
      ],
      "stateMutability": "payable"
    },
    {
      "type": "function",
      "name": "multicall",
      "inputs": [
        {
          "name": "_data",
          "type": "bytes[]",
          "internalType": "bytes[]"
        }
      ],
      "outputs": [
        {
          "name": "results",
          "type": "bytes[]",
          "internalType": "bytes[]"
        }
      ],
      "stateMutability": "payable"
    },
    {
      "type": "function",
      "name": "oracle",
      "inputs": [],
      "outputs": [
        {
          "name": "",
          "type": "tuple",
          "internalType": "struct InitializeOracleParams",
          "components": [
            {
              "name": "priceFeed",
              "type": "address",
              "internalType": "address"
            },
            {
              "name": "variablePoolBorrowRateStaleRateInterval",
              "type": "uint64",
              "internalType": "uint64"
            }
          ]
        }
      ],
      "stateMutability": "view"
    },
    {
      "type": "function",
      "name": "pause",
      "inputs": [],
      "outputs": [],
      "stateMutability": "nonpayable"
    },
    {
      "type": "function",
      "name": "paused",
      "inputs": [],
      "outputs": [
        {
          "name": "",
          "type": "bool",
          "internalType": "bool"
        }
      ],
      "stateMutability": "view"
    },
    {
      "type": "function",
      "name": "proxiableUUID",
      "inputs": [],
      "outputs": [
        {
          "name": "",
          "type": "bytes32",
          "internalType": "bytes32"
        }
      ],
      "stateMutability": "view"
    },
    {
      "type": "function",
      "name": "renounceRole",
      "inputs": [
        {
          "name": "role",
          "type": "bytes32",
          "internalType": "bytes32"
        },
        {
          "name": "callerConfirmation",
          "type": "address",
          "internalType": "address"
        }
      ],
      "outputs": [],
      "stateMutability": "nonpayable"
    },
    {
      "type": "function",
      "name": "repay",
      "inputs": [
        {
          "name": "params",
          "type": "tuple",
          "internalType": "struct RepayParams",
          "components": [
            {
              "name": "debtPositionId",
              "type": "uint256",
              "internalType": "uint256"
            },
            {
              "name": "borrower",
              "type": "address",
              "internalType": "address"
            }
          ]
        }
      ],
      "outputs": [],
      "stateMutability": "payable"
    },
    {
      "type": "function",
      "name": "revokeRole",
      "inputs": [
        {
          "name": "role",
          "type": "bytes32",
          "internalType": "bytes32"
        },
        {
          "name": "account",
          "type": "address",
          "internalType": "address"
        }
      ],
      "outputs": [],
      "stateMutability": "nonpayable"
    },
    {
      "type": "function",
      "name": "riskConfig",
      "inputs": [],
      "outputs": [
        {
          "name": "",
          "type": "tuple",
          "internalType": "struct InitializeRiskConfigParams",
          "components": [
            {
              "name": "crOpening",
              "type": "uint256",
              "internalType": "uint256"
            },
            {
              "name": "crLiquidation",
              "type": "uint256",
              "internalType": "uint256"
            },
            {
              "name": "minimumCreditBorrowAToken",
              "type": "uint256",
              "internalType": "uint256"
            },
            {
              "name": "borrowATokenCap",
              "type": "uint256",
              "internalType": "uint256"
            },
            {
              "name": "minTenor",
              "type": "uint256",
              "internalType": "uint256"
            },
            {
              "name": "maxTenor",
              "type": "uint256",
              "internalType": "uint256"
            }
          ]
        }
      ],
      "stateMutability": "view"
    },
    {
      "type": "function",
      "name": "selfLiquidate",
      "inputs": [
        {
          "name": "params",
          "type": "tuple",
          "internalType": "struct SelfLiquidateParams",
          "components": [
            {
              "name": "creditPositionId",
              "type": "uint256",
              "internalType": "uint256"
            }
          ]
        }
      ],
      "outputs": [],
      "stateMutability": "payable"
    },
    {
      "type": "function",
      "name": "sellCreditLimit",
      "inputs": [
        {
          "name": "params",
          "type": "tuple",
          "internalType": "struct SellCreditLimitParams",
          "components": [
            {
              "name": "maxDueDate",
              "type": "uint256",
              "internalType": "uint256"
            },
            {
              "name": "curveRelativeTime",
              "type": "tuple",
              "internalType": "struct YieldCurve",
              "components": [
                {
                  "name": "tenors",
                  "type": "uint256[]",
                  "internalType": "uint256[]"
                },
                {
                  "name": "aprs",
                  "type": "int256[]",
                  "internalType": "int256[]"
                },
                {
                  "name": "marketRateMultipliers",
                  "type": "uint256[]",
                  "internalType": "uint256[]"
                }
              ]
            }
          ]
        }
      ],
      "outputs": [],
      "stateMutability": "payable"
    },
    {
      "type": "function",
      "name": "sellCreditMarket",
      "inputs": [
        {
          "name": "params",
          "type": "tuple",
          "internalType": "struct SellCreditMarketParams",
          "components": [
            {
              "name": "lender",
              "type": "address",
              "internalType": "address"
            },
            {
              "name": "creditPositionId",
              "type": "uint256",
              "internalType": "uint256"
            },
            {
              "name": "amount",
              "type": "uint256",
              "internalType": "uint256"
            },
            {
              "name": "tenor",
              "type": "uint256",
              "internalType": "uint256"
            },
            {
              "name": "deadline",
              "type": "uint256",
              "internalType": "uint256"
            },
            {
              "name": "maxAPR",
              "type": "uint256",
              "internalType": "uint256"
            },
            {
              "name": "exactAmountIn",
              "type": "bool",
              "internalType": "bool"
            }
          ]
        }
      ],
      "outputs": [],
      "stateMutability": "payable"
    },
    {
      "type": "function",
      "name": "setUserConfiguration",
      "inputs": [
        {
          "name": "params",
          "type": "tuple",
          "internalType": "struct SetUserConfigurationParams",
          "components": [
            {
              "name": "openingLimitBorrowCR",
              "type": "uint256",
              "internalType": "uint256"
            },
            {
              "name": "allCreditPositionsForSaleDisabled",
              "type": "bool",
              "internalType": "bool"
            },
            {
              "name": "creditPositionIdsForSale",
              "type": "bool",
              "internalType": "bool"
            },
            {
              "name": "creditPositionIds",
              "type": "uint256[]",
              "internalType": "uint256[]"
            }
          ]
        }
      ],
      "outputs": [],
      "stateMutability": "payable"
    },
    {
      "type": "function",
      "name": "setVariablePoolBorrowRate",
      "inputs": [
        {
          "name": "borrowRate",
          "type": "uint128",
          "internalType": "uint128"
        }
      ],
      "outputs": [],
      "stateMutability": "nonpayable"
    },
    {
      "type": "function",
      "name": "supportsInterface",
      "inputs": [
        {
          "name": "interfaceId",
          "type": "bytes4",
          "internalType": "bytes4"
        }
      ],
      "outputs": [
        {
          "name": "",
          "type": "bool",
          "internalType": "bool"
        }
      ],
      "stateMutability": "view"
    },
    {
      "type": "function",
      "name": "unpause",
      "inputs": [],
      "outputs": [],
      "stateMutability": "nonpayable"
    },
    {
      "type": "function",
      "name": "updateConfig",
      "inputs": [
        {
          "name": "params",
          "type": "tuple",
          "internalType": "struct UpdateConfigParams",
          "components": [
            {
              "name": "key",
              "type": "string",
              "internalType": "string"
            },
            {
              "name": "value",
              "type": "uint256",
              "internalType": "uint256"
            }
          ]
        }
      ],
      "outputs": [],
      "stateMutability": "nonpayable"
    },
    {
      "type": "function",
      "name": "upgradeToAndCall",
      "inputs": [
        {
          "name": "newImplementation",
          "type": "address",
          "internalType": "address"
        },
        {
          "name": "data",
          "type": "bytes",
          "internalType": "bytes"
        }
      ],
      "outputs": [],
      "stateMutability": "payable"
    },
    {
      "type": "function",
      "name": "version",
      "inputs": [],
      "outputs": [
        {
          "name": "",
          "type": "string",
          "internalType": "string"
        }
      ],
      "stateMutability": "pure"
    },
    {
      "type": "function",
      "name": "withdraw",
      "inputs": [
        {
          "name": "params",
          "type": "tuple",
          "internalType": "struct WithdrawParams",
          "components": [
            {
              "name": "token",
              "type": "address",
              "internalType": "address"
            },
            {
              "name": "amount",
              "type": "uint256",
              "internalType": "uint256"
            },
            {
              "name": "to",
              "type": "address",
              "internalType": "address"
            }
          ]
        }
      ],
      "outputs": [],
      "stateMutability": "payable"
    },
    {
      "type": "event",
      "name": "Initialized",
      "inputs": [
        {
          "name": "version",
          "type": "uint64",
          "indexed": false,
          "internalType": "uint64"
        }
      ],
      "anonymous": false
    },
    {
      "type": "event",
      "name": "Paused",
      "inputs": [
        {
          "name": "account",
          "type": "address",
          "indexed": false,
          "internalType": "address"
        }
      ],
      "anonymous": false
    },
    {
      "type": "event",
      "name": "RoleAdminChanged",
      "inputs": [
        {
          "name": "role",
          "type": "bytes32",
          "indexed": true,
          "internalType": "bytes32"
        },
        {
          "name": "previousAdminRole",
          "type": "bytes32",
          "indexed": true,
          "internalType": "bytes32"
        },
        {
          "name": "newAdminRole",
          "type": "bytes32",
          "indexed": true,
          "internalType": "bytes32"
        }
      ],
      "anonymous": false
    },
    {
      "type": "event",
      "name": "RoleGranted",
      "inputs": [
        {
          "name": "role",
          "type": "bytes32",
          "indexed": true,
          "internalType": "bytes32"
        },
        {
          "name": "account",
          "type": "address",
          "indexed": true,
          "internalType": "address"
        },
        {
          "name": "sender",
          "type": "address",
          "indexed": true,
          "internalType": "address"
        }
      ],
      "anonymous": false
    },
    {
      "type": "event",
      "name": "RoleRevoked",
      "inputs": [
        {
          "name": "role",
          "type": "bytes32",
          "indexed": true,
          "internalType": "bytes32"
        },
        {
          "name": "account",
          "type": "address",
          "indexed": true,
          "internalType": "address"
        },
        {
          "name": "sender",
          "type": "address",
          "indexed": true,
          "internalType": "address"
        }
      ],
      "anonymous": false
    },
    {
      "type": "event",
      "name": "Unpaused",
      "inputs": [
        {
          "name": "account",
          "type": "address",
          "indexed": false,
          "internalType": "address"
        }
      ],
      "anonymous": false
    },
    {
      "type": "event",
      "name": "Upgraded",
      "inputs": [
        {
          "name": "implementation",
          "type": "address",
          "indexed": true,
          "internalType": "address"
        }
      ],
      "anonymous": false
    },
    {
      "type": "event",
      "name": "VariablePoolBorrowRateUpdated",
      "inputs": [
        {
          "name": "sender",
          "type": "address",
          "indexed": true,
          "internalType": "address"
        },
        {
          "name": "oldBorrowRate",
          "type": "uint128",
          "indexed": false,
          "internalType": "uint128"
        },
        {
          "name": "newBorrowRate",
          "type": "uint128",
          "indexed": false,
          "internalType": "uint128"
        }
      ],
      "anonymous": false
    },
    {
      "type": "error",
      "name": "AccessControlBadConfirmation",
      "inputs": []
    },
    {
      "type": "error",
      "name": "AccessControlUnauthorizedAccount",
      "inputs": [
        {
          "name": "account",
          "type": "address",
          "internalType": "address"
        },
        {
          "name": "neededRole",
          "type": "bytes32",
          "internalType": "bytes32"
        }
      ]
    },
    {
      "type": "error",
      "name": "AddressEmptyCode",
      "inputs": [
        {
          "name": "target",
          "type": "address",
          "internalType": "address"
        }
      ]
    },
    {
      "type": "error",
      "name": "ERC1967InvalidImplementation",
      "inputs": [
        {
          "name": "implementation",
          "type": "address",
          "internalType": "address"
        }
      ]
    },
    {
      "type": "error",
      "name": "ERC1967NonPayable",
      "inputs": []
    },
    {
      "type": "error",
      "name": "EnforcedPause",
      "inputs": []
    },
    {
      "type": "error",
      "name": "ExpectedPause",
      "inputs": []
    },
    {
      "type": "error",
      "name": "FailedInnerCall",
      "inputs": []
    },
    {
      "type": "error",
      "name": "InvalidInitialization",
      "inputs": []
    },
    {
      "type": "error",
      "name": "NULL_OFFER",
      "inputs": []
    },
    {
      "type": "error",
      "name": "NULL_TENOR",
      "inputs": []
    },
    {
      "type": "error",
      "name": "NotInitializing",
      "inputs": []
    },
    {
      "type": "error",
      "name": "USER_IS_UNDERWATER",
      "inputs": [
        {
          "name": "account",
          "type": "address",
          "internalType": "address"
        },
        {
          "name": "cr",
          "type": "uint256",
          "internalType": "uint256"
        }
      ]
    },
    {
      "type": "error",
      "name": "UUPSUnauthorizedCallContext",
      "inputs": []
    },
    {
      "type": "error",
      "name": "UUPSUnsupportedProxiableUUID",
      "inputs": [
        {
          "name": "slot",
          "type": "bytes32",
          "internalType": "bytes32"
        }
      ]
    }
  ],
  "bytecode": {
    "object": "0x60a06040523060805234801562000014575f80fd5b506200001f62000025565b620000d9565b7ff0c57e16840df040f15088dc2f81fe391c3923bec73e23a9662efc9c229c6a00805468010000000000000000900460ff1615620000765760405163f92ee8a960e01b815260040160405180910390fd5b80546001600160401b0390811614620000d65780546001600160401b0319166001600160401b0390811782556040519081527fc7f505b2f371ae2175ee4913f4499e1f2633a7b5936321eed1cdaeb6115181d29060200160405180910390a15b50565b6080516151c2620001005f395f81816132a1015281816132ca015261340b01526151c25ff3fe6080604052600436106102f3575f3560e01c80635cbc51eb11610189578063ad3cb1cc116100d8578063d8d933a511610092578063f45bf01c1161006d578063f45bf01c14610a5f578063f731a57a14610a72578063f85c3cd414610a91578063fd17174a14610ab0575f80fd5b8063d8d933a514610a1a578063e05001f514610a2d578063e5af06ce14610a40575f80fd5b8063ad3cb1cc1461094e578063b5ec74871461097e578063ca40742c146109aa578063ccc96815146109c9578063ccd8d4d1146109e8578063d547741f146109fb575f80fd5b80637dc0d1d0116101435780638e5727761161011e5780638e572776146108e957806391d14854146108fc578063a217fddf1461091b578063ac9650d81461092e575f80fd5b80637dc0d1d0146108815780637f417c06146108c25780638456cb59146108d5575f80fd5b80635cbc51eb1461066857806361a10df21461069457806364eb0a71146106b357806373d4a13a146106d257806376c1b82f146107f65780637c90a6ca14610822575f80fd5b80632ed28ba2116102455780633f4ba83a116101ff57806352d1902d116101da57806352d1902d146105dd57806354137c7e146105f157806354fd4d50146106105780635c975abb14610645575f80fd5b80633f4ba83a146105975780634cbd882c146105ab5780634f1ef286146105ca575f80fd5b80632ed28ba2146104db5780632f2ff15d1461050757806336568abe146105265780633746f8581461054557806337501921146105585780633e3c119b14610584575f80fd5b80631ca3b0cb116102b05780632b4c9a201161028b5780632b4c9a20146104775780632c60185c1461048a5780632cc884c5146104a95780632e106f21146104c8575f80fd5b80631ca3b0cb146103cb5780631e5eb1d0146103f4578063248a9ca314610458575f80fd5b806301ffc9a7146102f75780630317b9df1461032b5780630cf8542f1461034c5780631970e5ea1461035f57806319a7359b1461038c5780631c4fd41c1461039f575b5f80fd5b348015610302575f80fd5b50610316610311366004613c96565b610ac3565b60405190151581526020015b60405180910390f35b348015610336575f80fd5b5061034a610345366004613cd3565b610af9565b005b61034a61035a366004613d14565b610bd1565b34801561036a575f80fd5b5061037e610379366004613d2e565b610ca6565b604051908152602001610322565b61034a61039a366004613d45565b610cb1565b3480156103aa575f80fd5b506103be6103b9366004613d2e565b610e67565b6040516103229190613d55565b3480156103d6575f80fd5b506103df610ee2565b60408051928352602083019190915201610322565b3480156103ff575f80fd5b50610408610f15565b6040516103229190815181526020808301519082015260408083015190820152606080830151908201526080808301519082015260a0918201516001600160a01b03169181019190915260c00190565b348015610463575f80fd5b5061037e610472366004613d2e565b610fc7565b61034a610485366004613d14565b610fe7565b348015610495575f80fd5b5061037e6104a4366004613d7b565b61108d565b3480156104b4575f80fd5b5061037e6104c3366004613daf565b6110c0565b61034a6104d6366004613dd9565b61126e565b3480156104e6575f80fd5b506104fa6104f5366004613f1e565b611314565b6040516103229190613f66565b348015610512575f80fd5b5061034a610521366004613fc5565b611395565b348015610531575f80fd5b5061034a610540366004613fc5565b6113b7565b61034a610553366004613cd3565b6113ef565b348015610563575f80fd5b50610577610572366004613f1e565b611495565b6040516103229190613ff3565b6103df61059236600461404f565b611516565b3480156105a2575f80fd5b5061034a611787565b3480156105b6575f80fd5b5061034a6105c5366004614069565b6117bc565b61034a6105d836600461408f565b61185b565b3480156105e8575f80fd5b5061037e61187a565b3480156105fc575f80fd5b5061037e61060b366004613d2e565b611895565b34801561061b575f80fd5b506040805180820190915260048152633b18971b60e11b60208201525b604051610322919061417d565b348015610650575f80fd5b505f8051602061516d8339815191525460ff16610316565b348015610673575f80fd5b5061068761068236600461418f565b6119c0565b6040516103229190614278565b34801561069f575f80fd5b5061034a6106ae36600461432a565b611dd2565b3480156106be575f80fd5b506103166106cd366004613d2e565b612057565b3480156106dd575f80fd5b5061078560408051610100810182525f80825260208201819052918101829052606081018290526080810182905260a0810182905260c0810182905260e0810191909152506040805161010081018252601154815260125460208201526014546001600160a01b03908116928201929092526015548216606082015260165482166080820152601a54821660a0820152601854821660c082015260195490911660e082015290565b604080518251815260208084015190820152828201516001600160a01b039081169282019290925260608084015183169082015260808084015183169082015260a08084015183169082015260c08084015183169082015260e0928301519091169181019190915261010001610322565b348015610801575f80fd5b50610815610810366004613d2e565b612063565b6040516103229190614394565b34801561082d575f80fd5b50610836612129565b60405161032291905f60c082019050825182526020830151602083015260408301516040830152606083015160608301526080830151608083015260a083015160a083015292915050565b34801561088c575f80fd5b506108956121cd565b6040805182516001600160a01b031681526020928301516001600160401b03169281019290925201610322565b61034a6108d03660046143a2565b612250565b3480156108e0575f80fd5b5061034a6122f4565b61034a6108f7366004613d14565b612326565b348015610907575f80fd5b50610316610916366004613fc5565b6125aa565b348015610926575f80fd5b5061037e5f81565b61094161093c3660046143bc565b6125e0565b604051610322919061442a565b348015610959575f80fd5b50610638604051806040016040528060058152602001640352e302e360dc1b81525081565b348015610989575f80fd5b5061099d610998366004613d2e565b6125f5565b604051610322919061448c565b3480156109b5575f80fd5b5061037e6109c436600461418f565b6126db565b3480156109d4575f80fd5b506103166109e3366004613d2e565b61275e565b61034a6109f6366004613cd3565b612769565b348015610a06575f80fd5b5061034a610a15366004613fc5565b61280f565b61034a610a28366004613f1e565b61282b565b61037e610a3b366004613d14565b61295d565b348015610a4b575f80fd5b50610316610a5a366004613d2e565b612ab2565b61034a610a6d3660046144d0565b612b2e565b348015610a7d575f80fd5b50610316610a8c36600461418f565b612bd9565b348015610a9c575f80fd5b5061037e610aab366004613daf565b612c22565b61034a610abe3660046144d0565b612d61565b5f6001600160e01b03198216637965db0b60e01b1480610af357506301ffc9a760e01b6001600160e01b03198316145b92915050565b5f610b0381612e0c565b60405163e57980dd60e01b815273__$32fe41b939f9fd8fb0430b5111f401f35c$__9063e57980dd90610b3c905f9086906004016144ea565b5f6040518083038186803b158015610b52575f80fd5b505af4158015610b64573d5f803e3d5ffd5b5050604051634752b3b360e01b815273__$32fe41b939f9fd8fb0430b5111f401f35c$__9250634752b3b39150610ba1905f9086906004016144ea565b5f6040518083038186803b158015610bb7575f80fd5b505af4158015610bc9573d5f803e3d5ffd5b505050505050565b610bd9612e16565b604051638046123560e01b815273__$102e258b2685b09f31e1bdc044a973265c$__90638046123590610c12905f9085906004016145ad565b5f6040518083038186803b158015610c28575f80fd5b505af4158015610c3a573d5f803e3d5ffd5b50506040516387e2411560e01b815273__$102e258b2685b09f31e1bdc044a973265c$__92506387e241159150610c77905f9085906004016145ad565b5f6040518083038186803b158015610c8d575f80fd5b505af4158015610c9f573d5f803e3d5ffd5b5050505050565b5f610af38183612e48565b610cb9612e16565b604051631621030760e01b815273__$40338b66eef5a4814456f5e5d0057a85cb$__90631621030790610cf2905f9085906004016145c1565b5f6040518083038186803b158015610d08575f80fd5b505af4158015610d1a573d5f803e3d5ffd5b505060405163b71df57f60e01b81525f925073__$40338b66eef5a4814456f5e5d0057a85cb$__915063b71df57f90610d5990849086906004016145c1565b602060405180830381865af4158015610d74573d5f803e3d5ffd5b505050506040513d601f19601f82011682018060405250810190610d989190614633565b90505f19826020013503610e295773__$54339234670bed530be64a2569bfcff861$__632d77afb65f610dce602086018661418f565b6040516001600160e01b031960e085901b16815260048101929092526001600160a01b031660248201526044015b5f6040518083038186803b158015610e12575f80fd5b505af4158015610e24573d5f803e3d5ffd5b505050505b60405163bfbfe8ab60e01b81525f60048201526024810182905273__$5e1dc6026664d540c986e6d76069f97e44$__9063bfbfe8ab90604401610ba1565b6040516303eb153f60e51b81525f60048201819052602482018390529073__$137de846162d19becd7adae071bc6b8643$__90637d62a7e090604401602060405180830381865af4158015610ebe573d5f803e3d5ffd5b505050506040513d601f19601f82011682018060405250810190610af3919061464a565b6011545f908190610ef490829061467c565b610f0060025f1961468f565b601254610f0d919061467c565b915091509091565b610f516040518060c001604052805f81526020015f81526020015f81526020015f81526020015f81526020015f6001600160a01b031681525090565b6040516386617e7760e01b81525f600482015273__$32fe41b939f9fd8fb0430b5111f401f35c$__906386617e779060240160c060405180830381865af4158015610f9e573d5f803e3d5ffd5b505050506040513d601f19601f82011682018060405250810190610fc291906146ae565b905090565b5f9081525f8051602061514d833981519152602052604090206001015490565b610fef612e16565b60405163010cc09b60e21b815273__$d7ed34c1233366b4d2093a06a83503a127$__90630433026c90611028905f9085906004016145ad565b5f6040518083038186803b15801561103e575f80fd5b505af4158015611050573d5f803e3d5ffd5b505060405163b8359e9760e01b815273__$d7ed34c1233366b4d2093a06a83503a127$__925063b8359e979150610c77905f9085906004016145ad565b5f815f036110ae576040516301c85f6760e71b815260040160405180910390fd5b6110b95f8484613048565b9392505050565b6001600160a01b0382165f908152600e60209081526040808320815180830183528154815282516001830180546080818802840181019096526060830181815288979496948701948492849184018282801561113957602002820191905f5260205f20905b815481526020019060010190808311611125575b505050505081526020016001820180548060200260200160405190810160405280929190818152602001828054801561118f57602002820191905f5260205f20905b81548152602001906001019080831161117b575b50505050508152602001600282018054806020026020016040519081016040528092919081815260200182805480156111e557602002820191905f5260205f20905b8154815260200190600101908083116111d1575b5050505050815250508152505090506111fd81613065565b1561121b5760405163309f293760e21b815260040160405180910390fd5b60408051606081018252600d546001600160801b03811682526001600160401b03600160801b820481166020840152600160c01b90910416918101919091526112669082908561307e565b949350505050565b611276612e16565b60405163603ed05b60e01b815273__$522109956a60eeb242799fac64155e2c7d$__9063603ed05b906112af905f908590600401614787565b5f6040518083038186803b1580156112c5575f80fd5b505af41580156112d7573d5f803e3d5ffd5b505060405163153f43e560e31b815273__$522109956a60eeb242799fac64155e2c7d$__925063a9fa1f289150610c77905f908590600401614787565b61131c613b43565b604051631c81982560e11b815273__$40338b66eef5a4814456f5e5d0057a85cb$__90633903304a90611355905f9086906004016147ef565b61014060405180830381865af4158015611371573d5f803e3d5ffd5b505050506040513d601f19601f82011682018060405250810190610af391906148c2565b61139e82610fc7565b6113a781612e0c565b6113b1838361311d565b50505050565b6001600160a01b03811633146113e05760405163334bd91960e11b815260040160405180910390fd5b6113ea82826131be565b505050565b6113f7612e16565b604051634cf319b960e11b815273__$bb87e4d06c905b2a40fd4eb630d02af12b$__906399e6337290611430905f9085906004016149f6565b5f6040518083038186803b158015611446575f80fd5b505af4158015611458573d5f803e3d5ffd5b505060405163339bb63160e01b815273__$bb87e4d06c905b2a40fd4eb630d02af12b$__925063339bb6319150610c77905f9085906004016149f6565b61149d613b89565b60405163301d1d1560e21b815273__$6a70d15ccab52e60961e0e6eac4956e318$__9063c0747454906114d6905f9086906004016147ef565b61012060405180830381865af41580156114f2573d5f803e3d5ffd5b505050506040513d601f19601f82011682018060405250810190610af39190614a0e565b5f80611520612e16565b7ffc8737ab85eb45125971625a9ebdb75cc78e01d5c1fa80c4c6e5203f47bc4fab61154a81612e0c565b604051639f53ee0f60e01b815273__$083884a3186f9b2b23885dfeba78ff7244$__90639f53ee0f90611583905f908890600401614aaf565b5f6040518083038186803b158015611599575f80fd5b505af41580156115ab573d5f803e3d5ffd5b505060405163647a4b7560e11b81525f925073__$083884a3186f9b2b23885dfeba78ff7244$__915063c8f496ea906115ea9084908990600401614aaf565b606060405180830381865af4158015611605573d5f803e3d5ffd5b505050506040513d601f19601f820116820180604052508101906116299190614ac3565b9095509350905073__$54339234670bed530be64a2569bfcff861$__632d77afb65f61165b6040890160208a0161418f565b6040516001600160e01b031960e085901b16815260048101929092526001600160a01b031660248201526044015f6040518083038186803b15801561169e575f80fd5b505af41580156116b0573d5f803e3d5ffd5b5050604051636e6595c160e01b815273__$083884a3186f9b2b23885dfeba78ff7244$__9250636e6595c191506116ef905f9089908990600401614aee565b5f6040518083038186803b158015611705575f80fd5b505af4158015611717573d5f803e3d5ffd5b505060405163bfbfe8ab60e01b81525f60048201526024810184905273__$5e1dc6026664d540c986e6d76069f97e44$__925063bfbfe8ab91506044015f6040518083038186803b15801561176a575f80fd5b505af415801561177c573d5f803e3d5ffd5b505050505050915091565b7f65d7a28e3265b37a6474929f336521b332c1681b933f6cb9f3376673440d862a6117b181612e0c565b6117b9613237565b50565b7f1eae1854c74a696c6de86fd3c6383d5c1e2c33fbc86e1aa6b6c872d95bd240386117e681612e0c565b600d80546001600160801b038481166001600160c01b031983168117600160801b426001600160401b031602179093556040805191909216808252602082019390935233917f26b8010a81fad3e15c7545637c99390bdeb250bf0a67e4cf43c3d220ec2acc31910160405180910390a2505050565b611863613296565b61186c8261333a565b6118768282613344565b5050565b5f611883613400565b505f8051602061512d83398151915290565b604051634c9829bf60e11b81525f600482018190526024820183905290819073__$137de846162d19becd7adae071bc6b8643$__90639930537e90604401602060405180830381865af41580156118ee573d5f803e3d5ffd5b505050506040513d601f19601f820116820180604052508101906119129190614633565b6040805160808101825282546001600160a01b03168152600183015460208201526002830154818301526003909201546060830152516345ffd36d60e01b815290915073__$137de846162d19becd7adae071bc6b8643$__906345ffd36d90611981905f908590600401614b10565b602060405180830381865af415801561199c573d5f803e3d5ffd5b505050506040513d601f19601f820116820180604052508101906110b99190614633565b6119c8613bc0565b604080516001600160a01b0384165f908152600e60209081529083902061016083018452805461012084019081528451600183018054608095810283018601909752606082018781529596879660a088019687959487946101408b01949193909284928491840182828015611a5a57602002820191905f5260205f20905b815481526020019060010190808311611a46575b5050505050815260200160018201805480602002602001604051908101604052809291908181526020018280548015611ab057602002820191905f5260205f20905b815481526020019060010190808311611a9c575b5050505050815260200160028201805480602002602001604051908101604052809291908181526020018280548015611b0657602002820191905f5260205f20905b815481526020019060010190808311611af2575b505050505081525050815250508152602001600482016040518060400160405290815f8201548152602001600182016040518060600160405290815f8201805480602002602001604051908101604052809291908181526020018280548015611b8c57602002820191905f5260205f20905b815481526020019060010190808311611b78575b5050505050815260200160018201805480602002602001604051908101604052809291908181526020018280548015611be257602002820191905f5260205f20905b815481526020019060010190808311611bce575b5050505050815260200160028201805480602002602001604051908101604052809291908181526020018280548015611c3857602002820191905f5260205f20905b815481526020019060010190808311611c24575b505050919092525050509052508152600882015460208083019190915260099092015460ff1615156040918201529183526001600160a01b0386811691840182905260165483516370a0823160e01b815260048101939093529390920192909116906370a0823190602401602060405180830381865afa158015611cbe573d5f803e3d5ffd5b505050506040513d601f19601f82011682018060405250810190611ce29190614633565b8152601a546040516370a0823160e01b81526001600160a01b038681166004830152602090930192909116906370a0823190602401602060405180830381865afa158015611d32573d5f803e3d5ffd5b505050506040513d601f19601f82011682018060405250810190611d569190614633565b81526018546040516370a0823160e01b81526001600160a01b038681166004830152602090930192909116906370a0823190602401602060405180830381865afa158015611da6573d5f803e3d5ffd5b505050506040513d601f19601f82011682018060405250810190611dca9190614633565b905292915050565b7ff0c57e16840df040f15088dc2f81fe391c3923bec73e23a9662efc9c229c6a008054600160401b810460ff1615906001600160401b03165f81158015611e165750825b90505f826001600160401b03166001148015611e315750303b155b905081158015611e3f575080155b15611e5d5760405163f92ee8a960e01b815260040160405180910390fd5b845467ffffffffffffffff191660011785558315611e8757845460ff60401b1916600160401b1785555b6040516369777eb960e01b815273__$34e5abf8aed44cb09d2bd12ec9cc797973$__906369777eb990611ec8905f908e908e908e908e908e90600401614c61565b5f6040518083038186803b158015611ede575f80fd5b505af4158015611ef0573d5f803e3d5ffd5b50505050611efc613449565b611f04613451565b611f0c613449565b604051632ffdac7160e21b815273__$34e5abf8aed44cb09d2bd12ec9cc797973$__9063bff6b1c490611f4b905f908d908d908d908d90600401614ceb565b5f6040518083038186803b158015611f61575f80fd5b505af4158015611f73573d5f803e3d5ffd5b50505050611f835f801b8b61311d565b50611fae7f65d7a28e3265b37a6474929f336521b332c1681b933f6cb9f3376673440d862a8b61311d565b50611fd97ffc8737ab85eb45125971625a9ebdb75cc78e01d5c1fa80c4c6e5203f47bc4fab8b61311d565b506120047f1eae1854c74a696c6de86fd3c6383d5c1e2c33fbc86e1aa6b6c872d95bd240388b61311d565b50831561204b57845460ff60401b19168555604051600181527fc7f505b2f371ae2175ee4913f4499e1f2633a7b5936321eed1cdaeb6115181d29060200160405180910390a15b50505050505050505050565b6011545f908210610af3565b61206b613bfa565b604051633978289f60e01b81525f60048201526024810183905273__$137de846162d19becd7adae071bc6b8643$__90633978289f90604401602060405180830381865af41580156120bf573d5f803e3d5ffd5b505050506040513d601f19601f820116820180604052508101906120e39190614633565b6040805160808101825282546001600160a01b0381168252600160a01b900460ff1615156020820152600183015491810191909152600290910154606082015292915050565b61215c6040518060c001604052805f81526020015f81526020015f81526020015f81526020015f81526020015f81525090565b604051636e9bc7eb60e11b81525f600482015273__$32fe41b939f9fd8fb0430b5111f401f35c$__9063dd378fd69060240160c060405180830381865af41580156121a9573d5f803e3d5ffd5b505050506040513d601f19601f82011682018060405250810190610fc29190614d5a565b604080518082019091525f8082526020820152604051631ae5e80160e31b81525f600482015273__$32fe41b939f9fd8fb0430b5111f401f35c$__9063d72f4008906024016040805180830381865af415801561222c573d5f803e3d5ffd5b505050506040513d601f19601f82011682018060405250810190610fc29190614db2565b612258612e16565b6040516210aa0b60e31b815273__$7dc37f9f4797eb854780a74171eb2f4993$__90628550589061228f905f908590600401614e0e565b5f6040518083038186803b1580156122a5575f80fd5b505af41580156122b7573d5f803e3d5ffd5b50506040516364140a8360e01b815273__$7dc37f9f4797eb854780a74171eb2f4993$__92506364140a839150610c77905f908590600401614e0e565b7f65d7a28e3265b37a6474929f336521b332c1681b933f6cb9f3376673440d862a61231e81612e0c565b6117b9613461565b61232e612e16565b604051634ec6ce5b60e11b81525f600482018190523360248301529073__$54339234670bed530be64a2569bfcff861$__90639d8d9cb690604401602060405180830381865af4158015612384573d5f803e3d5ffd5b505050506040513d601f19601f820116820180604052508101906123a89190614e46565b604051634bc1120160e01b815290915073__$ef4190de80c3c7f10088bb7cf8a0baddca$__90634bc11201906123e4905f908690600401614e61565b5f6040518083038186803b1580156123fa575f80fd5b505af415801561240c573d5f803e3d5ffd5b50506040516332f4053b60e01b815273__$ef4190de80c3c7f10088bb7cf8a0baddca$__92506332f4053b9150612449905f908690600401614e61565b5f6040518083038186803b15801561245f575f80fd5b505af4158015612471573d5f803e3d5ffd5b5050604051634ec6ce5b60e11b81525f60048201819052336024830152925073__$54339234670bed530be64a2569bfcff861$__9150639d8d9cb690604401602060405180830381865af41580156124cb573d5f803e3d5ffd5b505050506040513d601f19601f820116820180604052508101906124ef9190614e46565b9050811580156124fc5750805b156113ea5760405163046dbd1360e11b81525f600482015233602482018190529073__$54339234670bed530be64a2569bfcff861$__906308db7a2690604401602060405180830381865af4158015612557573d5f803e3d5ffd5b505050506040513d601f19601f8201168201806040525081019061257b9190614633565b60405163092ceea960e31b81526001600160a01b03909216600483015260248201526044015b60405180910390fd5b5f9182525f8051602061514d833981519152602090815260408084206001600160a01b0393909316845291905290205460ff1690565b60606125ea612e16565b6110b95f84846134a9565b61262560405180608001604052805f6001600160a01b031681526020015f81526020015f81526020015f81525090565b604051634c9829bf60e11b81525f60048201526024810183905273__$137de846162d19becd7adae071bc6b8643$__90639930537e90604401602060405180830381865af4158015612679573d5f803e3d5ffd5b505050506040513d601f19601f8201168201806040525081019061269d9190614633565b6040805160808101825282546001600160a01b0316815260018301546020820152600283015491810191909152600390910154606082015292915050565b60405163046dbd1360e11b81525f600482018190526001600160a01b03831660248301529073__$54339234670bed530be64a2569bfcff861$__906308db7a2690604401602060405180830381865af415801561273a573d5f803e3d5ffd5b505050506040513d601f19601f82011682018060405250810190610af39190614633565b5f610af38183613810565b612771612e16565b6040516329de607960e01b815273__$872edea7acf8ea04327f178ae369cb7d23$__906329de6079906127aa905f9085906004016149f6565b5f6040518083038186803b1580156127c0575f80fd5b505af41580156127d2573d5f803e3d5ffd5b50506040516309f18b1960e11b815273__$872edea7acf8ea04327f178ae369cb7d23$__92506313e316329150610c77905f9085906004016149f6565b61281882610fc7565b61282181612e0c565b6113b183836131be565b612833612e16565b604051630dd8fb6560e21b815273__$6a70d15ccab52e60961e0e6eac4956e318$__90633763ed949061286c905f9085906004016147ef565b5f6040518083038186803b158015612882575f80fd5b505af4158015612894573d5f803e3d5ffd5b505060405163d73654eb60e01b81525f925073__$6a70d15ccab52e60961e0e6eac4956e318$__915063d73654eb906128d390849086906004016147ef565b602060405180830381865af41580156128ee573d5f803e3d5ffd5b505050506040513d601f19601f820116820180604052508101906129129190614633565b90505f19826020015103610e29576040516316bbd7db60e11b81525f600482015233602482015273__$54339234670bed530be64a2569bfcff861$__90632d77afb690604401610dfc565b5f612966612e16565b6040516320b5435f60e11b815273__$bd78b82d3691bf7d290be9fb9bf4abf7be$__9063416a86be9061299f905f908690600401614e61565b5f6040518083038186803b1580156129b5575f80fd5b505af41580156129c7573d5f803e3d5ffd5b5050604051630d0699cb60e21b815273__$bd78b82d3691bf7d290be9fb9bf4abf7be$__925063341a672c9150612a04905f908690600401614e61565b602060405180830381865af4158015612a1f573d5f803e3d5ffd5b505050506040513d601f19601f82011682018060405250810190612a439190614633565b60405163489d188160e01b815290915073__$bd78b82d3691bf7d290be9fb9bf4abf7be$__9063489d188190612a81905f9086908690600401614e89565b5f6040518083038186803b158015612a97575f80fd5b505af4158015612aa9573d5f803e3d5ffd5b50505050919050565b604051631928c8e960e11b81525f60048201819052602482018390529073__$54339234670bed530be64a2569bfcff861$__9063325191d2906044015b602060405180830381865af4158015612b0a573d5f803e3d5ffd5b505050506040513d601f19601f82011682018060405250810190610af39190614e46565b612b36612e16565b604051635792057f60e11b81525f60048201528135602482015273__$65756fc1cb7d5518f865a4f2165258b0ec$__9063af240afe906044015f6040518083038186803b158015612b85575f80fd5b505af4158015612b97573d5f803e3d5ffd5b50506040516320e9b9f960e11b81525f60048201528335602482015273__$65756fc1cb7d5518f865a4f2165258b0ec$__92506341d373f29150604401610c77565b604051634ec6ce5b60e11b81525f600482018190526001600160a01b03831660248301529073__$54339234670bed530be64a2569bfcff861$__90639d8d9cb690604401612aef565b6001600160a01b0382165f908152600e602090815260408083208151808301835260048201805482528351600590930180546080818802860181019096526060850181815288979496939594870194938492849184018282801561113957602002820191905f5260205f209081548152602001906001019080831161112557505050505081526020016001820180548060200260200160405190810160405280929190818152602001828054801561118f57602002820191905f5260205f209081548152602001906001019080831161117b5750505050508152602001600282018054806020026020016040519081016040528092919081815260200182805480156111e557602002820191905f5260205f20908154815260200190600101908083116111d1575050505050815250508152505090506111fd81613065565b612d69612e16565b6040516306241a0160e51b81525f60048201528135602482015273__$20b01ba837bb61c0f81e8afe21d5ca6650$__9063c4834020906044015f6040518083038186803b158015612db8575f80fd5b505af4158015612dca573d5f803e3d5ffd5b5050604051632981ae3960e21b81525f60048201528335602482015273__$20b01ba837bb61c0f81e8afe21d5ca6650$__925063a606b8e49150604401610c77565b6117b98133613833565b5f8051602061516d8339815191525460ff1615612e465760405163d93c066560e01b815260040160405180910390fd5b565b5f6110b983600c015f015f9054906101000a90046001600160a01b03166001600160a01b031663313ce5676040518163ffffffff1660e01b8152600401602060405180830381865afa158015612ea0573d5f803e3d5ffd5b505050506040513d601f19601f82011682018060405250810190612ec49190614633565b612ecf90600a614f9f565b612ed99084614faa565b60148501546040805163313ce56760e01b815290516001600160a01b039092169163313ce567916004808201926020929091908290030181865afa158015612f23573d5f803e3d5ffd5b505050506040513d601f19601f82011682018060405250810190612f479190614fc1565b612f5290600a614fe1565b60158601546040805163313ce56760e01b815290516001600160a01b039092169163313ce567916004808201926020929091908290030181865afa158015612f9c573d5f803e3d5ffd5b505050506040513d601f19601f82011682018060405250810190612fc09190614fc1565b612fcb90600a614fe1565b600c87015460408051634c6afee560e11b815290516001600160a01b03909216916398d5fdca916004808201926020929091908290030181865afa158015613015573d5f803e3d5ffd5b505050506040513d601f19601f820116820180604052508101906130399190614633565b6130439190614faa565b61386c565b5f611266836130578685613878565b670de0b6b3a764000061386c565b80515f90158015610af35750610af3826020015161388b565b5f815f0361309f576040516301c85f6760e71b815260040160405180910390fd5b60208401516040516315c6891560e11b815273__$30cdd3af314c0847e81c95388f79c2a65a$__91632b8d122a916130de919087908790600401614fef565b602060405180830381865af41580156130f9573d5f803e3d5ffd5b505050506040513d601f19601f820116820180604052508101906112669190614633565b5f5f8051602061514d83398151915261313684846125aa565b6131b5575f848152602082815260408083206001600160a01b03871684529091529020805460ff1916600117905561316b3390565b6001600160a01b0316836001600160a01b0316857f2f8788117e7eff1d82e926ec794901d17c78024a50270940304540a733656f0d60405160405180910390a46001915050610af3565b5f915050610af3565b5f5f8051602061514d8339815191526131d784846125aa565b156131b5575f848152602082815260408083206001600160a01b0387168085529252808320805460ff1916905551339287917ff6391f5c32d9c69d2a47ea670b442974b53935d1edc7fd64eb21e047a839171b9190a46001915050610af3565b61323f6138b1565b5f8051602061516d833981519152805460ff191681557f5db9ee0a495bf2e6ff9c91a7834c1ba4fdd244a5e8aa4e537bd38aeae4b073aa335b6040516001600160a01b03909116815260200160405180910390a150565b306001600160a01b037f000000000000000000000000000000000000000000000000000000000000000016148061331c57507f00000000000000000000000000000000000000000000000000000000000000006001600160a01b03166133105f8051602061512d833981519152546001600160a01b031690565b6001600160a01b031614155b15612e465760405163703e46dd60e11b815260040160405180910390fd5b5f61187681612e0c565b816001600160a01b03166352d1902d6040518163ffffffff1660e01b8152600401602060405180830381865afa92505050801561339e575060408051601f3d908101601f1916820190925261339b91810190614633565b60015b6133c657604051634c9c8ce360e01b81526001600160a01b03831660048201526024016125a1565b5f8051602061512d83398151915281146133f657604051632a87526960e21b8152600481018290526024016125a1565b6113ea83836138e0565b306001600160a01b037f00000000000000000000000000000000000000000000000000000000000000001614612e465760405163703e46dd60e11b815260040160405180910390fd5b612e46613935565b613459613935565b612e4661397e565b613469612e16565b5f8051602061516d833981519152805460ff191660011781557f62e78cea01bee320cd4e420270b5ea74000d11b0c9f74754ebdbfc544b05a25833613278565b60198301805460ff60a01b1916600160a01b179055601a830154604080516318160ddd60e01b815290516060925f926001600160a01b03909116916318160ddd916004808201926020929091908290030181865afa15801561350d573d5f803e3d5ffd5b505050506040513d601f19601f820116820180604052508101906135319190614633565b90505f85600e01600a015f9054906101000a90046001600160a01b03166001600160a01b03166318160ddd6040518163ffffffff1660e01b8152600401602060405180830381865afa158015613589573d5f803e3d5ffd5b505050506040513d601f19601f820116820180604052508101906135ad9190614633565b9050836001600160401b038111156135c7576135c7613e0f565b6040519080825280602002602001820160405280156135fa57816020015b60608152602001906001900390816135e55790505b5092505f5b8481101561368d576136683087878481811061361d5761361d6150bb565b905060200281019061362f91906150cf565b8080601f0160208091040260200160405190810160405280939291908181526020018383808284375f9201919091525061399e92505050565b84828151811061367a5761367a6150bb565b60209081029190910101526001016135ff565b50601a860154604080516318160ddd60e01b815290515f926001600160a01b0316916318160ddd9160048083019260209291908290030181865afa1580156136d7573d5f803e3d5ffd5b505050506040513d601f19601f820116820180604052508101906136fb9190614633565b90505f87600e01600a015f9054906101000a90046001600160a01b03166001600160a01b03166318160ddd6040518163ffffffff1660e01b8152600401602060405180830381865afa158015613753573d5f803e3d5ffd5b505050506040513d601f19601f820116820180604052508101906137779190614633565b60405163111a6a5d60e31b8152600481018a90526024810186905260448101859052606481018490526084810182905290915073__$5e1dc6026664d540c986e6d76069f97e44$__906388d352e89060a4015f6040518083038186803b1580156137df575f80fd5b505af41580156137f1573d5f803e3d5ffd5b5050506019909801805460ff60a01b1916905550929695505050505050565b5f61381d60025f1961468f565b82101580156110b9575050601291909101541190565b61383d82826125aa565b6118765760405163e2517d3f60e01b81526001600160a01b0382166004820152602481018390526044016125a1565b5f611266848484613a10565b81545f906110b990836301e1338061386c565b8051515f901580156138a05750602082015151155b8015610af357505060400151511590565b5f8051602061516d8339815191525460ff16612e4657604051638dfc202b60e01b815260040160405180910390fd5b6138e982613a3c565b6040516001600160a01b038316907fbc7cd75a20ee27fd9adebab32041f755214dbc6bffa90cc0225b39da2e5c2d3b905f90a280511561392d576113ea828261399e565b611876613a9f565b7ff0c57e16840df040f15088dc2f81fe391c3923bec73e23a9662efc9c229c6a0054600160401b900460ff16612e4657604051631afcd79f60e31b815260040160405180910390fd5b613986613935565b5f8051602061516d833981519152805460ff19169055565b60605f80846001600160a01b0316846040516139ba9190615111565b5f60405180830381855af49150503d805f81146139f2576040519150601f19603f3d011682016040523d82523d5f602084013e6139f7565b606091505b5091509150613a07858383613abe565b95945050505050565b5f825f190484118302158202613a2d5763ad251c275f526004601cfd5b50910281810615159190040190565b806001600160a01b03163b5f03613a7157604051634c9c8ce360e01b81526001600160a01b03821660048201526024016125a1565b5f8051602061512d83398151915280546001600160a01b0319166001600160a01b0392909216919091179055565b3415612e465760405163b398979f60e01b815260040160405180910390fd5b606082613ad357613ace82613b1a565b6110b9565b8151158015613aea57506001600160a01b0384163b155b15613b1357604051639996b31560e01b81526001600160a01b03851660048201526024016125a1565b50806110b9565b805115613b2a5780518082602001fd5b604051630a12f52160e11b815260040160405180910390fd5b6040518060e00160405280613b56613bfa565b81526020015f6001600160a01b031681526020015f81526020015f81526020015f81526020015f81526020015f81525090565b6040518060c00160405280613b9c613bfa565b81526020015f81526020015f81526020015f81526020015f81526020015f81525090565b6040518060a00160405280613bd3613c29565b81526020015f6001600160a01b031681526020015f81526020015f81526020015f81525090565b60405180608001604052805f6001600160a01b031681526020015f151581526020015f81526020015f81525090565b6040518060800160405280613c3c613c5c565b8152602001613c49613c5c565b81525f6020820181905260409091015290565b60405180604001604052805f8152602001613c9160405180606001604052806060815260200160608152602001606081525090565b905290565b5f60208284031215613ca6575f80fd5b81356001600160e01b0319811681146110b9575f80fd5b5f60408284031215613ccd575f80fd5b50919050565b5f60208284031215613ce3575f80fd5b81356001600160401b03811115613cf8575f80fd5b61126684828501613cbd565b5f60608284031215613ccd575f80fd5b5f60608284031215613d24575f80fd5b6110b98383613d04565b5f60208284031215613d3e575f80fd5b5035919050565b5f60e08284031215613ccd575f80fd5b6020810160038310613d7557634e487b7160e01b5f52602160045260245ffd5b91905290565b5f8060408385031215613d8c575f80fd5b50508035926020909101359150565b6001600160a01b03811681146117b9575f80fd5b5f8060408385031215613dc0575f80fd5b8235613dcb81613d9b565b946020939093013593505050565b5f60208284031215613de9575f80fd5b81356001600160401b03811115613dfe575f80fd5b8201608081850312156110b9575f80fd5b634e487b7160e01b5f52604160045260245ffd5b60405160e081016001600160401b0381118282101715613e4557613e45613e0f565b60405290565b60405160c081016001600160401b0381118282101715613e4557613e45613e0f565b604051601f8201601f191681016001600160401b0381118282101715613e9557613e95613e0f565b604052919050565b80151581146117b9575f80fd5b5f60e08284031215613eba575f80fd5b613ec2613e23565b90508135613ecf81613d9b565b808252506020820135602082015260408201356040820152606082013560608201526080820135608082015260a082013560a082015260c0820135613f1381613e9d565b60c082015292915050565b5f60e08284031215613f2e575f80fd5b6110b98383613eaa565b80516001600160a01b0316825260208082015115159083015260408082015190830152606090810151910152565b5f61014082019050613f79828451613f38565b60018060a01b036020840151166080830152604083015160a0830152606083015160c0830152608083015160e083015260a083015161010083015260c083015161012083015292915050565b5f8060408385031215613fd6575f80fd5b823591506020830135613fe881613d9b565b809150509250929050565b5f61012082019050614006828451613f38565b60208301516080830152604083015160a0830152606083015160c0830152608083015160e083015260a083015161010083015292915050565b5f60a08284031215613ccd575f80fd5b5f60a0828403121561405f575f80fd5b6110b9838361403f565b5f60208284031215614079575f80fd5b81356001600160801b03811681146110b9575f80fd5b5f80604083850312156140a0575f80fd5b82356140ab81613d9b565b91506020838101356001600160401b03808211156140c7575f80fd5b818601915086601f8301126140da575f80fd5b8135818111156140ec576140ec613e0f565b6140fe601f8201601f19168501613e6d565b91508082528784828501011115614113575f80fd5b80848401858401375f848284010152508093505050509250929050565b5f5b8381101561414a578181015183820152602001614132565b50505f910152565b5f8151808452614169816020860160208601614130565b601f01601f19169290920160200192915050565b602081525f6110b96020830184614152565b5f6020828403121561419f575f80fd5b81356110b981613d9b565b5f815180845260208085019450602084015f5b838110156141d9578151875295820195908201906001016141bd565b509495945050505050565b805182525f60208083015160408286015280516060604087015261420b60a08701826141aa565b83830151603f19888303810160608a0152815180845291860193505f929091908601905b8084101561424f578451825293860193600193909301929086019061422f565b5060408501519550818982030160808a015261426b81876141aa565b9998505050505050505050565b602081525f825160a060208401528051608060c085015261429d6101408501826141e4565b9050602082015160bf198583030160e08601526142ba82826141e4565b915050604082015161010085015260608201511515610120850152602085015191506142f160408501836001600160a01b03169052565b6040850151606085015260608501516080850152608085015160a0850152809250505092915050565b5f60c08284031215613ccd575f80fd5b5f805f805f610280868803121561433f575f80fd5b853561434a81613d9b565b9450614359876020880161431a565b93506143688760e0880161431a565b9250614378876101a08801613cbd565b9150614388876101e0880161403f565b90509295509295909350565b60808101610af38284613f38565b5f604082840312156143b2575f80fd5b6110b98383613cbd565b5f80602083850312156143cd575f80fd5b82356001600160401b03808211156143e3575f80fd5b818501915085601f8301126143f6575f80fd5b813581811115614404575f80fd5b8660208260051b8501011115614418575f80fd5b60209290920196919550909350505050565b5f60208083016020845280855180835260408601915060408160051b8701019250602087015f5b8281101561447f57603f1988860301845261446d858351614152565b94509285019290850190600101614451565b5092979650505050505050565b81516001600160a01b0316815260208083015190820152604080830151908201526060808301519082015260808101610af3565b5f60208284031215613ccd575f80fd5b5f602082840312156144e0575f80fd5b6110b983836144c0565b828152604060208201525f8235601e19843603018112614508575f80fd5b83016020810190356001600160401b03811115614523575f80fd5b803603821315614531575f80fd5b604080850152806080850152808260a08601375f60a082860101526020850135606085015260a0601f19601f830116850101925050509392505050565b803561457981613d9b565b6001600160a01b0390811683526020828101359084015260408201359061459f82613d9b565b808216604085015250505050565b828152608081016110b9602083018461456e565b828152610100810182356145d481613d9b565b60018060a01b038116602084015250602083013560408301526040830135606083015260608301356080830152608083013560a083015260a083013560c083015260c083013561462381613e9d565b80151560e0840152509392505050565b5f60208284031215614643575f80fd5b5051919050565b5f6020828403121561465a575f80fd5b8151600381106110b9575f80fd5b634e487b7160e01b5f52601160045260245ffd5b81810381811115610af357610af3614668565b5f826146a957634e487b7160e01b5f52601260045260245ffd5b500490565b5f60c082840312156146be575f80fd5b6146c6613e4b565b825181526020830151602082015260408301516040820152606083015160608201526080830151608082015260a083015161470081613d9b565b60a08201529392505050565b5f808335601e19843603018112614721575f80fd5b83016020810192503590506001600160401b0381111561473f575f80fd5b8060051b3603821315614750575f80fd5b9250929050565b8183525f6001600160fb1b0383111561476e575f80fd5b8260051b80836020870137939093016020019392505050565b82815260406020820152813560408201525f60208301356147a781613e9d565b1515606083015260408301356147bc81613e9d565b151560808301526147d0606084018461470c565b608060a08501526147e560c085018284614757565b9695505050505050565b82815261010081016110b9602083018480516001600160a01b031682526020808201519083015260408082015190830152606080820151908301526080808201519083015260a0818101519083015260c0908101511515910152565b5f6080828403121561485b575f80fd5b604051608081018181106001600160401b038211171561487d5761487d613e0f565b8060405250809150825161489081613d9b565b815260208301516148a081613e9d565b8060208301525060408301516040820152606083015160608201525092915050565b5f61014082840312156148d3575f80fd5b6148db613e23565b6148e5848461484b565b815260808301516148f581613d9b565b8060208301525060a0830151604082015260c0830151606082015260e0830151608082015261010083015160a082015261012083015160c08201528091505092915050565b803582525f602080830135605e19843603018112614956575f80fd5b6040858301528301614968818061470c565b6060604088015261497d60a088018284614757565b91505061498c8383018361470c565b603f19888403810160608a015281845291925f929086015b828410156149c25784358152938601936001939093019286016149a4565b6149cf604087018761470c565b97509550818a82030160808b01526149e8818888614757565b9a9950505050505050505050565b828152604060208201525f611266604083018461493a565b5f6101208284031215614a1f575f80fd5b614a27613e4b565b614a31848461484b565b81526080830151602082015260a0830151604082015260c0830151606082015260e0830151608082015261010083015160a08201528091505092915050565b803582526020810135614a8281613d9b565b6001600160a01b031660208301526040818101359083015260608082013590830152608090810135910152565b82815260c081016110b96020830184614a70565b5f805f60608486031215614ad5575f80fd5b8351925060208401519150604084015190509250925092565b83815260e08101614b026020830185614a70565b8260c0830152949350505050565b82815260a081016110b9602083018480516001600160a01b031682526020808201519083015260408082015190830152606090810151910152565b803582526020810135602083015260408101356040830152606081013560608301526080810135608083015260a0810135614b8581613d9b565b6001600160a01b031660a0929092019190915250565b6001600160401b03811681146117b9575f80fd5b8035614bba81613d9b565b6001600160a01b031682526020810135614bd381614b9b565b6001600160401b0381166020840152505050565b8035614bf281613d9b565b6001600160a01b039081168352602082013590614c0e82613d9b565b9081166020840152604082013590614c2582613d9b565b9081166040840152606082013590614c3c82613d9b565b9081166060840152608082013590614c5382613d9b565b808216608085015250505050565b8681526001600160a01b03861660208201526102a08101614c856040830187614b4b565b8435610100830152602085013561012083015260408501356101408301526060850135610160830152608085013561018083015260a08501356101a0830152614cd26101c0830185614baf565b614ce0610200830184614be7565b979650505050505050565b8581526102808101614d006020830187614b4b565b843560e0830152602085013561010083015260408501356101208301526060850135610140830152608085013561016083015260a0850135610180830152614d4c6101a0830185614baf565b6147e56101e0830184614be7565b5f60c08284031215614d6a575f80fd5b614d72613e4b565b825181526020830151602082015260408301516040820152606083015160608201526080830151608082015260a083015160a08201528091505092915050565b5f60408284031215614dc2575f80fd5b604051604081018181106001600160401b0382111715614de457614de4613e0f565b6040528251614df281613d9b565b81526020830151614e0281614b9b565b60208201529392505050565b5f606082019050838252823560208301526020830135614e2d81613d9b565b6001600160a01b03166040929092019190915292915050565b5f60208284031215614e56575f80fd5b81516110b981613e9d565b828152608081016110b960208301848035825260208082013590830152604090810135910152565b83815260a08101614eb160208301858035825260208082013590830152604090810135910152565b826080830152949350505050565b600181815b80851115614ef957815f1904821115614edf57614edf614668565b80851615614eec57918102915b93841c9390800290614ec4565b509250929050565b5f82614f0f57506001610af3565b81614f1b57505f610af3565b8160018114614f315760028114614f3b57614f57565b6001915050610af3565b60ff841115614f4c57614f4c614668565b50506001821b610af3565b5060208310610133831016604e8410600b8410161715614f7a575081810a610af3565b614f848383614ebf565b805f1904821115614f9757614f97614668565b029392505050565b5f6110b98383614f01565b8082028115828204841417610af357610af3614668565b5f60208284031215614fd1575f80fd5b815160ff811681146110b9575f80fd5b5f6110b960ff841683614f01565b60a081525f8451606060a084015261500b6101008401826141aa565b602087810151609f19868403810160c08801528151808552918301945091925f9291908401905b808410156150525785518252948401946001939093019290840190615032565b5060408a01519450818782030160e088015261506e81866141aa565b95505050506150ab8185018780516001600160801b031682526020808201516001600160401b039081169184019190915260409182015116910152565b5050826080830152949350505050565b634e487b7160e01b5f52603260045260245ffd5b5f808335601e198436030181126150e4575f80fd5b8301803591506001600160401b038211156150fd575f80fd5b602001915036819003821315614750575f80fd5b5f8251615122818460208701614130565b919091019291505056fe360894a13ba1a3210667c828492db98dca3e2076cc3735a920a3ca505d382bbc02dd7bc7dec4dceedda775e58dd541e08a116c6c53815c0bd028192f7b626800cd5ed15c6e187e77e9aee88184c21f4f2182ab5827cb3b7e07fbedcd63f03300a2646970667358221220ad14a364d54f06d618898a82c02986732e1a143268ab9be8e9a92c88b372618664736f6c63430008170033",
    "linkReferences": {
      "src/libraries/CapsLibrary.sol": {
        "CapsLibrary": [
          {
            "start": 3909,
            "length": 20
          },
          {
            "start": 6197,
            "length": 20
          },
          {
            "start": 14508,
            "length": 20
          }
        ]
      },
      "src/libraries/LoanLibrary.sol": {
        "LoanLibrary": [
          {
            "start": 3974,
            "length": 20
          },
          {
            "start": 6582,
            "length": 20
          },
          {
            "start": 6743,
            "length": 20
          },
          {
            "start": 8583,
            "length": 20
          },
          {
            "start": 10049,
            "length": 20
          }
        ]
      },
      "src/libraries/RiskLibrary.sol": {
        "RiskLibrary": [
          {
            "start": 3752,
            "length": 20
          },
          {
            "start": 5938,
            "length": 20
          },
          {
            "start": 9292,
            "length": 20
          },
          {
            "start": 9618,
            "length": 20
          },
          {
            "start": 9759,
            "length": 20
          },
          {
            "start": 10242,
            "length": 20
          },
          {
            "start": 10811,
            "length": 20
          },
          {
            "start": 11217,
            "length": 20
          },
          {
            "start": 11520,
            "length": 20
          }
        ]
      },
      "src/libraries/YieldCurveLibrary.sol": {
        "YieldCurveLibrary": [
          {
            "start": 12723,
            "length": 20
          }
        ]
      },
      "src/libraries/actions/BuyCreditLimit.sol": {
        "BuyCreditLimit": [
          {
            "start": 5382,
            "length": 20
          },
          {
            "start": 5481,
            "length": 20
          }
        ]
      },
      "src/libraries/actions/BuyCreditMarket.sol": {
        "BuyCreditMarket": [
          {
            "start": 3528,
            "length": 20
          },
          {
            "start": 3630,
            "length": 20
          },
          {
            "start": 5163,
            "length": 20
          }
        ]
      },
      "src/libraries/actions/Claim.sol": {
        "Claim": [
          {
            "start": 11346,
            "length": 20
          },
          {
            "start": 11445,
            "length": 20
          }
        ]
      },
      "src/libraries/actions/Compensate.sol": {
        "Compensate": [
          {
            "start": 9402,
            "length": 20
          },
          {
            "start": 9501,
            "length": 20
          }
        ]
      },
      "src/libraries/actions/Deposit.sol": {
        "Deposit": [
          {
            "start": 3304,
            "length": 20
          },
          {
            "start": 3403,
            "length": 20
          }
        ]
      },
      "src/libraries/actions/Initialize.sol": {
        "Initialize": [
          {
            "start": 8086,
            "length": 20
          },
          {
            "start": 8219,
            "length": 20
          }
        ]
      },
      "src/libraries/actions/Liquidate.sol": {
        "Liquidate": [
          {
            "start": 10869,
            "length": 20
          },
          {
            "start": 10968,
            "length": 20
          },
          {
            "start": 11093,
            "length": 20
          }
        ]
      },
      "src/libraries/actions/LiquidateWithReplacement.sol": {
        "LiquidateWithReplacement": [
          {
            "start": 5721,
            "length": 20
          },
          {
            "start": 5823,
            "length": 20
          },
          {
            "start": 6081,
            "length": 20
          }
        ]
      },
      "src/libraries/actions/Repay.sol": {
        "Repay": [
          {
            "start": 9062,
            "length": 20
          },
          {
            "start": 9160,
            "length": 20
          }
        ]
      },
      "src/libraries/actions/SelfLiquidate.sol": {
        "SelfLiquidate": [
          {
            "start": 11909,
            "length": 20
          },
          {
            "start": 12008,
            "length": 20
          }
        ]
      },
      "src/libraries/actions/SellCreditLimit.sol": {
        "SellCreditLimit": [
          {
            "start": 10368,
            "length": 20
          },
          {
            "start": 10467,
            "length": 20
          }
        ]
      },
      "src/libraries/actions/SellCreditMarket.sol": {
        "SellCreditMarket": [
          {
            "start": 5548,
            "length": 20
          },
          {
            "start": 10562,
            "length": 20
          },
          {
            "start": 10664,
            "length": 20
          }
        ]
      },
      "src/libraries/actions/SetUserConfiguration.sol": {
        "SetUserConfiguration": [
          {
            "start": 4997,
            "length": 20
          },
          {
            "start": 5096,
            "length": 20
          }
        ]
      },
      "src/libraries/actions/UpdateConfig.sol": {
        "UpdateConfig": [
          {
            "start": 3090,
            "length": 20
          },
          {
            "start": 3189,
            "length": 20
          },
          {
            "start": 4198,
            "length": 20
          },
          {
            "start": 8817,
            "length": 20
          },
          {
            "start": 8949,
            "length": 20
          }
        ]
      },
      "src/libraries/actions/Withdraw.sol": {
        "Withdraw": [
          {
            "start": 4350,
            "length": 20
          },
          {
            "start": 4449,
            "length": 20
          }
        ]
      }
    }
  },
  "methodIdentifiers": {
    "DEFAULT_ADMIN_ROLE()": "a217fddf",
    "UPGRADE_INTERFACE_VERSION()": "ad3cb1cc",
    "buyCreditLimit((uint256,(uint256[],int256[],uint256[])))": "3746f858",
    "buyCreditMarket((address,uint256,uint256,uint256,uint256,uint256,bool))": "19a7359b",
    "claim((uint256))": "f45bf01c",
    "collateralRatio(address)": "ca40742c",
    "compensate((uint256,uint256,uint256))": "8e572776",
    "data()": "73d4a13a",
    "debtTokenAmountToCollateralTokenAmount(uint256)": "1970e5ea",
    "deposit((address,uint256,address))": "0cf8542f",
    "feeConfig()": "1e5eb1d0",
    "getBorrowOfferAPR(address,uint256)": "f85c3cd4",
    "getBuyCreditMarketSwapData((address,uint256,uint256,uint256,uint256,uint256,bool))": "2ed28ba2",
    "getCreditPosition(uint256)": "76c1b82f",
    "getDebtPosition(uint256)": "b5ec7487",
    "getDebtPositionAssignedCollateral(uint256)": "54137c7e",
    "getLoanOfferAPR(address,uint256)": "2cc884c5",
    "getLoanStatus(uint256)": "1c4fd41c",
    "getPositionsCount()": "1ca3b0cb",
    "getRoleAdmin(bytes32)": "248a9ca3",
    "getSellCreditMarketSwapData((address,uint256,uint256,uint256,uint256,uint256,bool))": "37501921",
    "getSwapFee(uint256,uint256)": "2c60185c",
    "getUserView(address)": "5cbc51eb",
    "grantRole(bytes32,address)": "2f2ff15d",
    "hasRole(bytes32,address)": "91d14854",
    "initialize(address,(uint256,uint256,uint256,uint256,uint256,address),(uint256,uint256,uint256,uint256,uint256,uint256),(address,uint64),(address,address,address,address,address))": "61a10df2",
    "isCreditPositionId(uint256)": "ccc96815",
    "isDebtPositionId(uint256)": "64eb0a71",
    "isDebtPositionLiquidatable(uint256)": "e5af06ce",
    "isUserUnderwater(address)": "f731a57a",
    "liquidate((uint256,uint256,uint256))": "e05001f5",
    "liquidateWithReplacement((uint256,address,uint256,uint256,uint256))": "3e3c119b",
    "multicall(bytes[])": "ac9650d8",
    "oracle()": "7dc0d1d0",
    "pause()": "8456cb59",
    "paused()": "5c975abb",
    "proxiableUUID()": "52d1902d",
    "renounceRole(bytes32,address)": "36568abe",
    "repay((uint256,address))": "7f417c06",
    "revokeRole(bytes32,address)": "d547741f",
    "riskConfig()": "7c90a6ca",
    "selfLiquidate((uint256))": "fd17174a",
    "sellCreditLimit((uint256,(uint256[],int256[],uint256[])))": "ccd8d4d1",
    "sellCreditMarket((address,uint256,uint256,uint256,uint256,uint256,bool))": "d8d933a5",
    "setUserConfiguration((uint256,bool,bool,uint256[]))": "2e106f21",
    "setVariablePoolBorrowRate(uint128)": "4cbd882c",
    "supportsInterface(bytes4)": "01ffc9a7",
    "unpause()": "3f4ba83a",
    "updateConfig((string,uint256))": "0317b9df",
    "upgradeToAndCall(address,bytes)": "4f1ef286",
    "version()": "54fd4d50",
    "withdraw((address,uint256,address))": "2b4c9a20"
  },
  "id": 108
}