{
  "abi": [
    {
      "type": "constructor",
      "inputs": [],
      "stateMutability": "nonpayable"
    },
    {
      "type": "function",
      "name": "UPGRADE_INTERFACE_VERSION",
      "inputs": [],
      "outputs": [
        {
          "name": "",
          "type": "string",
          "internalType": "string"
        }
      ],
      "stateMutability": "view"
    },
    {
      "type": "function",
      "name": "acceptOwnership",
      "inputs": [],
      "outputs": [],
      "stateMutability": "nonpayable"
    },
    {
      "type": "function",
      "name": "addBorrowATokenV1_5",
      "inputs": [
        {
          "name": "borrowATokenV1_5",
          "type": "address",
          "internalType": "contract IERC20Metadata"
        }
      ],
      "outputs": [
        {
          "name": "existed",
          "type": "bool",
          "internalType": "bool"
        }
      ],
      "stateMutability": "nonpayable"
    },
    {
      "type": "function",
      "name": "addMarket",
      "inputs": [
        {
          "name": "market",
          "type": "address",
          "internalType": "contract ISize"
        }
      ],
      "outputs": [
        {
          "name": "existed",
          "type": "bool",
          "internalType": "bool"
        }
      ],
      "stateMutability": "nonpayable"
    },
    {
      "type": "function",
      "name": "addPriceFeed",
      "inputs": [
        {
          "name": "priceFeed",
          "type": "address",
          "internalType": "contract PriceFeed"
        }
      ],
      "outputs": [
        {
          "name": "existed",
          "type": "bool",
          "internalType": "bool"
        }
      ],
      "stateMutability": "nonpayable"
    },
    {
      "type": "function",
      "name": "createBorrowATokenV1_5",
      "inputs": [
        {
          "name": "variablePool",
          "type": "address",
          "internalType": "contract IPool"
        },
        {
          "name": "underlyingBorrowToken",
          "type": "address",
          "internalType": "contract IERC20Metadata"
        }
      ],
      "outputs": [
        {
          "name": "borrowATokenV1_5",
          "type": "address",
          "internalType": "contract NonTransferrableScaledTokenV1_5"
        }
      ],
      "stateMutability": "nonpayable"
    },
    {
      "type": "function",
      "name": "createMarket",
      "inputs": [
        {
          "name": "feeConfigParams",
          "type": "tuple",
          "internalType": "struct InitializeFeeConfigParams",
          "components": [
            {
              "name": "swapFeeAPR",
              "type": "uint256",
              "internalType": "uint256"
            },
            {
              "name": "fragmentationFee",
              "type": "uint256",
              "internalType": "uint256"
            },
            {
              "name": "liquidationRewardPercent",
              "type": "uint256",
              "internalType": "uint256"
            },
            {
              "name": "overdueCollateralProtocolPercent",
              "type": "uint256",
              "internalType": "uint256"
            },
            {
              "name": "collateralProtocolPercent",
              "type": "uint256",
              "internalType": "uint256"
            },
            {
              "name": "feeRecipient",
              "type": "address",
              "internalType": "address"
            }
          ]
        },
        {
          "name": "riskConfigParams",
          "type": "tuple",
          "internalType": "struct InitializeRiskConfigParams",
          "components": [
            {
              "name": "crOpening",
              "type": "uint256",
              "internalType": "uint256"
            },
            {
              "name": "crLiquidation",
              "type": "uint256",
              "internalType": "uint256"
            },
            {
              "name": "minimumCreditBorrowAToken",
              "type": "uint256",
              "internalType": "uint256"
            },
            {
              "name": "borrowATokenCap",
              "type": "uint256",
              "internalType": "uint256"
            },
            {
              "name": "minTenor",
              "type": "uint256",
              "internalType": "uint256"
            },
            {
              "name": "maxTenor",
              "type": "uint256",
              "internalType": "uint256"
            }
          ]
        },
        {
          "name": "oracleParams",
          "type": "tuple",
          "internalType": "struct InitializeOracleParams",
          "components": [
            {
              "name": "priceFeed",
              "type": "address",
              "internalType": "address"
            },
            {
              "name": "variablePoolBorrowRateStaleRateInterval",
              "type": "uint64",
              "internalType": "uint64"
            }
          ]
        },
        {
          "name": "dataParams",
          "type": "tuple",
          "internalType": "struct InitializeDataParams",
          "components": [
            {
              "name": "weth",
              "type": "address",
              "internalType": "address"
            },
            {
              "name": "underlyingCollateralToken",
              "type": "address",
              "internalType": "address"
            },
            {
              "name": "underlyingBorrowToken",
              "type": "address",
              "internalType": "address"
            },
            {
              "name": "variablePool",
              "type": "address",
              "internalType": "address"
            },
            {
              "name": "borrowATokenV1_5",
              "type": "address",
              "internalType": "address"
            }
          ]
        }
      ],
      "outputs": [
        {
          "name": "market",
          "type": "address",
          "internalType": "contract ISize"
        }
      ],
      "stateMutability": "nonpayable"
    },
    {
      "type": "function",
      "name": "createPriceFeed",
      "inputs": [
        {
          "name": "_priceFeedParams",
          "type": "tuple",
          "internalType": "struct PriceFeedParams",
          "components": [
            {
              "name": "uniswapV3Factory",
              "type": "address",
              "internalType": "contract IUniswapV3Factory"
            },
            {
              "name": "pool",
              "type": "address",
              "internalType": "contract IUniswapV3Pool"
            },
            {
              "name": "twapWindow",
              "type": "uint32",
              "internalType": "uint32"
            },
            {
              "name": "averageBlockTime",
              "type": "uint32",
              "internalType": "uint32"
            },
            {
              "name": "baseToken",
              "type": "address",
              "internalType": "contract IERC20Metadata"
            },
            {
              "name": "quoteToken",
              "type": "address",
              "internalType": "contract IERC20Metadata"
            },
            {
              "name": "baseAggregator",
              "type": "address",
              "internalType": "contract AggregatorV3Interface"
            },
            {
              "name": "quoteAggregator",
              "type": "address",
              "internalType": "contract AggregatorV3Interface"
            },
            {
              "name": "baseStalePriceInterval",
              "type": "uint256",
              "internalType": "uint256"
            },
            {
              "name": "quoteStalePriceInterval",
              "type": "uint256",
              "internalType": "uint256"
            },
            {
              "name": "sequencerUptimeFeed",
              "type": "address",
              "internalType": "contract AggregatorV3Interface"
            }
          ]
        }
      ],
      "outputs": [
        {
          "name": "priceFeed",
          "type": "address",
          "internalType": "contract PriceFeed"
        }
      ],
      "stateMutability": "nonpayable"
    },
    {
      "type": "function",
      "name": "getBorrowATokenV1_5",
      "inputs": [
        {
          "name": "index",
          "type": "uint256",
          "internalType": "uint256"
        }
      ],
      "outputs": [
        {
          "name": "",
          "type": "address",
          "internalType": "contract IERC20Metadata"
        }
      ],
      "stateMutability": "view"
    },
    {
      "type": "function",
      "name": "getBorrowATokenV1_5Descriptions",
      "inputs": [],
      "outputs": [
        {
          "name": "descriptions",
          "type": "string[]",
          "internalType": "string[]"
        }
      ],
      "stateMutability": "view"
    },
    {
      "type": "function",
      "name": "getBorrowATokensV1_5",
      "inputs": [],
      "outputs": [
        {
          "name": "_borrowATokensV1_5",
          "type": "address[]",
          "internalType": "contract IERC20Metadata[]"
        }
      ],
      "stateMutability": "view"
    },
    {
      "type": "function",
      "name": "getBorrowATokensV1_5Count",
      "inputs": [],
      "outputs": [
        {
          "name": "",
          "type": "uint256",
          "internalType": "uint256"
        }
      ],
      "stateMutability": "view"
    },
    {
      "type": "function",
      "name": "getMarket",
      "inputs": [
        {
          "name": "index",
          "type": "uint256",
          "internalType": "uint256"
        }
      ],
      "outputs": [
        {
          "name": "",
          "type": "address",
          "internalType": "contract ISize"
        }
      ],
      "stateMutability": "view"
    },
    {
      "type": "function",
      "name": "getMarketDescriptions",
      "inputs": [],
      "outputs": [
        {
          "name": "descriptions",
          "type": "string[]",
          "internalType": "string[]"
        }
      ],
      "stateMutability": "view"
    },
    {
      "type": "function",
      "name": "getMarkets",
      "inputs": [],
      "outputs": [
        {
          "name": "_markets",
          "type": "address[]",
          "internalType": "contract ISize[]"
        }
      ],
      "stateMutability": "view"
    },
    {
      "type": "function",
      "name": "getMarketsCount",
      "inputs": [],
      "outputs": [
        {
          "name": "",
          "type": "uint256",
          "internalType": "uint256"
        }
      ],
      "stateMutability": "view"
    },
    {
      "type": "function",
      "name": "getPriceFeed",
      "inputs": [
        {
          "name": "index",
          "type": "uint256",
          "internalType": "uint256"
        }
      ],
      "outputs": [
        {
          "name": "",
          "type": "address",
          "internalType": "contract PriceFeed"
        }
      ],
      "stateMutability": "view"
    },
    {
      "type": "function",
      "name": "getPriceFeedDescriptions",
      "inputs": [],
      "outputs": [
        {
          "name": "descriptions",
          "type": "string[]",
          "internalType": "string[]"
        }
      ],
      "stateMutability": "view"
    },
    {
      "type": "function",
      "name": "getPriceFeeds",
      "inputs": [],
      "outputs": [
        {
          "name": "_priceFeeds",
          "type": "address[]",
          "internalType": "contract PriceFeed[]"
        }
      ],
      "stateMutability": "view"
    },
    {
      "type": "function",
      "name": "getPriceFeedsCount",
      "inputs": [],
      "outputs": [
        {
          "name": "",
          "type": "uint256",
          "internalType": "uint256"
        }
      ],
      "stateMutability": "view"
    },
    {
      "type": "function",
      "name": "initialize",
      "inputs": [
        {
          "name": "_owner",
          "type": "address",
          "internalType": "address"
        }
      ],
      "outputs": [],
      "stateMutability": "nonpayable"
    },
    {
      "type": "function",
      "name": "isBorrowATokenV1_5",
      "inputs": [
        {
          "name": "candidate",
          "type": "address",
          "internalType": "address"
        }
      ],
      "outputs": [
        {
          "name": "",
          "type": "bool",
          "internalType": "bool"
        }
      ],
      "stateMutability": "view"
    },
    {
      "type": "function",
      "name": "isMarket",
      "inputs": [
        {
          "name": "candidate",
          "type": "address",
          "internalType": "address"
        }
      ],
      "outputs": [
        {
          "name": "",
          "type": "bool",
          "internalType": "bool"
        }
      ],
      "stateMutability": "view"
    },
    {
      "type": "function",
      "name": "isPriceFeed",
      "inputs": [
        {
          "name": "candidate",
          "type": "address",
          "internalType": "address"
        }
      ],
      "outputs": [
        {
          "name": "",
          "type": "bool",
          "internalType": "bool"
        }
      ],
      "stateMutability": "view"
    },
    {
      "type": "function",
      "name": "owner",
      "inputs": [],
      "outputs": [
        {
          "name": "",
          "type": "address",
          "internalType": "address"
        }
      ],
      "stateMutability": "view"
    },
    {
      "type": "function",
      "name": "pendingOwner",
      "inputs": [],
      "outputs": [
        {
          "name": "",
          "type": "address",
          "internalType": "address"
        }
      ],
      "stateMutability": "view"
    },
    {
      "type": "function",
      "name": "proxiableUUID",
      "inputs": [],
      "outputs": [
        {
          "name": "",
          "type": "bytes32",
          "internalType": "bytes32"
        }
      ],
      "stateMutability": "view"
    },
    {
      "type": "function",
      "name": "removeBorrowATokenV1_5",
      "inputs": [
        {
          "name": "borrowATokenV1_5",
          "type": "address",
          "internalType": "contract IERC20Metadata"
        }
      ],
      "outputs": [
        {
          "name": "existed",
          "type": "bool",
          "internalType": "bool"
        }
      ],
      "stateMutability": "nonpayable"
    },
    {
      "type": "function",
      "name": "removeMarket",
      "inputs": [
        {
          "name": "market",
          "type": "address",
          "internalType": "contract ISize"
        }
      ],
      "outputs": [
        {
          "name": "existed",
          "type": "bool",
          "internalType": "bool"
        }
      ],
      "stateMutability": "nonpayable"
    },
    {
      "type": "function",
      "name": "removePriceFeed",
      "inputs": [
        {
          "name": "priceFeed",
          "type": "address",
          "internalType": "contract PriceFeed"
        }
      ],
      "outputs": [
        {
          "name": "existed",
          "type": "bool",
          "internalType": "bool"
        }
      ],
      "stateMutability": "nonpayable"
    },
    {
      "type": "function",
      "name": "renounceOwnership",
      "inputs": [],
      "outputs": [],
      "stateMutability": "nonpayable"
    },
    {
      "type": "function",
      "name": "transferOwnership",
      "inputs": [
        {
          "name": "newOwner",
          "type": "address",
          "internalType": "address"
        }
      ],
      "outputs": [],
      "stateMutability": "nonpayable"
    },
    {
      "type": "function",
      "name": "upgradeToAndCall",
      "inputs": [
        {
          "name": "newImplementation",
          "type": "address",
          "internalType": "address"
        },
        {
          "name": "data",
          "type": "bytes",
          "internalType": "bytes"
        }
      ],
      "outputs": [],
      "stateMutability": "payable"
    },
    {
      "type": "function",
      "name": "version",
      "inputs": [],
      "outputs": [
        {
          "name": "",
          "type": "string",
          "internalType": "string"
        }
      ],
      "stateMutability": "pure"
    },
    {
      "type": "event",
      "name": "BorrowATokenV1_5Added",
      "inputs": [
        {
          "name": "borrowATokenV1_5",
          "type": "address",
          "indexed": true,
          "internalType": "address"
        },
        {
          "name": "existed",
          "type": "bool",
          "indexed": true,
          "internalType": "bool"
        }
      ],
      "anonymous": false
    },
    {
      "type": "event",
      "name": "BorrowATokenV1_5Removed",
      "inputs": [
        {
          "name": "borrowATokenV1_5",
          "type": "address",
          "indexed": true,
          "internalType": "address"
        },
        {
          "name": "existed",
          "type": "bool",
          "indexed": true,
          "internalType": "bool"
        }
      ],
      "anonymous": false
    },
    {
      "type": "event",
      "name": "Initialized",
      "inputs": [
        {
          "name": "version",
          "type": "uint64",
          "indexed": false,
          "internalType": "uint64"
        }
      ],
      "anonymous": false
    },
    {
      "type": "event",
      "name": "MarketAdded",
      "inputs": [
        {
          "name": "market",
          "type": "address",
          "indexed": true,
          "internalType": "address"
        },
        {
          "name": "existed",
          "type": "bool",
          "indexed": true,
          "internalType": "bool"
        }
      ],
      "anonymous": false
    },
    {
      "type": "event",
      "name": "MarketRemoved",
      "inputs": [
        {
          "name": "market",
          "type": "address",
          "indexed": true,
          "internalType": "address"
        },
        {
          "name": "existed",
          "type": "bool",
          "indexed": true,
          "internalType": "bool"
        }
      ],
      "anonymous": false
    },
    {
      "type": "event",
      "name": "OwnershipTransferStarted",
      "inputs": [
        {
          "name": "previousOwner",
          "type": "address",
          "indexed": true,
          "internalType": "address"
        },
        {
          "name": "newOwner",
          "type": "address",
          "indexed": true,
          "internalType": "address"
        }
      ],
      "anonymous": false
    },
    {
      "type": "event",
      "name": "OwnershipTransferred",
      "inputs": [
        {
          "name": "previousOwner",
          "type": "address",
          "indexed": true,
          "internalType": "address"
        },
        {
          "name": "newOwner",
          "type": "address",
          "indexed": true,
          "internalType": "address"
        }
      ],
      "anonymous": false
    },
    {
      "type": "event",
      "name": "PriceFeedAdded",
      "inputs": [
        {
          "name": "priceFeed",
          "type": "address",
          "indexed": true,
          "internalType": "address"
        },
        {
          "name": "existed",
          "type": "bool",
          "indexed": true,
          "internalType": "bool"
        }
      ],
      "anonymous": false
    },
    {
      "type": "event",
      "name": "PriceFeedRemoved",
      "inputs": [
        {
          "name": "priceFeed",
          "type": "address",
          "indexed": true,
          "internalType": "address"
        },
        {
          "name": "existed",
          "type": "bool",
          "indexed": true,
          "internalType": "bool"
        }
      ],
      "anonymous": false
    },
    {
      "type": "event",
      "name": "Upgraded",
      "inputs": [
        {
          "name": "implementation",
          "type": "address",
          "indexed": true,
          "internalType": "address"
        }
      ],
      "anonymous": false
    },
    {
      "type": "error",
      "name": "AddressEmptyCode",
      "inputs": [
        {
          "name": "target",
          "type": "address",
          "internalType": "address"
        }
      ]
    },
    {
      "type": "error",
      "name": "ERC1967InvalidImplementation",
      "inputs": [
        {
          "name": "implementation",
          "type": "address",
          "internalType": "address"
        }
      ]
    },
    {
      "type": "error",
      "name": "ERC1967NonPayable",
      "inputs": []
    },
    {
      "type": "error",
      "name": "FailedInnerCall",
      "inputs": []
    },
    {
      "type": "error",
      "name": "InvalidInitialization",
      "inputs": []
    },
    {
      "type": "error",
      "name": "NULL_ADDRESS",
      "inputs": []
    },
    {
      "type": "error",
      "name": "NotInitializing",
      "inputs": []
    },
    {
      "type": "error",
      "name": "OwnableInvalidOwner",
      "inputs": [
        {
          "name": "owner",
          "type": "address",
          "internalType": "address"
        }
      ]
    },
    {
      "type": "error",
      "name": "OwnableUnauthorizedAccount",
      "inputs": [
        {
          "name": "account",
          "type": "address",
          "internalType": "address"
        }
      ]
    },
    {
      "type": "error",
      "name": "UUPSUnauthorizedCallContext",
      "inputs": []
    },
    {
      "type": "error",
      "name": "UUPSUnsupportedProxiableUUID",
      "inputs": [
        {
          "name": "slot",
          "type": "bytes32",
          "internalType": "bytes32"
        }
      ]
    }
  ],
  "bytecode": {
    "object": "0x60a06040523073ffffffffffffffffffffffffffffffffffffffff1660809073ffffffffffffffffffffffffffffffffffffffff1681525034801562000043575f80fd5b50620000546200005a60201b60201c565b620001c4565b5f6200006b6200015e60201b60201c565b9050805f0160089054906101000a900460ff1615620000b6576040517ff92ee8a900000000000000000000000000000000000000000000000000000000815260040160405180910390fd5b67ffffffffffffffff8016815f015f9054906101000a900467ffffffffffffffff1667ffffffffffffffff16146200015b5767ffffffffffffffff815f015f6101000a81548167ffffffffffffffff021916908367ffffffffffffffff1602179055507fc7f505b2f371ae2175ee4913f4499e1f2633a7b5936321eed1cdaeb6115181d267ffffffffffffffff604051620001529190620001a9565b60405180910390a15b50565b5f7ff0c57e16840df040f15088dc2f81fe391c3923bec73e23a9662efc9c229c6a00905090565b5f67ffffffffffffffff82169050919050565b620001a38162000185565b82525050565b5f602082019050620001be5f83018462000198565b92915050565b608051614568620001eb5f395f8181611e7501528181611eca015261208401526145685ff3fe6080604052600436106101f8575f3560e01c806379ba50971161010c578063c4d66de81161009f578063ec2c90161161006e578063ec2c90161461075e578063ef09657214610788578063f2fde38b146107c4578063f91d443f146107ec578063fceb002414610828576101f8565b8063c4d66de814610694578063db913236146106bc578063e30c3978146106f8578063eb44fdd314610722576101f8565b806393e30633116100db57806393e30633146105c8578063ad3cb1cc14610604578063b4208ef21461062e578063b762114514610658576101f8565b806379ba50971461052257806389fd57b1146105385780638da5cb5b146105625780638e6ee8e51461058c576101f8565b806354fd4d501161018f5780636c59803b1161015e5780636c59803b146104525780636ca42ae31461047c5780636ec934da146104a6578063715018a6146104e25780637643d7ec146104f8576101f8565b806354fd4d501461038657806357a94beb146103b05780635a58a812146103ec5780635dbd610214610416576101f8565b806327fa35c3116101cb57806327fa35c3146102da578063416f33c1146103045780634f1ef2861461034057806352d1902d1461035c576101f8565b8063025e0812146101fc57806307d4e090146102385780630bb6842d1461027457806317180f34146102b0575b5f80fd5b348015610207575f80fd5b50610222600480360381019061021d9190612bef565b610864565b60405161022f9190612c34565b60405180910390f35b348015610243575f80fd5b5061025e60048036038101906102599190612cc9565b61087d565b60405161026b9190612d8b565b60405180910390f35b34801561027f575f80fd5b5061029a60048036038101906102959190612ddf565b61091f565b6040516102a79190612c34565b60405180910390f35b3480156102bb575f80fd5b506102c4610938565b6040516102d19190612e22565b60405180910390f35b3480156102e5575f80fd5b506102ee610948565b6040516102fb9190612e22565b60405180910390f35b34801561030f575f80fd5b5061032a600480360381019061032591906130e4565b610957565b6040516103379190613130565b60405180910390f35b61035a60048036038101906103559190613227565b6109e7565b005b348015610367575f80fd5b50610370610a06565b60405161037d9190613299565b60405180910390f35b348015610391575f80fd5b5061039a610a37565b6040516103a7919061332c565b60405180910390f35b3480156103bb575f80fd5b506103d660048036038101906103d1919061334c565b610a74565b6040516103e39190612c34565b60405180910390f35b3480156103f7575f80fd5b50610400610a90565b60405161040d9190612e22565b60405180910390f35b348015610421575f80fd5b5061043c60048036038101906104379190612bef565b610aa0565b6040516104499190612c34565b60405180910390f35b34801561045d575f80fd5b50610466610b6f565b604051610473919061347a565b60405180910390f35b348015610487575f80fd5b50610490610c8c565b60405161049d9190613551565b60405180910390f35b3480156104b1575f80fd5b506104cc60048036038101906104c7919061334c565b610d5f565b6040516104d99190612c34565b60405180910390f35b3480156104ed575f80fd5b506104f6610d7a565b005b348015610503575f80fd5b5061050c610d8d565b604051610519919061347a565b60405180910390f35b34801561052d575f80fd5b5061053661111d565b005b348015610543575f80fd5b5061054c6111ab565b6040516105599190613629565b60405180910390f35b34801561056d575f80fd5b5061057661127e565b6040516105839190613658565b60405180910390f35b348015610597575f80fd5b506105b260048036038101906105ad91906136ac565b6112b3565b6040516105bf919061370a565b60405180910390f35b3480156105d3575f80fd5b506105ee60048036038101906105e9919061375e565b61134f565b6040516105fb9190612c34565b60405180910390f35b34801561060f575f80fd5b50610618611368565b604051610625919061332c565b60405180910390f35b348015610639575f80fd5b506106426113a1565b60405161064f919061347a565b60405180910390f35b348015610663575f80fd5b5061067e6004803603810190610679919061334c565b611626565b60405161068b9190612c34565b60405180910390f35b34801561069f575f80fd5b506106ba60048036038101906106b5919061334c565b611642565b005b3480156106c7575f80fd5b506106e260048036038101906106dd919061375e565b6117d3565b6040516106ef9190612c34565b60405180910390f35b348015610703575f80fd5b5061070c6118a1565b6040516107199190613658565b60405180910390f35b34801561072d575f80fd5b5061074860048036038101906107439190613789565b6118d6565b6040516107559190612d8b565b60405180910390f35b348015610769575f80fd5b506107726118f1565b60405161077f919061385b565b60405180910390f35b348015610793575f80fd5b506107ae60048036038101906107a99190613789565b6119c2565b6040516107bb919061388a565b60405180910390f35b3480156107cf575f80fd5b506107ea60048036038101906107e5919061334c565b6119de565b005b3480156107f7575f80fd5b50610812600480360381019061080d9190613789565b611a97565b60405161081f9190613130565b60405180910390f35b348015610833575f80fd5b5061084e60048036038101906108499190612ddf565b611ab3565b60405161085b9190612c34565b60405180910390f35b5f61086d611b82565b61087682611c09565b9050919050565b5f610886611b82565b73__$0cec9b92a4a5041913558f257920b03236$__63310657f96108a861127e565b878787876040518663ffffffff1660e01b81526004016108cc959493929190613b7b565b602060405180830381865af41580156108e7573d5f803e3d5ffd5b505050506040513d601f19601f8201168201806040525081019061090b9190613be3565b905061091681611cd1565b50949350505050565b5f610928611b82565b61093182611d98565b9050919050565b5f6109436002611e60565b905090565b5f6109525f611e60565b905090565b5f610960611b82565b73__$929f8e7f755903a09e0d9854708adfe429$__6328b6d972836040518263ffffffff1660e01b81526004016109979190613d6b565b602060405180830381865af41580156109b2573d5f803e3d5ffd5b505050506040513d601f19601f820116820180604052508101906109d69190613d99565b90506109e181611d98565b50919050565b6109ef611e73565b6109f882611f59565b610a028282611f64565b5050565b5f610a0f612082565b7f360894a13ba1a3210667c828492db98dca3e2076cc3735a920a3ca505d382bbc5f1b905090565b60606040518060400160405280600681526020017f76312e352e310000000000000000000000000000000000000000000000000000815250905090565b5f610a8982600261210990919063ffffffff16565b9050919050565b5f610a9b6004611e60565b905090565b5f610aa9611b82565b5f73ffffffffffffffffffffffffffffffffffffffff168273ffffffffffffffffffffffffffffffffffffffff1603610b0e576040517fde0ce17d00000000000000000000000000000000000000000000000000000000815260040160405180910390fd5b610b2282600461213690919063ffffffff16565b90508015158273ffffffffffffffffffffffffffffffffffffffff167f8d73d27027613eea51b73041fbb3e53c27e7fed218a338331989912b6c4b4be860405160405180910390a3919050565b6060610b7b6004611e60565b67ffffffffffffffff811115610b9457610b93612e4f565b5b604051908082528060200260200182016040528015610bc757816020015b6060815260200190600190039081610bb25790505b5090505f5b8151811015610c88575f610bea82600461216390919063ffffffff16565b90508073ffffffffffffffffffffffffffffffffffffffff166395d89b416040518163ffffffff1660e01b81526004015f60405180830381865afa158015610c34573d5f803e3d5ffd5b505050506040513d5f823e3d601f19601f82011682018060405250810190610c5c9190613e62565b838381518110610c6f57610c6e613ea9565b5b6020026020010181905250508080600101915050610bcc565b5090565b6060610c986002611e60565b67ffffffffffffffff811115610cb157610cb0612e4f565b5b604051908082528060200260200182016040528015610cdf5781602001602082028036833780820191505090505b5090505f5b8151811015610d5b57610d0181600261216390919063ffffffff16565b828281518110610d1457610d13613ea9565b5b602002602001019073ffffffffffffffffffffffffffffffffffffffff16908173ffffffffffffffffffffffffffffffffffffffff16815250508080600101915050610ce4565b5090565b5f610d73825f61210990919063ffffffff16565b9050919050565b610d82611b82565b610d8b5f61217a565b565b6060610d985f611e60565b67ffffffffffffffff811115610db157610db0612e4f565b5b604051908082528060200260200182016040528015610de457816020015b6060815260200190600190039081610dcf5790505b5090505f5b8151811015611119575f610e06825f61216390919063ffffffff16565b90505f610e8d60648373ffffffffffffffffffffffffffffffffffffffff16637c90a6ca6040518163ffffffff1660e01b815260040160c060405180830381865afa158015610e57573d5f803e3d5ffd5b505050506040513d601f19601f82011682018060405250810190610e7b9190613f87565b60200151670de0b6b3a76400006121b7565b90508173ffffffffffffffffffffffffffffffffffffffff166373d4a13a6040518163ffffffff1660e01b815260040161010060405180830381865afa158015610ed9573d5f803e3d5ffd5b505050506040513d601f19601f82011682018060405250810190610efd9190614117565b6040015173ffffffffffffffffffffffffffffffffffffffff166395d89b416040518163ffffffff1660e01b81526004015f60405180830381865afa158015610f48573d5f803e3d5ffd5b505050506040513d5f823e3d601f19601f82011682018060405250810190610f709190613e62565b8273ffffffffffffffffffffffffffffffffffffffff166373d4a13a6040518163ffffffff1660e01b815260040161010060405180830381865afa158015610fba573d5f803e3d5ffd5b505050506040513d601f19601f82011682018060405250810190610fde9190614117565b6060015173ffffffffffffffffffffffffffffffffffffffff166395d89b416040518163ffffffff1660e01b81526004015f60405180830381865afa158015611029573d5f803e3d5ffd5b505050506040513d5f823e3d601f19601f820116820180604052508101906110519190613e62565b61105a836121cc565b8473ffffffffffffffffffffffffffffffffffffffff166354fd4d506040518163ffffffff1660e01b81526004015f60405180830381865afa1580156110a2573d5f803e3d5ffd5b505050506040513d5f823e3d601f19601f820116820180604052508101906110ca9190613e62565b6040516020016110dd94939291906141c9565b6040516020818303038152906040528484815181106110ff576110fe613ea9565b5b602002602001018190525050508080600101915050610de9565b5090565b5f611126612296565b90508073ffffffffffffffffffffffffffffffffffffffff166111476118a1565b73ffffffffffffffffffffffffffffffffffffffff161461119f57806040517f118cdaa70000000000000000000000000000000000000000000000000000000081526004016111969190613658565b60405180910390fd5b6111a88161217a565b50565b60606111b76004611e60565b67ffffffffffffffff8111156111d0576111cf612e4f565b5b6040519080825280602002602001820160405280156111fe5781602001602082028036833780820191505090505b5090505f5b815181101561127a5761122081600461216390919063ffffffff16565b82828151811061123357611232613ea9565b5b602002602001019073ffffffffffffffffffffffffffffffffffffffff16908173ffffffffffffffffffffffffffffffffffffffff16815250508080600101915050611203565b5090565b5f8061128861229d565b9050805f015f9054906101000a900473ffffffffffffffffffffffffffffffffffffffff1691505090565b5f6112bc611b82565b73__$9de08c5fadaa7cf6906224c71f8a8fe49b$__634299eb2d6112de61127e565b85856040518463ffffffff1660e01b81526004016112fe93929190614271565b602060405180830381865af4158015611319573d5f803e3d5ffd5b505050506040513d601f19601f8201168201806040525081019061133d91906142a6565b905061134881611c09565b5092915050565b5f611358611b82565b61136182611cd1565b9050919050565b6040518060400160405280600581526020017f352e302e3000000000000000000000000000000000000000000000000000000081525081565b60606113ad6002611e60565b67ffffffffffffffff8111156113c6576113c5612e4f565b5b6040519080825280602002602001820160405280156113f957816020015b60608152602001906001900390816113e45790505b5090505f5b8151811015611622575f61141c82600261216390919063ffffffff16565b90508073ffffffffffffffffffffffffffffffffffffffff16635001f3b56040518163ffffffff1660e01b8152600401602060405180830381865afa158015611467573d5f803e3d5ffd5b505050506040513d601f19601f8201168201806040525081019061148b91906142e5565b73ffffffffffffffffffffffffffffffffffffffff16637284e4166040518163ffffffff1660e01b81526004015f60405180830381865afa1580156114d2573d5f803e3d5ffd5b505050506040513d5f823e3d601f19601f820116820180604052508101906114fa9190613e62565b8173ffffffffffffffffffffffffffffffffffffffff1663999b93af6040518163ffffffff1660e01b8152600401602060405180830381865afa158015611543573d5f803e3d5ffd5b505050506040513d601f19601f8201168201806040525081019061156791906142e5565b73ffffffffffffffffffffffffffffffffffffffff16637284e4166040518163ffffffff1660e01b81526004015f60405180830381865afa1580156115ae573d5f803e3d5ffd5b505050506040513d5f823e3d601f19601f820116820180604052508101906115d69190613e62565b6040516020016115e7929190614336565b60405160208183030381529060405283838151811061160957611608613ea9565b5b60200260200101819052505080806001019150506113fe565b5090565b5f61163b82600461210990919063ffffffff16565b9050919050565b5f61164b6122c4565b90505f815f0160089054906101000a900460ff161590505f825f015f9054906101000a900467ffffffffffffffff1690505f808267ffffffffffffffff161480156116935750825b90505f60018367ffffffffffffffff161480156116c657505f3073ffffffffffffffffffffffffffffffffffffffff163b145b9050811580156116d4575080155b1561170b576040517ff92ee8a900000000000000000000000000000000000000000000000000000000815260040160405180910390fd5b6001855f015f6101000a81548167ffffffffffffffff021916908367ffffffffffffffff1602179055508315611758576001855f0160086101000a81548160ff0219169083151502179055505b611761866122eb565b6117696122ff565b611771612309565b83156117cb575f855f0160086101000a81548160ff0219169083151502179055507fc7f505b2f371ae2175ee4913f4499e1f2633a7b5936321eed1cdaeb6115181d260016040516117c291906143b0565b60405180910390a15b505050505050565b5f6117dc611b82565b5f73ffffffffffffffffffffffffffffffffffffffff168273ffffffffffffffffffffffffffffffffffffffff1603611841576040517fde0ce17d00000000000000000000000000000000000000000000000000000000815260040160405180910390fd5b611854825f61213690919063ffffffff16565b90508015158273ffffffffffffffffffffffffffffffffffffffff167f0e4a8f27c6352e6fe6149b046737df5653aa907ab5f60a2e6f44b9fbe74d36fa60405160405180910390a3919050565b5f806118ab612313565b9050805f015f9054906101000a900473ffffffffffffffffffffffffffffffffffffffff1691505090565b5f6118ea825f61216390919063ffffffff16565b9050919050565b60606118fc5f611e60565b67ffffffffffffffff81111561191557611914612e4f565b5b6040519080825280602002602001820160405280156119435781602001602082028036833780820191505090505b5090505f5b81518110156119be57611964815f61216390919063ffffffff16565b82828151811061197757611976613ea9565b5b602002602001019073ffffffffffffffffffffffffffffffffffffffff16908173ffffffffffffffffffffffffffffffffffffffff16815250508080600101915050611948565b5090565b5f6119d782600461216390919063ffffffff16565b9050919050565b6119e6611b82565b5f6119ef612313565b905081815f015f6101000a81548173ffffffffffffffffffffffffffffffffffffffff021916908373ffffffffffffffffffffffffffffffffffffffff1602179055508173ffffffffffffffffffffffffffffffffffffffff16611a5161127e565b73ffffffffffffffffffffffffffffffffffffffff167f38d16b8cac22d99fc7c124b9cd0de2d3fa1faef420bfe791d8c362d765e2270060405160405180910390a35050565b5f611aac82600261216390919063ffffffff16565b9050919050565b5f611abc611b82565b5f73ffffffffffffffffffffffffffffffffffffffff168273ffffffffffffffffffffffffffffffffffffffff1603611b21576040517fde0ce17d00000000000000000000000000000000000000000000000000000000815260040160405180910390fd5b611b3582600261213690919063ffffffff16565b90508015158273ffffffffffffffffffffffffffffffffffffffff167f4192bb627423ed9ad89a0007e7b220e804aeac006b70f9f34283ad4f475b156e60405160405180910390a3919050565b611b8a612296565b73ffffffffffffffffffffffffffffffffffffffff16611ba861127e565b73ffffffffffffffffffffffffffffffffffffffff1614611c0757611bcb612296565b6040517f118cdaa7000000000000000000000000000000000000000000000000000000008152600401611bfe9190613658565b60405180910390fd5b565b5f8073ffffffffffffffffffffffffffffffffffffffff168273ffffffffffffffffffffffffffffffffffffffff1603611c6f576040517fde0ce17d00000000000000000000000000000000000000000000000000000000815260040160405180910390fd5b611c8382600461233a90919063ffffffff16565b1590508015158273ffffffffffffffffffffffffffffffffffffffff167f8728dad4104402ec48bfe4e6dbda57ccb04fde1b4c7d2781716125a6203d717d60405160405180910390a3919050565b5f8073ffffffffffffffffffffffffffffffffffffffff168273ffffffffffffffffffffffffffffffffffffffff1603611d37576040517fde0ce17d00000000000000000000000000000000000000000000000000000000815260040160405180910390fd5b611d4a825f61233a90919063ffffffff16565b1590508015158273ffffffffffffffffffffffffffffffffffffffff167f31b5222362b7d52d7e24d96723c4b09a0043f8b859a4eaeefd5c69c6c8ca587760405160405180910390a3919050565b5f8073ffffffffffffffffffffffffffffffffffffffff168273ffffffffffffffffffffffffffffffffffffffff1603611dfe576040517fde0ce17d00000000000000000000000000000000000000000000000000000000815260040160405180910390fd5b611e1282600261233a90919063ffffffff16565b1590508015158273ffffffffffffffffffffffffffffffffffffffff167f8ed7f0e9b2ee05a88d7dead0712832e6b8c32512e38cef5ee45c4f1816af204c60405160405180910390a3919050565b5f611e6c825f01612367565b9050919050565b7f000000000000000000000000000000000000000000000000000000000000000073ffffffffffffffffffffffffffffffffffffffff163073ffffffffffffffffffffffffffffffffffffffff161480611f2057507f000000000000000000000000000000000000000000000000000000000000000073ffffffffffffffffffffffffffffffffffffffff16611f07612376565b73ffffffffffffffffffffffffffffffffffffffff1614155b15611f57576040517fe07c8dba00000000000000000000000000000000000000000000000000000000815260040160405180910390fd5b565b611f61611b82565b50565b8173ffffffffffffffffffffffffffffffffffffffff166352d1902d6040518163ffffffff1660e01b8152600401602060405180830381865afa925050508015611fcc57506040513d601f19601f82011682018060405250810190611fc991906143f3565b60015b61200d57816040517f4c9c8ce30000000000000000000000000000000000000000000000000000000081526004016120049190613658565b60405180910390fd5b7f360894a13ba1a3210667c828492db98dca3e2076cc3735a920a3ca505d382bbc5f1b811461207357806040517faa1d49a400000000000000000000000000000000000000000000000000000000815260040161206a9190613299565b60405180910390fd5b61207d83836123c9565b505050565b7f000000000000000000000000000000000000000000000000000000000000000073ffffffffffffffffffffffffffffffffffffffff163073ffffffffffffffffffffffffffffffffffffffff1614612107576040517fe07c8dba00000000000000000000000000000000000000000000000000000000815260040160405180910390fd5b565b5f61212e835f018373ffffffffffffffffffffffffffffffffffffffff165f1b61243b565b905092915050565b5f61215b835f018373ffffffffffffffffffffffffffffffffffffffff165f1b61245b565b905092915050565b5f612170835f0183612557565b5f1c905092915050565b5f612183612313565b9050805f015f6101000a81549073ffffffffffffffffffffffffffffffffffffffff02191690556121b38261257e565b5050565b5f6121c384848461264f565b90509392505050565b60605f60016121da8461267a565b0190505f8167ffffffffffffffff8111156121f8576121f7612e4f565b5b6040519080825280601f01601f19166020018201604052801561222a5781602001600182028036833780820191505090505b5090505f82602001820190505b60011561228b578080600190039150507f3031323334353637383961626364656600000000000000000000000000000000600a86061a8153600a85816122805761227f61441e565b5b0494505f8503612237575b819350505050919050565b5f33905090565b5f7f9016d09d72d40fdae2fd8ceac6b6234c7706214fd39c1cd1e609a0528c199300905090565b5f7ff0c57e16840df040f15088dc2f81fe391c3923bec73e23a9662efc9c229c6a00905090565b6122f36127cb565b6122fc8161280b565b50565b6123076127cb565b565b6123116127cb565b565b5f7f237e158222e3e6968b72b9db0d8043aacf074ad9f650f0d1606b4d82ee432c00905090565b5f61235f835f018373ffffffffffffffffffffffffffffffffffffffff165f1b61288f565b905092915050565b5f815f01805490509050919050565b5f6123a27f360894a13ba1a3210667c828492db98dca3e2076cc3735a920a3ca505d382bbc5f1b6128f6565b5f015f9054906101000a900473ffffffffffffffffffffffffffffffffffffffff16905090565b6123d2826128ff565b8173ffffffffffffffffffffffffffffffffffffffff167fbc7cd75a20ee27fd9adebab32041f755214dbc6bffa90cc0225b39da2e5c2d3b60405160405180910390a25f8151111561242e5761242882826129c8565b50612437565b612436612a48565b5b5050565b5f80836001015f8481526020019081526020015f20541415905092915050565b5f80836001015f8481526020019081526020015f205490505f811461254c575f6001826124889190614478565b90505f6001865f018054905061249e9190614478565b9050808214612504575f865f0182815481106124bd576124bc613ea9565b5b905f5260205f200154905080875f0184815481106124de576124dd613ea9565b5b905f5260205f20018190555083876001015f8381526020019081526020015f2081905550505b855f01805480612517576125166144ab565b5b600190038181905f5260205f20015f90559055856001015f8681526020019081526020015f205f905560019350505050612551565b5f9150505b92915050565b5f825f01828154811061256d5761256c613ea9565b5b905f5260205f200154905092915050565b5f61258761229d565b90505f815f015f9054906101000a900473ffffffffffffffffffffffffffffffffffffffff16905082825f015f6101000a81548173ffffffffffffffffffffffffffffffffffffffff021916908373ffffffffffffffffffffffffffffffffffffffff1602179055508273ffffffffffffffffffffffffffffffffffffffff168173ffffffffffffffffffffffffffffffffffffffff167f8be0079c531659141344cd1fd0a4f28419497f9722a3daafe3b4186f6b6457e060405160405180910390a3505050565b5f825f19048411830215820261266c5763ad251c275f526004601cfd5b818385020490509392505050565b5f805f90507a184f03e93ff9f4daa797ed6e38ed64bf6a1f01000000000000000083106126d6577a184f03e93ff9f4daa797ed6e38ed64bf6a1f01000000000000000083816126cc576126cb61441e565b5b0492506040810190505b6d04ee2d6d415b85acef81000000008310612713576d04ee2d6d415b85acef810000000083816127095761270861441e565b5b0492506020810190505b662386f26fc10000831061274257662386f26fc1000083816127385761273761441e565b5b0492506010810190505b6305f5e100831061276b576305f5e10083816127615761276061441e565b5b0492506008810190505b61271083106127905761271083816127865761278561441e565b5b0492506004810190505b606483106127b357606483816127a9576127a861441e565b5b0492506002810190505b600a83106127c2576001810190505b80915050919050565b6127d3612a84565b612809576040517fd7e6bcf800000000000000000000000000000000000000000000000000000000815260040160405180910390fd5b565b6128136127cb565b5f73ffffffffffffffffffffffffffffffffffffffff168173ffffffffffffffffffffffffffffffffffffffff1603612883575f6040517f1e4fbdf700000000000000000000000000000000000000000000000000000000815260040161287a9190613658565b60405180910390fd5b61288c8161217a565b50565b5f61289a838361243b565b6128ec57825f0182908060018154018082558091505060019003905f5260205f20015f9091909190915055825f0180549050836001015f8481526020019081526020015f2081905550600190506128f0565b5f90505b92915050565b5f819050919050565b5f8173ffffffffffffffffffffffffffffffffffffffff163b0361295a57806040517f4c9c8ce30000000000000000000000000000000000000000000000000000000081526004016129519190613658565b60405180910390fd5b806129867f360894a13ba1a3210667c828492db98dca3e2076cc3735a920a3ca505d382bbc5f1b6128f6565b5f015f6101000a81548173ffffffffffffffffffffffffffffffffffffffff021916908373ffffffffffffffffffffffffffffffffffffffff16021790555050565b60605f808473ffffffffffffffffffffffffffffffffffffffff16846040516129f1919061451c565b5f60405180830381855af49150503d805f8114612a29576040519150601f19603f3d011682016040523d82523d5f602084013e612a2e565b606091505b5091509150612a3e858383612aa2565b9250505092915050565b5f341115612a82576040517fb398979f00000000000000000000000000000000000000000000000000000000815260040160405180910390fd5b565b5f612a8d6122c4565b5f0160089054906101000a900460ff16905090565b606082612ab757612ab282612b2f565b612b27565b5f8251148015612add57505f8473ffffffffffffffffffffffffffffffffffffffff163b145b15612b1f57836040517f9996b315000000000000000000000000000000000000000000000000000000008152600401612b169190613658565b60405180910390fd5b819050612b28565b5b9392505050565b5f81511115612b415780518082602001fd5b6040517f1425ea4200000000000000000000000000000000000000000000000000000000815260040160405180910390fd5b5f604051905090565b5f80fd5b5f80fd5b5f73ffffffffffffffffffffffffffffffffffffffff82169050919050565b5f612bad82612b84565b9050919050565b5f612bbe82612ba3565b9050919050565b612bce81612bb4565b8114612bd8575f80fd5b50565b5f81359050612be981612bc5565b92915050565b5f60208284031215612c0457612c03612b7c565b5b5f612c1184828501612bdb565b91505092915050565b5f8115159050919050565b612c2e81612c1a565b82525050565b5f602082019050612c475f830184612c25565b92915050565b5f80fd5b5f60c08284031215612c6657612c65612c4d565b5b81905092915050565b5f60c08284031215612c8457612c83612c4d565b5b81905092915050565b5f60408284031215612ca257612ca1612c4d565b5b81905092915050565b5f60a08284031215612cc057612cbf612c4d565b5b81905092915050565b5f805f806102608587031215612ce257612ce1612b7c565b5b5f612cef87828801612c51565b94505060c0612d0087828801612c6f565b935050610180612d1287828801612c8d565b9250506101c0612d2487828801612cab565b91505092959194509250565b5f819050919050565b5f612d53612d4e612d4984612b84565b612d30565b612b84565b9050919050565b5f612d6482612d39565b9050919050565b5f612d7582612d5a565b9050919050565b612d8581612d6b565b82525050565b5f602082019050612d9e5f830184612d7c565b92915050565b5f612dae82612ba3565b9050919050565b612dbe81612da4565b8114612dc8575f80fd5b50565b5f81359050612dd981612db5565b92915050565b5f60208284031215612df457612df3612b7c565b5b5f612e0184828501612dcb565b91505092915050565b5f819050919050565b612e1c81612e0a565b82525050565b5f602082019050612e355f830184612e13565b92915050565b5f80fd5b5f601f19601f8301169050919050565b7f4e487b71000000000000000000000000000000000000000000000000000000005f52604160045260245ffd5b612e8582612e3f565b810181811067ffffffffffffffff82111715612ea457612ea3612e4f565b5b80604052505050565b5f612eb6612b73565b9050612ec28282612e7c565b919050565b5f612ed182612ba3565b9050919050565b612ee181612ec7565b8114612eeb575f80fd5b50565b5f81359050612efc81612ed8565b92915050565b5f612f0c82612ba3565b9050919050565b612f1c81612f02565b8114612f26575f80fd5b50565b5f81359050612f3781612f13565b92915050565b5f63ffffffff82169050919050565b612f5581612f3d565b8114612f5f575f80fd5b50565b5f81359050612f7081612f4c565b92915050565b5f612f8082612ba3565b9050919050565b612f9081612f76565b8114612f9a575f80fd5b50565b5f81359050612fab81612f87565b92915050565b612fba81612e0a565b8114612fc4575f80fd5b50565b5f81359050612fd581612fb1565b92915050565b5f6101608284031215612ff157612ff0612e3b565b5b612ffc610160612ead565b90505f61300b84828501612eee565b5f83015250602061301e84828501612f29565b602083015250604061303284828501612f62565b604083015250606061304684828501612f62565b606083015250608061305a84828501612bdb565b60808301525060a061306e84828501612bdb565b60a08301525060c061308284828501612f9d565b60c08301525060e061309684828501612f9d565b60e0830152506101006130ab84828501612fc7565b610100830152506101206130c184828501612fc7565b610120830152506101406130d784828501612f9d565b6101408301525092915050565b5f61016082840312156130fa576130f9612b7c565b5b5f61310784828501612fdb565b91505092915050565b5f61311a82612d5a565b9050919050565b61312a81613110565b82525050565b5f6020820190506131435f830184613121565b92915050565b61315281612ba3565b811461315c575f80fd5b50565b5f8135905061316d81613149565b92915050565b5f80fd5b5f80fd5b5f67ffffffffffffffff82111561319557613194612e4f565b5b61319e82612e3f565b9050602081019050919050565b828183375f83830152505050565b5f6131cb6131c68461317b565b612ead565b9050828152602081018484840111156131e7576131e6613177565b5b6131f28482856131ab565b509392505050565b5f82601f83011261320e5761320d613173565b5b813561321e8482602086016131b9565b91505092915050565b5f806040838503121561323d5761323c612b7c565b5b5f61324a8582860161315f565b925050602083013567ffffffffffffffff81111561326b5761326a612b80565b5b613277858286016131fa565b9150509250929050565b5f819050919050565b61329381613281565b82525050565b5f6020820190506132ac5f83018461328a565b92915050565b5f81519050919050565b5f82825260208201905092915050565b5f5b838110156132e95780820151818401526020810190506132ce565b5f8484015250505050565b5f6132fe826132b2565b61330881856132bc565b93506133188185602086016132cc565b61332181612e3f565b840191505092915050565b5f6020820190508181035f83015261334481846132f4565b905092915050565b5f6020828403121561336157613360612b7c565b5b5f61336e8482850161315f565b91505092915050565b5f81519050919050565b5f82825260208201905092915050565b5f819050602082019050919050565b5f82825260208201905092915050565b5f6133ba826132b2565b6133c481856133a0565b93506133d48185602086016132cc565b6133dd81612e3f565b840191505092915050565b5f6133f383836133b0565b905092915050565b5f602082019050919050565b5f61341182613377565b61341b8185613381565b93508360208202850161342d85613391565b805f5b85811015613468578484038952815161344985826133e8565b9450613454836133fb565b925060208a01995050600181019050613430565b50829750879550505050505092915050565b5f6020820190508181035f8301526134928184613407565b905092915050565b5f81519050919050565b5f82825260208201905092915050565b5f819050602082019050919050565b6134cc81613110565b82525050565b5f6134dd83836134c3565b60208301905092915050565b5f602082019050919050565b5f6134ff8261349a565b61350981856134a4565b9350613514836134b4565b805f5b8381101561354457815161352b88826134d2565b9750613536836134e9565b925050600181019050613517565b5085935050505092915050565b5f6020820190508181035f83015261356981846134f5565b905092915050565b5f81519050919050565b5f819050602082019050919050565b5f61359482612d5a565b9050919050565b6135a48161358a565b82525050565b5f6135b5838361359b565b60208301905092915050565b5f602082019050919050565b5f6135d782613571565b6135e181856134a4565b93506135ec8361357b565b805f5b8381101561361c57815161360388826135aa565b975061360e836135c1565b9250506001810190506135ef565b5085935050505092915050565b5f6020820190508181035f83015261364181846135cd565b905092915050565b61365281612ba3565b82525050565b5f60208201905061366b5f830184613649565b92915050565b5f61367b82612ba3565b9050919050565b61368b81613671565b8114613695575f80fd5b50565b5f813590506136a681613682565b92915050565b5f80604083850312156136c2576136c1612b7c565b5b5f6136cf85828601613698565b92505060206136e085828601612bdb565b9150509250929050565b5f6136f482612d5a565b9050919050565b613704816136ea565b82525050565b5f60208201905061371d5f8301846136fb565b92915050565b5f61372d82612ba3565b9050919050565b61373d81613723565b8114613747575f80fd5b50565b5f8135905061375881613734565b92915050565b5f6020828403121561377357613772612b7c565b5b5f6137808482850161374a565b91505092915050565b5f6020828403121561379e5761379d612b7c565b5b5f6137ab84828501612fc7565b91505092915050565b5f81519050919050565b5f819050602082019050919050565b6137d681612d6b565b82525050565b5f6137e783836137cd565b60208301905092915050565b5f602082019050919050565b5f613809826137b4565b61381381856134a4565b935061381e836137be565b805f5b8381101561384e57815161383588826137dc565b9750613840836137f3565b925050600181019050613821565b5085935050505092915050565b5f6020820190508181035f83015261387381846137ff565b905092915050565b6138848161358a565b82525050565b5f60208201905061389d5f83018461387b565b92915050565b6138ac81612ba3565b82525050565b5f6138c06020840184612fc7565b905092915050565b6138d181612e0a565b82525050565b5f6138e5602084018461315f565b905092915050565b6138f681612ba3565b82525050565b60c0820161390c5f8301836138b2565b6139185f8501826138c8565b5061392660208301836138b2565b61393360208501826138c8565b5061394160408301836138b2565b61394e60408501826138c8565b5061395c60608301836138b2565b61396960608501826138c8565b5061397760808301836138b2565b61398460808501826138c8565b5061399260a08301836138d7565b61399f60a08501826138ed565b50505050565b60c082016139b55f8301836138b2565b6139c15f8501826138c8565b506139cf60208301836138b2565b6139dc60208501826138c8565b506139ea60408301836138b2565b6139f760408501826138c8565b50613a0560608301836138b2565b613a1260608501826138c8565b50613a2060808301836138b2565b613a2d60808501826138c8565b50613a3b60a08301836138b2565b613a4860a08501826138c8565b50505050565b5f67ffffffffffffffff82169050919050565b613a6a81613a4e565b8114613a74575f80fd5b50565b5f81359050613a8581613a61565b92915050565b5f613a996020840184613a77565b905092915050565b613aaa81613a4e565b82525050565b60408201613ac05f8301836138d7565b613acc5f8501826138ed565b50613ada6020830183613a8b565b613ae76020850182613aa1565b50505050565b60a08201613afd5f8301836138d7565b613b095f8501826138ed565b50613b1760208301836138d7565b613b2460208501826138ed565b50613b3260408301836138d7565b613b3f60408501826138ed565b50613b4d60608301836138d7565b613b5a60608501826138ed565b50613b6860808301836138d7565b613b7560808501826138ed565b50505050565b5f61028082019050613b8f5f8301886138a3565b613b9c60208301876138fc565b613ba960e08301866139a5565b613bb76101a0830185613ab0565b613bc56101e0830184613aed565b9695505050505050565b5f81519050613bdd81613734565b92915050565b5f60208284031215613bf857613bf7612b7c565b5b5f613c0584828501613bcf565b91505092915050565b5f613c1882612d5a565b9050919050565b613c2881613c0e565b82525050565b5f613c3882612d5a565b9050919050565b613c4881613c2e565b82525050565b613c5781612f3d565b82525050565b613c668161358a565b82525050565b5f613c7682612d5a565b9050919050565b613c8681613c6c565b82525050565b61016082015f820151613ca15f850182613c1f565b506020820151613cb46020850182613c3f565b506040820151613cc76040850182613c4e565b506060820151613cda6060850182613c4e565b506080820151613ced6080850182613c5d565b5060a0820151613d0060a0850182613c5d565b5060c0820151613d1360c0850182613c7d565b5060e0820151613d2660e0850182613c7d565b50610100820151613d3b6101008501826138c8565b50610120820151613d506101208501826138c8565b50610140820151613d65610140850182613c7d565b50505050565b5f61016082019050613d7f5f830184613c8c565b92915050565b5f81519050613d9381612db5565b92915050565b5f60208284031215613dae57613dad612b7c565b5b5f613dbb84828501613d85565b91505092915050565b5f67ffffffffffffffff821115613dde57613ddd612e4f565b5b613de782612e3f565b9050602081019050919050565b5f613e06613e0184613dc4565b612ead565b905082815260208101848484011115613e2257613e21613177565b5b613e2d8482856132cc565b509392505050565b5f82601f830112613e4957613e48613173565b5b8151613e59848260208601613df4565b91505092915050565b5f60208284031215613e7757613e76612b7c565b5b5f82015167ffffffffffffffff811115613e9457613e93612b80565b5b613ea084828501613e35565b91505092915050565b7f4e487b71000000000000000000000000000000000000000000000000000000005f52603260045260245ffd5b5f81519050613ee481612fb1565b92915050565b5f60c08284031215613eff57613efe612e3b565b5b613f0960c0612ead565b90505f613f1884828501613ed6565b5f830152506020613f2b84828501613ed6565b6020830152506040613f3f84828501613ed6565b6040830152506060613f5384828501613ed6565b6060830152506080613f6784828501613ed6565b60808301525060a0613f7b84828501613ed6565b60a08301525092915050565b5f60c08284031215613f9c57613f9b612b7c565b5b5f613fa984828501613eea565b91505092915050565b5f81519050613fc081612bc5565b92915050565b5f613fd082612ba3565b9050919050565b613fe081613fc6565b8114613fea575f80fd5b50565b5f81519050613ffb81613fd7565b92915050565b5f61400b82612ba3565b9050919050565b61401b81614001565b8114614025575f80fd5b50565b5f8151905061403681614012565b92915050565b5f8151905061404a81613682565b92915050565b5f610100828403121561406657614065612e3b565b5b614071610100612ead565b90505f61408084828501613ed6565b5f83015250602061409384828501613ed6565b60208301525060406140a784828501613fb2565b60408301525060606140bb84828501613fb2565b60608301525060806140cf84828501613fed565b60808301525060a06140e384828501614028565b60a08301525060c06140f784828501613fed565b60c08301525060e061410b8482850161403c565b60e08301525092915050565b5f610100828403121561412d5761412c612b7c565b5b5f61413a84828501614050565b91505092915050565b7f53697a65207c2000000000000000000000000000000000000000000000000000815250565b5f81905092915050565b5f61417d826132b2565b6141878185614169565b93506141978185602086016132cc565b80840191505092915050565b7f207c200000000000000000000000000000000000000000000000000000000000815250565b5f6141d382614143565b6007820191506141e38287614173565b91506141ee826141a3565b6003820191506141fe8286614173565b9150614209826141a3565b6003820191506142198285614173565b9150614224826141a3565b6003820191506142348284614173565b915081905095945050505050565b5f61424c82612d5a565b9050919050565b61425c81614242565b82525050565b61426b8161358a565b82525050565b5f6060820190506142845f8301866138a3565b6142916020830185614253565b61429e6040830184614262565b949350505050565b5f602082840312156142bb576142ba612b7c565b5b5f6142c884828501614028565b91505092915050565b5f815190506142df81612f87565b92915050565b5f602082840312156142fa576142f9612b7c565b5b5f614307848285016142d1565b91505092915050565b7f507269636546656564207c200000000000000000000000000000000000000000815250565b5f61434082614310565b600c820191506143508285614173565b915061435b826141a3565b60038201915061436b8284614173565b91508190509392505050565b5f819050919050565b5f61439a61439561439084614377565b612d30565b613a4e565b9050919050565b6143aa81614380565b82525050565b5f6020820190506143c35f8301846143a1565b92915050565b6143d281613281565b81146143dc575f80fd5b50565b5f815190506143ed816143c9565b92915050565b5f6020828403121561440857614407612b7c565b5b5f614415848285016143df565b91505092915050565b7f4e487b71000000000000000000000000000000000000000000000000000000005f52601260045260245ffd5b7f4e487b71000000000000000000000000000000000000000000000000000000005f52601160045260245ffd5b5f61448282612e0a565b915061448d83612e0a565b92508282039050818111156144a5576144a461444b565b5b92915050565b7f4e487b71000000000000000000000000000000000000000000000000000000005f52603160045260245ffd5b5f81519050919050565b5f81905092915050565b5f6144f6826144d8565b61450081856144e2565b93506145108185602086016132cc565b80840191505092915050565b5f61452782846144ec565b91508190509291505056fea2646970667358221220d43826d1d638b10854727883539aada110cd20dcf32f901257c759c8d942de5464736f6c63430008170033",
    "linkReferences": {
      "src/v1.5/libraries/MarketFactoryLibrary.sol": {
        "MarketFactoryLibrary": [
          {
            "start": 2675,
            "length": 20
          }
        ]
      },
      "src/v1.5/libraries/NonTransferrableScaledTokenV1_5FactoryLibrary.sol": {
        "NonTransferrableScaledTokenV1_5FactoryLibrary": [
          {
            "start": 5289,
            "length": 20
          }
        ]
      },
      "src/v1.5/libraries/PriceFeedFactoryLibrary.sol": {
        "PriceFeedFactoryLibrary": [
          {
            "start": 2893,
            "length": 20
          }
        ]
      }
    }
  },
  "methodIdentifiers": {
    "UPGRADE_INTERFACE_VERSION()": "ad3cb1cc",
    "acceptOwnership()": "79ba5097",
    "addBorrowATokenV1_5(address)": "025e0812",
    "addMarket(address)": "93e30633",
    "addPriceFeed(address)": "0bb6842d",
    "createBorrowATokenV1_5(address,address)": "8e6ee8e5",
    "createMarket((uint256,uint256,uint256,uint256,uint256,address),(uint256,uint256,uint256,uint256,uint256,uint256),(address,uint64),(address,address,address,address,address))": "07d4e090",
    "createPriceFeed((address,address,uint32,uint32,address,address,address,address,uint256,uint256,address))": "416f33c1",
    "getBorrowATokenV1_5(uint256)": "ef096572",
    "getBorrowATokenV1_5Descriptions()": "6c59803b",
    "getBorrowATokensV1_5()": "89fd57b1",
    "getBorrowATokensV1_5Count()": "5a58a812",
    "getMarket(uint256)": "eb44fdd3",
    "getMarketDescriptions()": "7643d7ec",
    "getMarkets()": "ec2c9016",
    "getMarketsCount()": "27fa35c3",
    "getPriceFeed(uint256)": "f91d443f",
    "getPriceFeedDescriptions()": "b4208ef2",
    "getPriceFeeds()": "6ca42ae3",
    "getPriceFeedsCount()": "17180f34",
    "initialize(address)": "c4d66de8",
    "isBorrowATokenV1_5(address)": "b7621145",
    "isMarket(address)": "6ec934da",
    "isPriceFeed(address)": "57a94beb",
    "owner()": "8da5cb5b",
    "pendingOwner()": "e30c3978",
    "proxiableUUID()": "52d1902d",
    "removeBorrowATokenV1_5(address)": "5dbd6102",
    "removeMarket(address)": "db913236",
    "removePriceFeed(address)": "fceb0024",
    "renounceOwnership()": "715018a6",
    "transferOwnership(address)": "f2fde38b",
    "upgradeToAndCall(address,bytes)": "4f1ef286",
    "version()": "54fd4d50"
  },
  "id": 198
}