{
  "abi": [
    {
      "type": "constructor",
      "inputs": [],
      "stateMutability": "nonpayable"
    },
    {
      "type": "function",
      "name": "UPGRADE_INTERFACE_VERSION",
      "inputs": [],
      "outputs": [
        {
          "name": "",
          "type": "string",
          "internalType": "string"
        }
      ],
      "stateMutability": "view"
    },
    {
      "type": "function",
      "name": "acceptOwnership",
      "inputs": [],
      "outputs": [],
      "stateMutability": "nonpayable"
    },
    {
      "type": "function",
      "name": "addBorrowATokenV1_5",
      "inputs": [
        {
          "name": "borrowATokenV1_5",
          "type": "address",
          "internalType": "contract IERC20Metadata"
        }
      ],
      "outputs": [
        {
          "name": "existed",
          "type": "bool",
          "internalType": "bool"
        }
      ],
      "stateMutability": "nonpayable"
    },
    {
      "type": "function",
      "name": "addMarket",
      "inputs": [
        {
          "name": "market",
          "type": "address",
          "internalType": "contract ISize"
        }
      ],
      "outputs": [
        {
          "name": "existed",
          "type": "bool",
          "internalType": "bool"
        }
      ],
      "stateMutability": "nonpayable"
    },
    {
      "type": "function",
      "name": "addPriceFeed",
      "inputs": [
        {
          "name": "priceFeed",
          "type": "address",
          "internalType": "contract PriceFeed"
        }
      ],
      "outputs": [
        {
          "name": "existed",
          "type": "bool",
          "internalType": "bool"
        }
      ],
      "stateMutability": "nonpayable"
    },
    {
      "type": "function",
      "name": "createBorrowATokenV1_5",
      "inputs": [
        {
          "name": "variablePool",
          "type": "address",
          "internalType": "contract IPool"
        },
        {
          "name": "underlyingBorrowToken",
          "type": "address",
          "internalType": "contract IERC20Metadata"
        }
      ],
      "outputs": [
        {
          "name": "borrowATokenV1_5",
          "type": "address",
          "internalType": "contract NonTransferrableScaledTokenV1_5"
        }
      ],
      "stateMutability": "nonpayable"
    },
    {
      "type": "function",
      "name": "createMarket",
      "inputs": [
        {
          "name": "feeConfigParams",
          "type": "tuple",
          "internalType": "struct InitializeFeeConfigParams",
          "components": [
            {
              "name": "swapFeeAPR",
              "type": "uint256",
              "internalType": "uint256"
            },
            {
              "name": "fragmentationFee",
              "type": "uint256",
              "internalType": "uint256"
            },
            {
              "name": "liquidationRewardPercent",
              "type": "uint256",
              "internalType": "uint256"
            },
            {
              "name": "overdueCollateralProtocolPercent",
              "type": "uint256",
              "internalType": "uint256"
            },
            {
              "name": "collateralProtocolPercent",
              "type": "uint256",
              "internalType": "uint256"
            },
            {
              "name": "feeRecipient",
              "type": "address",
              "internalType": "address"
            }
          ]
        },
        {
          "name": "riskConfigParams",
          "type": "tuple",
          "internalType": "struct InitializeRiskConfigParams",
          "components": [
            {
              "name": "crOpening",
              "type": "uint256",
              "internalType": "uint256"
            },
            {
              "name": "crLiquidation",
              "type": "uint256",
              "internalType": "uint256"
            },
            {
              "name": "minimumCreditBorrowAToken",
              "type": "uint256",
              "internalType": "uint256"
            },
            {
              "name": "borrowATokenCap",
              "type": "uint256",
              "internalType": "uint256"
            },
            {
              "name": "minTenor",
              "type": "uint256",
              "internalType": "uint256"
            },
            {
              "name": "maxTenor",
              "type": "uint256",
              "internalType": "uint256"
            }
          ]
        },
        {
          "name": "oracleParams",
          "type": "tuple",
          "internalType": "struct InitializeOracleParams",
          "components": [
            {
              "name": "priceFeed",
              "type": "address",
              "internalType": "address"
            },
            {
              "name": "variablePoolBorrowRateStaleRateInterval",
              "type": "uint64",
              "internalType": "uint64"
            }
          ]
        },
        {
          "name": "dataParams",
          "type": "tuple",
          "internalType": "struct InitializeDataParams",
          "components": [
            {
              "name": "weth",
              "type": "address",
              "internalType": "address"
            },
            {
              "name": "underlyingCollateralToken",
              "type": "address",
              "internalType": "address"
            },
            {
              "name": "underlyingBorrowToken",
              "type": "address",
              "internalType": "address"
            },
            {
              "name": "variablePool",
              "type": "address",
              "internalType": "address"
            },
            {
              "name": "borrowATokenV1_5",
              "type": "address",
              "internalType": "address"
            }
          ]
        }
      ],
      "outputs": [
        {
          "name": "market",
          "type": "address",
          "internalType": "contract ISize"
        }
      ],
      "stateMutability": "nonpayable"
    },
    {
      "type": "function",
      "name": "createPriceFeed",
      "inputs": [
        {
          "name": "_priceFeedParams",
          "type": "tuple",
          "internalType": "struct PriceFeedParams",
          "components": [
            {
              "name": "uniswapV3Pool",
              "type": "address",
              "internalType": "contract IUniswapV3Pool"
            },
            {
              "name": "twapWindow",
              "type": "uint32",
              "internalType": "uint32"
            },
            {
              "name": "averageBlockTime",
              "type": "uint32",
              "internalType": "uint32"
            },
            {
              "name": "baseToken",
              "type": "address",
              "internalType": "contract IERC20Metadata"
            },
            {
              "name": "quoteToken",
              "type": "address",
              "internalType": "contract IERC20Metadata"
            },
            {
              "name": "baseAggregator",
              "type": "address",
              "internalType": "contract AggregatorV3Interface"
            },
            {
              "name": "quoteAggregator",
              "type": "address",
              "internalType": "contract AggregatorV3Interface"
            },
            {
              "name": "baseStalePriceInterval",
              "type": "uint256",
              "internalType": "uint256"
            },
            {
              "name": "quoteStalePriceInterval",
              "type": "uint256",
              "internalType": "uint256"
            },
            {
              "name": "sequencerUptimeFeed",
              "type": "address",
              "internalType": "contract AggregatorV3Interface"
            }
          ]
        }
      ],
      "outputs": [
        {
          "name": "priceFeed",
          "type": "address",
          "internalType": "contract PriceFeed"
        }
      ],
      "stateMutability": "nonpayable"
    },
    {
      "type": "function",
      "name": "getBorrowATokenV1_5",
      "inputs": [
        {
          "name": "index",
          "type": "uint256",
          "internalType": "uint256"
        }
      ],
      "outputs": [
        {
          "name": "",
          "type": "address",
          "internalType": "contract IERC20Metadata"
        }
      ],
      "stateMutability": "view"
    },
    {
      "type": "function",
      "name": "getBorrowATokenV1_5Descriptions",
      "inputs": [],
      "outputs": [
        {
          "name": "descriptions",
          "type": "string[]",
          "internalType": "string[]"
        }
      ],
      "stateMutability": "view"
    },
    {
      "type": "function",
      "name": "getBorrowATokensV1_5",
      "inputs": [],
      "outputs": [
        {
          "name": "_borrowATokensV1_5",
          "type": "address[]",
          "internalType": "contract IERC20Metadata[]"
        }
      ],
      "stateMutability": "view"
    },
    {
      "type": "function",
      "name": "getBorrowATokensV1_5Count",
      "inputs": [],
      "outputs": [
        {
          "name": "",
          "type": "uint256",
          "internalType": "uint256"
        }
      ],
      "stateMutability": "view"
    },
    {
      "type": "function",
      "name": "getMarket",
      "inputs": [
        {
          "name": "index",
          "type": "uint256",
          "internalType": "uint256"
        }
      ],
      "outputs": [
        {
          "name": "",
          "type": "address",
          "internalType": "contract ISize"
        }
      ],
      "stateMutability": "view"
    },
    {
      "type": "function",
      "name": "getMarketDescriptions",
      "inputs": [],
      "outputs": [
        {
          "name": "descriptions",
          "type": "string[]",
          "internalType": "string[]"
        }
      ],
      "stateMutability": "view"
    },
    {
      "type": "function",
      "name": "getMarkets",
      "inputs": [],
      "outputs": [
        {
          "name": "_markets",
          "type": "address[]",
          "internalType": "contract ISize[]"
        }
      ],
      "stateMutability": "view"
    },
    {
      "type": "function",
      "name": "getMarketsCount",
      "inputs": [],
      "outputs": [
        {
          "name": "",
          "type": "uint256",
          "internalType": "uint256"
        }
      ],
      "stateMutability": "view"
    },
    {
      "type": "function",
      "name": "getPriceFeed",
      "inputs": [
        {
          "name": "index",
          "type": "uint256",
          "internalType": "uint256"
        }
      ],
      "outputs": [
        {
          "name": "",
          "type": "address",
          "internalType": "contract PriceFeed"
        }
      ],
      "stateMutability": "view"
    },
    {
      "type": "function",
      "name": "getPriceFeedDescriptions",
      "inputs": [],
      "outputs": [
        {
          "name": "descriptions",
          "type": "string[]",
          "internalType": "string[]"
        }
      ],
      "stateMutability": "view"
    },
    {
      "type": "function",
      "name": "getPriceFeeds",
      "inputs": [],
      "outputs": [
        {
          "name": "_priceFeeds",
          "type": "address[]",
          "internalType": "contract PriceFeed[]"
        }
      ],
      "stateMutability": "view"
    },
    {
      "type": "function",
      "name": "getPriceFeedsCount",
      "inputs": [],
      "outputs": [
        {
          "name": "",
          "type": "uint256",
          "internalType": "uint256"
        }
      ],
      "stateMutability": "view"
    },
    {
      "type": "function",
      "name": "initialize",
      "inputs": [
        {
          "name": "_owner",
          "type": "address",
          "internalType": "address"
        }
      ],
      "outputs": [],
      "stateMutability": "nonpayable"
    },
    {
      "type": "function",
      "name": "isBorrowATokenV1_5",
      "inputs": [
        {
          "name": "candidate",
          "type": "address",
          "internalType": "address"
        }
      ],
      "outputs": [
        {
          "name": "",
          "type": "bool",
          "internalType": "bool"
        }
      ],
      "stateMutability": "view"
    },
    {
      "type": "function",
      "name": "isMarket",
      "inputs": [
        {
          "name": "candidate",
          "type": "address",
          "internalType": "address"
        }
      ],
      "outputs": [
        {
          "name": "",
          "type": "bool",
          "internalType": "bool"
        }
      ],
      "stateMutability": "view"
    },
    {
      "type": "function",
      "name": "isPriceFeed",
      "inputs": [
        {
          "name": "candidate",
          "type": "address",
          "internalType": "address"
        }
      ],
      "outputs": [
        {
          "name": "",
          "type": "bool",
          "internalType": "bool"
        }
      ],
      "stateMutability": "view"
    },
    {
      "type": "function",
      "name": "owner",
      "inputs": [],
      "outputs": [
        {
          "name": "",
          "type": "address",
          "internalType": "address"
        }
      ],
      "stateMutability": "view"
    },
    {
      "type": "function",
      "name": "pendingOwner",
      "inputs": [],
      "outputs": [
        {
          "name": "",
          "type": "address",
          "internalType": "address"
        }
      ],
      "stateMutability": "view"
    },
    {
      "type": "function",
      "name": "proxiableUUID",
      "inputs": [],
      "outputs": [
        {
          "name": "",
          "type": "bytes32",
          "internalType": "bytes32"
        }
      ],
      "stateMutability": "view"
    },
    {
      "type": "function",
      "name": "removeBorrowATokenV1_5",
      "inputs": [
        {
          "name": "borrowATokenV1_5",
          "type": "address",
          "internalType": "contract IERC20Metadata"
        }
      ],
      "outputs": [
        {
          "name": "existed",
          "type": "bool",
          "internalType": "bool"
        }
      ],
      "stateMutability": "nonpayable"
    },
    {
      "type": "function",
      "name": "removeMarket",
      "inputs": [
        {
          "name": "market",
          "type": "address",
          "internalType": "contract ISize"
        }
      ],
      "outputs": [
        {
          "name": "existed",
          "type": "bool",
          "internalType": "bool"
        }
      ],
      "stateMutability": "nonpayable"
    },
    {
      "type": "function",
      "name": "removePriceFeed",
      "inputs": [
        {
          "name": "priceFeed",
          "type": "address",
          "internalType": "contract PriceFeed"
        }
      ],
      "outputs": [
        {
          "name": "existed",
          "type": "bool",
          "internalType": "bool"
        }
      ],
      "stateMutability": "nonpayable"
    },
    {
      "type": "function",
      "name": "renounceOwnership",
      "inputs": [],
      "outputs": [],
      "stateMutability": "nonpayable"
    },
    {
      "type": "function",
      "name": "transferOwnership",
      "inputs": [
        {
          "name": "newOwner",
          "type": "address",
          "internalType": "address"
        }
      ],
      "outputs": [],
      "stateMutability": "nonpayable"
    },
    {
      "type": "function",
      "name": "upgradeToAndCall",
      "inputs": [
        {
          "name": "newImplementation",
          "type": "address",
          "internalType": "address"
        },
        {
          "name": "data",
          "type": "bytes",
          "internalType": "bytes"
        }
      ],
      "outputs": [],
      "stateMutability": "payable"
    },
    {
      "type": "function",
      "name": "version",
      "inputs": [],
      "outputs": [
        {
          "name": "",
          "type": "string",
          "internalType": "string"
        }
      ],
      "stateMutability": "pure"
    },
    {
      "type": "event",
      "name": "BorrowATokenV1_5Added",
      "inputs": [
        {
          "name": "borrowATokenV1_5",
          "type": "address",
          "indexed": true,
          "internalType": "address"
        },
        {
          "name": "existed",
          "type": "bool",
          "indexed": true,
          "internalType": "bool"
        }
      ],
      "anonymous": false
    },
    {
      "type": "event",
      "name": "BorrowATokenV1_5Removed",
      "inputs": [
        {
          "name": "borrowATokenV1_5",
          "type": "address",
          "indexed": true,
          "internalType": "address"
        },
        {
          "name": "existed",
          "type": "bool",
          "indexed": true,
          "internalType": "bool"
        }
      ],
      "anonymous": false
    },
    {
      "type": "event",
      "name": "Initialized",
      "inputs": [
        {
          "name": "version",
          "type": "uint64",
          "indexed": false,
          "internalType": "uint64"
        }
      ],
      "anonymous": false
    },
    {
      "type": "event",
      "name": "MarketAdded",
      "inputs": [
        {
          "name": "market",
          "type": "address",
          "indexed": true,
          "internalType": "address"
        },
        {
          "name": "existed",
          "type": "bool",
          "indexed": true,
          "internalType": "bool"
        }
      ],
      "anonymous": false
    },
    {
      "type": "event",
      "name": "MarketRemoved",
      "inputs": [
        {
          "name": "market",
          "type": "address",
          "indexed": true,
          "internalType": "address"
        },
        {
          "name": "existed",
          "type": "bool",
          "indexed": true,
          "internalType": "bool"
        }
      ],
      "anonymous": false
    },
    {
      "type": "event",
      "name": "OwnershipTransferStarted",
      "inputs": [
        {
          "name": "previousOwner",
          "type": "address",
          "indexed": true,
          "internalType": "address"
        },
        {
          "name": "newOwner",
          "type": "address",
          "indexed": true,
          "internalType": "address"
        }
      ],
      "anonymous": false
    },
    {
      "type": "event",
      "name": "OwnershipTransferred",
      "inputs": [
        {
          "name": "previousOwner",
          "type": "address",
          "indexed": true,
          "internalType": "address"
        },
        {
          "name": "newOwner",
          "type": "address",
          "indexed": true,
          "internalType": "address"
        }
      ],
      "anonymous": false
    },
    {
      "type": "event",
      "name": "PriceFeedAdded",
      "inputs": [
        {
          "name": "priceFeed",
          "type": "address",
          "indexed": true,
          "internalType": "address"
        },
        {
          "name": "existed",
          "type": "bool",
          "indexed": true,
          "internalType": "bool"
        }
      ],
      "anonymous": false
    },
    {
      "type": "event",
      "name": "PriceFeedRemoved",
      "inputs": [
        {
          "name": "priceFeed",
          "type": "address",
          "indexed": true,
          "internalType": "address"
        },
        {
          "name": "existed",
          "type": "bool",
          "indexed": true,
          "internalType": "bool"
        }
      ],
      "anonymous": false
    },
    {
      "type": "event",
      "name": "Upgraded",
      "inputs": [
        {
          "name": "implementation",
          "type": "address",
          "indexed": true,
          "internalType": "address"
        }
      ],
      "anonymous": false
    },
    {
      "type": "error",
      "name": "AddressEmptyCode",
      "inputs": [
        {
          "name": "target",
          "type": "address",
          "internalType": "address"
        }
      ]
    },
    {
      "type": "error",
      "name": "ERC1967InvalidImplementation",
      "inputs": [
        {
          "name": "implementation",
          "type": "address",
          "internalType": "address"
        }
      ]
    },
    {
      "type": "error",
      "name": "ERC1967NonPayable",
      "inputs": []
    },
    {
      "type": "error",
      "name": "FailedInnerCall",
      "inputs": []
    },
    {
      "type": "error",
      "name": "InvalidInitialization",
      "inputs": []
    },
    {
      "type": "error",
      "name": "NULL_ADDRESS",
      "inputs": []
    },
    {
      "type": "error",
      "name": "NotInitializing",
      "inputs": []
    },
    {
      "type": "error",
      "name": "OwnableInvalidOwner",
      "inputs": [
        {
          "name": "owner",
          "type": "address",
          "internalType": "address"
        }
      ]
    },
    {
      "type": "error",
      "name": "OwnableUnauthorizedAccount",
      "inputs": [
        {
          "name": "account",
          "type": "address",
          "internalType": "address"
        }
      ]
    },
    {
      "type": "error",
      "name": "UUPSUnauthorizedCallContext",
      "inputs": []
    },
    {
      "type": "error",
      "name": "UUPSUnsupportedProxiableUUID",
      "inputs": [
        {
          "name": "slot",
          "type": "bytes32",
          "internalType": "bytes32"
        }
      ]
    }
  ],
  "bytecode": {
    "object": "0x60a06040523060805234801562000014575f80fd5b506200001f62000025565b620000d9565b7ff0c57e16840df040f15088dc2f81fe391c3923bec73e23a9662efc9c229c6a00805468010000000000000000900460ff1615620000765760405163f92ee8a960e01b815260040160405180910390fd5b80546001600160401b0390811614620000d65780546001600160401b0319166001600160401b0390811782556040519081527fc7f505b2f371ae2175ee4913f4499e1f2633a7b5936321eed1cdaeb6115181d29060200160405180910390a15b50565b6080516127f7620001005f395f818161163d0152818161166601526117aa01526127f75ff3fe6080604052600436106101f1575f3560e01c806389fd57b111610108578063d152e2361161009d578063ec2c90161161006d578063ec2c90161461055d578063ef09657214610571578063f2fde38b14610590578063f91d443f146105af578063fceb0024146105ce575f80fd5b8063d152e236146104ec578063db9132361461050b578063e30c39781461052a578063eb44fdd31461053e575f80fd5b8063ad3cb1cc116100d8578063ad3cb1cc1461046a578063b4208ef21461049a578063b7621145146104ae578063c4d66de8146104cd575f80fd5b806389fd57b1146104045780638da5cb5b146104185780638e6ee8e51461042c57806393e306331461044b575f80fd5b806357a94beb116101895780636ca42ae3116101595780636ca42ae3146103885780636ec934da146103a9578063715018a6146103c85780637643d7ec146103dc57806379ba5097146103f0575f80fd5b806357a94beb146103155780635a58a812146103345780635dbd6102146103485780636c59803b14610367575f80fd5b806327fa35c3116101c457806327fa35c3146102a15780634f1ef286146102b557806352d1902d146102ca57806354fd4d50146102de575f80fd5b8063025e0812146101f557806307d4e090146102295780630bb6842d1461026057806317180f341461027f575b5f80fd5b348015610200575f80fd5b5061021461020f366004611e5f565b6105ed565b60405190151581526020015b60405180910390f35b348015610234575f80fd5b50610248610243366004611e8a565b610605565b6040516001600160a01b039091168152602001610220565b34801561026b575f80fd5b5061021461027a366004611e5f565b6106a7565b34801561028a575f80fd5b506102936106b9565b604051908152602001610220565b3480156102ac575f80fd5b506102936106c9565b6102c86102c3366004611f87565b6106d3565b005b3480156102d5575f80fd5b506102936106f2565b3480156102e9575f80fd5b5060408051808201909152600681526576312e352e3160d01b60208201525b6040516102209190612060565b348015610320575f80fd5b5061021461032f366004611e5f565b61070d565b34801561033f575f80fd5b50610293610719565b348015610353575f80fd5b50610214610362366004611e5f565b610724565b348015610372575f80fd5b5061037b61079f565b6040516102209190612072565b348015610393575f80fd5b5061039c61089d565b60405161022091906120d4565b3480156103b4575f80fd5b506102146103c3366004611e5f565b610934565b3480156103d3575f80fd5b506102c861093f565b3480156103e7575f80fd5b5061037b610952565b3480156103fb575f80fd5b506102c8610c7c565b34801561040f575f80fd5b5061039c610cc9565b348015610423575f80fd5b50610248610d60565b348015610437575f80fd5b50610248610446366004612120565b610d94565b348015610456575f80fd5b50610214610465366004611e5f565b610e47565b348015610475575f80fd5b50610308604051806040016040528060058152602001640352e302e360dc1b81525081565b3480156104a5575f80fd5b5061037b610e59565b3480156104b9575f80fd5b506102146104c8366004611e5f565b611093565b3480156104d8575f80fd5b506102c86104e7366004611e5f565b61109f565b3480156104f7575f80fd5b5061024861050636600461216a565b6111bb565b348015610516575f80fd5b50610214610525366004611e5f565b61124b565b348015610535575f80fd5b506102486112c5565b348015610549575f80fd5b50610248610558366004612223565b6112ed565b348015610568575f80fd5b5061039c6112f8565b34801561057c575f80fd5b5061024861058b366004612223565b61138d565b34801561059b575f80fd5b506102c86105aa366004611e5f565b611399565b3480156105ba575f80fd5b506102486105c9366004612223565b61141e565b3480156105d9575f80fd5b506102146105e8366004611e5f565b61142a565b5f6105f66114a5565b6105ff826114d7565b92915050565b5f61060e6114a5565b73__$0cec9b92a4a5041913558f257920b03236$__63310657f9610630610d60565b878787876040518663ffffffff1660e01b81526004016106549594939291906122f0565b602060405180830381865af415801561066f573d5f803e3d5ffd5b505050506040513d601f19601f8201168201806040525081019061069391906123ab565b905061069e81611548565b50949350505050565b5f6106b06114a5565b6105ff826115b8565b5f6106c46002611629565b905090565b5f6106c45f611629565b6106db611632565b6106e4826116d6565b6106ee82826116de565b5050565b5f6106fb61179f565b505f805160206127a283398151915290565b5f6105ff6002836117e8565b5f6106c46004611629565b5f61072d6114a5565b6001600160a01b0382166107545760405163de0ce17d60e01b815260040160405180910390fd5b61075f60048361180c565b9050801515826001600160a01b03167f8d73d27027613eea51b73041fbb3e53c27e7fed218a338331989912b6c4b4be860405160405180910390a3919050565b60606107ab6004611629565b6001600160401b038111156107c2576107c2611ef4565b6040519080825280602002602001820160405280156107f557816020015b60608152602001906001900390816107e05790505b5090505f5b8151811015610899575f61080f600483611820565b9050806001600160a01b03166395d89b416040518163ffffffff1660e01b81526004015f60405180830381865afa15801561084c573d5f803e3d5ffd5b505050506040513d5f823e601f3d908101601f1916820160405261087391908101906123c6565b8383815181106108855761088561242e565b6020908102919091010152506001016107fa565b5090565b60606108a96002611629565b6001600160401b038111156108c0576108c0611ef4565b6040519080825280602002602001820160405280156108e9578160200160208202803683370190505b5090505f5b815181101561089957610902600282611820565b8282815181106109145761091461242e565b6001600160a01b03909216602092830291909101909101526001016108ee565b5f6105ff81836117e8565b6109476114a5565b6109505f61182b565b565b606061095d5f611629565b6001600160401b0381111561097457610974611ef4565b6040519080825280602002602001820160405280156109a757816020015b60608152602001906001900390816109925790505b5090505f5b8151811015610899575f6109c08183611820565b90505f610a3a6064836001600160a01b0316637c90a6ca6040518163ffffffff1660e01b815260040160c060405180830381865afa158015610a04573d5f803e3d5ffd5b505050506040513d601f19601f82011682018060405250810190610a289190612442565b60200151670de0b6b3a7640000611863565b9050816001600160a01b03166373d4a13a6040518163ffffffff1660e01b815260040161010060405180830381865afa158015610a79573d5f803e3d5ffd5b505050506040513d601f19601f82011682018060405250810190610a9d91906124c4565b604001516001600160a01b03166395d89b416040518163ffffffff1660e01b81526004015f60405180830381865afa158015610adb573d5f803e3d5ffd5b505050506040513d5f823e601f3d908101601f19168201604052610b0291908101906123c6565b826001600160a01b03166373d4a13a6040518163ffffffff1660e01b815260040161010060405180830381865afa158015610b3f573d5f803e3d5ffd5b505050506040513d601f19601f82011682018060405250810190610b6391906124c4565b606001516001600160a01b03166395d89b416040518163ffffffff1660e01b81526004015f60405180830381865afa158015610ba1573d5f803e3d5ffd5b505050506040513d5f823e601f3d908101601f19168201604052610bc891908101906123c6565b610bd183611877565b846001600160a01b03166354fd4d506040518163ffffffff1660e01b81526004015f60405180830381865afa158015610c0c573d5f803e3d5ffd5b505050506040513d5f823e601f3d908101601f19168201604052610c3391908101906123c6565b604051602001610c46949392919061257d565b604051602081830303815290604052848481518110610c6757610c6761242e565b602090810291909101015250506001016109ac565b3380610c866112c5565b6001600160a01b031614610cbd5760405163118cdaa760e01b81526001600160a01b03821660048201526024015b60405180910390fd5b610cc68161182b565b50565b6060610cd56004611629565b6001600160401b03811115610cec57610cec611ef4565b604051908082528060200260200182016040528015610d15578160200160208202803683370190505b5090505f5b815181101561089957610d2e600482611820565b828281518110610d4057610d4061242e565b6001600160a01b0390921660209283029190910190910152600101610d1a565b5f807f9016d09d72d40fdae2fd8ceac6b6234c7706214fd39c1cd1e609a0528c1993005b546001600160a01b031692915050565b5f610d9d6114a5565b73__$9de08c5fadaa7cf6906224c71f8a8fe49b$__634299eb2d610dbf610d60565b6040516001600160e01b031960e084901b1681526001600160a01b03918216600482015281871660248201529085166044820152606401602060405180830381865af4158015610e11573d5f803e3d5ffd5b505050506040513d601f19601f82011682018060405250810190610e3591906123ab565b9050610e40816114d7565b5092915050565b5f610e506114a5565b6105ff82611548565b6060610e656002611629565b6001600160401b03811115610e7c57610e7c611ef4565b604051908082528060200260200182016040528015610eaf57816020015b6060815260200190600190039081610e9a5790505b5090505f5b8151811015610899575f610ec9600283611820565b9050806001600160a01b0316635001f3b56040518163ffffffff1660e01b8152600401602060405180830381865afa158015610f07573d5f803e3d5ffd5b505050506040513d601f19601f82011682018060405250810190610f2b91906123ab565b6001600160a01b0316637284e4166040518163ffffffff1660e01b81526004015f60405180830381865afa158015610f65573d5f803e3d5ffd5b505050506040513d5f823e601f3d908101601f19168201604052610f8c91908101906123c6565b816001600160a01b031663999b93af6040518163ffffffff1660e01b8152600401602060405180830381865afa158015610fc8573d5f803e3d5ffd5b505050506040513d601f19601f82011682018060405250810190610fec91906123ab565b6001600160a01b0316637284e4166040518163ffffffff1660e01b81526004015f60405180830381865afa158015611026573d5f803e3d5ffd5b505050506040513d5f823e601f3d908101601f1916820160405261104d91908101906123c6565b60405160200161105e929190612609565b60405160208183030381529060405283838151811061107f5761107f61242e565b602090810291909101015250600101610eb4565b5f6105ff6004836117e8565b7ff0c57e16840df040f15088dc2f81fe391c3923bec73e23a9662efc9c229c6a008054600160401b810460ff1615906001600160401b03165f811580156110e35750825b90505f826001600160401b031660011480156110fe5750303b155b90508115801561110c575080155b1561112a5760405163f92ee8a960e01b815260040160405180910390fd5b845467ffffffffffffffff19166001178555831561115457845460ff60401b1916600160401b1785555b61115d86611906565b611165611917565b61116d611917565b83156111b357845460ff60401b19168555604051600181527fc7f505b2f371ae2175ee4913f4499e1f2633a7b5936321eed1cdaeb6115181d29060200160405180910390a15b505050505050565b5f6111c46114a5565b60405163145b6cb960e11b815273__$929f8e7f755903a09e0d9854708adfe429$__906328b6d972906111fb90859060040161265e565b602060405180830381865af4158015611216573d5f803e3d5ffd5b505050506040513d601f19601f8201168201806040525081019061123a91906123ab565b9050611245816115b8565b50919050565b5f6112546114a5565b6001600160a01b03821661127b5760405163de0ce17d60e01b815260040160405180910390fd5b6112855f8361180c565b9050801515826001600160a01b03167f0e4a8f27c6352e6fe6149b046737df5653aa907ab5f60a2e6f44b9fbe74d36fa60405160405180910390a3919050565b5f807f237e158222e3e6968b72b9db0d8043aacf074ad9f650f0d1606b4d82ee432c00610d84565b5f6105ff8183611820565b60606113035f611629565b6001600160401b0381111561131a5761131a611ef4565b604051908082528060200260200182016040528015611343578160200160208202803683370190505b5090505f5b81518110156108995761135b5f82611820565b82828151811061136d5761136d61242e565b6001600160a01b0390921660209283029190910190910152600101611348565b5f6105ff600483611820565b6113a16114a5565b7f237e158222e3e6968b72b9db0d8043aacf074ad9f650f0d1606b4d82ee432c0080546001600160a01b0319166001600160a01b03831690811782556113e5610d60565b6001600160a01b03167f38d16b8cac22d99fc7c124b9cd0de2d3fa1faef420bfe791d8c362d765e2270060405160405180910390a35050565b5f6105ff600283611820565b5f6114336114a5565b6001600160a01b03821661145a5760405163de0ce17d60e01b815260040160405180910390fd5b61146560028361180c565b9050801515826001600160a01b03167f4192bb627423ed9ad89a0007e7b220e804aeac006b70f9f34283ad4f475b156e60405160405180910390a3919050565b336114ae610d60565b6001600160a01b0316146109505760405163118cdaa760e01b8152336004820152602401610cb4565b5f6001600160a01b0382166114ff5760405163de0ce17d60e01b815260040160405180910390fd5b61150a60048361191f565b6040519015915081906001600160a01b038416907f8728dad4104402ec48bfe4e6dbda57ccb04fde1b4c7d2781716125a6203d717d905f90a3919050565b5f6001600160a01b0382166115705760405163de0ce17d60e01b815260040160405180910390fd5b61157a5f8361191f565b6040519015915081906001600160a01b038416907f31b5222362b7d52d7e24d96723c4b09a0043f8b859a4eaeefd5c69c6c8ca5877905f90a3919050565b5f6001600160a01b0382166115e05760405163de0ce17d60e01b815260040160405180910390fd5b6115eb60028361191f565b6040519015915081906001600160a01b038416907f8ed7f0e9b2ee05a88d7dead0712832e6b8c32512e38cef5ee45c4f1816af204c905f90a3919050565b5f6105ff825490565b306001600160a01b037f00000000000000000000000000000000000000000000000000000000000000001614806116b857507f00000000000000000000000000000000000000000000000000000000000000006001600160a01b03166116ac5f805160206127a2833981519152546001600160a01b031690565b6001600160a01b031614155b156109505760405163703e46dd60e11b815260040160405180910390fd5b610cc66114a5565b816001600160a01b03166352d1902d6040518163ffffffff1660e01b8152600401602060405180830381865afa925050508015611738575060408051601f3d908101601f191682019092526117359181019061273c565b60015b61176057604051634c9c8ce360e01b81526001600160a01b0383166004820152602401610cb4565b5f805160206127a2833981519152811461179057604051632a87526960e21b815260048101829052602401610cb4565b61179a8383611933565b505050565b306001600160a01b037f000000000000000000000000000000000000000000000000000000000000000016146109505760405163703e46dd60e11b815260040160405180910390fd5b6001600160a01b0381165f90815260018301602052604081205415155b9392505050565b5f611805836001600160a01b038416611988565b5f6118058383611a6b565b7f237e158222e3e6968b72b9db0d8043aacf074ad9f650f0d1606b4d82ee432c0080546001600160a01b03191681556106ee82611a91565b5f61186f848484611b01565b949350505050565b60605f61188383611b25565b60010190505f816001600160401b038111156118a1576118a1611ef4565b6040519080825280601f01601f1916602001820160405280156118cb576020820181803683370190505b5090508181016020015b5f19016f181899199a1a9b1b9c1cb0b131b232b360811b600a86061a8153600a85049450846118d557509392505050565b61190e611bfc565b610cc681611c45565b610950611bfc565b5f611805836001600160a01b038416611c76565b61193c82611cc2565b6040516001600160a01b038316907fbc7cd75a20ee27fd9adebab32041f755214dbc6bffa90cc0225b39da2e5c2d3b905f90a28051156119805761179a8282611d25565b6106ee611d97565b5f8181526001830160205260408120548015611a62575f6119aa600183612753565b85549091505f906119bd90600190612753565b9050808214611a1c575f865f0182815481106119db576119db61242e565b905f5260205f200154905080875f0184815481106119fb576119fb61242e565b5f918252602080832090910192909255918252600188019052604090208390555b8554869080611a2d57611a2d612772565b600190038181905f5260205f20015f90559055856001015f8681526020019081526020015f205f9055600193505050506105ff565b5f9150506105ff565b5f825f018281548110611a8057611a8061242e565b905f5260205f200154905092915050565b7f9016d09d72d40fdae2fd8ceac6b6234c7706214fd39c1cd1e609a0528c19930080546001600160a01b031981166001600160a01b03848116918217845560405192169182907f8be0079c531659141344cd1fd0a4f28419497f9722a3daafe3b4186f6b6457e0905f90a3505050565b5f825f190484118302158202611b1e5763ad251c275f526004601cfd5b5091020490565b5f8072184f03e93ff9f4daa797ed6e38ed64bf6a1f0160401b8310611b635772184f03e93ff9f4daa797ed6e38ed64bf6a1f0160401b830492506040015b6d04ee2d6d415b85acef81000000008310611b8f576d04ee2d6d415b85acef8100000000830492506020015b662386f26fc100008310611bad57662386f26fc10000830492506010015b6305f5e1008310611bc5576305f5e100830492506008015b6127108310611bd957612710830492506004015b60648310611beb576064830492506002015b600a83106105ff5760010192915050565b7ff0c57e16840df040f15088dc2f81fe391c3923bec73e23a9662efc9c229c6a0054600160401b900460ff1661095057604051631afcd79f60e31b815260040160405180910390fd5b611c4d611bfc565b6001600160a01b038116610cbd57604051631e4fbdf760e01b81525f6004820152602401610cb4565b5f818152600183016020526040812054611cbb57508154600181810184555f8481526020808220909301849055845484825282860190935260409020919091556105ff565b505f6105ff565b806001600160a01b03163b5f03611cf757604051634c9c8ce360e01b81526001600160a01b0382166004820152602401610cb4565b5f805160206127a283398151915280546001600160a01b0319166001600160a01b0392909216919091179055565b60605f80846001600160a01b031684604051611d419190612786565b5f60405180830381855af49150503d805f8114611d79576040519150601f19603f3d011682016040523d82523d5f602084013e611d7e565b606091505b5091509150611d8e858383611db6565b95945050505050565b34156109505760405163b398979f60e01b815260040160405180910390fd5b606082611dcb57611dc682611e12565b611805565b8151158015611de257506001600160a01b0384163b155b15611e0b57604051639996b31560e01b81526001600160a01b0385166004820152602401610cb4565b5080611805565b805115611e225780518082602001fd5b604051630a12f52160e11b815260040160405180910390fd5b6001600160a01b0381168114610cc6575f80fd5b8035611e5a81611e3b565b919050565b5f60208284031215611e6f575f80fd5b813561180581611e3b565b5f60c08284031215611245575f80fd5b5f805f80848603610260811215611e9f575f80fd5b611ea98787611e7a565b9450611eb88760c08801611e7a565b9350604061017f1982011215611ecc575f80fd5b6101808601925060a06101bf1982011215611ee5575f80fd5b509295919450926101c0019150565b634e487b7160e01b5f52604160045260245ffd5b60405161014081016001600160401b0381118282101715611f2b57611f2b611ef4565b60405290565b604051601f8201601f191681016001600160401b0381118282101715611f5957611f59611ef4565b604052919050565b5f6001600160401b03821115611f7957611f79611ef4565b50601f01601f191660200190565b5f8060408385031215611f98575f80fd5b8235611fa381611e3b565b915060208301356001600160401b03811115611fbd575f80fd5b8301601f81018513611fcd575f80fd5b8035611fe0611fdb82611f61565b611f31565b818152866020838501011115611ff4575f80fd5b816020840160208301375f602083830101528093505050509250929050565b5f5b8381101561202d578181015183820152602001612015565b50505f910152565b5f815180845261204c816020860160208601612013565b601f01601f19169290920160200192915050565b602081525f6118056020830184612035565b5f60208083016020845280855180835260408601915060408160051b8701019250602087015f5b828110156120c757603f198886030184526120b5858351612035565b94509285019290850190600101612099565b5092979650505050505050565b602080825282518282018190525f9190848201906040850190845b818110156121145783516001600160a01b0316835292840192918401916001016120ef565b50909695505050505050565b5f8060408385031215612131575f80fd5b823561213c81611e3b565b9150602083013561214c81611e3b565b809150509250929050565b803563ffffffff81168114611e5a575f80fd5b5f610140828403121561217b575f80fd5b612183611f08565b61218c83611e4f565b815261219a60208401612157565b60208201526121ab60408401612157565b60408201526121bc60608401611e4f565b60608201526121cd60808401611e4f565b60808201526121de60a08401611e4f565b60a08201526121ef60c08401611e4f565b60c082015260e083013560e0820152610100808401358183015250610120612218818501611e4f565b908201529392505050565b5f60208284031215612233575f80fd5b5035919050565b803561224581611e3b565b6001600160a01b0316825260208101356001600160401b03811680821461226a575f80fd5b80602085015250505050565b803561228181611e3b565b6001600160a01b03908116835260208201359061229d82611e3b565b90811660208401526040820135906122b482611e3b565b90811660408401526060820135906122cb82611e3b565b90811660608401526080820135906122e282611e3b565b808216608085015250505050565b5f6102808201905060018060a01b03808816835286356020840152602087013560408401526040870135606084015260608701356080840152608087013560a084015260a087013561234181611e3b565b1660c0830152843560e0830152602085013561010083015260408501356101208301526060850135610140830152608085013561016083015260a08501356101808301526123936101a083018561223a565b6123a16101e0830184612276565b9695505050505050565b5f602082840312156123bb575f80fd5b815161180581611e3b565b5f602082840312156123d6575f80fd5b81516001600160401b038111156123eb575f80fd5b8201601f810184136123fb575f80fd5b8051612409611fdb82611f61565b81815285602083850101111561241d575f80fd5b611d8e826020830160208601612013565b634e487b7160e01b5f52603260045260245ffd5b5f60c08284031215612452575f80fd5b60405160c081018181106001600160401b038211171561247457612474611ef4565b8060405250825181526020830151602082015260408301516040820152606083015160608201526080830151608082015260a083015160a08201528091505092915050565b8051611e5a81611e3b565b5f6101008083850312156124d6575f80fd5b604051908101906001600160401b03821181831017156124f8576124f8611ef4565b8160405283518152602084015160208201526040840151915061251a82611e3b565b81604082015261252c606085016124b9565b606082015261253d608085016124b9565b608082015261254e60a085016124b9565b60a082015261255f60c085016124b9565b60c082015261257060e085016124b9565b60e0820152949350505050565b66029b4bd32903e160cd1b81525f855161259e816007850160208a01612013565b8083019050620103e160ed1b80600783015286516125c381600a850160208b01612013565b600a920191820181905285516125e081600d850160208a01612013565b600d92019182015283516125fb816010840160208801612013565b016010019695505050505050565b6b0283934b1b2a332b2b2103e160a51b81525f835161262f81600c850160208801612013565b620103e160ed1b600c91840191820152835161265281600f840160208801612013565b01600f01949350505050565b81516001600160a01b0316815261014081016020830151612687602084018263ffffffff169052565b50604083015161269f604084018263ffffffff169052565b5060608301516126ba60608401826001600160a01b03169052565b5060808301516126d560808401826001600160a01b03169052565b5060a08301516126f060a08401826001600160a01b03169052565b5060c083015161270b60c08401826001600160a01b03169052565b5060e083810151908301526101008084015190830152610120928301516001600160a01b0316929091019190915290565b5f6020828403121561274c575f80fd5b5051919050565b818103818111156105ff57634e487b7160e01b5f52601160045260245ffd5b634e487b7160e01b5f52603160045260245ffd5b5f8251612797818460208701612013565b919091019291505056fe360894a13ba1a3210667c828492db98dca3e2076cc3735a920a3ca505d382bbca2646970667358221220614535e62669586a66203dbb6b80f9c0b52c1966ea0f5c4bf4d1e06e8fa9838e64736f6c63430008170033",
    "linkReferences": {
      "src/v1.5/libraries/MarketFactoryLibrary.sol": {
        "MarketFactoryLibrary": [
          {
            "start": 1808,
            "length": 20
          }
        ]
      },
      "src/v1.5/libraries/NonTransferrableScaledTokenV1_5FactoryLibrary.sol": {
        "NonTransferrableScaledTokenV1_5FactoryLibrary": [
          {
            "start": 3743,
            "length": 20
          }
        ]
      },
      "src/v1.5/libraries/PriceFeedFactoryLibrary.sol": {
        "PriceFeedFactoryLibrary": [
          {
            "start": 4819,
            "length": 20
          }
        ]
      }
    }
  },
  "methodIdentifiers": {
    "UPGRADE_INTERFACE_VERSION()": "ad3cb1cc",
    "acceptOwnership()": "79ba5097",
    "addBorrowATokenV1_5(address)": "025e0812",
    "addMarket(address)": "93e30633",
    "addPriceFeed(address)": "0bb6842d",
    "createBorrowATokenV1_5(address,address)": "8e6ee8e5",
    "createMarket((uint256,uint256,uint256,uint256,uint256,address),(uint256,uint256,uint256,uint256,uint256,uint256),(address,uint64),(address,address,address,address,address))": "07d4e090",
    "createPriceFeed((address,uint32,uint32,address,address,address,address,uint256,uint256,address))": "d152e236",
    "getBorrowATokenV1_5(uint256)": "ef096572",
    "getBorrowATokenV1_5Descriptions()": "6c59803b",
    "getBorrowATokensV1_5()": "89fd57b1",
    "getBorrowATokensV1_5Count()": "5a58a812",
    "getMarket(uint256)": "eb44fdd3",
    "getMarketDescriptions()": "7643d7ec",
    "getMarkets()": "ec2c9016",
    "getMarketsCount()": "27fa35c3",
    "getPriceFeed(uint256)": "f91d443f",
    "getPriceFeedDescriptions()": "b4208ef2",
    "getPriceFeeds()": "6ca42ae3",
    "getPriceFeedsCount()": "17180f34",
    "initialize(address)": "c4d66de8",
    "isBorrowATokenV1_5(address)": "b7621145",
    "isMarket(address)": "6ec934da",
    "isPriceFeed(address)": "57a94beb",
    "owner()": "8da5cb5b",
    "pendingOwner()": "e30c3978",
    "proxiableUUID()": "52d1902d",
    "removeBorrowATokenV1_5(address)": "5dbd6102",
    "removeMarket(address)": "db913236",
    "removePriceFeed(address)": "fceb0024",
    "renounceOwnership()": "715018a6",
    "transferOwnership(address)": "f2fde38b",
    "upgradeToAndCall(address,bytes)": "4f1ef286",
    "version()": "54fd4d50"
  },
  "id": 154
}