{
  "abi": [
    {
      "type": "constructor",
      "inputs": [],
      "stateMutability": "nonpayable"
    },
    {
      "type": "function",
      "name": "UPGRADE_INTERFACE_VERSION",
      "inputs": [],
      "outputs": [
        {
          "name": "",
          "type": "string",
          "internalType": "string"
        }
      ],
      "stateMutability": "view"
    },
    {
      "type": "function",
      "name": "acceptOwnership",
      "inputs": [],
      "outputs": [],
      "stateMutability": "nonpayable"
    },
    {
      "type": "function",
      "name": "addBorrowATokenV1_5",
      "inputs": [
        {
          "name": "borrowATokenV1_5",
          "type": "address",
          "internalType": "contract IERC20Metadata"
        }
      ],
      "outputs": [
        {
          "name": "existed",
          "type": "bool",
          "internalType": "bool"
        }
      ],
      "stateMutability": "nonpayable"
    },
    {
      "type": "function",
      "name": "addMarket",
      "inputs": [
        {
          "name": "market",
          "type": "address",
          "internalType": "contract ISize"
        }
      ],
      "outputs": [
        {
          "name": "existed",
          "type": "bool",
          "internalType": "bool"
        }
      ],
      "stateMutability": "nonpayable"
    },
    {
      "type": "function",
      "name": "addPriceFeed",
      "inputs": [
        {
          "name": "priceFeed",
          "type": "address",
          "internalType": "contract IPriceFeed"
        }
      ],
      "outputs": [
        {
          "name": "existed",
          "type": "bool",
          "internalType": "bool"
        }
      ],
      "stateMutability": "nonpayable"
    },
    {
      "type": "function",
      "name": "getBorrowATokenV1_5",
      "inputs": [
        {
          "name": "index",
          "type": "uint256",
          "internalType": "uint256"
        }
      ],
      "outputs": [
        {
          "name": "",
          "type": "address",
          "internalType": "contract IERC20Metadata"
        }
      ],
      "stateMutability": "view"
    },
    {
      "type": "function",
      "name": "getBorrowATokensCountV1_5",
      "inputs": [],
      "outputs": [
        {
          "name": "",
          "type": "uint256",
          "internalType": "uint256"
        }
      ],
      "stateMutability": "view"
    },
    {
      "type": "function",
      "name": "getBorrowATokensDescriptionsV1_5",
      "inputs": [],
      "outputs": [
        {
          "name": "descriptions",
          "type": "string[]",
          "internalType": "string[]"
        }
      ],
      "stateMutability": "view"
    },
    {
      "type": "function",
      "name": "getBorrowATokensV1_5",
      "inputs": [],
      "outputs": [
        {
          "name": "_borrowATokensV1_5",
          "type": "address[]",
          "internalType": "contract IERC20Metadata[]"
        }
      ],
      "stateMutability": "view"
    },
    {
      "type": "function",
      "name": "getMarket",
      "inputs": [
        {
          "name": "index",
          "type": "uint256",
          "internalType": "uint256"
        }
      ],
      "outputs": [
        {
          "name": "",
          "type": "address",
          "internalType": "contract ISize"
        }
      ],
      "stateMutability": "view"
    },
    {
      "type": "function",
      "name": "getMarkets",
      "inputs": [],
      "outputs": [
        {
          "name": "_markets",
          "type": "address[]",
          "internalType": "contract ISize[]"
        }
      ],
      "stateMutability": "view"
    },
    {
      "type": "function",
      "name": "getMarketsCount",
      "inputs": [],
      "outputs": [
        {
          "name": "",
          "type": "uint256",
          "internalType": "uint256"
        }
      ],
      "stateMutability": "view"
    },
    {
      "type": "function",
      "name": "getMarketsDescriptions",
      "inputs": [],
      "outputs": [
        {
          "name": "descriptions",
          "type": "string[]",
          "internalType": "string[]"
        }
      ],
      "stateMutability": "view"
    },
    {
      "type": "function",
      "name": "getPriceFeed",
      "inputs": [
        {
          "name": "index",
          "type": "uint256",
          "internalType": "uint256"
        }
      ],
      "outputs": [
        {
          "name": "",
          "type": "address",
          "internalType": "contract IPriceFeed"
        }
      ],
      "stateMutability": "view"
    },
    {
      "type": "function",
      "name": "getPriceFeeds",
      "inputs": [],
      "outputs": [
        {
          "name": "_priceFeeds",
          "type": "address[]",
          "internalType": "contract IPriceFeed[]"
        }
      ],
      "stateMutability": "view"
    },
    {
      "type": "function",
      "name": "getPriceFeedsCount",
      "inputs": [],
      "outputs": [
        {
          "name": "",
          "type": "uint256",
          "internalType": "uint256"
        }
      ],
      "stateMutability": "view"
    },
    {
      "type": "function",
      "name": "getPriceFeedsDescriptions",
      "inputs": [],
      "outputs": [
        {
          "name": "descriptions",
          "type": "string[]",
          "internalType": "string[]"
        }
      ],
      "stateMutability": "view"
    },
    {
      "type": "function",
      "name": "initialize",
      "inputs": [
        {
          "name": "_owner",
          "type": "address",
          "internalType": "address"
        }
      ],
      "outputs": [],
      "stateMutability": "nonpayable"
    },
    {
      "type": "function",
      "name": "isBorrowATokenV1_5",
      "inputs": [
        {
          "name": "candidate",
          "type": "address",
          "internalType": "address"
        }
      ],
      "outputs": [
        {
          "name": "",
          "type": "bool",
          "internalType": "bool"
        }
      ],
      "stateMutability": "view"
    },
    {
      "type": "function",
      "name": "isMarket",
      "inputs": [
        {
          "name": "candidate",
          "type": "address",
          "internalType": "address"
        }
      ],
      "outputs": [
        {
          "name": "",
          "type": "bool",
          "internalType": "bool"
        }
      ],
      "stateMutability": "view"
    },
    {
      "type": "function",
      "name": "isPriceFeed",
      "inputs": [
        {
          "name": "candidate",
          "type": "address",
          "internalType": "address"
        }
      ],
      "outputs": [
        {
          "name": "",
          "type": "bool",
          "internalType": "bool"
        }
      ],
      "stateMutability": "view"
    },
    {
      "type": "function",
      "name": "owner",
      "inputs": [],
      "outputs": [
        {
          "name": "",
          "type": "address",
          "internalType": "address"
        }
      ],
      "stateMutability": "view"
    },
    {
      "type": "function",
      "name": "pendingOwner",
      "inputs": [],
      "outputs": [
        {
          "name": "",
          "type": "address",
          "internalType": "address"
        }
      ],
      "stateMutability": "view"
    },
    {
      "type": "function",
      "name": "proxiableUUID",
      "inputs": [],
      "outputs": [
        {
          "name": "",
          "type": "bytes32",
          "internalType": "bytes32"
        }
      ],
      "stateMutability": "view"
    },
    {
      "type": "function",
      "name": "removeBorrowATokenV1_5",
      "inputs": [
        {
          "name": "borrowATokenV1_5",
          "type": "address",
          "internalType": "contract IERC20Metadata"
        }
      ],
      "outputs": [
        {
          "name": "existed",
          "type": "bool",
          "internalType": "bool"
        }
      ],
      "stateMutability": "nonpayable"
    },
    {
      "type": "function",
      "name": "removeMarket",
      "inputs": [
        {
          "name": "market",
          "type": "address",
          "internalType": "contract ISize"
        }
      ],
      "outputs": [
        {
          "name": "existed",
          "type": "bool",
          "internalType": "bool"
        }
      ],
      "stateMutability": "nonpayable"
    },
    {
      "type": "function",
      "name": "removePriceFeed",
      "inputs": [
        {
          "name": "priceFeed",
          "type": "address",
          "internalType": "contract IPriceFeed"
        }
      ],
      "outputs": [
        {
          "name": "existed",
          "type": "bool",
          "internalType": "bool"
        }
      ],
      "stateMutability": "nonpayable"
    },
    {
      "type": "function",
      "name": "renounceOwnership",
      "inputs": [],
      "outputs": [],
      "stateMutability": "nonpayable"
    },
    {
      "type": "function",
      "name": "setFactory",
      "inputs": [
        {
          "name": "_sizeFactory",
          "type": "address",
          "internalType": "contract ISizeFactory"
        }
      ],
      "outputs": [],
      "stateMutability": "nonpayable"
    },
    {
      "type": "function",
      "name": "sizeFactory",
      "inputs": [],
      "outputs": [
        {
          "name": "",
          "type": "address",
          "internalType": "contract ISizeFactory"
        }
      ],
      "stateMutability": "view"
    },
    {
      "type": "function",
      "name": "transferOwnership",
      "inputs": [
        {
          "name": "newOwner",
          "type": "address",
          "internalType": "address"
        }
      ],
      "outputs": [],
      "stateMutability": "nonpayable"
    },
    {
      "type": "function",
      "name": "upgradeToAndCall",
      "inputs": [
        {
          "name": "newImplementation",
          "type": "address",
          "internalType": "address"
        },
        {
          "name": "data",
          "type": "bytes",
          "internalType": "bytes"
        }
      ],
      "outputs": [],
      "stateMutability": "payable"
    },
    {
      "type": "function",
      "name": "version",
      "inputs": [],
      "outputs": [
        {
          "name": "",
          "type": "string",
          "internalType": "string"
        }
      ],
      "stateMutability": "pure"
    },
    {
      "type": "event",
      "name": "BorrowATokenV1_5Added",
      "inputs": [
        {
          "name": "borrowATokenV1_5",
          "type": "address",
          "indexed": true,
          "internalType": "address"
        },
        {
          "name": "existed",
          "type": "bool",
          "indexed": true,
          "internalType": "bool"
        }
      ],
      "anonymous": false
    },
    {
      "type": "event",
      "name": "BorrowATokenV1_5Removed",
      "inputs": [
        {
          "name": "borrowATokenV1_5",
          "type": "address",
          "indexed": true,
          "internalType": "address"
        },
        {
          "name": "existed",
          "type": "bool",
          "indexed": true,
          "internalType": "bool"
        }
      ],
      "anonymous": false
    },
    {
      "type": "event",
      "name": "Initialized",
      "inputs": [
        {
          "name": "version",
          "type": "uint64",
          "indexed": false,
          "internalType": "uint64"
        }
      ],
      "anonymous": false
    },
    {
      "type": "event",
      "name": "MarketAdded",
      "inputs": [
        {
          "name": "market",
          "type": "address",
          "indexed": true,
          "internalType": "address"
        },
        {
          "name": "existed",
          "type": "bool",
          "indexed": true,
          "internalType": "bool"
        }
      ],
      "anonymous": false
    },
    {
      "type": "event",
      "name": "MarketRemoved",
      "inputs": [
        {
          "name": "market",
          "type": "address",
          "indexed": true,
          "internalType": "address"
        },
        {
          "name": "existed",
          "type": "bool",
          "indexed": true,
          "internalType": "bool"
        }
      ],
      "anonymous": false
    },
    {
      "type": "event",
      "name": "OwnershipTransferStarted",
      "inputs": [
        {
          "name": "previousOwner",
          "type": "address",
          "indexed": true,
          "internalType": "address"
        },
        {
          "name": "newOwner",
          "type": "address",
          "indexed": true,
          "internalType": "address"
        }
      ],
      "anonymous": false
    },
    {
      "type": "event",
      "name": "OwnershipTransferred",
      "inputs": [
        {
          "name": "previousOwner",
          "type": "address",
          "indexed": true,
          "internalType": "address"
        },
        {
          "name": "newOwner",
          "type": "address",
          "indexed": true,
          "internalType": "address"
        }
      ],
      "anonymous": false
    },
    {
      "type": "event",
      "name": "PriceFeedAdded",
      "inputs": [
        {
          "name": "priceFeed",
          "type": "address",
          "indexed": true,
          "internalType": "address"
        },
        {
          "name": "existed",
          "type": "bool",
          "indexed": true,
          "internalType": "bool"
        }
      ],
      "anonymous": false
    },
    {
      "type": "event",
      "name": "PriceFeedRemoved",
      "inputs": [
        {
          "name": "priceFeed",
          "type": "address",
          "indexed": true,
          "internalType": "address"
        },
        {
          "name": "existed",
          "type": "bool",
          "indexed": true,
          "internalType": "bool"
        }
      ],
      "anonymous": false
    },
    {
      "type": "event",
      "name": "SizeFactorySet",
      "inputs": [
        {
          "name": "previousSizeFactory",
          "type": "address",
          "indexed": true,
          "internalType": "address"
        },
        {
          "name": "newSizeFactory",
          "type": "address",
          "indexed": true,
          "internalType": "address"
        }
      ],
      "anonymous": false
    },
    {
      "type": "event",
      "name": "Upgraded",
      "inputs": [
        {
          "name": "implementation",
          "type": "address",
          "indexed": true,
          "internalType": "address"
        }
      ],
      "anonymous": false
    },
    {
      "type": "error",
      "name": "AddressEmptyCode",
      "inputs": [
        {
          "name": "target",
          "type": "address",
          "internalType": "address"
        }
      ]
    },
    {
      "type": "error",
      "name": "ERC1967InvalidImplementation",
      "inputs": [
        {
          "name": "implementation",
          "type": "address",
          "internalType": "address"
        }
      ]
    },
    {
      "type": "error",
      "name": "ERC1967NonPayable",
      "inputs": []
    },
    {
      "type": "error",
      "name": "FailedInnerCall",
      "inputs": []
    },
    {
      "type": "error",
      "name": "InvalidInitialization",
      "inputs": []
    },
    {
      "type": "error",
      "name": "NULL_ADDRESS",
      "inputs": []
    },
    {
      "type": "error",
      "name": "NotInitializing",
      "inputs": []
    },
    {
      "type": "error",
      "name": "OwnableInvalidOwner",
      "inputs": [
        {
          "name": "owner",
          "type": "address",
          "internalType": "address"
        }
      ]
    },
    {
      "type": "error",
      "name": "OwnableUnauthorizedAccount",
      "inputs": [
        {
          "name": "account",
          "type": "address",
          "internalType": "address"
        }
      ]
    },
    {
      "type": "error",
      "name": "UNAUTHORIZED",
      "inputs": [
        {
          "name": "account",
          "type": "address",
          "internalType": "address"
        }
      ]
    },
    {
      "type": "error",
      "name": "UUPSUnauthorizedCallContext",
      "inputs": []
    },
    {
      "type": "error",
      "name": "UUPSUnsupportedProxiableUUID",
      "inputs": [
        {
          "name": "slot",
          "type": "bytes32",
          "internalType": "bytes32"
        }
      ]
    }
  ],
  "bytecode": {
    "object": "0x60a060405230608052348015610013575f80fd5b5061001c610021565b6100d3565b7ff0c57e16840df040f15088dc2f81fe391c3923bec73e23a9662efc9c229c6a00805468010000000000000000900460ff16156100715760405163f92ee8a960e01b815260040160405180910390fd5b80546001600160401b03908116146100d05780546001600160401b0319166001600160401b0390811782556040519081527fc7f505b2f371ae2175ee4913f4499e1f2633a7b5936321eed1cdaeb6115181d29060200160405180910390a15b50565b608051612316620000fa5f395f818161154c0152818161157501526116b901526123165ff3fe6080604052600436106101e6575f3560e01c80638d6c513411610108578063db9132361161009d578063ef0965721161006d578063ef09657214610526578063f2fde38b14610545578063f91d443f14610564578063fa7a5b1014610583578063fceb0024146105a2575f80fd5b8063db913236146104c0578063e30c3978146104df578063eb44fdd3146104f3578063ec2c901614610512575f80fd5b8063b7621145116100d8578063b76211451461045a578063c25827cc14610479578063c4d66de81461048d578063cb9bb7d3146104ac575f80fd5b80638d6c5134146103cb5780638da5cb5b146103df57806393e306331461040b578063ad3cb1cc1461042a575f80fd5b806357a94beb1161017e5780636ec934da1161014e5780636ec934da14610370578063715018a61461038f57806379ba5097146103a357806389fd57b1146103b7575f80fd5b806357a94beb146102f25780635bb47808146103115780635dbd6102146103305780636ca42ae31461034f575f80fd5b806327fa35c3116101b957806327fa35c3146102805780634f1ef2861461029457806352d1902d146102a957806354fd4d50146102bd575f80fd5b8063025e0812146101ea5780630bb6842d1461021e57806312e70d701461023d57806317180f341461025e575b5f80fd5b3480156101f5575f80fd5b50610209610204366004611d6e565b6105c1565b60405190151581526020015b60405180910390f35b348015610229575f80fd5b50610209610238366004611d6e565b61068c565b348015610248575f80fd5b50610251610752565b6040516102159190611dd6565b348015610269575f80fd5b50610272610850565b604051908152602001610215565b34801561028b575f80fd5b50610272610860565b6102a76102a2366004611ea2565b61086a565b005b3480156102b4575f80fd5b50610272610889565b3480156102c8575f80fd5b5060408051808201909152600481526376312e3560e01b60208201525b6040516102159190611f2e565b3480156102fd575f80fd5b5061020961030c366004611d6e565b6108a4565b34801561031c575f80fd5b506102a761032b366004611d6e565b6108b6565b34801561033b575f80fd5b5061020961034a366004611d6e565b610919565b34801561035a575f80fd5b50610363610994565b6040516102159190611f40565b34801561037b575f80fd5b5061020961038a366004611d6e565b610a2b565b34801561039a575f80fd5b506102a7610a36565b3480156103ae575f80fd5b506102a7610a49565b3480156103c2575f80fd5b50610363610a91565b3480156103d6575f80fd5b50610251610b28565b3480156103ea575f80fd5b506103f3610d62565b6040516001600160a01b039091168152602001610215565b348015610416575f80fd5b50610209610425366004611d6e565b610d96565b348015610435575f80fd5b506102e5604051806040016040528060058152602001640352e302e360dc1b81525081565b348015610465575f80fd5b50610209610474366004611d6e565b610e5b565b348015610484575f80fd5b50610251610e67565b348015610498575f80fd5b506102a76104a7366004611d6e565b611191565b3480156104b7575f80fd5b506102726112ad565b3480156104cb575f80fd5b506102096104da366004611d6e565b6112b8565b3480156104ea575f80fd5b506103f3611332565b3480156104fe575f80fd5b506103f361050d366004611f8c565b61135a565b34801561051d575f80fd5b50610363611365565b348015610531575f80fd5b506103f3610540366004611f8c565b6113fa565b348015610550575f80fd5b506102a761055f366004611d6e565b611406565b34801561056f575f80fd5b506103f361057e366004611f8c565b61148b565b34801561058e575f80fd5b506006546103f3906001600160a01b031681565b3480156105ad575f80fd5b506102096105bc366004611d6e565b611497565b6006545f906001600160a01b031633148015906105f757506105e1610d62565b6001600160a01b0316336001600160a01b031614155b1561061c5760405163183e22b760e21b81523360048201526024015b60405180910390fd5b6001600160a01b0382166106435760405163de0ce17d60e01b815260040160405180910390fd5b61064e600483611512565b6040519015915081906001600160a01b038416907f8728dad4104402ec48bfe4e6dbda57ccb04fde1b4c7d2781716125a6203d717d905f90a3919050565b6006545f906001600160a01b031633148015906106c257506106ac610d62565b6001600160a01b0316336001600160a01b031614155b156106e25760405163183e22b760e21b8152336004820152602401610613565b6001600160a01b0382166107095760405163de0ce17d60e01b815260040160405180910390fd5b610714600283611512565b6040519015915081906001600160a01b038416907f8ed7f0e9b2ee05a88d7dead0712832e6b8c32512e38cef5ee45c4f1816af204c905f90a3919050565b606061075e600461152d565b6001600160401b0381111561077557610775611e38565b6040519080825280602002602001820160405280156107a857816020015b60608152602001906001900390816107935790505b5090505f5b815181101561084c575f6107c2600483611536565b9050806001600160a01b03166395d89b416040518163ffffffff1660e01b81526004015f60405180830381865afa1580156107ff573d5f803e3d5ffd5b505050506040513d5f823e601f3d908101601f191682016040526108269190810190611fa3565b8383815181106108385761083861200b565b6020908102919091010152506001016107ad565b5090565b5f61085b600261152d565b905090565b5f61085b5f61152d565b610872611541565b61087b826115e5565b61088582826115ed565b5050565b5f6108926116ae565b505f805160206122c183398151915290565b5f6108b06002836116f7565b92915050565b6108be611718565b6006546040516001600160a01b038084169216907ff662c5de020be94b396a8221e87a41d9f81bef7a714465001f83b2e26c8076a4905f90a3600680546001600160a01b0319166001600160a01b0392909216919091179055565b5f610922611718565b6001600160a01b0382166109495760405163de0ce17d60e01b815260040160405180910390fd5b61095460048361174a565b9050801515826001600160a01b03167f8d73d27027613eea51b73041fbb3e53c27e7fed218a338331989912b6c4b4be860405160405180910390a3919050565b60606109a0600261152d565b6001600160401b038111156109b7576109b7611e38565b6040519080825280602002602001820160405280156109e0578160200160208202803683370190505b5090505f5b815181101561084c576109f9600282611536565b828281518110610a0b57610a0b61200b565b6001600160a01b03909216602092830291909101909101526001016109e5565b5f6108b081836116f7565b610a3e611718565b610a475f61175e565b565b3380610a53611332565b6001600160a01b031614610a855760405163118cdaa760e01b81526001600160a01b0382166004820152602401610613565b610a8e8161175e565b50565b6060610a9d600461152d565b6001600160401b03811115610ab457610ab4611e38565b604051908082528060200260200182016040528015610add578160200160208202803683370190505b5090505f5b815181101561084c57610af6600482611536565b828281518110610b0857610b0861200b565b6001600160a01b0390921660209283029190910190910152600101610ae2565b6060610b34600261152d565b6001600160401b03811115610b4b57610b4b611e38565b604051908082528060200260200182016040528015610b7e57816020015b6060815260200190600190039081610b695790505b5090505f5b815181101561084c575f610b98600283611536565b9050806001600160a01b0316635001f3b56040518163ffffffff1660e01b8152600401602060405180830381865afa158015610bd6573d5f803e3d5ffd5b505050506040513d601f19601f82011682018060405250810190610bfa919061201f565b6001600160a01b0316637284e4166040518163ffffffff1660e01b81526004015f60405180830381865afa158015610c34573d5f803e3d5ffd5b505050506040513d5f823e601f3d908101601f19168201604052610c5b9190810190611fa3565b816001600160a01b031663999b93af6040518163ffffffff1660e01b8152600401602060405180830381865afa158015610c97573d5f803e3d5ffd5b505050506040513d601f19601f82011682018060405250810190610cbb919061201f565b6001600160a01b0316637284e4166040518163ffffffff1660e01b81526004015f60405180830381865afa158015610cf5573d5f803e3d5ffd5b505050506040513d5f823e601f3d908101601f19168201604052610d1c9190810190611fa3565b604051602001610d2d92919061203a565b604051602081830303815290604052838381518110610d4e57610d4e61200b565b602090810291909101015250600101610b83565b5f807f9016d09d72d40fdae2fd8ceac6b6234c7706214fd39c1cd1e609a0528c1993005b546001600160a01b031692915050565b6006545f906001600160a01b03163314801590610dcc5750610db6610d62565b6001600160a01b0316336001600160a01b031614155b15610dec5760405163183e22b760e21b8152336004820152602401610613565b6001600160a01b038216610e135760405163de0ce17d60e01b815260040160405180910390fd5b610e1d5f83611512565b6040519015915081906001600160a01b038416907f31b5222362b7d52d7e24d96723c4b09a0043f8b859a4eaeefd5c69c6c8ca5877905f90a3919050565b5f6108b06004836116f7565b6060610e725f61152d565b6001600160401b03811115610e8957610e89611e38565b604051908082528060200260200182016040528015610ebc57816020015b6060815260200190600190039081610ea75790505b5090505f5b815181101561084c575f610ed58183611536565b90505f610f4f6064836001600160a01b0316637c90a6ca6040518163ffffffff1660e01b815260040160c060405180830381865afa158015610f19573d5f803e3d5ffd5b505050506040513d601f19601f82011682018060405250810190610f3d919061208f565b60200151670de0b6b3a7640000611796565b9050816001600160a01b03166373d4a13a6040518163ffffffff1660e01b815260040161010060405180830381865afa158015610f8e573d5f803e3d5ffd5b505050506040513d601f19601f82011682018060405250810190610fb29190612116565b604001516001600160a01b03166395d89b416040518163ffffffff1660e01b81526004015f60405180830381865afa158015610ff0573d5f803e3d5ffd5b505050506040513d5f823e601f3d908101601f191682016040526110179190810190611fa3565b826001600160a01b03166373d4a13a6040518163ffffffff1660e01b815260040161010060405180830381865afa158015611054573d5f803e3d5ffd5b505050506040513d601f19601f820116820180604052508101906110789190612116565b606001516001600160a01b03166395d89b416040518163ffffffff1660e01b81526004015f60405180830381865afa1580156110b6573d5f803e3d5ffd5b505050506040513d5f823e601f3d908101601f191682016040526110dd9190810190611fa3565b6110e6836117aa565b846001600160a01b03166354fd4d506040518163ffffffff1660e01b81526004015f60405180830381865afa158015611121573d5f803e3d5ffd5b505050506040513d5f823e601f3d908101601f191682016040526111489190810190611fa3565b60405160200161115b94939291906121cf565b60405160208183030381529060405284848151811061117c5761117c61200b565b60209081029190910101525050600101610ec1565b7ff0c57e16840df040f15088dc2f81fe391c3923bec73e23a9662efc9c229c6a008054600160401b810460ff1615906001600160401b03165f811580156111d55750825b90505f826001600160401b031660011480156111f05750303b155b9050811580156111fe575080155b1561121c5760405163f92ee8a960e01b815260040160405180910390fd5b845467ffffffffffffffff19166001178555831561124657845460ff60401b1916600160401b1785555b61124f86611839565b61125761184a565b61125f61184a565b83156112a557845460ff60401b19168555604051600181527fc7f505b2f371ae2175ee4913f4499e1f2633a7b5936321eed1cdaeb6115181d29060200160405180910390a15b505050505050565b5f61085b600461152d565b5f6112c1611718565b6001600160a01b0382166112e85760405163de0ce17d60e01b815260040160405180910390fd5b6112f25f8361174a565b9050801515826001600160a01b03167f0e4a8f27c6352e6fe6149b046737df5653aa907ab5f60a2e6f44b9fbe74d36fa60405160405180910390a3919050565b5f807f237e158222e3e6968b72b9db0d8043aacf074ad9f650f0d1606b4d82ee432c00610d86565b5f6108b08183611536565b60606113705f61152d565b6001600160401b0381111561138757611387611e38565b6040519080825280602002602001820160405280156113b0578160200160208202803683370190505b5090505f5b815181101561084c576113c85f82611536565b8282815181106113da576113da61200b565b6001600160a01b03909216602092830291909101909101526001016113b5565b5f6108b0600483611536565b61140e611718565b7f237e158222e3e6968b72b9db0d8043aacf074ad9f650f0d1606b4d82ee432c0080546001600160a01b0319166001600160a01b0383169081178255611452610d62565b6001600160a01b03167f38d16b8cac22d99fc7c124b9cd0de2d3fa1faef420bfe791d8c362d765e2270060405160405180910390a35050565b5f6108b0600283611536565b5f6114a0611718565b6001600160a01b0382166114c75760405163de0ce17d60e01b815260040160405180910390fd5b6114d260028361174a565b9050801515826001600160a01b03167f4192bb627423ed9ad89a0007e7b220e804aeac006b70f9f34283ad4f475b156e60405160405180910390a3919050565b5f611526836001600160a01b038416611852565b9392505050565b5f6108b0825490565b5f611526838361189e565b306001600160a01b037f00000000000000000000000000000000000000000000000000000000000000001614806115c757507f00000000000000000000000000000000000000000000000000000000000000006001600160a01b03166115bb5f805160206122c1833981519152546001600160a01b031690565b6001600160a01b031614155b15610a475760405163703e46dd60e11b815260040160405180910390fd5b610a8e611718565b816001600160a01b03166352d1902d6040518163ffffffff1660e01b8152600401602060405180830381865afa925050508015611647575060408051601f3d908101601f191682019092526116449181019061225b565b60015b61166f57604051634c9c8ce360e01b81526001600160a01b0383166004820152602401610613565b5f805160206122c1833981519152811461169f57604051632a87526960e21b815260048101829052602401610613565b6116a983836118c4565b505050565b306001600160a01b037f00000000000000000000000000000000000000000000000000000000000000001614610a475760405163703e46dd60e11b815260040160405180910390fd5b6001600160a01b0381165f9081526001830160205260408120541515611526565b33611721610d62565b6001600160a01b031614610a475760405163118cdaa760e01b8152336004820152602401610613565b5f611526836001600160a01b038416611919565b7f237e158222e3e6968b72b9db0d8043aacf074ad9f650f0d1606b4d82ee432c0080546001600160a01b0319168155610885826119fc565b5f6117a2848484611a6c565b949350505050565b60605f6117b683611a90565b60010190505f816001600160401b038111156117d4576117d4611e38565b6040519080825280601f01601f1916602001820160405280156117fe576020820181803683370190505b5090508181016020015b5f19016f181899199a1a9b1b9c1cb0b131b232b360811b600a86061a8153600a850494508461180857509392505050565b611841611b67565b610a8e81611bb0565b610a47611b67565b5f81815260018301602052604081205461189757508154600181810184555f8481526020808220909301849055845484825282860190935260409020919091556108b0565b505f6108b0565b5f825f0182815481106118b3576118b361200b565b905f5260205f200154905092915050565b6118cd82611be1565b6040516001600160a01b038316907fbc7cd75a20ee27fd9adebab32041f755214dbc6bffa90cc0225b39da2e5c2d3b905f90a2805115611911576116a98282611c44565b610885611cb6565b5f81815260018301602052604081205480156119f3575f61193b600183612272565b85549091505f9061194e90600190612272565b90508082146119ad575f865f01828154811061196c5761196c61200b565b905f5260205f200154905080875f01848154811061198c5761198c61200b565b5f918252602080832090910192909255918252600188019052604090208390555b85548690806119be576119be612291565b600190038181905f5260205f20015f90559055856001015f8681526020019081526020015f205f9055600193505050506108b0565b5f9150506108b0565b7f9016d09d72d40fdae2fd8ceac6b6234c7706214fd39c1cd1e609a0528c19930080546001600160a01b031981166001600160a01b03848116918217845560405192169182907f8be0079c531659141344cd1fd0a4f28419497f9722a3daafe3b4186f6b6457e0905f90a3505050565b5f825f190484118302158202611a895763ad251c275f526004601cfd5b5091020490565b5f8072184f03e93ff9f4daa797ed6e38ed64bf6a1f0160401b8310611ace5772184f03e93ff9f4daa797ed6e38ed64bf6a1f0160401b830492506040015b6d04ee2d6d415b85acef81000000008310611afa576d04ee2d6d415b85acef8100000000830492506020015b662386f26fc100008310611b1857662386f26fc10000830492506010015b6305f5e1008310611b30576305f5e100830492506008015b6127108310611b4457612710830492506004015b60648310611b56576064830492506002015b600a83106108b05760010192915050565b7ff0c57e16840df040f15088dc2f81fe391c3923bec73e23a9662efc9c229c6a0054600160401b900460ff16610a4757604051631afcd79f60e31b815260040160405180910390fd5b611bb8611b67565b6001600160a01b038116610a8557604051631e4fbdf760e01b81525f6004820152602401610613565b806001600160a01b03163b5f03611c1657604051634c9c8ce360e01b81526001600160a01b0382166004820152602401610613565b5f805160206122c183398151915280546001600160a01b0319166001600160a01b0392909216919091179055565b60605f80846001600160a01b031684604051611c6091906122a5565b5f60405180830381855af49150503d805f8114611c98576040519150601f19603f3d011682016040523d82523d5f602084013e611c9d565b606091505b5091509150611cad858383611cd5565b95945050505050565b3415610a475760405163b398979f60e01b815260040160405180910390fd5b606082611cea57611ce582611d31565b611526565b8151158015611d0157506001600160a01b0384163b155b15611d2a57604051639996b31560e01b81526001600160a01b0385166004820152602401610613565b5080611526565b805115611d415780518082602001fd5b604051630a12f52160e11b815260040160405180910390fd5b6001600160a01b0381168114610a8e575f80fd5b5f60208284031215611d7e575f80fd5b813561152681611d5a565b5f5b83811015611da3578181015183820152602001611d8b565b50505f910152565b5f8151808452611dc2816020860160208601611d89565b601f01601f19169290920160200192915050565b5f60208083016020845280855180835260408601915060408160051b8701019250602087015f5b82811015611e2b57603f19888603018452611e19858351611dab565b94509285019290850190600101611dfd565b5092979650505050505050565b634e487b7160e01b5f52604160045260245ffd5b604051601f8201601f191681016001600160401b0381118282101715611e7457611e74611e38565b604052919050565b5f6001600160401b03821115611e9457611e94611e38565b50601f01601f191660200190565b5f8060408385031215611eb3575f80fd5b8235611ebe81611d5a565b915060208301356001600160401b03811115611ed8575f80fd5b8301601f81018513611ee8575f80fd5b8035611efb611ef682611e7c565b611e4c565b818152866020838501011115611f0f575f80fd5b816020840160208301375f602083830101528093505050509250929050565b602081525f6115266020830184611dab565b602080825282518282018190525f9190848201906040850190845b81811015611f805783516001600160a01b031683529284019291840191600101611f5b565b50909695505050505050565b5f60208284031215611f9c575f80fd5b5035919050565b5f60208284031215611fb3575f80fd5b81516001600160401b03811115611fc8575f80fd5b8201601f81018413611fd8575f80fd5b8051611fe6611ef682611e7c565b818152856020838501011115611ffa575f80fd5b611cad826020830160208601611d89565b634e487b7160e01b5f52603260045260245ffd5b5f6020828403121561202f575f80fd5b815161152681611d5a565b6b0283934b1b2a332b2b2103e160a51b81525f835161206081600c850160208801611d89565b620103e160ed1b600c91840191820152835161208381600f840160208801611d89565b01600f01949350505050565b5f60c0828403121561209f575f80fd5b60405160c081018181106001600160401b03821117156120c1576120c1611e38565b8060405250825181526020830151602082015260408301516040820152606083015160608201526080830151608082015260a083015160a08201528091505092915050565b805161211181611d5a565b919050565b5f610100808385031215612128575f80fd5b604051908101906001600160401b038211818310171561214a5761214a611e38565b8160405283518152602084015160208201526040840151915061216c82611d5a565b81604082015261217e60608501612106565b606082015261218f60808501612106565b60808201526121a060a08501612106565b60a08201526121b160c08501612106565b60c08201526121c260e08501612106565b60e0820152949350505050565b66029b4bd32903e160cd1b81525f85516121f0816007850160208a01611d89565b8083019050620103e160ed1b806007830152865161221581600a850160208b01611d89565b600a9201918201819052855161223281600d850160208a01611d89565b600d920191820152835161224d816010840160208801611d89565b016010019695505050505050565b5f6020828403121561226b575f80fd5b5051919050565b818103818111156108b057634e487b7160e01b5f52601160045260245ffd5b634e487b7160e01b5f52603160045260245ffd5b5f82516122b6818460208701611d89565b919091019291505056fe360894a13ba1a3210667c828492db98dca3e2076cc3735a920a3ca505d382bbca2646970667358221220045d5cbb0c63234c4007ea55dcb4865d6b910a79c5075f57a18429c67bc8f91064736f6c63430008170033",
    "linkReferences": {}
  },
  "methodIdentifiers": {
    "UPGRADE_INTERFACE_VERSION()": "ad3cb1cc",
    "acceptOwnership()": "79ba5097",
    "addBorrowATokenV1_5(address)": "025e0812",
    "addMarket(address)": "93e30633",
    "addPriceFeed(address)": "0bb6842d",
    "getBorrowATokenV1_5(uint256)": "ef096572",
    "getBorrowATokensCountV1_5()": "cb9bb7d3",
    "getBorrowATokensDescriptionsV1_5()": "12e70d70",
    "getBorrowATokensV1_5()": "89fd57b1",
    "getMarket(uint256)": "eb44fdd3",
    "getMarkets()": "ec2c9016",
    "getMarketsCount()": "27fa35c3",
    "getMarketsDescriptions()": "c25827cc",
    "getPriceFeed(uint256)": "f91d443f",
    "getPriceFeeds()": "6ca42ae3",
    "getPriceFeedsCount()": "17180f34",
    "getPriceFeedsDescriptions()": "8d6c5134",
    "initialize(address)": "c4d66de8",
    "isBorrowATokenV1_5(address)": "b7621145",
    "isMarket(address)": "6ec934da",
    "isPriceFeed(address)": "57a94beb",
    "owner()": "8da5cb5b",
    "pendingOwner()": "e30c3978",
    "proxiableUUID()": "52d1902d",
    "removeBorrowATokenV1_5(address)": "5dbd6102",
    "removeMarket(address)": "db913236",
    "removePriceFeed(address)": "fceb0024",
    "renounceOwnership()": "715018a6",
    "setFactory(address)": "5bb47808",
    "sizeFactory()": "fa7a5b10",
    "transferOwnership(address)": "f2fde38b",
    "upgradeToAndCall(address,bytes)": "4f1ef286",
    "version()": "54fd4d50"
  },
  "id": 138
}