{
  "abi": [
    {
      "type": "constructor",
      "inputs": [
        {
          "name": "_decimals",
          "type": "uint256",
          "internalType": "uint256"
        },
        {
          "name": "_baseToken",
          "type": "address",
          "internalType": "contract IERC20Metadata"
        },
        {
          "name": "_quoteToken",
          "type": "address",
          "internalType": "contract IERC20Metadata"
        },
        {
          "name": "_uniswapV3Pool",
          "type": "address",
          "internalType": "contract IUniswapV3Pool"
        },
        {
          "name": "_twapWindow",
          "type": "uint32",
          "internalType": "uint32"
        },
        {
          "name": "_averageBlockTime",
          "type": "uint32",
          "internalType": "uint32"
        }
      ],
      "stateMutability": "nonpayable"
    },
    {
      "type": "function",
      "name": "averageBlockTime",
      "inputs": [],
      "outputs": [
        {
          "name": "",
          "type": "uint32",
          "internalType": "uint32"
        }
      ],
      "stateMutability": "view"
    },
    {
      "type": "function",
      "name": "baseToken",
      "inputs": [],
      "outputs": [
        {
          "name": "",
          "type": "address",
          "internalType": "contract IERC20Metadata"
        }
      ],
      "stateMutability": "view"
    },
    {
      "type": "function",
      "name": "decimals",
      "inputs": [],
      "outputs": [
        {
          "name": "",
          "type": "uint256",
          "internalType": "uint256"
        }
      ],
      "stateMutability": "view"
    },
    {
      "type": "function",
      "name": "getPrice",
      "inputs": [],
      "outputs": [
        {
          "name": "",
          "type": "uint256",
          "internalType": "uint256"
        }
      ],
      "stateMutability": "view"
    },
    {
      "type": "function",
      "name": "quoteToken",
      "inputs": [],
      "outputs": [
        {
          "name": "",
          "type": "address",
          "internalType": "contract IERC20Metadata"
        }
      ],
      "stateMutability": "view"
    },
    {
      "type": "function",
      "name": "twapWindow",
      "inputs": [],
      "outputs": [
        {
          "name": "",
          "type": "uint32",
          "internalType": "uint32"
        }
      ],
      "stateMutability": "view"
    },
    {
      "type": "function",
      "name": "uniswapV3Pool",
      "inputs": [],
      "outputs": [
        {
          "name": "",
          "type": "address",
          "internalType": "contract IUniswapV3Pool"
        }
      ],
      "stateMutability": "view"
    },
    {
      "type": "error",
      "name": "INVALID_AVERAGE_BLOCK_TIME",
      "inputs": []
    },
    {
      "type": "error",
      "name": "INVALID_TOKEN",
      "inputs": [
        {
          "name": "token",
          "type": "address",
          "internalType": "address"
        }
      ]
    },
    {
      "type": "error",
      "name": "INVALID_TWAP_WINDOW",
      "inputs": []
    },
    {
      "type": "error",
      "name": "NULL_ADDRESS",
      "inputs": []
    },
    {
      "type": "error",
      "name": "SafeCastOverflowedUintDowncast",
      "inputs": [
        {
          "name": "bits",
          "type": "uint8",
          "internalType": "uint8"
        },
        {
          "name": "value",
          "type": "uint256",
          "internalType": "uint256"
        }
      ]
    },
    {
      "type": "error",
      "name": "T",
      "inputs": []
    }
  ],
  "bytecode": {
    "object": "0x61014060405234801562000011575f80fd5b506040516200148d3803806200148d8339810160408190526200003491620002e8565b6001600160a01b03851615806200005257506001600160a01b038416155b806200006557506001600160a01b038316155b15620000845760405163de0ce17d60e01b815260040160405180910390fd5b836001600160a01b0316856001600160a01b031603620000c75760405163276b4fc160e01b81526001600160a01b03851660048201526024015b60405180910390fd5b8163ffffffff165f03620000ee57604051631202386d60e21b815260040160405180910390fd5b8063ffffffff165f036200011557604051633afaae6560e11b815260040160405180910390fd5b60808690526001600160a01b0380861660a05284811660c052831660e081815263ffffffff8085166101005283166101205260408051633850c7bd60e01b815290515f9392633850c7bd92600480820193918290030181865afa1580156200017f573d5f803e3d5ffd5b505050506040513d601f19601f82011682018060405250810190620001a5919062000376565b50505093505050505f620001e3620001d08563ffffffff168563ffffffff166200026360201b60201c565b620001dd9060016200041e565b62000283565b90508061ffff168261ffff161015620002555760e0516040516332148f6760e01b815261ffff831660048201526001600160a01b03909116906332148f67906024015f604051808303815f87803b1580156200023d575f80fd5b505af115801562000250573d5f803e3d5ffd5b505050505b505050505050505062000444565b5f8162000277576365244e4e5f526004601cfd5b50808206151591040190565b5f61ffff821115620002b3576040516306dfcc6560e41b81526010600482015260248101839052604401620000be565b5090565b6001600160a01b0381168114620002cc575f80fd5b50565b805163ffffffff81168114620002e3575f80fd5b919050565b5f805f805f8060c08789031215620002fe575f80fd5b8651955060208701516200031281620002b7565b60408801519095506200032581620002b7565b60608801519094506200033881620002b7565b92506200034860808801620002cf565b91506200035860a08801620002cf565b90509295509295509295565b805161ffff81168114620002e3575f80fd5b5f805f805f805f60e0888a0312156200038d575f80fd5b87516200039a81620002b7565b8097505060208801518060020b8114620003b2575f80fd5b9550620003c26040890162000364565b9450620003d26060890162000364565b9350620003e26080890162000364565b925060a088015160ff81168114620003f8575f80fd5b60c089015190925080151581146200040e575f80fd5b8091505092959891949750929550565b808201808211156200043e57634e487b7160e01b5f52601160045260245ffd5b92915050565b60805160a05160c05160e0516101005161012051610fd2620004bb5f395f60c701525f818161013801526101d801525f818161018e01526101b701525f81816083015281816102be01526102e601525f818161016701528181610205015261029d01525f818161010301526103740152610fd25ff3fe608060405234801561000f575f80fd5b506004361061007a575f3560e01c80638107e133116100585780638107e1331461013357806398d5fdca1461015a578063c55dae6314610162578063f55ebd2a14610189575f80fd5b8063217a4b701461007e578063233dedf1146100c2578063313ce567146100fe575b5f80fd5b6100a57f000000000000000000000000000000000000000000000000000000000000000081565b6040516001600160a01b0390911681526020015b60405180910390f35b6100e97f000000000000000000000000000000000000000000000000000000000000000081565b60405163ffffffff90911681526020016100b9565b6101257f000000000000000000000000000000000000000000000000000000000000000081565b6040519081526020016100b9565b6100e97f000000000000000000000000000000000000000000000000000000000000000081565b6101256101b0565b6100a57f000000000000000000000000000000000000000000000000000000000000000081565b6100a57f000000000000000000000000000000000000000000000000000000000000000081565b5f806101fc7f00000000000000000000000000000000000000000000000000000000000000007f00000000000000000000000000000000000000000000000000000000000000006103b6565b5090505f6102937f00000000000000000000000000000000000000000000000000000000000000006001600160a01b031663313ce5676040518163ffffffff1660e01b8152600401602060405180830381865afa15801561025f573d5f803e3d5ffd5b505050506040513d601f19601f820116820180604052508101906102839190610afd565b61028e90600a610c13565b6105f5565b90505f6102e283837f00000000000000000000000000000000000000000000000000000000000000007f000000000000000000000000000000000000000000000000000000000000000061062c565b90507f00000000000000000000000000000000000000000000000000000000000000006001600160a01b031663313ce5676040518163ffffffff1660e01b8152600401602060405180830381865afa158015610340573d5f803e3d5ffd5b505050506040513d601f19601f820116820180604052508101906103649190610afd565b61036f90600a610c13565b61039a7f0000000000000000000000000000000000000000000000000000000000000000600a610c21565b6103a49083610c2c565b6103ae9190610c57565b935050505090565b5f808263ffffffff165f036103f75760405162461bcd60e51b8152602060048201526002602482015261042560f41b60448201526064015b60405180910390fd5b6040805160028082526060820183525f9260208301908036833701905050905083815f8151811061042a5761042a610c7e565b602002602001019063ffffffff16908163ffffffff16815250505f8160018151811061045857610458610c7e565b602002602001019063ffffffff16908163ffffffff16815250505f80866001600160a01b031663883bdbfd846040518263ffffffff1660e01b81526004016104a09190610c92565b5f60405180830381865afa1580156104ba573d5f803e3d5ffd5b505050506040513d5f823e601f3d908101601f191682016040526104e19190810190610daf565b915091505f825f815181106104f8576104f8610c7e565b60200260200101518360018151811061051357610513610c7e565b60200260200101516105259190610e73565b90505f825f8151811061053a5761053a610c7e565b60200260200101518360018151811061055557610555610c7e565b60200260200101516105679190610ea0565b905061057963ffffffff891683610ec7565b96505f8260060b12801561059e575061059863ffffffff891683610f03565b60060b15155b156105b157866105ad81610f24565b9750505b5f6105c96001600160a01b0363ffffffff8b16610f45565b90506105e6640100000000600160c01b03602084901b1682610f77565b96505050505050509250929050565b5f6001600160801b03821115610628576040516306dfcc6560e41b815260806004820152602481018390526044016103ee565b5090565b5f8061063786610737565b90506001600160801b036001600160a01b038216116106bc575f6106646001600160a01b03831680610c2c565b9050836001600160a01b0316856001600160a01b03161061069c57610697600160c01b876001600160801b031683610a52565b6106b4565b6106b481876001600160801b0316600160c01b610a52565b92505061072e565b5f6106da6001600160a01b0383168068010000000000000000610a52565b9050836001600160a01b0316856001600160a01b0316106107125761070d600160801b876001600160801b031683610a52565b61072a565b61072a81876001600160801b0316600160801b610a52565b9250505b50949350505050565b5f805f8360020b1261074c578260020b610753565b8260020b5f035b9050620d89e8811115610779576040516315e4079d60e11b815260040160405180910390fd5b5f816001165f0361078e57600160801b6107a0565b6ffffcb933bd6fad37aa2d162d1a5940015b70ffffffffffffffffffffffffffffffffff16905060028216156107d4576ffff97272373d413259a46990580e213a0260801c5b60048216156107f3576ffff2e50f5f656932ef12357cf3c7fdcc0260801c5b6008821615610812576fffe5caca7e10e4e61c3624eaa0941cd00260801c5b6010821615610831576fffcb9843d60f6159c9db58835c9266440260801c5b6020821615610850576fff973b41fa98c081472e6896dfb254c00260801c5b604082161561086f576fff2ea16466c96a3843ec78b326b528610260801c5b608082161561088e576ffe5dee046a99a2a811c461f1969c30530260801c5b6101008216156108ae576ffcbe86c7900a88aedcffc83b479aa3a40260801c5b6102008216156108ce576ff987a7253ac413176f2b074cf7815e540260801c5b6104008216156108ee576ff3392b0822b70005940c7a398e4b70f30260801c5b61080082161561090e576fe7159475a2c29b7443b29c7fa6e889d90260801c5b61100082161561092e576fd097f3bdfd2022b8845ad8f792aa58250260801c5b61200082161561094e576fa9f746462d870fdf8a65dc1f90e061e50260801c5b61400082161561096e576f70d869a156d2a1b890bb3df62baf32f70260801c5b61800082161561098e576f31be135f97d08fd981231505542fcfa60260801c5b620100008216156109af576f09aa508b5b7a84e1c677de54f3e99bc90260801c5b620200008216156109cf576e5d6af8dedb81196699c329225ee6040260801c5b620400008216156109ee576d2216e584f5fa1ea926041bedfe980260801c5b62080000821615610a0b576b048a170391f7dc42444e8fa20260801c5b5f8460020b1315610a2a57805f1981610a2657610a26610c43565b0490505b640100000000810615610a3e576001610a40565b5f5b60ff16602082901c0192505050919050565b5f80805f19858709858702925082811083820303915050805f03610a86575f8411610a7b575f80fd5b508290049050610af6565b808411610a91575f80fd5b5f848688095f868103871696879004966002600389028118808a02820302808a02820302808a02820302808a02820302808a02820302808a02909103029181900381900460010186841190950394909402919094039290920491909117919091029150505b9392505050565b5f60208284031215610b0d575f80fd5b815160ff81168114610af6575f80fd5b634e487b7160e01b5f52601160045260245ffd5b600181815b80851115610b6b57815f1904821115610b5157610b51610b1d565b80851615610b5e57918102915b93841c9390800290610b36565b509250929050565b5f82610b8157506001610c0d565b81610b8d57505f610c0d565b8160018114610ba35760028114610bad57610bc9565b6001915050610c0d565b60ff841115610bbe57610bbe610b1d565b50506001821b610c0d565b5060208310610133831016604e8410600b8410161715610bec575081810a610c0d565b610bf68383610b31565b805f1904821115610c0957610c09610b1d565b0290505b92915050565b5f610af660ff841683610b73565b5f610af68383610b73565b8082028115828204841417610c0d57610c0d610b1d565b634e487b7160e01b5f52601260045260245ffd5b5f82610c6557610c65610c43565b500490565b634e487b7160e01b5f52604160045260245ffd5b634e487b7160e01b5f52603260045260245ffd5b602080825282518282018190525f9190848201906040850190845b81811015610ccf57835163ffffffff1683529284019291840191600101610cad565b50909695505050505050565b604051601f8201601f1916810167ffffffffffffffff81118282101715610d0457610d04610c6a565b604052919050565b5f67ffffffffffffffff821115610d2557610d25610c6a565b5060051b60200190565b5f82601f830112610d3e575f80fd5b81516020610d53610d4e83610d0c565b610cdb565b8083825260208201915060208460051b870101935086841115610d74575f80fd5b602086015b84811015610da45780516001600160a01b0381168114610d97575f80fd5b8352918301918301610d79565b509695505050505050565b5f8060408385031215610dc0575f80fd5b825167ffffffffffffffff80821115610dd7575f80fd5b818501915085601f830112610dea575f80fd5b81516020610dfa610d4e83610d0c565b82815260059290921b84018101918181019089841115610e18575f80fd5b948201945b83861015610e445785518060060b8114610e35575f80fd5b82529482019490820190610e1d565b91880151919650909350505080821115610e5c575f80fd5b50610e6985828601610d2f565b9150509250929050565b600682810b9082900b03667fffffffffffff198112667fffffffffffff82131715610c0d57610c0d610b1d565b6001600160a01b03828116828216039080821115610ec057610ec0610b1d565b5092915050565b5f8160060b8360060b80610edd57610edd610c43565b667fffffffffffff1982145f1982141615610efa57610efa610b1d565b90059392505050565b5f8260060b80610f1557610f15610c43565b808360060b0791505092915050565b5f8160020b627fffff198103610f3c57610f3c610b1d565b5f190192915050565b6001600160c01b03828116828216818102831692918115828504821417610f6e57610f6e610b1d565b50505092915050565b5f6001600160c01b0383811680610f9057610f90610c43565b9216919091049291505056fea2646970667358221220115ee402a8564b5c9e83f4a5b9a3e910a0432f5334f174021d626dee8bf1adec64736f6c63430008170033",
    "linkReferences": {}
  },
  "methodIdentifiers": {
    "averageBlockTime()": "233dedf1",
    "baseToken()": "c55dae63",
    "decimals()": "313ce567",
    "getPrice()": "98d5fdca",
    "quoteToken()": "217a4b70",
    "twapWindow()": "8107e133",
    "uniswapV3Pool()": "f55ebd2a"
  },
  "id": 150
}